{
	"Final Smart Contract/Token.sol": {
		"DeSearch": {
			"abi": [
				{
					"inputs": [
						{
							"internalType": "uint256",
							"name": "initialSupply",
							"type": "uint256"
						},
						{
							"internalType": "uint256",
							"name": "initialTokenPrice",
							"type": "uint256"
						}
					],
					"stateMutability": "nonpayable",
					"type": "constructor"
				},
				{
					"anonymous": false,
					"inputs": [
						{
							"indexed": true,
							"internalType": "address",
							"name": "owner",
							"type": "address"
						},
						{
							"indexed": true,
							"internalType": "address",
							"name": "spender",
							"type": "address"
						},
						{
							"indexed": false,
							"internalType": "uint256",
							"name": "value",
							"type": "uint256"
						}
					],
					"name": "Approval",
					"type": "event"
				},
				{
					"anonymous": false,
					"inputs": [
						{
							"indexed": true,
							"internalType": "address",
							"name": "previousOwner",
							"type": "address"
						},
						{
							"indexed": true,
							"internalType": "address",
							"name": "newOwner",
							"type": "address"
						}
					],
					"name": "OwnershipTransferred",
					"type": "event"
				},
				{
					"anonymous": false,
					"inputs": [
						{
							"indexed": true,
							"internalType": "address",
							"name": "from",
							"type": "address"
						},
						{
							"indexed": true,
							"internalType": "address",
							"name": "to",
							"type": "address"
						},
						{
							"indexed": false,
							"internalType": "uint256",
							"name": "value",
							"type": "uint256"
						}
					],
					"name": "Transfer",
					"type": "event"
				},
				{
					"inputs": [
						{
							"internalType": "address",
							"name": "owner",
							"type": "address"
						},
						{
							"internalType": "address",
							"name": "spender",
							"type": "address"
						}
					],
					"name": "allowance",
					"outputs": [
						{
							"internalType": "uint256",
							"name": "",
							"type": "uint256"
						}
					],
					"stateMutability": "view",
					"type": "function"
				},
				{
					"inputs": [
						{
							"internalType": "address",
							"name": "",
							"type": "address"
						},
						{
							"internalType": "uint256",
							"name": "",
							"type": "uint256"
						}
					],
					"name": "approve",
					"outputs": [
						{
							"internalType": "bool",
							"name": "",
							"type": "bool"
						}
					],
					"stateMutability": "pure",
					"type": "function"
				},
				{
					"inputs": [
						{
							"internalType": "address",
							"name": "account",
							"type": "address"
						}
					],
					"name": "balanceOf",
					"outputs": [
						{
							"internalType": "uint256",
							"name": "",
							"type": "uint256"
						}
					],
					"stateMutability": "view",
					"type": "function"
				},
				{
					"inputs": [
						{
							"internalType": "uint256",
							"name": "amount",
							"type": "uint256"
						}
					],
					"name": "burn",
					"outputs": [],
					"stateMutability": "nonpayable",
					"type": "function"
				},
				{
					"inputs": [
						{
							"internalType": "address",
							"name": "account",
							"type": "address"
						},
						{
							"internalType": "uint256",
							"name": "amount",
							"type": "uint256"
						}
					],
					"name": "burnFrom",
					"outputs": [],
					"stateMutability": "nonpayable",
					"type": "function"
				},
				{
					"inputs": [
						{
							"internalType": "uint256",
							"name": "tokensToBuy",
							"type": "uint256"
						}
					],
					"name": "buyTokens",
					"outputs": [],
					"stateMutability": "payable",
					"type": "function"
				},
				{
					"inputs": [],
					"name": "decimals",
					"outputs": [
						{
							"internalType": "uint8",
							"name": "",
							"type": "uint8"
						}
					],
					"stateMutability": "view",
					"type": "function"
				},
				{
					"inputs": [
						{
							"internalType": "address",
							"name": "",
							"type": "address"
						},
						{
							"internalType": "uint256",
							"name": "",
							"type": "uint256"
						}
					],
					"name": "decreaseAllowance",
					"outputs": [
						{
							"internalType": "bool",
							"name": "",
							"type": "bool"
						}
					],
					"stateMutability": "pure",
					"type": "function"
				},
				{
					"inputs": [
						{
							"internalType": "address",
							"name": "",
							"type": "address"
						},
						{
							"internalType": "uint256",
							"name": "",
							"type": "uint256"
						}
					],
					"name": "increaseAllowance",
					"outputs": [
						{
							"internalType": "bool",
							"name": "",
							"type": "bool"
						}
					],
					"stateMutability": "pure",
					"type": "function"
				},
				{
					"inputs": [
						{
							"internalType": "address",
							"name": "to",
							"type": "address"
						},
						{
							"internalType": "uint256",
							"name": "amount",
							"type": "uint256"
						}
					],
					"name": "mint",
					"outputs": [],
					"stateMutability": "nonpayable",
					"type": "function"
				},
				{
					"inputs": [],
					"name": "name",
					"outputs": [
						{
							"internalType": "string",
							"name": "",
							"type": "string"
						}
					],
					"stateMutability": "view",
					"type": "function"
				},
				{
					"inputs": [],
					"name": "owner",
					"outputs": [
						{
							"internalType": "address",
							"name": "",
							"type": "address"
						}
					],
					"stateMutability": "view",
					"type": "function"
				},
				{
					"inputs": [],
					"name": "renounceOwnership",
					"outputs": [],
					"stateMutability": "nonpayable",
					"type": "function"
				},
				{
					"inputs": [
						{
							"internalType": "uint256",
							"name": "amount",
							"type": "uint256"
						}
					],
					"name": "sellTokens",
					"outputs": [],
					"stateMutability": "nonpayable",
					"type": "function"
				},
				{
					"inputs": [
						{
							"internalType": "uint256",
							"name": "newTokenPrice",
							"type": "uint256"
						}
					],
					"name": "setTokenPrice",
					"outputs": [],
					"stateMutability": "nonpayable",
					"type": "function"
				},
				{
					"inputs": [],
					"name": "symbol",
					"outputs": [
						{
							"internalType": "string",
							"name": "",
							"type": "string"
						}
					],
					"stateMutability": "view",
					"type": "function"
				},
				{
					"inputs": [],
					"name": "tokenPrice",
					"outputs": [
						{
							"internalType": "uint256",
							"name": "",
							"type": "uint256"
						}
					],
					"stateMutability": "view",
					"type": "function"
				},
				{
					"inputs": [],
					"name": "totalSupply",
					"outputs": [
						{
							"internalType": "uint256",
							"name": "",
							"type": "uint256"
						}
					],
					"stateMutability": "view",
					"type": "function"
				},
				{
					"inputs": [
						{
							"internalType": "address",
							"name": "to",
							"type": "address"
						},
						{
							"internalType": "uint256",
							"name": "amount",
							"type": "uint256"
						}
					],
					"name": "transfer",
					"outputs": [
						{
							"internalType": "bool",
							"name": "",
							"type": "bool"
						}
					],
					"stateMutability": "nonpayable",
					"type": "function"
				},
				{
					"inputs": [
						{
							"internalType": "address",
							"name": "from",
							"type": "address"
						},
						{
							"internalType": "address",
							"name": "to",
							"type": "address"
						},
						{
							"internalType": "uint256",
							"name": "amount",
							"type": "uint256"
						}
					],
					"name": "transferFrom",
					"outputs": [
						{
							"internalType": "bool",
							"name": "",
							"type": "bool"
						}
					],
					"stateMutability": "nonpayable",
					"type": "function"
				},
				{
					"inputs": [
						{
							"internalType": "address",
							"name": "newOwner",
							"type": "address"
						}
					],
					"name": "transferOwnership",
					"outputs": [],
					"stateMutability": "nonpayable",
					"type": "function"
				},
				{
					"inputs": [
						{
							"internalType": "uint256",
							"name": "amount",
							"type": "uint256"
						}
					],
					"name": "withdrawFunds",
					"outputs": [],
					"stateMutability": "nonpayable",
					"type": "function"
				},
				{
					"inputs": [
						{
							"internalType": "uint256",
							"name": "amount",
							"type": "uint256"
						}
					],
					"name": "withdrawTokens",
					"outputs": [],
					"stateMutability": "nonpayable",
					"type": "function"
				}
			],
			"devdoc": {
				"events": {
					"Approval(address,address,uint256)": {
						"details": "Emitted when the allowance of a `spender` for an `owner` is set by a call to {approve}. `value` is the new allowance."
					},
					"Transfer(address,address,uint256)": {
						"details": "Emitted when `value` tokens are moved from one account (`from`) to another (`to`). Note that `value` may be zero."
					}
				},
				"kind": "dev",
				"methods": {
					"allowance(address,address)": {
						"details": "See {IERC20-allowance}."
					},
					"balanceOf(address)": {
						"details": "See {IERC20-balanceOf}."
					},
					"burn(uint256)": {
						"details": "Destroys `amount` tokens from the caller. See {ERC20-_burn}."
					},
					"burnFrom(address,uint256)": {
						"details": "Destroys `amount` tokens from `account`, deducting from the caller's allowance. See {ERC20-_burn} and {ERC20-allowance}. Requirements: - the caller must have allowance for ``accounts``'s tokens of at least `amount`."
					},
					"decimals()": {
						"details": "Returns the number of decimals used to get its user representation. For example, if `decimals` equals `2`, a balance of `505` tokens should be displayed to a user as `5.05` (`505 / 10 ** 2`). Tokens usually opt for a value of 18, imitating the relationship between Ether and Wei. This is the default value returned by this function, unless it's overridden. NOTE: This information is only used for _display_ purposes: it in no way affects any of the arithmetic of the contract, including {IERC20-balanceOf} and {IERC20-transfer}."
					},
					"name()": {
						"details": "Returns the name of the token."
					},
					"owner()": {
						"details": "Returns the address of the current owner."
					},
					"renounceOwnership()": {
						"details": "Leaves the contract without owner. It will not be possible to call `onlyOwner` functions. Can only be called by the current owner. NOTE: Renouncing ownership will leave the contract without an owner, thereby disabling any functionality that is only available to the owner."
					},
					"symbol()": {
						"details": "Returns the symbol of the token, usually a shorter version of the name."
					},
					"totalSupply()": {
						"details": "See {IERC20-totalSupply}."
					},
					"transfer(address,uint256)": {
						"details": "See {IERC20-transfer}. Requirements: - `to` cannot be the zero address. - the caller must have a balance of at least `amount`."
					},
					"transferFrom(address,address,uint256)": {
						"details": "See {IERC20-transferFrom}. Emits an {Approval} event indicating the updated allowance. This is not required by the EIP. See the note at the beginning of {ERC20}. NOTE: Does not update the allowance if the current allowance is the maximum `uint256`. Requirements: - `from` and `to` cannot be the zero address. - `from` must have a balance of at least `amount`. - the caller must have allowance for ``from``'s tokens of at least `amount`."
					},
					"transferOwnership(address)": {
						"details": "Transfers ownership of the contract to a new account (`newOwner`). Can only be called by the current owner."
					}
				},
				"version": 1
			},
			"evm": {
				"assembly": "    /* \"Final Smart Contract/Token.sol\":352:3550  contract DeSearch is ERC20, ERC20Burnable, Ownable {... */\n  mstore(0x40, 0x80)\n    /* \"Final Smart Contract/Token.sol\":505:783  constructor(uint256 initialSupply, uint256 initialTokenPrice)... */\n  callvalue\n  dup1\n  iszero\n  tag_1\n  jumpi\n  0x00\n  dup1\n  revert\ntag_1:\n  pop\n  mload(0x40)\n  sub(codesize, bytecodeSize)\n  dup1\n  bytecodeSize\n  dup4\n  codecopy\n  dup2\n  dup2\n  add\n  0x40\n  mstore\n  dup2\n  add\n  swap1\n  tag_2\n  swap2\n  swap1\n  tag_3\n  jump\t// in\ntag_2:\n    /* \"@openzeppelin/contracts/token/ERC20/ERC20.sol\":1980:2093  constructor(string memory name_, string memory symbol_) {... */\n  mload(0x40)\n  dup1\n  0x40\n  add\n  0x40\n  mstore\n  dup1\n  0x08\n  dup2\n  mstore\n  0x20\n  add\n  0x4465536561726368000000000000000000000000000000000000000000000000\n  dup2\n  mstore\n  pop\n  mload(0x40)\n  dup1\n  0x40\n  add\n  0x40\n  mstore\n  dup1\n  0x02\n  dup2\n  mstore\n  0x20\n  add\n  0x4453000000000000000000000000000000000000000000000000000000000000\n  dup2\n  mstore\n  pop\n    /* \"@openzeppelin/contracts/token/ERC20/ERC20.sol\":2054:2059  name_ */\n  dup2\n    /* \"@openzeppelin/contracts/token/ERC20/ERC20.sol\":2046:2051  _name */\n  0x03\n    /* \"@openzeppelin/contracts/token/ERC20/ERC20.sol\":2046:2059  _name = name_ */\n  swap1\n  dup2\n  tag_8\n  swap2\n  swap1\n  tag_9\n  jump\t// in\ntag_8:\n  pop\n    /* \"@openzeppelin/contracts/token/ERC20/ERC20.sol\":2079:2086  symbol_ */\n  dup1\n    /* \"@openzeppelin/contracts/token/ERC20/ERC20.sol\":2069:2076  _symbol */\n  0x04\n    /* \"@openzeppelin/contracts/token/ERC20/ERC20.sol\":2069:2086  _symbol = symbol_ */\n  swap1\n  dup2\n  tag_10\n  swap2\n  swap1\n  tag_9\n  jump\t// in\ntag_10:\n  pop\n    /* \"@openzeppelin/contracts/token/ERC20/ERC20.sol\":1980:2093  constructor(string memory name_, string memory symbol_) {... */\n  pop\n  pop\n    /* \"@openzeppelin/contracts/access/Ownable.sol\":936:968  _transferOwnership(_msgSender()) */\n  tag_12\n    /* \"@openzeppelin/contracts/access/Ownable.sol\":955:967  _msgSender() */\n  tag_13\n    /* \"@openzeppelin/contracts/access/Ownable.sol\":955:965  _msgSender */\n  shl(0x20, tag_14)\n    /* \"@openzeppelin/contracts/access/Ownable.sol\":955:967  _msgSender() */\n  0x20\n  shr\n  jump\t// in\ntag_13:\n    /* \"@openzeppelin/contracts/access/Ownable.sol\":936:954  _transferOwnership */\n  shl(0x20, tag_15)\n    /* \"@openzeppelin/contracts/access/Ownable.sol\":936:968  _transferOwnership(_msgSender()) */\n  0x20\n  shr\n  jump\t// in\ntag_12:\n    /* \"Final Smart Contract/Token.sol\":637:638  0 */\n  0x00\n    /* \"Final Smart Contract/Token.sol\":621:634  initialSupply */\n  dup3\n    /* \"Final Smart Contract/Token.sol\":621:638  initialSupply > 0 */\n  gt\n    /* \"Final Smart Contract/Token.sol\":613:683  require(initialSupply > 0, \"Initial supply must be greater than zero\") */\n  tag_17\n  jumpi\n  mload(0x40)\n  0x08c379a000000000000000000000000000000000000000000000000000000000\n  dup2\n  mstore\n  0x04\n  add\n  tag_18\n  swap1\n  tag_19\n  jump\t// in\ntag_18:\n  mload(0x40)\n  dup1\n  swap2\n  sub\n  swap1\n  revert\ntag_17:\n    /* \"Final Smart Contract/Token.sol\":693:736  _mint(msg.sender, initialSupply * (10**18)) */\n  tag_20\n    /* \"Final Smart Contract/Token.sol\":699:709  msg.sender */\n  caller\n    /* \"Final Smart Contract/Token.sol\":728:734  10**18 */\n  0x0de0b6b3a7640000\n    /* \"Final Smart Contract/Token.sol\":711:724  initialSupply */\n  dup5\n    /* \"Final Smart Contract/Token.sol\":711:735  initialSupply * (10**18) */\n  tag_21\n  swap2\n  swap1\n  tag_22\n  jump\t// in\ntag_21:\n    /* \"Final Smart Contract/Token.sol\":693:698  _mint */\n  shl(0x20, tag_23)\n    /* \"Final Smart Contract/Token.sol\":693:736  _mint(msg.sender, initialSupply * (10**18)) */\n  0x20\n  shr\n  jump\t// in\ntag_20:\n    /* \"Final Smart Contract/Token.sol\":759:776  initialTokenPrice */\n  dup1\n    /* \"Final Smart Contract/Token.sol\":746:756  tokenPrice */\n  0x06\n    /* \"Final Smart Contract/Token.sol\":746:776  tokenPrice = initialTokenPrice */\n  dup2\n  swap1\n  sstore\n  pop\n    /* \"Final Smart Contract/Token.sol\":505:783  constructor(uint256 initialSupply, uint256 initialTokenPrice)... */\n  pop\n  pop\n    /* \"Final Smart Contract/Token.sol\":352:3550  contract DeSearch is ERC20, ERC20Burnable, Ownable {... */\n  jump(tag_24)\n    /* \"@openzeppelin/contracts/utils/Context.sol\":640:736  function _msgSender() internal view virtual returns (address) {... */\ntag_14:\n    /* \"@openzeppelin/contracts/utils/Context.sol\":693:700  address */\n  0x00\n    /* \"@openzeppelin/contracts/utils/Context.sol\":719:729  msg.sender */\n  caller\n    /* \"@openzeppelin/contracts/utils/Context.sol\":712:729  return msg.sender */\n  swap1\n  pop\n    /* \"@openzeppelin/contracts/utils/Context.sol\":640:736  function _msgSender() internal view virtual returns (address) {... */\n  swap1\n  jump\t// out\n    /* \"@openzeppelin/contracts/access/Ownable.sol\":2426:2613  function _transferOwnership(address newOwner) internal virtual {... */\ntag_15:\n    /* \"@openzeppelin/contracts/access/Ownable.sol\":2499:2515  address oldOwner */\n  0x00\n    /* \"@openzeppelin/contracts/access/Ownable.sol\":2518:2524  _owner */\n  0x05\n  0x00\n  swap1\n  sload\n  swap1\n  0x0100\n  exp\n  swap1\n  div\n  0xffffffffffffffffffffffffffffffffffffffff\n  and\n    /* \"@openzeppelin/contracts/access/Ownable.sol\":2499:2524  address oldOwner = _owner */\n  swap1\n  pop\n    /* \"@openzeppelin/contracts/access/Ownable.sol\":2543:2551  newOwner */\n  dup2\n    /* \"@openzeppelin/contracts/access/Ownable.sol\":2534:2540  _owner */\n  0x05\n  0x00\n    /* \"@openzeppelin/contracts/access/Ownable.sol\":2534:2551  _owner = newOwner */\n  0x0100\n  exp\n  dup2\n  sload\n  dup2\n  0xffffffffffffffffffffffffffffffffffffffff\n  mul\n  not\n  and\n  swap1\n  dup4\n  0xffffffffffffffffffffffffffffffffffffffff\n  and\n  mul\n  or\n  swap1\n  sstore\n  pop\n    /* \"@openzeppelin/contracts/access/Ownable.sol\":2597:2605  newOwner */\n  dup2\n    /* \"@openzeppelin/contracts/access/Ownable.sol\":2566:2606  OwnershipTransferred(oldOwner, newOwner) */\n  0xffffffffffffffffffffffffffffffffffffffff\n  and\n    /* \"@openzeppelin/contracts/access/Ownable.sol\":2587:2595  oldOwner */\n  dup2\n    /* \"@openzeppelin/contracts/access/Ownable.sol\":2566:2606  OwnershipTransferred(oldOwner, newOwner) */\n  0xffffffffffffffffffffffffffffffffffffffff\n  and\n  0x8be0079c531659141344cd1fd0a4f28419497f9722a3daafe3b4186f6b6457e0\n  mload(0x40)\n  mload(0x40)\n  dup1\n  swap2\n  sub\n  swap1\n  log3\n    /* \"@openzeppelin/contracts/access/Ownable.sol\":2489:2613  {... */\n  pop\n    /* \"@openzeppelin/contracts/access/Ownable.sol\":2426:2613  function _transferOwnership(address newOwner) internal virtual {... */\n  pop\n  jump\t// out\n    /* \"Final Smart Contract/Token.sol\":2670:2781  function _mint(address account, uint256 amount) internal override {... */\ntag_23:\n    /* \"Final Smart Contract/Token.sol\":2746:2774  super._mint(account, amount) */\n  tag_28\n    /* \"Final Smart Contract/Token.sol\":2758:2765  account */\n  dup3\n    /* \"Final Smart Contract/Token.sol\":2767:2773  amount */\n  dup3\n    /* \"Final Smart Contract/Token.sol\":2746:2757  super._mint */\n  or(tag_0_135, shl(0x20, tag_29))\n    /* \"Final Smart Contract/Token.sol\":2746:2774  super._mint(account, amount) */\n  0x20\n  shr\n  jump\t// in\ntag_28:\n    /* \"Final Smart Contract/Token.sol\":2670:2781  function _mint(address account, uint256 amount) internal override {... */\n  pop\n  pop\n  jump\t// out\n    /* \"@openzeppelin/contracts/token/ERC20/ERC20.sol\":8524:9059  function _mint(address account, uint256 amount) internal virtual {... */\ntag_29:\n    /* \"@openzeppelin/contracts/token/ERC20/ERC20.sol\":8626:8627  0 */\n  0x00\n    /* \"@openzeppelin/contracts/token/ERC20/ERC20.sol\":8607:8628  account != address(0) */\n  0xffffffffffffffffffffffffffffffffffffffff\n  and\n    /* \"@openzeppelin/contracts/token/ERC20/ERC20.sol\":8607:8614  account */\n  dup3\n    /* \"@openzeppelin/contracts/token/ERC20/ERC20.sol\":8607:8628  account != address(0) */\n  0xffffffffffffffffffffffffffffffffffffffff\n  and\n  sub\n    /* \"@openzeppelin/contracts/token/ERC20/ERC20.sol\":8599:8664  require(account != address(0), \"ERC20: mint to the zero address\") */\n  tag_31\n  jumpi\n  mload(0x40)\n  0x08c379a000000000000000000000000000000000000000000000000000000000\n  dup2\n  mstore\n  0x04\n  add\n  tag_32\n  swap1\n  tag_33\n  jump\t// in\ntag_32:\n  mload(0x40)\n  dup1\n  swap2\n  sub\n  swap1\n  revert\ntag_31:\n    /* \"@openzeppelin/contracts/token/ERC20/ERC20.sol\":8675:8724  _beforeTokenTransfer(address(0), account, amount) */\n  tag_34\n    /* \"@openzeppelin/contracts/token/ERC20/ERC20.sol\":8704:8705  0 */\n  0x00\n    /* \"@openzeppelin/contracts/token/ERC20/ERC20.sol\":8708:8715  account */\n  dup4\n    /* \"@openzeppelin/contracts/token/ERC20/ERC20.sol\":8717:8723  amount */\n  dup4\n    /* \"@openzeppelin/contracts/token/ERC20/ERC20.sol\":8675:8695  _beforeTokenTransfer */\n  shl(0x20, tag_35)\n    /* \"@openzeppelin/contracts/token/ERC20/ERC20.sol\":8675:8724  _beforeTokenTransfer(address(0), account, amount) */\n  0x20\n  shr\n  jump\t// in\ntag_34:\n    /* \"@openzeppelin/contracts/token/ERC20/ERC20.sol\":8751:8757  amount */\n  dup1\n    /* \"@openzeppelin/contracts/token/ERC20/ERC20.sol\":8735:8747  _totalSupply */\n  0x02\n  0x00\n    /* \"@openzeppelin/contracts/token/ERC20/ERC20.sol\":8735:8757  _totalSupply += amount */\n  dup3\n  dup3\n  sload\n  tag_36\n  swap2\n  swap1\n  tag_37\n  jump\t// in\ntag_36:\n  swap3\n  pop\n  pop\n  dup2\n  swap1\n  sstore\n  pop\n    /* \"@openzeppelin/contracts/token/ERC20/ERC20.sol\":8925:8931  amount */\n  dup1\n    /* \"@openzeppelin/contracts/token/ERC20/ERC20.sol\":8903:8912  _balances */\n  0x00\n    /* \"@openzeppelin/contracts/token/ERC20/ERC20.sol\":8903:8921  _balances[account] */\n  dup1\n    /* \"@openzeppelin/contracts/token/ERC20/ERC20.sol\":8913:8920  account */\n  dup5\n    /* \"@openzeppelin/contracts/token/ERC20/ERC20.sol\":8903:8921  _balances[account] */\n  0xffffffffffffffffffffffffffffffffffffffff\n  and\n  0xffffffffffffffffffffffffffffffffffffffff\n  and\n  dup2\n  mstore\n  0x20\n  add\n  swap1\n  dup2\n  mstore\n  0x20\n  add\n  0x00\n  keccak256\n  0x00\n    /* \"@openzeppelin/contracts/token/ERC20/ERC20.sol\":8903:8931  _balances[account] += amount */\n  dup3\n  dup3\n  sload\n  add\n  swap3\n  pop\n  pop\n  dup2\n  swap1\n  sstore\n  pop\n    /* \"@openzeppelin/contracts/token/ERC20/ERC20.sol\":8977:8984  account */\n  dup2\n    /* \"@openzeppelin/contracts/token/ERC20/ERC20.sol\":8956:8993  Transfer(address(0), account, amount) */\n  0xffffffffffffffffffffffffffffffffffffffff\n  and\n    /* \"@openzeppelin/contracts/token/ERC20/ERC20.sol\":8973:8974  0 */\n  0x00\n    /* \"@openzeppelin/contracts/token/ERC20/ERC20.sol\":8956:8993  Transfer(address(0), account, amount) */\n  0xffffffffffffffffffffffffffffffffffffffff\n  and\n  0xddf252ad1be2c89b69c2b068fc378daa952ba7f163c4a11628f55a4df523b3ef\n    /* \"@openzeppelin/contracts/token/ERC20/ERC20.sol\":8986:8992  amount */\n  dup4\n    /* \"@openzeppelin/contracts/token/ERC20/ERC20.sol\":8956:8993  Transfer(address(0), account, amount) */\n  mload(0x40)\n  tag_38\n  swap2\n  swap1\n  tag_39\n  jump\t// in\ntag_38:\n  mload(0x40)\n  dup1\n  swap2\n  sub\n  swap1\n  log3\n    /* \"@openzeppelin/contracts/token/ERC20/ERC20.sol\":9004:9052  _afterTokenTransfer(address(0), account, amount) */\n  tag_40\n    /* \"@openzeppelin/contracts/token/ERC20/ERC20.sol\":9032:9033  0 */\n  0x00\n    /* \"@openzeppelin/contracts/token/ERC20/ERC20.sol\":9036:9043  account */\n  dup4\n    /* \"@openzeppelin/contracts/token/ERC20/ERC20.sol\":9045:9051  amount */\n  dup4\n    /* \"@openzeppelin/contracts/token/ERC20/ERC20.sol\":9004:9023  _afterTokenTransfer */\n  shl(0x20, tag_41)\n    /* \"@openzeppelin/contracts/token/ERC20/ERC20.sol\":9004:9052  _afterTokenTransfer(address(0), account, amount) */\n  0x20\n  shr\n  jump\t// in\ntag_40:\n    /* \"@openzeppelin/contracts/token/ERC20/ERC20.sol\":8524:9059  function _mint(address account, uint256 amount) internal virtual {... */\n  pop\n  pop\n  jump\t// out\n    /* \"@openzeppelin/contracts/token/ERC20/ERC20.sol\":12077:12168  function _beforeTokenTransfer(address from, address to, uint256 amount) internal virtual {} */\ntag_35:\n  pop\n  pop\n  pop\n  jump\t// out\n    /* \"@openzeppelin/contracts/token/ERC20/ERC20.sol\":12756:12846  function _afterTokenTransfer(address from, address to, uint256 amount) internal virtual {} */\ntag_41:\n  pop\n  pop\n  pop\n  jump\t// out\n    /* \"#utility.yul\":88:205   */\ntag_45:\n    /* \"#utility.yul\":197:198   */\n  0x00\n    /* \"#utility.yul\":194:195   */\n  dup1\n    /* \"#utility.yul\":187:199   */\n  revert\n    /* \"#utility.yul\":334:411   */\ntag_47:\n    /* \"#utility.yul\":371:378   */\n  0x00\n    /* \"#utility.yul\":400:405   */\n  dup2\n    /* \"#utility.yul\":389:405   */\n  swap1\n  pop\n    /* \"#utility.yul\":334:411   */\n  swap2\n  swap1\n  pop\n  jump\t// out\n    /* \"#utility.yul\":417:539   */\ntag_48:\n    /* \"#utility.yul\":490:514   */\n  tag_82\n    /* \"#utility.yul\":508:513   */\n  dup2\n    /* \"#utility.yul\":490:514   */\n  tag_47\n  jump\t// in\ntag_82:\n    /* \"#utility.yul\":483:488   */\n  dup2\n    /* \"#utility.yul\":480:515   */\n  eq\n    /* \"#utility.yul\":470:533   */\n  tag_83\n  jumpi\n    /* \"#utility.yul\":529:530   */\n  0x00\n    /* \"#utility.yul\":526:527   */\n  dup1\n    /* \"#utility.yul\":519:531   */\n  revert\n    /* \"#utility.yul\":470:533   */\ntag_83:\n    /* \"#utility.yul\":417:539   */\n  pop\n  jump\t// out\n    /* \"#utility.yul\":545:688   */\ntag_49:\n    /* \"#utility.yul\":602:607   */\n  0x00\n    /* \"#utility.yul\":633:639   */\n  dup2\n    /* \"#utility.yul\":627:640   */\n  mload\n    /* \"#utility.yul\":618:640   */\n  swap1\n  pop\n    /* \"#utility.yul\":649:682   */\n  tag_85\n    /* \"#utility.yul\":676:681   */\n  dup2\n    /* \"#utility.yul\":649:682   */\n  tag_48\n  jump\t// in\ntag_85:\n    /* \"#utility.yul\":545:688   */\n  swap3\n  swap2\n  pop\n  pop\n  jump\t// out\n    /* \"#utility.yul\":694:1201   */\ntag_3:\n    /* \"#utility.yul\":773:779   */\n  0x00\n    /* \"#utility.yul\":781:787   */\n  dup1\n    /* \"#utility.yul\":830:832   */\n  0x40\n    /* \"#utility.yul\":818:827   */\n  dup4\n    /* \"#utility.yul\":809:816   */\n  dup6\n    /* \"#utility.yul\":805:828   */\n  sub\n    /* \"#utility.yul\":801:833   */\n  slt\n    /* \"#utility.yul\":798:917   */\n  iszero\n  tag_87\n  jumpi\n    /* \"#utility.yul\":836:915   */\n  tag_88\n  tag_45\n  jump\t// in\ntag_88:\n    /* \"#utility.yul\":798:917   */\ntag_87:\n    /* \"#utility.yul\":956:957   */\n  0x00\n    /* \"#utility.yul\":981:1045   */\n  tag_89\n    /* \"#utility.yul\":1037:1044   */\n  dup6\n    /* \"#utility.yul\":1028:1034   */\n  dup3\n    /* \"#utility.yul\":1017:1026   */\n  dup7\n    /* \"#utility.yul\":1013:1035   */\n  add\n    /* \"#utility.yul\":981:1045   */\n  tag_49\n  jump\t// in\ntag_89:\n    /* \"#utility.yul\":971:1045   */\n  swap3\n  pop\n    /* \"#utility.yul\":927:1055   */\n  pop\n    /* \"#utility.yul\":1094:1096   */\n  0x20\n    /* \"#utility.yul\":1120:1184   */\n  tag_90\n    /* \"#utility.yul\":1176:1183   */\n  dup6\n    /* \"#utility.yul\":1167:1173   */\n  dup3\n    /* \"#utility.yul\":1156:1165   */\n  dup7\n    /* \"#utility.yul\":1152:1174   */\n  add\n    /* \"#utility.yul\":1120:1184   */\n  tag_49\n  jump\t// in\ntag_90:\n    /* \"#utility.yul\":1110:1184   */\n  swap2\n  pop\n    /* \"#utility.yul\":1065:1194   */\n  pop\n    /* \"#utility.yul\":694:1201   */\n  swap3\n  pop\n  swap3\n  swap1\n  pop\n  jump\t// out\n    /* \"#utility.yul\":1207:1306   */\ntag_50:\n    /* \"#utility.yul\":1259:1265   */\n  0x00\n    /* \"#utility.yul\":1293:1298   */\n  dup2\n    /* \"#utility.yul\":1287:1299   */\n  mload\n    /* \"#utility.yul\":1277:1299   */\n  swap1\n  pop\n    /* \"#utility.yul\":1207:1306   */\n  swap2\n  swap1\n  pop\n  jump\t// out\n    /* \"#utility.yul\":1312:1492   */\ntag_51:\n    /* \"#utility.yul\":1360:1437   */\n  0x4e487b7100000000000000000000000000000000000000000000000000000000\n    /* \"#utility.yul\":1357:1358   */\n  0x00\n    /* \"#utility.yul\":1350:1438   */\n  mstore\n    /* \"#utility.yul\":1457:1461   */\n  0x41\n    /* \"#utility.yul\":1454:1455   */\n  0x04\n    /* \"#utility.yul\":1447:1462   */\n  mstore\n    /* \"#utility.yul\":1481:1485   */\n  0x24\n    /* \"#utility.yul\":1478:1479   */\n  0x00\n    /* \"#utility.yul\":1471:1486   */\n  revert\n    /* \"#utility.yul\":1498:1678   */\ntag_52:\n    /* \"#utility.yul\":1546:1623   */\n  0x4e487b7100000000000000000000000000000000000000000000000000000000\n    /* \"#utility.yul\":1543:1544   */\n  0x00\n    /* \"#utility.yul\":1536:1624   */\n  mstore\n    /* \"#utility.yul\":1643:1647   */\n  0x22\n    /* \"#utility.yul\":1640:1641   */\n  0x04\n    /* \"#utility.yul\":1633:1648   */\n  mstore\n    /* \"#utility.yul\":1667:1671   */\n  0x24\n    /* \"#utility.yul\":1664:1665   */\n  0x00\n    /* \"#utility.yul\":1657:1672   */\n  revert\n    /* \"#utility.yul\":1684:2004   */\ntag_53:\n    /* \"#utility.yul\":1728:1734   */\n  0x00\n    /* \"#utility.yul\":1765:1766   */\n  0x02\n    /* \"#utility.yul\":1759:1763   */\n  dup3\n    /* \"#utility.yul\":1755:1767   */\n  div\n    /* \"#utility.yul\":1745:1767   */\n  swap1\n  pop\n    /* \"#utility.yul\":1812:1813   */\n  0x01\n    /* \"#utility.yul\":1806:1810   */\n  dup3\n    /* \"#utility.yul\":1802:1814   */\n  and\n    /* \"#utility.yul\":1833:1851   */\n  dup1\n    /* \"#utility.yul\":1823:1904   */\n  tag_95\n  jumpi\n    /* \"#utility.yul\":1889:1893   */\n  0x7f\n    /* \"#utility.yul\":1881:1887   */\n  dup3\n    /* \"#utility.yul\":1877:1894   */\n  and\n    /* \"#utility.yul\":1867:1894   */\n  swap2\n  pop\n    /* \"#utility.yul\":1823:1904   */\ntag_95:\n    /* \"#utility.yul\":1951:1953   */\n  0x20\n    /* \"#utility.yul\":1943:1949   */\n  dup3\n    /* \"#utility.yul\":1940:1954   */\n  lt\n    /* \"#utility.yul\":1920:1938   */\n  dup2\n    /* \"#utility.yul\":1917:1955   */\n  sub\n    /* \"#utility.yul\":1914:1998   */\n  tag_96\n  jumpi\n    /* \"#utility.yul\":1970:1988   */\n  tag_97\n  tag_52\n  jump\t// in\ntag_97:\n    /* \"#utility.yul\":1914:1998   */\ntag_96:\n    /* \"#utility.yul\":1735:2004   */\n  pop\n    /* \"#utility.yul\":1684:2004   */\n  swap2\n  swap1\n  pop\n  jump\t// out\n    /* \"#utility.yul\":2010:2151   */\ntag_54:\n    /* \"#utility.yul\":2059:2063   */\n  0x00\n    /* \"#utility.yul\":2082:2085   */\n  dup2\n    /* \"#utility.yul\":2074:2085   */\n  swap1\n  pop\n    /* \"#utility.yul\":2105:2108   */\n  dup2\n    /* \"#utility.yul\":2102:2103   */\n  0x00\n    /* \"#utility.yul\":2095:2109   */\n  mstore\n    /* \"#utility.yul\":2139:2143   */\n  0x20\n    /* \"#utility.yul\":2136:2137   */\n  0x00\n    /* \"#utility.yul\":2126:2144   */\n  keccak256\n    /* \"#utility.yul\":2118:2144   */\n  swap1\n  pop\n    /* \"#utility.yul\":2010:2151   */\n  swap2\n  swap1\n  pop\n  jump\t// out\n    /* \"#utility.yul\":2157:2250   */\ntag_55:\n    /* \"#utility.yul\":2194:2200   */\n  0x00\n    /* \"#utility.yul\":2241:2243   */\n  0x20\n    /* \"#utility.yul\":2236:2238   */\n  0x1f\n    /* \"#utility.yul\":2229:2234   */\n  dup4\n    /* \"#utility.yul\":2225:2239   */\n  add\n    /* \"#utility.yul\":2221:2244   */\n  div\n    /* \"#utility.yul\":2211:2244   */\n  swap1\n  pop\n    /* \"#utility.yul\":2157:2250   */\n  swap2\n  swap1\n  pop\n  jump\t// out\n    /* \"#utility.yul\":2256:2363   */\ntag_56:\n    /* \"#utility.yul\":2300:2308   */\n  0x00\n    /* \"#utility.yul\":2350:2355   */\n  dup3\n    /* \"#utility.yul\":2344:2348   */\n  dup3\n    /* \"#utility.yul\":2340:2356   */\n  shl\n    /* \"#utility.yul\":2319:2356   */\n  swap1\n  pop\n    /* \"#utility.yul\":2256:2363   */\n  swap3\n  swap2\n  pop\n  pop\n  jump\t// out\n    /* \"#utility.yul\":2369:2762   */\ntag_57:\n    /* \"#utility.yul\":2438:2444   */\n  0x00\n    /* \"#utility.yul\":2488:2489   */\n  0x08\n    /* \"#utility.yul\":2476:2486   */\n  dup4\n    /* \"#utility.yul\":2472:2490   */\n  mul\n    /* \"#utility.yul\":2511:2608   */\n  tag_102\n    /* \"#utility.yul\":2541:2607   */\n  0xffffffffffffffffffffffffffffffffffffffffffffffffffffffffffffffff\n    /* \"#utility.yul\":2530:2539   */\n  dup3\n    /* \"#utility.yul\":2511:2608   */\n  tag_56\n  jump\t// in\ntag_102:\n    /* \"#utility.yul\":2629:2668   */\n  tag_103\n    /* \"#utility.yul\":2659:2667   */\n  dup7\n    /* \"#utility.yul\":2648:2657   */\n  dup4\n    /* \"#utility.yul\":2629:2668   */\n  tag_56\n  jump\t// in\ntag_103:\n    /* \"#utility.yul\":2617:2668   */\n  swap6\n  pop\n    /* \"#utility.yul\":2701:2705   */\n  dup1\n    /* \"#utility.yul\":2697:2706   */\n  not\n    /* \"#utility.yul\":2690:2695   */\n  dup5\n    /* \"#utility.yul\":2686:2707   */\n  and\n    /* \"#utility.yul\":2677:2707   */\n  swap4\n  pop\n    /* \"#utility.yul\":2750:2754   */\n  dup1\n    /* \"#utility.yul\":2740:2748   */\n  dup7\n    /* \"#utility.yul\":2736:2755   */\n  and\n    /* \"#utility.yul\":2729:2734   */\n  dup5\n    /* \"#utility.yul\":2726:2756   */\n  or\n    /* \"#utility.yul\":2716:2756   */\n  swap3\n  pop\n    /* \"#utility.yul\":2445:2762   */\n  pop\n  pop\n    /* \"#utility.yul\":2369:2762   */\n  swap4\n  swap3\n  pop\n  pop\n  pop\n  jump\t// out\n    /* \"#utility.yul\":2768:2828   */\ntag_58:\n    /* \"#utility.yul\":2796:2799   */\n  0x00\n    /* \"#utility.yul\":2817:2822   */\n  dup2\n    /* \"#utility.yul\":2810:2822   */\n  swap1\n  pop\n    /* \"#utility.yul\":2768:2828   */\n  swap2\n  swap1\n  pop\n  jump\t// out\n    /* \"#utility.yul\":2834:2976   */\ntag_59:\n    /* \"#utility.yul\":2884:2893   */\n  0x00\n    /* \"#utility.yul\":2917:2970   */\n  tag_106\n    /* \"#utility.yul\":2935:2969   */\n  tag_107\n    /* \"#utility.yul\":2944:2968   */\n  tag_108\n    /* \"#utility.yul\":2962:2967   */\n  dup5\n    /* \"#utility.yul\":2944:2968   */\n  tag_47\n  jump\t// in\ntag_108:\n    /* \"#utility.yul\":2935:2969   */\n  tag_58\n  jump\t// in\ntag_107:\n    /* \"#utility.yul\":2917:2970   */\n  tag_47\n  jump\t// in\ntag_106:\n    /* \"#utility.yul\":2904:2970   */\n  swap1\n  pop\n    /* \"#utility.yul\":2834:2976   */\n  swap2\n  swap1\n  pop\n  jump\t// out\n    /* \"#utility.yul\":2982:3057   */\ntag_60:\n    /* \"#utility.yul\":3025:3028   */\n  0x00\n    /* \"#utility.yul\":3046:3051   */\n  dup2\n    /* \"#utility.yul\":3039:3051   */\n  swap1\n  pop\n    /* \"#utility.yul\":2982:3057   */\n  swap2\n  swap1\n  pop\n  jump\t// out\n    /* \"#utility.yul\":3063:3332   */\ntag_61:\n    /* \"#utility.yul\":3173:3212   */\n  tag_111\n    /* \"#utility.yul\":3204:3211   */\n  dup4\n    /* \"#utility.yul\":3173:3212   */\n  tag_59\n  jump\t// in\ntag_111:\n    /* \"#utility.yul\":3234:3325   */\n  tag_112\n    /* \"#utility.yul\":3283:3324   */\n  tag_113\n    /* \"#utility.yul\":3307:3323   */\n  dup3\n    /* \"#utility.yul\":3283:3324   */\n  tag_60\n  jump\t// in\ntag_113:\n    /* \"#utility.yul\":3275:3281   */\n  dup5\n    /* \"#utility.yul\":3268:3272   */\n  dup5\n    /* \"#utility.yul\":3262:3273   */\n  sload\n    /* \"#utility.yul\":3234:3325   */\n  tag_57\n  jump\t// in\ntag_112:\n    /* \"#utility.yul\":3228:3232   */\n  dup3\n    /* \"#utility.yul\":3221:3326   */\n  sstore\n    /* \"#utility.yul\":3139:3332   */\n  pop\n    /* \"#utility.yul\":3063:3332   */\n  pop\n  pop\n  pop\n  jump\t// out\n    /* \"#utility.yul\":3338:3411   */\ntag_62:\n    /* \"#utility.yul\":3383:3386   */\n  0x00\n    /* \"#utility.yul\":3338:3411   */\n  swap1\n  jump\t// out\n    /* \"#utility.yul\":3417:3606   */\ntag_63:\n    /* \"#utility.yul\":3494:3526   */\n  tag_116\n  tag_62\n  jump\t// in\ntag_116:\n    /* \"#utility.yul\":3535:3600   */\n  tag_117\n    /* \"#utility.yul\":3593:3599   */\n  dup2\n    /* \"#utility.yul\":3585:3591   */\n  dup5\n    /* \"#utility.yul\":3579:3583   */\n  dup5\n    /* \"#utility.yul\":3535:3600   */\n  tag_61\n  jump\t// in\ntag_117:\n    /* \"#utility.yul\":3470:3606   */\n  pop\n    /* \"#utility.yul\":3417:3606   */\n  pop\n  pop\n  jump\t// out\n    /* \"#utility.yul\":3612:3798   */\ntag_64:\n    /* \"#utility.yul\":3672:3792   */\ntag_119:\n    /* \"#utility.yul\":3689:3692   */\n  dup2\n    /* \"#utility.yul\":3682:3687   */\n  dup2\n    /* \"#utility.yul\":3679:3693   */\n  lt\n    /* \"#utility.yul\":3672:3792   */\n  iszero\n  tag_121\n  jumpi\n    /* \"#utility.yul\":3743:3782   */\n  tag_122\n    /* \"#utility.yul\":3780:3781   */\n  0x00\n    /* \"#utility.yul\":3773:3778   */\n  dup3\n    /* \"#utility.yul\":3743:3782   */\n  tag_63\n  jump\t// in\ntag_122:\n    /* \"#utility.yul\":3716:3717   */\n  0x01\n    /* \"#utility.yul\":3709:3714   */\n  dup2\n    /* \"#utility.yul\":3705:3718   */\n  add\n    /* \"#utility.yul\":3696:3718   */\n  swap1\n  pop\n    /* \"#utility.yul\":3672:3792   */\n  jump(tag_119)\ntag_121:\n    /* \"#utility.yul\":3612:3798   */\n  pop\n  pop\n  jump\t// out\n    /* \"#utility.yul\":3804:4347   */\ntag_65:\n    /* \"#utility.yul\":3905:3907   */\n  0x1f\n    /* \"#utility.yul\":3900:3903   */\n  dup3\n    /* \"#utility.yul\":3897:3908   */\n  gt\n    /* \"#utility.yul\":3894:4340   */\n  iszero\n  tag_124\n  jumpi\n    /* \"#utility.yul\":3939:3977   */\n  tag_125\n    /* \"#utility.yul\":3971:3976   */\n  dup2\n    /* \"#utility.yul\":3939:3977   */\n  tag_54\n  jump\t// in\ntag_125:\n    /* \"#utility.yul\":4023:4052   */\n  tag_126\n    /* \"#utility.yul\":4041:4051   */\n  dup5\n    /* \"#utility.yul\":4023:4052   */\n  tag_55\n  jump\t// in\ntag_126:\n    /* \"#utility.yul\":4013:4021   */\n  dup2\n    /* \"#utility.yul\":4009:4053   */\n  add\n    /* \"#utility.yul\":4206:4208   */\n  0x20\n    /* \"#utility.yul\":4194:4204   */\n  dup6\n    /* \"#utility.yul\":4191:4209   */\n  lt\n    /* \"#utility.yul\":4188:4237   */\n  iszero\n  tag_127\n  jumpi\n    /* \"#utility.yul\":4227:4235   */\n  dup2\n    /* \"#utility.yul\":4212:4235   */\n  swap1\n  pop\n    /* \"#utility.yul\":4188:4237   */\ntag_127:\n    /* \"#utility.yul\":4250:4330   */\n  tag_128\n    /* \"#utility.yul\":4306:4328   */\n  tag_129\n    /* \"#utility.yul\":4324:4327   */\n  dup6\n    /* \"#utility.yul\":4306:4328   */\n  tag_55\n  jump\t// in\ntag_129:\n    /* \"#utility.yul\":4296:4304   */\n  dup4\n    /* \"#utility.yul\":4292:4329   */\n  add\n    /* \"#utility.yul\":4279:4290   */\n  dup3\n    /* \"#utility.yul\":4250:4330   */\n  tag_64\n  jump\t// in\ntag_128:\n    /* \"#utility.yul\":3909:4340   */\n  pop\n  pop\n    /* \"#utility.yul\":3894:4340   */\ntag_124:\n    /* \"#utility.yul\":3804:4347   */\n  pop\n  pop\n  pop\n  jump\t// out\n    /* \"#utility.yul\":4353:4470   */\ntag_66:\n    /* \"#utility.yul\":4407:4415   */\n  0x00\n    /* \"#utility.yul\":4457:4462   */\n  dup3\n    /* \"#utility.yul\":4451:4455   */\n  dup3\n    /* \"#utility.yul\":4447:4463   */\n  shr\n    /* \"#utility.yul\":4426:4463   */\n  swap1\n  pop\n    /* \"#utility.yul\":4353:4470   */\n  swap3\n  swap2\n  pop\n  pop\n  jump\t// out\n    /* \"#utility.yul\":4476:4645   */\ntag_67:\n    /* \"#utility.yul\":4520:4526   */\n  0x00\n    /* \"#utility.yul\":4553:4604   */\n  tag_132\n    /* \"#utility.yul\":4601:4602   */\n  0x00\n    /* \"#utility.yul\":4597:4603   */\n  not\n    /* \"#utility.yul\":4589:4594   */\n  dup5\n    /* \"#utility.yul\":4586:4587   */\n  0x08\n    /* \"#utility.yul\":4582:4595   */\n  mul\n    /* \"#utility.yul\":4553:4604   */\n  tag_66\n  jump\t// in\ntag_132:\n    /* \"#utility.yul\":4549:4605   */\n  not\n    /* \"#utility.yul\":4634:4638   */\n  dup1\n    /* \"#utility.yul\":4628:4632   */\n  dup4\n    /* \"#utility.yul\":4624:4639   */\n  and\n    /* \"#utility.yul\":4614:4639   */\n  swap2\n  pop\n    /* \"#utility.yul\":4527:4645   */\n  pop\n    /* \"#utility.yul\":4476:4645   */\n  swap3\n  swap2\n  pop\n  pop\n  jump\t// out\n    /* \"#utility.yul\":4650:4945   */\ntag_68:\n    /* \"#utility.yul\":4726:4730   */\n  0x00\n    /* \"#utility.yul\":4872:4901   */\n  tag_134\n    /* \"#utility.yul\":4897:4900   */\n  dup4\n    /* \"#utility.yul\":4891:4895   */\n  dup4\n    /* \"#utility.yul\":4872:4901   */\n  tag_67\n  jump\t// in\ntag_134:\n    /* \"#utility.yul\":4864:4901   */\n  swap2\n  pop\n    /* \"#utility.yul\":4934:4937   */\n  dup3\n    /* \"#utility.yul\":4931:4932   */\n  0x02\n    /* \"#utility.yul\":4927:4938   */\n  mul\n    /* \"#utility.yul\":4921:4925   */\n  dup3\n    /* \"#utility.yul\":4918:4939   */\n  or\n    /* \"#utility.yul\":4910:4939   */\n  swap1\n  pop\n    /* \"#utility.yul\":4650:4945   */\n  swap3\n  swap2\n  pop\n  pop\n  jump\t// out\n    /* \"#utility.yul\":4950:6345   */\ntag_9:\n    /* \"#utility.yul\":5067:5104   */\n  tag_136\n    /* \"#utility.yul\":5100:5103   */\n  dup3\n    /* \"#utility.yul\":5067:5104   */\n  tag_50\n  jump\t// in\ntag_136:\n    /* \"#utility.yul\":5169:5187   */\n  0xffffffffffffffff\n    /* \"#utility.yul\":5161:5167   */\n  dup2\n    /* \"#utility.yul\":5158:5188   */\n  gt\n    /* \"#utility.yul\":5155:5211   */\n  iszero\n  tag_137\n  jumpi\n    /* \"#utility.yul\":5191:5209   */\n  tag_138\n  tag_51\n  jump\t// in\ntag_138:\n    /* \"#utility.yul\":5155:5211   */\ntag_137:\n    /* \"#utility.yul\":5235:5273   */\n  tag_139\n    /* \"#utility.yul\":5267:5271   */\n  dup3\n    /* \"#utility.yul\":5261:5272   */\n  sload\n    /* \"#utility.yul\":5235:5273   */\n  tag_53\n  jump\t// in\ntag_139:\n    /* \"#utility.yul\":5320:5387   */\n  tag_140\n    /* \"#utility.yul\":5380:5386   */\n  dup3\n    /* \"#utility.yul\":5372:5378   */\n  dup3\n    /* \"#utility.yul\":5366:5370   */\n  dup6\n    /* \"#utility.yul\":5320:5387   */\n  tag_65\n  jump\t// in\ntag_140:\n    /* \"#utility.yul\":5414:5415   */\n  0x00\n    /* \"#utility.yul\":5438:5442   */\n  0x20\n    /* \"#utility.yul\":5425:5442   */\n  swap1\n  pop\n    /* \"#utility.yul\":5470:5472   */\n  0x1f\n    /* \"#utility.yul\":5462:5468   */\n  dup4\n    /* \"#utility.yul\":5459:5473   */\n  gt\n    /* \"#utility.yul\":5487:5488   */\n  0x01\n    /* \"#utility.yul\":5482:6100   */\n  dup2\n  eq\n  tag_142\n  jumpi\n    /* \"#utility.yul\":6144:6145   */\n  0x00\n    /* \"#utility.yul\":6161:6167   */\n  dup5\n    /* \"#utility.yul\":6158:6235   */\n  iszero\n  tag_143\n  jumpi\n    /* \"#utility.yul\":6210:6219   */\n  dup3\n    /* \"#utility.yul\":6205:6208   */\n  dup8\n    /* \"#utility.yul\":6201:6220   */\n  add\n    /* \"#utility.yul\":6195:6221   */\n  mload\n    /* \"#utility.yul\":6186:6221   */\n  swap1\n  pop\n    /* \"#utility.yul\":6158:6235   */\ntag_143:\n    /* \"#utility.yul\":6261:6328   */\n  tag_144\n    /* \"#utility.yul\":6321:6327   */\n  dup6\n    /* \"#utility.yul\":6314:6319   */\n  dup3\n    /* \"#utility.yul\":6261:6328   */\n  tag_68\n  jump\t// in\ntag_144:\n    /* \"#utility.yul\":6255:6259   */\n  dup7\n    /* \"#utility.yul\":6248:6329   */\n  sstore\n    /* \"#utility.yul\":6117:6339   */\n  pop\n    /* \"#utility.yul\":5452:6339   */\n  jump(tag_141)\n    /* \"#utility.yul\":5482:6100   */\ntag_142:\n    /* \"#utility.yul\":5534:5538   */\n  0x1f\n    /* \"#utility.yul\":5530:5539   */\n  not\n    /* \"#utility.yul\":5522:5528   */\n  dup5\n    /* \"#utility.yul\":5518:5540   */\n  and\n    /* \"#utility.yul\":5568:5605   */\n  tag_145\n    /* \"#utility.yul\":5600:5604   */\n  dup7\n    /* \"#utility.yul\":5568:5605   */\n  tag_54\n  jump\t// in\ntag_145:\n    /* \"#utility.yul\":5627:5628   */\n  0x00\n    /* \"#utility.yul\":5641:5849   */\ntag_146:\n    /* \"#utility.yul\":5655:5662   */\n  dup3\n    /* \"#utility.yul\":5652:5653   */\n  dup2\n    /* \"#utility.yul\":5649:5663   */\n  lt\n    /* \"#utility.yul\":5641:5849   */\n  iszero\n  tag_148\n  jumpi\n    /* \"#utility.yul\":5734:5743   */\n  dup5\n    /* \"#utility.yul\":5729:5732   */\n  dup10\n    /* \"#utility.yul\":5725:5744   */\n  add\n    /* \"#utility.yul\":5719:5745   */\n  mload\n    /* \"#utility.yul\":5711:5717   */\n  dup3\n    /* \"#utility.yul\":5704:5746   */\n  sstore\n    /* \"#utility.yul\":5785:5786   */\n  0x01\n    /* \"#utility.yul\":5777:5783   */\n  dup3\n    /* \"#utility.yul\":5773:5787   */\n  add\n    /* \"#utility.yul\":5763:5787   */\n  swap2\n  pop\n    /* \"#utility.yul\":5832:5834   */\n  0x20\n    /* \"#utility.yul\":5821:5830   */\n  dup6\n    /* \"#utility.yul\":5817:5835   */\n  add\n    /* \"#utility.yul\":5804:5835   */\n  swap5\n  pop\n    /* \"#utility.yul\":5678:5682   */\n  0x20\n    /* \"#utility.yul\":5675:5676   */\n  dup2\n    /* \"#utility.yul\":5671:5683   */\n  add\n    /* \"#utility.yul\":5666:5683   */\n  swap1\n  pop\n    /* \"#utility.yul\":5641:5849   */\n  jump(tag_146)\ntag_148:\n    /* \"#utility.yul\":5877:5883   */\n  dup7\n    /* \"#utility.yul\":5868:5875   */\n  dup4\n    /* \"#utility.yul\":5865:5884   */\n  lt\n    /* \"#utility.yul\":5862:6041   */\n  iszero\n  tag_149\n  jumpi\n    /* \"#utility.yul\":5935:5944   */\n  dup5\n    /* \"#utility.yul\":5930:5933   */\n  dup10\n    /* \"#utility.yul\":5926:5945   */\n  add\n    /* \"#utility.yul\":5920:5946   */\n  mload\n    /* \"#utility.yul\":5978:6026   */\n  tag_150\n    /* \"#utility.yul\":6020:6024   */\n  0x1f\n    /* \"#utility.yul\":6012:6018   */\n  dup10\n    /* \"#utility.yul\":6008:6025   */\n  and\n    /* \"#utility.yul\":5997:6006   */\n  dup3\n    /* \"#utility.yul\":5978:6026   */\n  tag_67\n  jump\t// in\ntag_150:\n    /* \"#utility.yul\":5970:5976   */\n  dup4\n    /* \"#utility.yul\":5963:6027   */\n  sstore\n    /* \"#utility.yul\":5885:6041   */\n  pop\n    /* \"#utility.yul\":5862:6041   */\ntag_149:\n    /* \"#utility.yul\":6087:6088   */\n  0x01\n    /* \"#utility.yul\":6083:6084   */\n  0x02\n    /* \"#utility.yul\":6075:6081   */\n  dup9\n    /* \"#utility.yul\":6071:6085   */\n  mul\n    /* \"#utility.yul\":6067:6089   */\n  add\n    /* \"#utility.yul\":6061:6065   */\n  dup9\n    /* \"#utility.yul\":6054:6090   */\n  sstore\n    /* \"#utility.yul\":5489:6100   */\n  pop\n  pop\n  pop\n    /* \"#utility.yul\":5452:6339   */\ntag_141:\n  pop\n    /* \"#utility.yul\":5042:6345   */\n  pop\n  pop\n  pop\n    /* \"#utility.yul\":4950:6345   */\n  pop\n  pop\n  jump\t// out\n    /* \"#utility.yul\":6351:6520   */\ntag_69:\n    /* \"#utility.yul\":6435:6446   */\n  0x00\n    /* \"#utility.yul\":6469:6475   */\n  dup3\n    /* \"#utility.yul\":6464:6467   */\n  dup3\n    /* \"#utility.yul\":6457:6476   */\n  mstore\n    /* \"#utility.yul\":6509:6513   */\n  0x20\n    /* \"#utility.yul\":6504:6507   */\n  dup3\n    /* \"#utility.yul\":6500:6514   */\n  add\n    /* \"#utility.yul\":6485:6514   */\n  swap1\n  pop\n    /* \"#utility.yul\":6351:6520   */\n  swap3\n  swap2\n  pop\n  pop\n  jump\t// out\n    /* \"#utility.yul\":6526:6753   */\ntag_70:\n    /* \"#utility.yul\":6666:6700   */\n  0x496e697469616c20737570706c79206d75737420626520677265617465722074\n    /* \"#utility.yul\":6662:6663   */\n  0x00\n    /* \"#utility.yul\":6654:6660   */\n  dup3\n    /* \"#utility.yul\":6650:6664   */\n  add\n    /* \"#utility.yul\":6643:6701   */\n  mstore\n    /* \"#utility.yul\":6735:6745   */\n  0x68616e207a65726f000000000000000000000000000000000000000000000000\n    /* \"#utility.yul\":6730:6732   */\n  0x20\n    /* \"#utility.yul\":6722:6728   */\n  dup3\n    /* \"#utility.yul\":6718:6733   */\n  add\n    /* \"#utility.yul\":6711:6746   */\n  mstore\n    /* \"#utility.yul\":6526:6753   */\n  pop\n  jump\t// out\n    /* \"#utility.yul\":6759:7125   */\ntag_71:\n    /* \"#utility.yul\":6901:6904   */\n  0x00\n    /* \"#utility.yul\":6922:6989   */\n  tag_154\n    /* \"#utility.yul\":6986:6988   */\n  0x28\n    /* \"#utility.yul\":6981:6984   */\n  dup4\n    /* \"#utility.yul\":6922:6989   */\n  tag_69\n  jump\t// in\ntag_154:\n    /* \"#utility.yul\":6915:6989   */\n  swap2\n  pop\n    /* \"#utility.yul\":6998:7091   */\n  tag_155\n    /* \"#utility.yul\":7087:7090   */\n  dup3\n    /* \"#utility.yul\":6998:7091   */\n  tag_70\n  jump\t// in\ntag_155:\n    /* \"#utility.yul\":7116:7118   */\n  0x40\n    /* \"#utility.yul\":7111:7114   */\n  dup3\n    /* \"#utility.yul\":7107:7119   */\n  add\n    /* \"#utility.yul\":7100:7119   */\n  swap1\n  pop\n    /* \"#utility.yul\":6759:7125   */\n  swap2\n  swap1\n  pop\n  jump\t// out\n    /* \"#utility.yul\":7131:7550   */\ntag_19:\n    /* \"#utility.yul\":7297:7301   */\n  0x00\n    /* \"#utility.yul\":7335:7337   */\n  0x20\n    /* \"#utility.yul\":7324:7333   */\n  dup3\n    /* \"#utility.yul\":7320:7338   */\n  add\n    /* \"#utility.yul\":7312:7338   */\n  swap1\n  pop\n    /* \"#utility.yul\":7384:7393   */\n  dup2\n    /* \"#utility.yul\":7378:7382   */\n  dup2\n    /* \"#utility.yul\":7374:7394   */\n  sub\n    /* \"#utility.yul\":7370:7371   */\n  0x00\n    /* \"#utility.yul\":7359:7368   */\n  dup4\n    /* \"#utility.yul\":7355:7372   */\n  add\n    /* \"#utility.yul\":7348:7395   */\n  mstore\n    /* \"#utility.yul\":7412:7543   */\n  tag_157\n    /* \"#utility.yul\":7538:7542   */\n  dup2\n    /* \"#utility.yul\":7412:7543   */\n  tag_71\n  jump\t// in\ntag_157:\n    /* \"#utility.yul\":7404:7543   */\n  swap1\n  pop\n    /* \"#utility.yul\":7131:7550   */\n  swap2\n  swap1\n  pop\n  jump\t// out\n    /* \"#utility.yul\":7556:7736   */\ntag_72:\n    /* \"#utility.yul\":7604:7681   */\n  0x4e487b7100000000000000000000000000000000000000000000000000000000\n    /* \"#utility.yul\":7601:7602   */\n  0x00\n    /* \"#utility.yul\":7594:7682   */\n  mstore\n    /* \"#utility.yul\":7701:7705   */\n  0x11\n    /* \"#utility.yul\":7698:7699   */\n  0x04\n    /* \"#utility.yul\":7691:7706   */\n  mstore\n    /* \"#utility.yul\":7725:7729   */\n  0x24\n    /* \"#utility.yul\":7722:7723   */\n  0x00\n    /* \"#utility.yul\":7715:7730   */\n  revert\n    /* \"#utility.yul\":7742:8152   */\ntag_22:\n    /* \"#utility.yul\":7782:7789   */\n  0x00\n    /* \"#utility.yul\":7805:7825   */\n  tag_160\n    /* \"#utility.yul\":7823:7824   */\n  dup3\n    /* \"#utility.yul\":7805:7825   */\n  tag_47\n  jump\t// in\ntag_160:\n    /* \"#utility.yul\":7800:7825   */\n  swap2\n  pop\n    /* \"#utility.yul\":7839:7859   */\n  tag_161\n    /* \"#utility.yul\":7857:7858   */\n  dup4\n    /* \"#utility.yul\":7839:7859   */\n  tag_47\n  jump\t// in\ntag_161:\n    /* \"#utility.yul\":7834:7859   */\n  swap3\n  pop\n    /* \"#utility.yul\":7894:7895   */\n  dup3\n    /* \"#utility.yul\":7891:7892   */\n  dup3\n    /* \"#utility.yul\":7887:7896   */\n  mul\n    /* \"#utility.yul\":7916:7946   */\n  tag_162\n    /* \"#utility.yul\":7934:7945   */\n  dup2\n    /* \"#utility.yul\":7916:7946   */\n  tag_47\n  jump\t// in\ntag_162:\n    /* \"#utility.yul\":7905:7946   */\n  swap2\n  pop\n    /* \"#utility.yul\":8095:8096   */\n  dup3\n    /* \"#utility.yul\":8086:8093   */\n  dup3\n    /* \"#utility.yul\":8082:8097   */\n  div\n    /* \"#utility.yul\":8079:8080   */\n  dup5\n    /* \"#utility.yul\":8076:8098   */\n  eq\n    /* \"#utility.yul\":8056:8057   */\n  dup4\n    /* \"#utility.yul\":8049:8058   */\n  iszero\n    /* \"#utility.yul\":8029:8112   */\n  or\n    /* \"#utility.yul\":8006:8145   */\n  tag_163\n  jumpi\n    /* \"#utility.yul\":8125:8143   */\n  tag_164\n  tag_72\n  jump\t// in\ntag_164:\n    /* \"#utility.yul\":8006:8145   */\ntag_163:\n    /* \"#utility.yul\":7790:8152   */\n  pop\n    /* \"#utility.yul\":7742:8152   */\n  swap3\n  swap2\n  pop\n  pop\n  jump\t// out\n    /* \"#utility.yul\":8158:8339   */\ntag_73:\n    /* \"#utility.yul\":8298:8331   */\n  0x45524332303a206d696e7420746f20746865207a65726f206164647265737300\n    /* \"#utility.yul\":8294:8295   */\n  0x00\n    /* \"#utility.yul\":8286:8292   */\n  dup3\n    /* \"#utility.yul\":8282:8296   */\n  add\n    /* \"#utility.yul\":8275:8332   */\n  mstore\n    /* \"#utility.yul\":8158:8339   */\n  pop\n  jump\t// out\n    /* \"#utility.yul\":8345:8711   */\ntag_74:\n    /* \"#utility.yul\":8487:8490   */\n  0x00\n    /* \"#utility.yul\":8508:8575   */\n  tag_167\n    /* \"#utility.yul\":8572:8574   */\n  0x1f\n    /* \"#utility.yul\":8567:8570   */\n  dup4\n    /* \"#utility.yul\":8508:8575   */\n  tag_69\n  jump\t// in\ntag_167:\n    /* \"#utility.yul\":8501:8575   */\n  swap2\n  pop\n    /* \"#utility.yul\":8584:8677   */\n  tag_168\n    /* \"#utility.yul\":8673:8676   */\n  dup3\n    /* \"#utility.yul\":8584:8677   */\n  tag_73\n  jump\t// in\ntag_168:\n    /* \"#utility.yul\":8702:8704   */\n  0x20\n    /* \"#utility.yul\":8697:8700   */\n  dup3\n    /* \"#utility.yul\":8693:8705   */\n  add\n    /* \"#utility.yul\":8686:8705   */\n  swap1\n  pop\n    /* \"#utility.yul\":8345:8711   */\n  swap2\n  swap1\n  pop\n  jump\t// out\n    /* \"#utility.yul\":8717:9136   */\ntag_33:\n    /* \"#utility.yul\":8883:8887   */\n  0x00\n    /* \"#utility.yul\":8921:8923   */\n  0x20\n    /* \"#utility.yul\":8910:8919   */\n  dup3\n    /* \"#utility.yul\":8906:8924   */\n  add\n    /* \"#utility.yul\":8898:8924   */\n  swap1\n  pop\n    /* \"#utility.yul\":8970:8979   */\n  dup2\n    /* \"#utility.yul\":8964:8968   */\n  dup2\n    /* \"#utility.yul\":8960:8980   */\n  sub\n    /* \"#utility.yul\":8956:8957   */\n  0x00\n    /* \"#utility.yul\":8945:8954   */\n  dup4\n    /* \"#utility.yul\":8941:8958   */\n  add\n    /* \"#utility.yul\":8934:8981   */\n  mstore\n    /* \"#utility.yul\":8998:9129   */\n  tag_170\n    /* \"#utility.yul\":9124:9128   */\n  dup2\n    /* \"#utility.yul\":8998:9129   */\n  tag_74\n  jump\t// in\ntag_170:\n    /* \"#utility.yul\":8990:9129   */\n  swap1\n  pop\n    /* \"#utility.yul\":8717:9136   */\n  swap2\n  swap1\n  pop\n  jump\t// out\n    /* \"#utility.yul\":9142:9333   */\ntag_37:\n    /* \"#utility.yul\":9182:9185   */\n  0x00\n    /* \"#utility.yul\":9201:9221   */\n  tag_172\n    /* \"#utility.yul\":9219:9220   */\n  dup3\n    /* \"#utility.yul\":9201:9221   */\n  tag_47\n  jump\t// in\ntag_172:\n    /* \"#utility.yul\":9196:9221   */\n  swap2\n  pop\n    /* \"#utility.yul\":9235:9255   */\n  tag_173\n    /* \"#utility.yul\":9253:9254   */\n  dup4\n    /* \"#utility.yul\":9235:9255   */\n  tag_47\n  jump\t// in\ntag_173:\n    /* \"#utility.yul\":9230:9255   */\n  swap3\n  pop\n    /* \"#utility.yul\":9278:9279   */\n  dup3\n    /* \"#utility.yul\":9275:9276   */\n  dup3\n    /* \"#utility.yul\":9271:9280   */\n  add\n    /* \"#utility.yul\":9264:9280   */\n  swap1\n  pop\n    /* \"#utility.yul\":9299:9302   */\n  dup1\n    /* \"#utility.yul\":9296:9297   */\n  dup3\n    /* \"#utility.yul\":9293:9303   */\n  gt\n    /* \"#utility.yul\":9290:9326   */\n  iszero\n  tag_174\n  jumpi\n    /* \"#utility.yul\":9306:9324   */\n  tag_175\n  tag_72\n  jump\t// in\ntag_175:\n    /* \"#utility.yul\":9290:9326   */\ntag_174:\n    /* \"#utility.yul\":9142:9333   */\n  swap3\n  swap2\n  pop\n  pop\n  jump\t// out\n    /* \"#utility.yul\":9339:9457   */\ntag_75:\n    /* \"#utility.yul\":9426:9450   */\n  tag_177\n    /* \"#utility.yul\":9444:9449   */\n  dup2\n    /* \"#utility.yul\":9426:9450   */\n  tag_47\n  jump\t// in\ntag_177:\n    /* \"#utility.yul\":9421:9424   */\n  dup3\n    /* \"#utility.yul\":9414:9451   */\n  mstore\n    /* \"#utility.yul\":9339:9457   */\n  pop\n  pop\n  jump\t// out\n    /* \"#utility.yul\":9463:9685   */\ntag_39:\n    /* \"#utility.yul\":9556:9560   */\n  0x00\n    /* \"#utility.yul\":9594:9596   */\n  0x20\n    /* \"#utility.yul\":9583:9592   */\n  dup3\n    /* \"#utility.yul\":9579:9597   */\n  add\n    /* \"#utility.yul\":9571:9597   */\n  swap1\n  pop\n    /* \"#utility.yul\":9607:9678   */\n  tag_179\n    /* \"#utility.yul\":9675:9676   */\n  0x00\n    /* \"#utility.yul\":9664:9673   */\n  dup4\n    /* \"#utility.yul\":9660:9677   */\n  add\n    /* \"#utility.yul\":9651:9657   */\n  dup5\n    /* \"#utility.yul\":9607:9678   */\n  tag_75\n  jump\t// in\ntag_179:\n    /* \"#utility.yul\":9463:9685   */\n  swap3\n  swap2\n  pop\n  pop\n  jump\t// out\n    /* \"Final Smart Contract/Token.sol\":352:3550  contract DeSearch is ERC20, ERC20Burnable, Ownable {... */\ntag_24:\n  dataSize(sub_0)\n  dup1\n  dataOffset(sub_0)\n  0x00\n  codecopy\n  0x00\n  return\nstop\n\nsub_0: assembly {\n        /* \"Final Smart Contract/Token.sol\":352:3550  contract DeSearch is ERC20, ERC20Burnable, Ownable {... */\n      mstore(0x40, 0x80)\n      jumpi(tag_1, lt(calldatasize, 0x04))\n      shr(0xe0, calldataload(0x00))\n      dup1\n      0x6a61e5fc\n      gt\n      tag_25\n      jumpi\n      dup1\n      0x8da5cb5b\n      gt\n      tag_26\n      jumpi\n      dup1\n      0x8da5cb5b\n      eq\n      tag_19\n      jumpi\n      dup1\n      0x95d89b41\n      eq\n      tag_20\n      jumpi\n      dup1\n      0xa457c2d7\n      eq\n      tag_21\n      jumpi\n      dup1\n      0xa9059cbb\n      eq\n      tag_22\n      jumpi\n      dup1\n      0xdd62ed3e\n      eq\n      tag_23\n      jumpi\n      dup1\n      0xf2fde38b\n      eq\n      tag_24\n      jumpi\n      jump(tag_1)\n    tag_26:\n      dup1\n      0x6a61e5fc\n      eq\n      tag_13\n      jumpi\n      dup1\n      0x6c11bcd3\n      eq\n      tag_14\n      jumpi\n      dup1\n      0x70a08231\n      eq\n      tag_15\n      jumpi\n      dup1\n      0x715018a6\n      eq\n      tag_16\n      jumpi\n      dup1\n      0x79cc6790\n      eq\n      tag_17\n      jumpi\n      dup1\n      0x7ff9b596\n      eq\n      tag_18\n      jumpi\n      jump(tag_1)\n    tag_25:\n      dup1\n      0x313ce567\n      gt\n      tag_27\n      jumpi\n      dup1\n      0x313ce567\n      eq\n      tag_7\n      jumpi\n      dup1\n      0x315a095d\n      eq\n      tag_8\n      jumpi\n      dup1\n      0x3610724e\n      eq\n      tag_9\n      jumpi\n      dup1\n      0x39509351\n      eq\n      tag_10\n      jumpi\n      dup1\n      0x40c10f19\n      eq\n      tag_11\n      jumpi\n      dup1\n      0x42966c68\n      eq\n      tag_12\n      jumpi\n      jump(tag_1)\n    tag_27:\n      dup1\n      0x06fdde03\n      eq\n      tag_2\n      jumpi\n      dup1\n      0x095ea7b3\n      eq\n      tag_3\n      jumpi\n      dup1\n      0x155dd5ee\n      eq\n      tag_4\n      jumpi\n      dup1\n      0x18160ddd\n      eq\n      tag_5\n      jumpi\n      dup1\n      0x23b872dd\n      eq\n      tag_6\n      jumpi\n    tag_1:\n      0x00\n      dup1\n      revert\n        /* \"@openzeppelin/contracts/token/ERC20/ERC20.sol\":2158:2256  function name() public view virtual override returns (string memory) {... */\n    tag_2:\n      callvalue\n      dup1\n      iszero\n      tag_28\n      jumpi\n      0x00\n      dup1\n      revert\n    tag_28:\n      pop\n      tag_29\n      tag_30\n      jump\t// in\n    tag_29:\n      mload(0x40)\n      tag_31\n      swap2\n      swap1\n      tag_32\n      jump\t// in\n    tag_31:\n      mload(0x40)\n      dup1\n      swap2\n      sub\n      swap1\n      return\n        /* \"Final Smart Contract/Token.sol\":2853:2982  function approve(address, uint256) public pure override returns (bool) {... */\n    tag_3:\n      callvalue\n      dup1\n      iszero\n      tag_33\n      jumpi\n      0x00\n      dup1\n      revert\n    tag_33:\n      pop\n      tag_34\n      0x04\n      dup1\n      calldatasize\n      sub\n      dup2\n      add\n      swap1\n      tag_35\n      swap2\n      swap1\n      tag_36\n      jump\t// in\n    tag_35:\n      tag_37\n      jump\t// in\n    tag_34:\n      mload(0x40)\n      tag_38\n      swap2\n      swap1\n      tag_39\n      jump\t// in\n    tag_38:\n      mload(0x40)\n      dup1\n      swap2\n      sub\n      swap1\n      return\n        /* \"Final Smart Contract/Token.sol\":2039:2435  function withdrawFunds(uint256 amount) public onlyOwner {... */\n    tag_4:\n      callvalue\n      dup1\n      iszero\n      tag_40\n      jumpi\n      0x00\n      dup1\n      revert\n    tag_40:\n      pop\n      tag_41\n      0x04\n      dup1\n      calldatasize\n      sub\n      dup2\n      add\n      swap1\n      tag_42\n      swap2\n      swap1\n      tag_43\n      jump\t// in\n    tag_42:\n      tag_44\n      jump\t// in\n    tag_41:\n      stop\n        /* \"@openzeppelin/contracts/token/ERC20/ERC20.sol\":3255:3361  function totalSupply() public view virtual override returns (uint256) {... */\n    tag_5:\n      callvalue\n      dup1\n      iszero\n      tag_45\n      jumpi\n      0x00\n      dup1\n      revert\n    tag_45:\n      pop\n      tag_46\n      tag_47\n      jump\t// in\n    tag_46:\n      mload(0x40)\n      tag_48\n      swap2\n      swap1\n      tag_49\n      jump\t// in\n    tag_48:\n      mload(0x40)\n      dup1\n      swap2\n      sub\n      swap1\n      return\n        /* \"@openzeppelin/contracts/token/ERC20/ERC20.sol\":5203:5463  function transferFrom(address from, address to, uint256 amount) public virtual override returns (bool) {... */\n    tag_6:\n      callvalue\n      dup1\n      iszero\n      tag_50\n      jumpi\n      0x00\n      dup1\n      revert\n    tag_50:\n      pop\n      tag_51\n      0x04\n      dup1\n      calldatasize\n      sub\n      dup2\n      add\n      swap1\n      tag_52\n      swap2\n      swap1\n      tag_53\n      jump\t// in\n    tag_52:\n      tag_54\n      jump\t// in\n    tag_51:\n      mload(0x40)\n      tag_55\n      swap2\n      swap1\n      tag_39\n      jump\t// in\n    tag_55:\n      mload(0x40)\n      dup1\n      swap2\n      sub\n      swap1\n      return\n        /* \"@openzeppelin/contracts/token/ERC20/ERC20.sol\":3104:3195  function decimals() public view virtual override returns (uint8) {... */\n    tag_7:\n      callvalue\n      dup1\n      iszero\n      tag_56\n      jumpi\n      0x00\n      dup1\n      revert\n    tag_56:\n      pop\n      tag_57\n      tag_58\n      jump\t// in\n    tag_57:\n      mload(0x40)\n      tag_59\n      swap2\n      swap1\n      tag_60\n      jump\t// in\n    tag_59:\n      mload(0x40)\n      dup1\n      swap2\n      sub\n      swap1\n      return\n        /* \"Final Smart Contract/Token.sol\":1054:1207  function withdrawTokens(uint256 amount) public onlyOwner {... */\n    tag_8:\n      callvalue\n      dup1\n      iszero\n      tag_61\n      jumpi\n      0x00\n      dup1\n      revert\n    tag_61:\n      pop\n      tag_62\n      0x04\n      dup1\n      calldatasize\n      sub\n      dup2\n      add\n      swap1\n      tag_63\n      swap2\n      swap1\n      tag_43\n      jump\t// in\n    tag_63:\n      tag_64\n      jump\t// in\n    tag_62:\n      stop\n        /* \"Final Smart Contract/Token.sol\":1213:1763  function buyTokens(uint256 tokensToBuy) public payable {... */\n    tag_9:\n      tag_65\n      0x04\n      dup1\n      calldatasize\n      sub\n      dup2\n      add\n      swap1\n      tag_66\n      swap2\n      swap1\n      tag_43\n      jump\t// in\n    tag_66:\n      tag_67\n      jump\t// in\n    tag_65:\n      stop\n        /* \"Final Smart Contract/Token.sol\":3192:3367  function increaseAllowance(address, uint256)... */\n    tag_10:\n      callvalue\n      dup1\n      iszero\n      tag_68\n      jumpi\n      0x00\n      dup1\n      revert\n    tag_68:\n      pop\n      tag_69\n      0x04\n      dup1\n      calldatasize\n      sub\n      dup2\n      add\n      swap1\n      tag_70\n      swap2\n      swap1\n      tag_36\n      jump\t// in\n    tag_70:\n      tag_71\n      jump\t// in\n    tag_69:\n      mload(0x40)\n      tag_72\n      swap2\n      swap1\n      tag_39\n      jump\t// in\n    tag_72:\n      mload(0x40)\n      dup1\n      swap2\n      sub\n      swap1\n      return\n        /* \"Final Smart Contract/Token.sol\":789:936  function mint(address to, uint256 amount) public onlyOwner {... */\n    tag_11:\n      callvalue\n      dup1\n      iszero\n      tag_73\n      jumpi\n      0x00\n      dup1\n      revert\n    tag_73:\n      pop\n      tag_74\n      0x04\n      dup1\n      calldatasize\n      sub\n      dup2\n      add\n      swap1\n      tag_75\n      swap2\n      swap1\n      tag_36\n      jump\t// in\n    tag_75:\n      tag_76\n      jump\t// in\n    tag_74:\n      stop\n        /* \"@openzeppelin/contracts/token/ERC20/extensions/ERC20Burnable.sol\":578:667  function burn(uint256 amount) public virtual {... */\n    tag_12:\n      callvalue\n      dup1\n      iszero\n      tag_77\n      jumpi\n      0x00\n      dup1\n      revert\n    tag_77:\n      pop\n      tag_78\n      0x04\n      dup1\n      calldatasize\n      sub\n      dup2\n      add\n      swap1\n      tag_79\n      swap2\n      swap1\n      tag_43\n      jump\t// in\n    tag_79:\n      tag_80\n      jump\t// in\n    tag_78:\n      stop\n        /* \"Final Smart Contract/Token.sol\":942:1048  function setTokenPrice(uint256 newTokenPrice) public onlyOwner {... */\n    tag_13:\n      callvalue\n      dup1\n      iszero\n      tag_81\n      jumpi\n      0x00\n      dup1\n      revert\n    tag_81:\n      pop\n      tag_82\n      0x04\n      dup1\n      calldatasize\n      sub\n      dup2\n      add\n      swap1\n      tag_83\n      swap2\n      swap1\n      tag_43\n      jump\t// in\n    tag_83:\n      tag_84\n      jump\t// in\n    tag_82:\n      stop\n        /* \"Final Smart Contract/Token.sol\":1769:2033  function sellTokens(uint256 amount) public {... */\n    tag_14:\n      callvalue\n      dup1\n      iszero\n      tag_85\n      jumpi\n      0x00\n      dup1\n      revert\n    tag_85:\n      pop\n      tag_86\n      0x04\n      dup1\n      calldatasize\n      sub\n      dup2\n      add\n      swap1\n      tag_87\n      swap2\n      swap1\n      tag_43\n      jump\t// in\n    tag_87:\n      tag_88\n      jump\t// in\n    tag_86:\n      stop\n        /* \"@openzeppelin/contracts/token/ERC20/ERC20.sol\":3419:3544  function balanceOf(address account) public view virtual override returns (uint256) {... */\n    tag_15:\n      callvalue\n      dup1\n      iszero\n      tag_89\n      jumpi\n      0x00\n      dup1\n      revert\n    tag_89:\n      pop\n      tag_90\n      0x04\n      dup1\n      calldatasize\n      sub\n      dup2\n      add\n      swap1\n      tag_91\n      swap2\n      swap1\n      tag_92\n      jump\t// in\n    tag_91:\n      tag_93\n      jump\t// in\n    tag_90:\n      mload(0x40)\n      tag_94\n      swap2\n      swap1\n      tag_49\n      jump\t// in\n    tag_94:\n      mload(0x40)\n      dup1\n      swap2\n      sub\n      swap1\n      return\n        /* \"@openzeppelin/contracts/access/Ownable.sol\":1824:1925  function renounceOwnership() public virtual onlyOwner {... */\n    tag_16:\n      callvalue\n      dup1\n      iszero\n      tag_95\n      jumpi\n      0x00\n      dup1\n      revert\n    tag_95:\n      pop\n      tag_96\n      tag_97\n      jump\t// in\n    tag_96:\n      stop\n        /* \"@openzeppelin/contracts/token/ERC20/extensions/ERC20Burnable.sol\":973:1134  function burnFrom(address account, uint256 amount) public virtual {... */\n    tag_17:\n      callvalue\n      dup1\n      iszero\n      tag_98\n      jumpi\n      0x00\n      dup1\n      revert\n    tag_98:\n      pop\n      tag_99\n      0x04\n      dup1\n      calldatasize\n      sub\n      dup2\n      add\n      swap1\n      tag_100\n      swap2\n      swap1\n      tag_36\n      jump\t// in\n    tag_100:\n      tag_101\n      jump\t// in\n    tag_99:\n      stop\n        /* \"Final Smart Contract/Token.sol\":473:498  uint256 public tokenPrice */\n    tag_18:\n      callvalue\n      dup1\n      iszero\n      tag_102\n      jumpi\n      0x00\n      dup1\n      revert\n    tag_102:\n      pop\n      tag_103\n      tag_104\n      jump\t// in\n    tag_103:\n      mload(0x40)\n      tag_105\n      swap2\n      swap1\n      tag_49\n      jump\t// in\n    tag_105:\n      mload(0x40)\n      dup1\n      swap2\n      sub\n      swap1\n      return\n        /* \"@openzeppelin/contracts/access/Ownable.sol\":1201:1286  function owner() public view virtual returns (address) {... */\n    tag_19:\n      callvalue\n      dup1\n      iszero\n      tag_106\n      jumpi\n      0x00\n      dup1\n      revert\n    tag_106:\n      pop\n      tag_107\n      tag_108\n      jump\t// in\n    tag_107:\n      mload(0x40)\n      tag_109\n      swap2\n      swap1\n      tag_110\n      jump\t// in\n    tag_109:\n      mload(0x40)\n      dup1\n      swap2\n      sub\n      swap1\n      return\n        /* \"@openzeppelin/contracts/token/ERC20/ERC20.sol\":2369:2471  function symbol() public view virtual override returns (string memory) {... */\n    tag_20:\n      callvalue\n      dup1\n      iszero\n      tag_111\n      jumpi\n      0x00\n      dup1\n      revert\n    tag_111:\n      pop\n      tag_112\n      tag_113\n      jump\t// in\n    tag_112:\n      mload(0x40)\n      tag_114\n      swap2\n      swap1\n      tag_32\n      jump\t// in\n    tag_114:\n      mload(0x40)\n      dup1\n      swap2\n      sub\n      swap1\n      return\n        /* \"Final Smart Contract/Token.sol\":3373:3548  function decreaseAllowance(address, uint256)... */\n    tag_21:\n      callvalue\n      dup1\n      iszero\n      tag_115\n      jumpi\n      0x00\n      dup1\n      revert\n    tag_115:\n      pop\n      tag_116\n      0x04\n      dup1\n      calldatasize\n      sub\n      dup2\n      add\n      swap1\n      tag_117\n      swap2\n      swap1\n      tag_36\n      jump\t// in\n    tag_117:\n      tag_118\n      jump\t// in\n    tag_116:\n      mload(0x40)\n      tag_119\n      swap2\n      swap1\n      tag_39\n      jump\t// in\n    tag_119:\n      mload(0x40)\n      dup1\n      swap2\n      sub\n      swap1\n      return\n        /* \"@openzeppelin/contracts/token/ERC20/ERC20.sol\":3740:3929  function transfer(address to, uint256 amount) public virtual override returns (bool) {... */\n    tag_22:\n      callvalue\n      dup1\n      iszero\n      tag_120\n      jumpi\n      0x00\n      dup1\n      revert\n    tag_120:\n      pop\n      tag_121\n      0x04\n      dup1\n      calldatasize\n      sub\n      dup2\n      add\n      swap1\n      tag_122\n      swap2\n      swap1\n      tag_36\n      jump\t// in\n    tag_122:\n      tag_123\n      jump\t// in\n    tag_121:\n      mload(0x40)\n      tag_124\n      swap2\n      swap1\n      tag_39\n      jump\t// in\n    tag_124:\n      mload(0x40)\n      dup1\n      swap2\n      sub\n      swap1\n      return\n        /* \"@openzeppelin/contracts/token/ERC20/ERC20.sol\":3987:4136  function allowance(address owner, address spender) public view virtual override returns (uint256) {... */\n    tag_23:\n      callvalue\n      dup1\n      iszero\n      tag_125\n      jumpi\n      0x00\n      dup1\n      revert\n    tag_125:\n      pop\n      tag_126\n      0x04\n      dup1\n      calldatasize\n      sub\n      dup2\n      add\n      swap1\n      tag_127\n      swap2\n      swap1\n      tag_128\n      jump\t// in\n    tag_127:\n      tag_129\n      jump\t// in\n    tag_126:\n      mload(0x40)\n      tag_130\n      swap2\n      swap1\n      tag_49\n      jump\t// in\n    tag_130:\n      mload(0x40)\n      dup1\n      swap2\n      sub\n      swap1\n      return\n        /* \"@openzeppelin/contracts/access/Ownable.sol\":2074:2272  function transferOwnership(address newOwner) public virtual onlyOwner {... */\n    tag_24:\n      callvalue\n      dup1\n      iszero\n      tag_131\n      jumpi\n      0x00\n      dup1\n      revert\n    tag_131:\n      pop\n      tag_132\n      0x04\n      dup1\n      calldatasize\n      sub\n      dup2\n      add\n      swap1\n      tag_133\n      swap2\n      swap1\n      tag_92\n      jump\t// in\n    tag_133:\n      tag_134\n      jump\t// in\n    tag_132:\n      stop\n        /* \"@openzeppelin/contracts/token/ERC20/ERC20.sol\":2158:2256  function name() public view virtual override returns (string memory) {... */\n    tag_30:\n        /* \"@openzeppelin/contracts/token/ERC20/ERC20.sol\":2212:2225  string memory */\n      0x60\n        /* \"@openzeppelin/contracts/token/ERC20/ERC20.sol\":2244:2249  _name */\n      0x03\n        /* \"@openzeppelin/contracts/token/ERC20/ERC20.sol\":2237:2249  return _name */\n      dup1\n      sload\n      tag_137\n      swap1\n      tag_138\n      jump\t// in\n    tag_137:\n      dup1\n      0x1f\n      add\n      0x20\n      dup1\n      swap2\n      div\n      mul\n      0x20\n      add\n      mload(0x40)\n      swap1\n      dup2\n      add\n      0x40\n      mstore\n      dup1\n      swap3\n      swap2\n      swap1\n      dup2\n      dup2\n      mstore\n      0x20\n      add\n      dup3\n      dup1\n      sload\n      tag_139\n      swap1\n      tag_138\n      jump\t// in\n    tag_139:\n      dup1\n      iszero\n      tag_140\n      jumpi\n      dup1\n      0x1f\n      lt\n      tag_141\n      jumpi\n      0x0100\n      dup1\n      dup4\n      sload\n      div\n      mul\n      dup4\n      mstore\n      swap2\n      0x20\n      add\n      swap2\n      jump(tag_140)\n    tag_141:\n      dup3\n      add\n      swap2\n      swap1\n      0x00\n      mstore\n      keccak256(0x00, 0x20)\n      swap1\n    tag_142:\n      dup2\n      sload\n      dup2\n      mstore\n      swap1\n      0x01\n      add\n      swap1\n      0x20\n      add\n      dup1\n      dup4\n      gt\n      tag_142\n      jumpi\n      dup3\n      swap1\n      sub\n      0x1f\n      and\n      dup3\n      add\n      swap2\n    tag_140:\n      pop\n      pop\n      pop\n      pop\n      pop\n      swap1\n      pop\n        /* \"@openzeppelin/contracts/token/ERC20/ERC20.sol\":2158:2256  function name() public view virtual override returns (string memory) {... */\n      swap1\n      jump\t// out\n        /* \"Final Smart Contract/Token.sol\":2853:2982  function approve(address, uint256) public pure override returns (bool) {... */\n    tag_37:\n        /* \"Final Smart Contract/Token.sol\":2918:2922  bool */\n      0x00\n        /* \"Final Smart Contract/Token.sol\":2934:2975  revert(\"Approval functionality disabled\") */\n      mload(0x40)\n      0x08c379a000000000000000000000000000000000000000000000000000000000\n      dup2\n      mstore\n      0x04\n      add\n      tag_144\n      swap1\n      tag_145\n      jump\t// in\n    tag_144:\n      mload(0x40)\n      dup1\n      swap2\n      sub\n      swap1\n      revert\n        /* \"Final Smart Contract/Token.sol\":2039:2435  function withdrawFunds(uint256 amount) public onlyOwner {... */\n    tag_44:\n        /* \"@openzeppelin/contracts/access/Ownable.sol\":1094:1107  _checkOwner() */\n      tag_147\n        /* \"@openzeppelin/contracts/access/Ownable.sol\":1094:1105  _checkOwner */\n      tag_148\n        /* \"@openzeppelin/contracts/access/Ownable.sol\":1094:1107  _checkOwner() */\n      jump\t// in\n    tag_147:\n        /* \"Final Smart Contract/Token.sol\":2151:2157  amount */\n      dup1\n        /* \"Final Smart Contract/Token.sol\":2126:2147  address(this).balance */\n      selfbalance\n        /* \"Final Smart Contract/Token.sol\":2126:2157  address(this).balance >= amount */\n      lt\n      iszero\n        /* \"Final Smart Contract/Token.sol\":2105:2212  require(... */\n      tag_150\n      jumpi\n      mload(0x40)\n      0x08c379a000000000000000000000000000000000000000000000000000000000\n      dup2\n      mstore\n      0x04\n      add\n      tag_151\n      swap1\n      tag_152\n      jump\t// in\n    tag_151:\n      mload(0x40)\n      dup1\n      swap2\n      sub\n      swap1\n      revert\n    tag_150:\n        /* \"Final Smart Contract/Token.sol\":2223:2240  uint256 ethAmount */\n      0x00\n        /* \"Final Smart Contract/Token.sol\":2243:2261  amount.mul(10**18) */\n      tag_153\n        /* \"Final Smart Contract/Token.sol\":2254:2260  10**18 */\n      0x0de0b6b3a7640000\n        /* \"Final Smart Contract/Token.sol\":2243:2249  amount */\n      dup4\n        /* \"Final Smart Contract/Token.sol\":2243:2253  amount.mul */\n      tag_154\n      swap1\n        /* \"Final Smart Contract/Token.sol\":2243:2261  amount.mul(10**18) */\n      swap2\n      swap1\n      0xffffffff\n      and\n      jump\t// in\n    tag_153:\n        /* \"Final Smart Contract/Token.sol\":2223:2261  uint256 ethAmount = amount.mul(10**18) */\n      swap1\n      pop\n        /* \"Final Smart Contract/Token.sol\":2305:2326  address(this).balance */\n      selfbalance\n        /* \"Final Smart Contract/Token.sol\":2292:2301  ethAmount */\n      dup2\n        /* \"Final Smart Contract/Token.sol\":2292:2326  ethAmount <= address(this).balance */\n      gt\n      iszero\n        /* \"Final Smart Contract/Token.sol\":2271:2381  require(... */\n      tag_155\n      jumpi\n      mload(0x40)\n      0x08c379a000000000000000000000000000000000000000000000000000000000\n      dup2\n      mstore\n      0x04\n      add\n      tag_156\n      swap1\n      tag_152\n      jump\t// in\n    tag_156:\n      mload(0x40)\n      dup1\n      swap2\n      sub\n      swap1\n      revert\n    tag_155:\n        /* \"Final Smart Contract/Token.sol\":2400:2407  owner() */\n      tag_157\n        /* \"Final Smart Contract/Token.sol\":2400:2405  owner */\n      tag_108\n        /* \"Final Smart Contract/Token.sol\":2400:2407  owner() */\n      jump\t// in\n    tag_157:\n        /* \"Final Smart Contract/Token.sol\":2392:2417  payable(owner()).transfer */\n      0xffffffffffffffffffffffffffffffffffffffff\n      and\n        /* \"Final Smart Contract/Token.sol\":2392:2428  payable(owner()).transfer(ethAmount) */\n      0x08fc\n        /* \"Final Smart Contract/Token.sol\":2418:2427  ethAmount */\n      dup3\n        /* \"Final Smart Contract/Token.sol\":2392:2428  payable(owner()).transfer(ethAmount) */\n      swap1\n      dup2\n      iszero\n      mul\n      swap1\n      mload(0x40)\n      0x00\n      mload(0x40)\n      dup1\n      dup4\n      sub\n      dup2\n      dup6\n      dup9\n      dup9\n      call\n      swap4\n      pop\n      pop\n      pop\n      pop\n      iszero\n      dup1\n      iszero\n      tag_159\n      jumpi\n      returndatasize\n      0x00\n      dup1\n      returndatacopy\n      revert(0x00, returndatasize)\n    tag_159:\n      pop\n        /* \"Final Smart Contract/Token.sol\":2095:2435  {... */\n      pop\n        /* \"Final Smart Contract/Token.sol\":2039:2435  function withdrawFunds(uint256 amount) public onlyOwner {... */\n      pop\n      jump\t// out\n        /* \"@openzeppelin/contracts/token/ERC20/ERC20.sol\":3255:3361  function totalSupply() public view virtual override returns (uint256) {... */\n    tag_47:\n        /* \"@openzeppelin/contracts/token/ERC20/ERC20.sol\":3316:3323  uint256 */\n      0x00\n        /* \"@openzeppelin/contracts/token/ERC20/ERC20.sol\":3342:3354  _totalSupply */\n      sload(0x02)\n        /* \"@openzeppelin/contracts/token/ERC20/ERC20.sol\":3335:3354  return _totalSupply */\n      swap1\n      pop\n        /* \"@openzeppelin/contracts/token/ERC20/ERC20.sol\":3255:3361  function totalSupply() public view virtual override returns (uint256) {... */\n      swap1\n      jump\t// out\n        /* \"@openzeppelin/contracts/token/ERC20/ERC20.sol\":5203:5463  function transferFrom(address from, address to, uint256 amount) public virtual override returns (bool) {... */\n    tag_54:\n        /* \"@openzeppelin/contracts/token/ERC20/ERC20.sol\":5300:5304  bool */\n      0x00\n        /* \"@openzeppelin/contracts/token/ERC20/ERC20.sol\":5408:5435  _transfer(from, to, amount) */\n      tag_162\n        /* \"@openzeppelin/contracts/token/ERC20/ERC20.sol\":5418:5422  from */\n      dup5\n        /* \"@openzeppelin/contracts/token/ERC20/ERC20.sol\":5424:5426  to */\n      dup5\n        /* \"@openzeppelin/contracts/token/ERC20/ERC20.sol\":5428:5434  amount */\n      dup5\n        /* \"@openzeppelin/contracts/token/ERC20/ERC20.sol\":5408:5417  _transfer */\n      tag_163\n        /* \"@openzeppelin/contracts/token/ERC20/ERC20.sol\":5408:5435  _transfer(from, to, amount) */\n      jump\t// in\n    tag_162:\n        /* \"@openzeppelin/contracts/token/ERC20/ERC20.sol\":5452:5456  true */\n      0x01\n        /* \"@openzeppelin/contracts/token/ERC20/ERC20.sol\":5445:5456  return true */\n      swap1\n      pop\n        /* \"@openzeppelin/contracts/token/ERC20/ERC20.sol\":5203:5463  function transferFrom(address from, address to, uint256 amount) public virtual override returns (bool) {... */\n      swap4\n      swap3\n      pop\n      pop\n      pop\n      jump\t// out\n        /* \"@openzeppelin/contracts/token/ERC20/ERC20.sol\":3104:3195  function decimals() public view virtual override returns (uint8) {... */\n    tag_58:\n        /* \"@openzeppelin/contracts/token/ERC20/ERC20.sol\":3162:3167  uint8 */\n      0x00\n        /* \"@openzeppelin/contracts/token/ERC20/ERC20.sol\":3186:3188  18 */\n      0x12\n        /* \"@openzeppelin/contracts/token/ERC20/ERC20.sol\":3179:3188  return 18 */\n      swap1\n      pop\n        /* \"@openzeppelin/contracts/token/ERC20/ERC20.sol\":3104:3195  function decimals() public view virtual override returns (uint8) {... */\n      swap1\n      jump\t// out\n        /* \"Final Smart Contract/Token.sol\":1054:1207  function withdrawTokens(uint256 amount) public onlyOwner {... */\n    tag_64:\n        /* \"@openzeppelin/contracts/access/Ownable.sol\":1094:1107  _checkOwner() */\n      tag_166\n        /* \"@openzeppelin/contracts/access/Ownable.sol\":1094:1105  _checkOwner */\n      tag_148\n        /* \"@openzeppelin/contracts/access/Ownable.sol\":1094:1107  _checkOwner() */\n      jump\t// in\n    tag_166:\n        /* \"Final Smart Contract/Token.sol\":1121:1149  _burn(address(this), amount) */\n      tag_168\n        /* \"Final Smart Contract/Token.sol\":1135:1139  this */\n      address\n        /* \"Final Smart Contract/Token.sol\":1142:1148  amount */\n      dup3\n        /* \"Final Smart Contract/Token.sol\":1121:1126  _burn */\n      tag_169\n        /* \"Final Smart Contract/Token.sol\":1121:1149  _burn(address(this), amount) */\n      jump\t// in\n    tag_168:\n        /* \"Final Smart Contract/Token.sol\":1159:1200  _transfer(address(this), owner(), amount) */\n      tag_170\n        /* \"Final Smart Contract/Token.sol\":1177:1181  this */\n      address\n        /* \"Final Smart Contract/Token.sol\":1184:1191  owner() */\n      tag_171\n        /* \"Final Smart Contract/Token.sol\":1184:1189  owner */\n      tag_108\n        /* \"Final Smart Contract/Token.sol\":1184:1191  owner() */\n      jump\t// in\n    tag_171:\n        /* \"Final Smart Contract/Token.sol\":1193:1199  amount */\n      dup4\n        /* \"Final Smart Contract/Token.sol\":1159:1168  _transfer */\n      tag_163\n        /* \"Final Smart Contract/Token.sol\":1159:1200  _transfer(address(this), owner(), amount) */\n      jump\t// in\n    tag_170:\n        /* \"Final Smart Contract/Token.sol\":1054:1207  function withdrawTokens(uint256 amount) public onlyOwner {... */\n      pop\n      jump\t// out\n        /* \"Final Smart Contract/Token.sol\":1213:1763  function buyTokens(uint256 tokensToBuy) public payable {... */\n    tag_67:\n        /* \"Final Smart Contract/Token.sol\":1313:1314  0 */\n      0x00\n        /* \"Final Smart Contract/Token.sol\":1299:1310  tokensToBuy */\n      dup2\n        /* \"Final Smart Contract/Token.sol\":1299:1314  tokensToBuy > 0 */\n      gt\n        /* \"Final Smart Contract/Token.sol\":1278:1389  require(... */\n      tag_173\n      jumpi\n      mload(0x40)\n      0x08c379a000000000000000000000000000000000000000000000000000000000\n      dup2\n      mstore\n      0x04\n      add\n      tag_174\n      swap1\n      tag_175\n      jump\t// in\n    tag_174:\n      mload(0x40)\n      dup1\n      swap2\n      sub\n      swap1\n      revert\n    tag_173:\n        /* \"Final Smart Contract/Token.sol\":1400:1417  uint256 ethAmount */\n      0x00\n        /* \"Final Smart Contract/Token.sol\":1420:1447  tokensToBuy.mul(tokenPrice) */\n      tag_176\n        /* \"Final Smart Contract/Token.sol\":1436:1446  tokenPrice */\n      sload(0x06)\n        /* \"Final Smart Contract/Token.sol\":1420:1431  tokensToBuy */\n      dup4\n        /* \"Final Smart Contract/Token.sol\":1420:1435  tokensToBuy.mul */\n      tag_154\n      swap1\n        /* \"Final Smart Contract/Token.sol\":1420:1447  tokensToBuy.mul(tokenPrice) */\n      swap2\n      swap1\n      0xffffffff\n      and\n      jump\t// in\n    tag_176:\n        /* \"Final Smart Contract/Token.sol\":1400:1447  uint256 ethAmount = tokensToBuy.mul(tokenPrice) */\n      swap1\n      pop\n        /* \"Final Smart Contract/Token.sol\":1494:1503  ethAmount */\n      dup1\n        /* \"Final Smart Contract/Token.sol\":1481:1490  msg.value */\n      callvalue\n        /* \"Final Smart Contract/Token.sol\":1481:1503  msg.value >= ethAmount */\n      lt\n      iszero\n        /* \"Final Smart Contract/Token.sol\":1473:1531  require(msg.value >= ethAmount, \"Insufficient ether sent\") */\n      tag_177\n      jumpi\n      mload(0x40)\n      0x08c379a000000000000000000000000000000000000000000000000000000000\n      dup2\n      mstore\n      0x04\n      add\n      tag_178\n      swap1\n      tag_179\n      jump\t// in\n    tag_178:\n      mload(0x40)\n      dup1\n      swap2\n      sub\n      swap1\n      revert\n    tag_177:\n        /* \"Final Smart Contract/Token.sol\":1542:1561  uint256 tokenAmount */\n      0x00\n        /* \"Final Smart Contract/Token.sol\":1579:1585  10**18 */\n      0x0de0b6b3a7640000\n        /* \"Final Smart Contract/Token.sol\":1564:1575  tokensToBuy */\n      dup4\n        /* \"Final Smart Contract/Token.sol\":1564:1586  tokensToBuy * (10**18) */\n      tag_180\n      swap2\n      swap1\n      tag_181\n      jump\t// in\n    tag_180:\n        /* \"Final Smart Contract/Token.sol\":1542:1586  uint256 tokenAmount = tokensToBuy * (10**18) */\n      swap1\n      pop\n        /* \"Final Smart Contract/Token.sol\":1632:1650  balanceOf(owner()) */\n      tag_182\n        /* \"Final Smart Contract/Token.sol\":1642:1649  owner() */\n      tag_183\n        /* \"Final Smart Contract/Token.sol\":1642:1647  owner */\n      tag_108\n        /* \"Final Smart Contract/Token.sol\":1642:1649  owner() */\n      jump\t// in\n    tag_183:\n        /* \"Final Smart Contract/Token.sol\":1632:1641  balanceOf */\n      tag_93\n        /* \"Final Smart Contract/Token.sol\":1632:1650  balanceOf(owner()) */\n      jump\t// in\n    tag_182:\n        /* \"Final Smart Contract/Token.sol\":1617:1628  tokenAmount */\n      dup2\n        /* \"Final Smart Contract/Token.sol\":1617:1650  tokenAmount <= balanceOf(owner()) */\n      gt\n      iszero\n        /* \"Final Smart Contract/Token.sol\":1596:1702  require(... */\n      tag_184\n      jumpi\n      mload(0x40)\n      0x08c379a000000000000000000000000000000000000000000000000000000000\n      dup2\n      mstore\n      0x04\n      add\n      tag_185\n      swap1\n      tag_186\n      jump\t// in\n    tag_185:\n      mload(0x40)\n      dup1\n      swap2\n      sub\n      swap1\n      revert\n    tag_184:\n        /* \"Final Smart Contract/Token.sol\":1713:1756  _transfer(owner(), msg.sender, tokenAmount) */\n      tag_187\n        /* \"Final Smart Contract/Token.sol\":1723:1730  owner() */\n      tag_188\n        /* \"Final Smart Contract/Token.sol\":1723:1728  owner */\n      tag_108\n        /* \"Final Smart Contract/Token.sol\":1723:1730  owner() */\n      jump\t// in\n    tag_188:\n        /* \"Final Smart Contract/Token.sol\":1732:1742  msg.sender */\n      caller\n        /* \"Final Smart Contract/Token.sol\":1744:1755  tokenAmount */\n      dup4\n        /* \"Final Smart Contract/Token.sol\":1713:1722  _transfer */\n      tag_163\n        /* \"Final Smart Contract/Token.sol\":1713:1756  _transfer(owner(), msg.sender, tokenAmount) */\n      jump\t// in\n    tag_187:\n        /* \"Final Smart Contract/Token.sol\":1268:1763  {... */\n      pop\n      pop\n        /* \"Final Smart Contract/Token.sol\":1213:1763  function buyTokens(uint256 tokensToBuy) public payable {... */\n      pop\n      jump\t// out\n        /* \"Final Smart Contract/Token.sol\":3192:3367  function increaseAllowance(address, uint256)... */\n    tag_71:\n        /* \"Final Smart Contract/Token.sol\":3299:3303  bool */\n      0x00\n        /* \"Final Smart Contract/Token.sol\":3319:3360  revert(\"Approval functionality disabled\") */\n      mload(0x40)\n      0x08c379a000000000000000000000000000000000000000000000000000000000\n      dup2\n      mstore\n      0x04\n      add\n      tag_190\n      swap1\n      tag_145\n      jump\t// in\n    tag_190:\n      mload(0x40)\n      dup1\n      swap2\n      sub\n      swap1\n      revert\n        /* \"Final Smart Contract/Token.sol\":789:936  function mint(address to, uint256 amount) public onlyOwner {... */\n    tag_76:\n        /* \"@openzeppelin/contracts/access/Ownable.sol\":1094:1107  _checkOwner() */\n      tag_192\n        /* \"@openzeppelin/contracts/access/Ownable.sol\":1094:1105  _checkOwner */\n      tag_148\n        /* \"@openzeppelin/contracts/access/Ownable.sol\":1094:1107  _checkOwner() */\n      jump\t// in\n    tag_192:\n        /* \"Final Smart Contract/Token.sol\":858:877  uint256 tokenAmount */\n      0x00\n        /* \"Final Smart Contract/Token.sol\":890:896  10**18 */\n      0x0de0b6b3a7640000\n        /* \"Final Smart Contract/Token.sol\":880:886  amount */\n      dup3\n        /* \"Final Smart Contract/Token.sol\":880:897  amount * (10**18) */\n      tag_194\n      swap2\n      swap1\n      tag_181\n      jump\t// in\n    tag_194:\n        /* \"Final Smart Contract/Token.sol\":858:897  uint256 tokenAmount = amount * (10**18) */\n      swap1\n      pop\n        /* \"Final Smart Contract/Token.sol\":907:929  _mint(to, tokenAmount) */\n      tag_195\n        /* \"Final Smart Contract/Token.sol\":913:915  to */\n      dup4\n        /* \"Final Smart Contract/Token.sol\":917:928  tokenAmount */\n      dup3\n        /* \"Final Smart Contract/Token.sol\":907:912  _mint */\n      tag_196\n        /* \"Final Smart Contract/Token.sol\":907:929  _mint(to, tokenAmount) */\n      jump\t// in\n    tag_195:\n        /* \"Final Smart Contract/Token.sol\":848:936  {... */\n      pop\n        /* \"Final Smart Contract/Token.sol\":789:936  function mint(address to, uint256 amount) public onlyOwner {... */\n      pop\n      pop\n      jump\t// out\n        /* \"@openzeppelin/contracts/token/ERC20/extensions/ERC20Burnable.sol\":578:667  function burn(uint256 amount) public virtual {... */\n    tag_80:\n        /* \"@openzeppelin/contracts/token/ERC20/extensions/ERC20Burnable.sol\":633:660  _burn(_msgSender(), amount) */\n      tag_198\n        /* \"@openzeppelin/contracts/token/ERC20/extensions/ERC20Burnable.sol\":639:651  _msgSender() */\n      tag_199\n        /* \"@openzeppelin/contracts/token/ERC20/extensions/ERC20Burnable.sol\":639:649  _msgSender */\n      tag_200\n        /* \"@openzeppelin/contracts/token/ERC20/extensions/ERC20Burnable.sol\":639:651  _msgSender() */\n      jump\t// in\n    tag_199:\n        /* \"@openzeppelin/contracts/token/ERC20/extensions/ERC20Burnable.sol\":653:659  amount */\n      dup3\n        /* \"@openzeppelin/contracts/token/ERC20/extensions/ERC20Burnable.sol\":633:638  _burn */\n      tag_169\n        /* \"@openzeppelin/contracts/token/ERC20/extensions/ERC20Burnable.sol\":633:660  _burn(_msgSender(), amount) */\n      jump\t// in\n    tag_198:\n        /* \"@openzeppelin/contracts/token/ERC20/extensions/ERC20Burnable.sol\":578:667  function burn(uint256 amount) public virtual {... */\n      pop\n      jump\t// out\n        /* \"Final Smart Contract/Token.sol\":942:1048  function setTokenPrice(uint256 newTokenPrice) public onlyOwner {... */\n    tag_84:\n        /* \"@openzeppelin/contracts/access/Ownable.sol\":1094:1107  _checkOwner() */\n      tag_202\n        /* \"@openzeppelin/contracts/access/Ownable.sol\":1094:1105  _checkOwner */\n      tag_148\n        /* \"@openzeppelin/contracts/access/Ownable.sol\":1094:1107  _checkOwner() */\n      jump\t// in\n    tag_202:\n        /* \"Final Smart Contract/Token.sol\":1028:1041  newTokenPrice */\n      dup1\n        /* \"Final Smart Contract/Token.sol\":1015:1025  tokenPrice */\n      0x06\n        /* \"Final Smart Contract/Token.sol\":1015:1041  tokenPrice = newTokenPrice */\n      dup2\n      swap1\n      sstore\n      pop\n        /* \"Final Smart Contract/Token.sol\":942:1048  function setTokenPrice(uint256 newTokenPrice) public onlyOwner {... */\n      pop\n      jump\t// out\n        /* \"Final Smart Contract/Token.sol\":1769:2033  function sellTokens(uint256 amount) public {... */\n    tag_88:\n        /* \"Final Smart Contract/Token.sol\":1839:1840  0 */\n      0x00\n        /* \"Final Smart Contract/Token.sol\":1830:1836  amount */\n      dup2\n        /* \"Final Smart Contract/Token.sol\":1830:1840  amount > 0 */\n      gt\n        /* \"Final Smart Contract/Token.sol\":1822:1877  require(amount > 0, \"Amount must be greater than zero\") */\n      tag_205\n      jumpi\n      mload(0x40)\n      0x08c379a000000000000000000000000000000000000000000000000000000000\n      dup2\n      mstore\n      0x04\n      add\n      tag_206\n      swap1\n      tag_207\n      jump\t// in\n    tag_206:\n      mload(0x40)\n      dup1\n      swap2\n      sub\n      swap1\n      revert\n    tag_205:\n        /* \"Final Smart Contract/Token.sol\":1888:1905  uint256 ethAmount */\n      0x00\n        /* \"Final Smart Contract/Token.sol\":1908:1942  amount.mul(tokenPrice).div(10**18) */\n      tag_208\n        /* \"Final Smart Contract/Token.sol\":1935:1941  10**18 */\n      0x0de0b6b3a7640000\n        /* \"Final Smart Contract/Token.sol\":1908:1930  amount.mul(tokenPrice) */\n      tag_209\n        /* \"Final Smart Contract/Token.sol\":1919:1929  tokenPrice */\n      sload(0x06)\n        /* \"Final Smart Contract/Token.sol\":1908:1914  amount */\n      dup6\n        /* \"Final Smart Contract/Token.sol\":1908:1918  amount.mul */\n      tag_154\n      swap1\n        /* \"Final Smart Contract/Token.sol\":1908:1930  amount.mul(tokenPrice) */\n      swap2\n      swap1\n      0xffffffff\n      and\n      jump\t// in\n    tag_209:\n        /* \"Final Smart Contract/Token.sol\":1908:1934  amount.mul(tokenPrice).div */\n      tag_210\n      swap1\n        /* \"Final Smart Contract/Token.sol\":1908:1942  amount.mul(tokenPrice).div(10**18) */\n      swap2\n      swap1\n      0xffffffff\n      and\n      jump\t// in\n    tag_208:\n        /* \"Final Smart Contract/Token.sol\":1888:1942  uint256 ethAmount = amount.mul(tokenPrice).div(10**18) */\n      swap1\n      pop\n        /* \"Final Smart Contract/Token.sol\":1952:1977  _burn(msg.sender, amount) */\n      tag_211\n        /* \"Final Smart Contract/Token.sol\":1958:1968  msg.sender */\n      caller\n        /* \"Final Smart Contract/Token.sol\":1970:1976  amount */\n      dup4\n        /* \"Final Smart Contract/Token.sol\":1952:1957  _burn */\n      tag_169\n        /* \"Final Smart Contract/Token.sol\":1952:1977  _burn(msg.sender, amount) */\n      jump\t// in\n    tag_211:\n        /* \"Final Smart Contract/Token.sol\":1995:2005  msg.sender */\n      caller\n        /* \"Final Smart Contract/Token.sol\":1987:2015  payable(msg.sender).transfer */\n      0xffffffffffffffffffffffffffffffffffffffff\n      and\n        /* \"Final Smart Contract/Token.sol\":1987:2026  payable(msg.sender).transfer(ethAmount) */\n      0x08fc\n        /* \"Final Smart Contract/Token.sol\":2016:2025  ethAmount */\n      dup3\n        /* \"Final Smart Contract/Token.sol\":1987:2026  payable(msg.sender).transfer(ethAmount) */\n      swap1\n      dup2\n      iszero\n      mul\n      swap1\n      mload(0x40)\n      0x00\n      mload(0x40)\n      dup1\n      dup4\n      sub\n      dup2\n      dup6\n      dup9\n      dup9\n      call\n      swap4\n      pop\n      pop\n      pop\n      pop\n      iszero\n      dup1\n      iszero\n      tag_213\n      jumpi\n      returndatasize\n      0x00\n      dup1\n      returndatacopy\n      revert(0x00, returndatasize)\n    tag_213:\n      pop\n        /* \"Final Smart Contract/Token.sol\":1812:2033  {... */\n      pop\n        /* \"Final Smart Contract/Token.sol\":1769:2033  function sellTokens(uint256 amount) public {... */\n      pop\n      jump\t// out\n        /* \"@openzeppelin/contracts/token/ERC20/ERC20.sol\":3419:3544  function balanceOf(address account) public view virtual override returns (uint256) {... */\n    tag_93:\n        /* \"@openzeppelin/contracts/token/ERC20/ERC20.sol\":3493:3500  uint256 */\n      0x00\n        /* \"@openzeppelin/contracts/token/ERC20/ERC20.sol\":3519:3528  _balances */\n      dup1\n        /* \"@openzeppelin/contracts/token/ERC20/ERC20.sol\":3519:3537  _balances[account] */\n      0x00\n        /* \"@openzeppelin/contracts/token/ERC20/ERC20.sol\":3529:3536  account */\n      dup4\n        /* \"@openzeppelin/contracts/token/ERC20/ERC20.sol\":3519:3537  _balances[account] */\n      0xffffffffffffffffffffffffffffffffffffffff\n      and\n      0xffffffffffffffffffffffffffffffffffffffff\n      and\n      dup2\n      mstore\n      0x20\n      add\n      swap1\n      dup2\n      mstore\n      0x20\n      add\n      0x00\n      keccak256\n      sload\n        /* \"@openzeppelin/contracts/token/ERC20/ERC20.sol\":3512:3537  return _balances[account] */\n      swap1\n      pop\n        /* \"@openzeppelin/contracts/token/ERC20/ERC20.sol\":3419:3544  function balanceOf(address account) public view virtual override returns (uint256) {... */\n      swap2\n      swap1\n      pop\n      jump\t// out\n        /* \"@openzeppelin/contracts/access/Ownable.sol\":1824:1925  function renounceOwnership() public virtual onlyOwner {... */\n    tag_97:\n        /* \"@openzeppelin/contracts/access/Ownable.sol\":1094:1107  _checkOwner() */\n      tag_216\n        /* \"@openzeppelin/contracts/access/Ownable.sol\":1094:1105  _checkOwner */\n      tag_148\n        /* \"@openzeppelin/contracts/access/Ownable.sol\":1094:1107  _checkOwner() */\n      jump\t// in\n    tag_216:\n        /* \"@openzeppelin/contracts/access/Ownable.sol\":1888:1918  _transferOwnership(address(0)) */\n      tag_218\n        /* \"@openzeppelin/contracts/access/Ownable.sol\":1915:1916  0 */\n      0x00\n        /* \"@openzeppelin/contracts/access/Ownable.sol\":1888:1906  _transferOwnership */\n      tag_219\n        /* \"@openzeppelin/contracts/access/Ownable.sol\":1888:1918  _transferOwnership(address(0)) */\n      jump\t// in\n    tag_218:\n        /* \"@openzeppelin/contracts/access/Ownable.sol\":1824:1925  function renounceOwnership() public virtual onlyOwner {... */\n      jump\t// out\n        /* \"@openzeppelin/contracts/token/ERC20/extensions/ERC20Burnable.sol\":973:1134  function burnFrom(address account, uint256 amount) public virtual {... */\n    tag_101:\n        /* \"@openzeppelin/contracts/token/ERC20/extensions/ERC20Burnable.sol\":1049:1095  _spendAllowance(account, _msgSender(), amount) */\n      tag_221\n        /* \"@openzeppelin/contracts/token/ERC20/extensions/ERC20Burnable.sol\":1065:1072  account */\n      dup3\n        /* \"@openzeppelin/contracts/token/ERC20/extensions/ERC20Burnable.sol\":1074:1086  _msgSender() */\n      tag_222\n        /* \"@openzeppelin/contracts/token/ERC20/extensions/ERC20Burnable.sol\":1074:1084  _msgSender */\n      tag_200\n        /* \"@openzeppelin/contracts/token/ERC20/extensions/ERC20Burnable.sol\":1074:1086  _msgSender() */\n      jump\t// in\n    tag_222:\n        /* \"@openzeppelin/contracts/token/ERC20/extensions/ERC20Burnable.sol\":1088:1094  amount */\n      dup4\n        /* \"@openzeppelin/contracts/token/ERC20/extensions/ERC20Burnable.sol\":1049:1064  _spendAllowance */\n      tag_223\n        /* \"@openzeppelin/contracts/token/ERC20/extensions/ERC20Burnable.sol\":1049:1095  _spendAllowance(account, _msgSender(), amount) */\n      jump\t// in\n    tag_221:\n        /* \"@openzeppelin/contracts/token/ERC20/extensions/ERC20Burnable.sol\":1105:1127  _burn(account, amount) */\n      tag_224\n        /* \"@openzeppelin/contracts/token/ERC20/extensions/ERC20Burnable.sol\":1111:1118  account */\n      dup3\n        /* \"@openzeppelin/contracts/token/ERC20/extensions/ERC20Burnable.sol\":1120:1126  amount */\n      dup3\n        /* \"@openzeppelin/contracts/token/ERC20/extensions/ERC20Burnable.sol\":1105:1110  _burn */\n      tag_169\n        /* \"@openzeppelin/contracts/token/ERC20/extensions/ERC20Burnable.sol\":1105:1127  _burn(account, amount) */\n      jump\t// in\n    tag_224:\n        /* \"@openzeppelin/contracts/token/ERC20/extensions/ERC20Burnable.sol\":973:1134  function burnFrom(address account, uint256 amount) public virtual {... */\n      pop\n      pop\n      jump\t// out\n        /* \"Final Smart Contract/Token.sol\":473:498  uint256 public tokenPrice */\n    tag_104:\n      sload(0x06)\n      dup2\n      jump\t// out\n        /* \"@openzeppelin/contracts/access/Ownable.sol\":1201:1286  function owner() public view virtual returns (address) {... */\n    tag_108:\n        /* \"@openzeppelin/contracts/access/Ownable.sol\":1247:1254  address */\n      0x00\n        /* \"@openzeppelin/contracts/access/Ownable.sol\":1273:1279  _owner */\n      0x05\n      0x00\n      swap1\n      sload\n      swap1\n      0x0100\n      exp\n      swap1\n      div\n      0xffffffffffffffffffffffffffffffffffffffff\n      and\n        /* \"@openzeppelin/contracts/access/Ownable.sol\":1266:1279  return _owner */\n      swap1\n      pop\n        /* \"@openzeppelin/contracts/access/Ownable.sol\":1201:1286  function owner() public view virtual returns (address) {... */\n      swap1\n      jump\t// out\n        /* \"@openzeppelin/contracts/token/ERC20/ERC20.sol\":2369:2471  function symbol() public view virtual override returns (string memory) {... */\n    tag_113:\n        /* \"@openzeppelin/contracts/token/ERC20/ERC20.sol\":2425:2438  string memory */\n      0x60\n        /* \"@openzeppelin/contracts/token/ERC20/ERC20.sol\":2457:2464  _symbol */\n      0x04\n        /* \"@openzeppelin/contracts/token/ERC20/ERC20.sol\":2450:2464  return _symbol */\n      dup1\n      sload\n      tag_227\n      swap1\n      tag_138\n      jump\t// in\n    tag_227:\n      dup1\n      0x1f\n      add\n      0x20\n      dup1\n      swap2\n      div\n      mul\n      0x20\n      add\n      mload(0x40)\n      swap1\n      dup2\n      add\n      0x40\n      mstore\n      dup1\n      swap3\n      swap2\n      swap1\n      dup2\n      dup2\n      mstore\n      0x20\n      add\n      dup3\n      dup1\n      sload\n      tag_228\n      swap1\n      tag_138\n      jump\t// in\n    tag_228:\n      dup1\n      iszero\n      tag_229\n      jumpi\n      dup1\n      0x1f\n      lt\n      tag_230\n      jumpi\n      0x0100\n      dup1\n      dup4\n      sload\n      div\n      mul\n      dup4\n      mstore\n      swap2\n      0x20\n      add\n      swap2\n      jump(tag_229)\n    tag_230:\n      dup3\n      add\n      swap2\n      swap1\n      0x00\n      mstore\n      keccak256(0x00, 0x20)\n      swap1\n    tag_231:\n      dup2\n      sload\n      dup2\n      mstore\n      swap1\n      0x01\n      add\n      swap1\n      0x20\n      add\n      dup1\n      dup4\n      gt\n      tag_231\n      jumpi\n      dup3\n      swap1\n      sub\n      0x1f\n      and\n      dup3\n      add\n      swap2\n    tag_229:\n      pop\n      pop\n      pop\n      pop\n      pop\n      swap1\n      pop\n        /* \"@openzeppelin/contracts/token/ERC20/ERC20.sol\":2369:2471  function symbol() public view virtual override returns (string memory) {... */\n      swap1\n      jump\t// out\n        /* \"Final Smart Contract/Token.sol\":3373:3548  function decreaseAllowance(address, uint256)... */\n    tag_118:\n        /* \"Final Smart Contract/Token.sol\":3480:3484  bool */\n      0x00\n        /* \"Final Smart Contract/Token.sol\":3500:3541  revert(\"Approval functionality disabled\") */\n      mload(0x40)\n      0x08c379a000000000000000000000000000000000000000000000000000000000\n      dup2\n      mstore\n      0x04\n      add\n      tag_233\n      swap1\n      tag_145\n      jump\t// in\n    tag_233:\n      mload(0x40)\n      dup1\n      swap2\n      sub\n      swap1\n      revert\n        /* \"@openzeppelin/contracts/token/ERC20/ERC20.sol\":3740:3929  function transfer(address to, uint256 amount) public virtual override returns (bool) {... */\n    tag_123:\n        /* \"@openzeppelin/contracts/token/ERC20/ERC20.sol\":3819:3823  bool */\n      0x00\n        /* \"@openzeppelin/contracts/token/ERC20/ERC20.sol\":3835:3848  address owner */\n      dup1\n        /* \"@openzeppelin/contracts/token/ERC20/ERC20.sol\":3851:3863  _msgSender() */\n      tag_235\n        /* \"@openzeppelin/contracts/token/ERC20/ERC20.sol\":3851:3861  _msgSender */\n      tag_200\n        /* \"@openzeppelin/contracts/token/ERC20/ERC20.sol\":3851:3863  _msgSender() */\n      jump\t// in\n    tag_235:\n        /* \"@openzeppelin/contracts/token/ERC20/ERC20.sol\":3835:3863  address owner = _msgSender() */\n      swap1\n      pop\n        /* \"@openzeppelin/contracts/token/ERC20/ERC20.sol\":3873:3901  _transfer(owner, to, amount) */\n      tag_236\n        /* \"@openzeppelin/contracts/token/ERC20/ERC20.sol\":3883:3888  owner */\n      dup2\n        /* \"@openzeppelin/contracts/token/ERC20/ERC20.sol\":3890:3892  to */\n      dup6\n        /* \"@openzeppelin/contracts/token/ERC20/ERC20.sol\":3894:3900  amount */\n      dup6\n        /* \"@openzeppelin/contracts/token/ERC20/ERC20.sol\":3873:3882  _transfer */\n      tag_163\n        /* \"@openzeppelin/contracts/token/ERC20/ERC20.sol\":3873:3901  _transfer(owner, to, amount) */\n      jump\t// in\n    tag_236:\n        /* \"@openzeppelin/contracts/token/ERC20/ERC20.sol\":3918:3922  true */\n      0x01\n        /* \"@openzeppelin/contracts/token/ERC20/ERC20.sol\":3911:3922  return true */\n      swap2\n      pop\n      pop\n        /* \"@openzeppelin/contracts/token/ERC20/ERC20.sol\":3740:3929  function transfer(address to, uint256 amount) public virtual override returns (bool) {... */\n      swap3\n      swap2\n      pop\n      pop\n      jump\t// out\n        /* \"@openzeppelin/contracts/token/ERC20/ERC20.sol\":3987:4136  function allowance(address owner, address spender) public view virtual override returns (uint256) {... */\n    tag_129:\n        /* \"@openzeppelin/contracts/token/ERC20/ERC20.sol\":4076:4083  uint256 */\n      0x00\n        /* \"@openzeppelin/contracts/token/ERC20/ERC20.sol\":4102:4113  _allowances */\n      0x01\n        /* \"@openzeppelin/contracts/token/ERC20/ERC20.sol\":4102:4120  _allowances[owner] */\n      0x00\n        /* \"@openzeppelin/contracts/token/ERC20/ERC20.sol\":4114:4119  owner */\n      dup5\n        /* \"@openzeppelin/contracts/token/ERC20/ERC20.sol\":4102:4120  _allowances[owner] */\n      0xffffffffffffffffffffffffffffffffffffffff\n      and\n      0xffffffffffffffffffffffffffffffffffffffff\n      and\n      dup2\n      mstore\n      0x20\n      add\n      swap1\n      dup2\n      mstore\n      0x20\n      add\n      0x00\n      keccak256\n        /* \"@openzeppelin/contracts/token/ERC20/ERC20.sol\":4102:4129  _allowances[owner][spender] */\n      0x00\n        /* \"@openzeppelin/contracts/token/ERC20/ERC20.sol\":4121:4128  spender */\n      dup4\n        /* \"@openzeppelin/contracts/token/ERC20/ERC20.sol\":4102:4129  _allowances[owner][spender] */\n      0xffffffffffffffffffffffffffffffffffffffff\n      and\n      0xffffffffffffffffffffffffffffffffffffffff\n      and\n      dup2\n      mstore\n      0x20\n      add\n      swap1\n      dup2\n      mstore\n      0x20\n      add\n      0x00\n      keccak256\n      sload\n        /* \"@openzeppelin/contracts/token/ERC20/ERC20.sol\":4095:4129  return _allowances[owner][spender] */\n      swap1\n      pop\n        /* \"@openzeppelin/contracts/token/ERC20/ERC20.sol\":3987:4136  function allowance(address owner, address spender) public view virtual override returns (uint256) {... */\n      swap3\n      swap2\n      pop\n      pop\n      jump\t// out\n        /* \"@openzeppelin/contracts/access/Ownable.sol\":2074:2272  function transferOwnership(address newOwner) public virtual onlyOwner {... */\n    tag_134:\n        /* \"@openzeppelin/contracts/access/Ownable.sol\":1094:1107  _checkOwner() */\n      tag_239\n        /* \"@openzeppelin/contracts/access/Ownable.sol\":1094:1105  _checkOwner */\n      tag_148\n        /* \"@openzeppelin/contracts/access/Ownable.sol\":1094:1107  _checkOwner() */\n      jump\t// in\n    tag_239:\n        /* \"@openzeppelin/contracts/access/Ownable.sol\":2182:2183  0 */\n      0x00\n        /* \"@openzeppelin/contracts/access/Ownable.sol\":2162:2184  newOwner != address(0) */\n      0xffffffffffffffffffffffffffffffffffffffff\n      and\n        /* \"@openzeppelin/contracts/access/Ownable.sol\":2162:2170  newOwner */\n      dup2\n        /* \"@openzeppelin/contracts/access/Ownable.sol\":2162:2184  newOwner != address(0) */\n      0xffffffffffffffffffffffffffffffffffffffff\n      and\n      sub\n        /* \"@openzeppelin/contracts/access/Ownable.sol\":2154:2227  require(newOwner != address(0), \"Ownable: new owner is the zero address\") */\n      tag_241\n      jumpi\n      mload(0x40)\n      0x08c379a000000000000000000000000000000000000000000000000000000000\n      dup2\n      mstore\n      0x04\n      add\n      tag_242\n      swap1\n      tag_243\n      jump\t// in\n    tag_242:\n      mload(0x40)\n      dup1\n      swap2\n      sub\n      swap1\n      revert\n    tag_241:\n        /* \"@openzeppelin/contracts/access/Ownable.sol\":2237:2265  _transferOwnership(newOwner) */\n      tag_244\n        /* \"@openzeppelin/contracts/access/Ownable.sol\":2256:2264  newOwner */\n      dup2\n        /* \"@openzeppelin/contracts/access/Ownable.sol\":2237:2255  _transferOwnership */\n      tag_219\n        /* \"@openzeppelin/contracts/access/Ownable.sol\":2237:2265  _transferOwnership(newOwner) */\n      jump\t// in\n    tag_244:\n        /* \"@openzeppelin/contracts/access/Ownable.sol\":2074:2272  function transferOwnership(address newOwner) public virtual onlyOwner {... */\n      pop\n      jump\t// out\n        /* \"@openzeppelin/contracts/token/ERC20/ERC20.sol\":8524:9059  function _mint(address account, uint256 amount) internal virtual {... */\n    tag_135:\n        /* \"@openzeppelin/contracts/token/ERC20/ERC20.sol\":8626:8627  0 */\n      0x00\n        /* \"@openzeppelin/contracts/token/ERC20/ERC20.sol\":8607:8628  account != address(0) */\n      0xffffffffffffffffffffffffffffffffffffffff\n      and\n        /* \"@openzeppelin/contracts/token/ERC20/ERC20.sol\":8607:8614  account */\n      dup3\n        /* \"@openzeppelin/contracts/token/ERC20/ERC20.sol\":8607:8628  account != address(0) */\n      0xffffffffffffffffffffffffffffffffffffffff\n      and\n      sub\n        /* \"@openzeppelin/contracts/token/ERC20/ERC20.sol\":8599:8664  require(account != address(0), \"ERC20: mint to the zero address\") */\n      tag_246\n      jumpi\n      mload(0x40)\n      0x08c379a000000000000000000000000000000000000000000000000000000000\n      dup2\n      mstore\n      0x04\n      add\n      tag_247\n      swap1\n      tag_248\n      jump\t// in\n    tag_247:\n      mload(0x40)\n      dup1\n      swap2\n      sub\n      swap1\n      revert\n    tag_246:\n        /* \"@openzeppelin/contracts/token/ERC20/ERC20.sol\":8675:8724  _beforeTokenTransfer(address(0), account, amount) */\n      tag_249\n        /* \"@openzeppelin/contracts/token/ERC20/ERC20.sol\":8704:8705  0 */\n      0x00\n        /* \"@openzeppelin/contracts/token/ERC20/ERC20.sol\":8708:8715  account */\n      dup4\n        /* \"@openzeppelin/contracts/token/ERC20/ERC20.sol\":8717:8723  amount */\n      dup4\n        /* \"@openzeppelin/contracts/token/ERC20/ERC20.sol\":8675:8695  _beforeTokenTransfer */\n      tag_250\n        /* \"@openzeppelin/contracts/token/ERC20/ERC20.sol\":8675:8724  _beforeTokenTransfer(address(0), account, amount) */\n      jump\t// in\n    tag_249:\n        /* \"@openzeppelin/contracts/token/ERC20/ERC20.sol\":8751:8757  amount */\n      dup1\n        /* \"@openzeppelin/contracts/token/ERC20/ERC20.sol\":8735:8747  _totalSupply */\n      0x02\n      0x00\n        /* \"@openzeppelin/contracts/token/ERC20/ERC20.sol\":8735:8757  _totalSupply += amount */\n      dup3\n      dup3\n      sload\n      tag_251\n      swap2\n      swap1\n      tag_252\n      jump\t// in\n    tag_251:\n      swap3\n      pop\n      pop\n      dup2\n      swap1\n      sstore\n      pop\n        /* \"@openzeppelin/contracts/token/ERC20/ERC20.sol\":8925:8931  amount */\n      dup1\n        /* \"@openzeppelin/contracts/token/ERC20/ERC20.sol\":8903:8912  _balances */\n      0x00\n        /* \"@openzeppelin/contracts/token/ERC20/ERC20.sol\":8903:8921  _balances[account] */\n      dup1\n        /* \"@openzeppelin/contracts/token/ERC20/ERC20.sol\":8913:8920  account */\n      dup5\n        /* \"@openzeppelin/contracts/token/ERC20/ERC20.sol\":8903:8921  _balances[account] */\n      0xffffffffffffffffffffffffffffffffffffffff\n      and\n      0xffffffffffffffffffffffffffffffffffffffff\n      and\n      dup2\n      mstore\n      0x20\n      add\n      swap1\n      dup2\n      mstore\n      0x20\n      add\n      0x00\n      keccak256\n      0x00\n        /* \"@openzeppelin/contracts/token/ERC20/ERC20.sol\":8903:8931  _balances[account] += amount */\n      dup3\n      dup3\n      sload\n      add\n      swap3\n      pop\n      pop\n      dup2\n      swap1\n      sstore\n      pop\n        /* \"@openzeppelin/contracts/token/ERC20/ERC20.sol\":8977:8984  account */\n      dup2\n        /* \"@openzeppelin/contracts/token/ERC20/ERC20.sol\":8956:8993  Transfer(address(0), account, amount) */\n      0xffffffffffffffffffffffffffffffffffffffff\n      and\n        /* \"@openzeppelin/contracts/token/ERC20/ERC20.sol\":8973:8974  0 */\n      0x00\n        /* \"@openzeppelin/contracts/token/ERC20/ERC20.sol\":8956:8993  Transfer(address(0), account, amount) */\n      0xffffffffffffffffffffffffffffffffffffffff\n      and\n      0xddf252ad1be2c89b69c2b068fc378daa952ba7f163c4a11628f55a4df523b3ef\n        /* \"@openzeppelin/contracts/token/ERC20/ERC20.sol\":8986:8992  amount */\n      dup4\n        /* \"@openzeppelin/contracts/token/ERC20/ERC20.sol\":8956:8993  Transfer(address(0), account, amount) */\n      mload(0x40)\n      tag_253\n      swap2\n      swap1\n      tag_49\n      jump\t// in\n    tag_253:\n      mload(0x40)\n      dup1\n      swap2\n      sub\n      swap1\n      log3\n        /* \"@openzeppelin/contracts/token/ERC20/ERC20.sol\":9004:9052  _afterTokenTransfer(address(0), account, amount) */\n      tag_254\n        /* \"@openzeppelin/contracts/token/ERC20/ERC20.sol\":9032:9033  0 */\n      0x00\n        /* \"@openzeppelin/contracts/token/ERC20/ERC20.sol\":9036:9043  account */\n      dup4\n        /* \"@openzeppelin/contracts/token/ERC20/ERC20.sol\":9045:9051  amount */\n      dup4\n        /* \"@openzeppelin/contracts/token/ERC20/ERC20.sol\":9004:9023  _afterTokenTransfer */\n      tag_255\n        /* \"@openzeppelin/contracts/token/ERC20/ERC20.sol\":9004:9052  _afterTokenTransfer(address(0), account, amount) */\n      jump\t// in\n    tag_254:\n        /* \"@openzeppelin/contracts/token/ERC20/ERC20.sol\":8524:9059  function _mint(address account, uint256 amount) internal virtual {... */\n      pop\n      pop\n      jump\t// out\n        /* \"@openzeppelin/contracts/access/Ownable.sol\":1359:1489  function _checkOwner() internal view virtual {... */\n    tag_148:\n        /* \"@openzeppelin/contracts/access/Ownable.sol\":1433:1445  _msgSender() */\n      tag_257\n        /* \"@openzeppelin/contracts/access/Ownable.sol\":1433:1443  _msgSender */\n      tag_200\n        /* \"@openzeppelin/contracts/access/Ownable.sol\":1433:1445  _msgSender() */\n      jump\t// in\n    tag_257:\n        /* \"@openzeppelin/contracts/access/Ownable.sol\":1422:1445  owner() == _msgSender() */\n      0xffffffffffffffffffffffffffffffffffffffff\n      and\n        /* \"@openzeppelin/contracts/access/Ownable.sol\":1422:1429  owner() */\n      tag_258\n        /* \"@openzeppelin/contracts/access/Ownable.sol\":1422:1427  owner */\n      tag_108\n        /* \"@openzeppelin/contracts/access/Ownable.sol\":1422:1429  owner() */\n      jump\t// in\n    tag_258:\n        /* \"@openzeppelin/contracts/access/Ownable.sol\":1422:1445  owner() == _msgSender() */\n      0xffffffffffffffffffffffffffffffffffffffff\n      and\n      eq\n        /* \"@openzeppelin/contracts/access/Ownable.sol\":1414:1482  require(owner() == _msgSender(), \"Ownable: caller is not the owner\") */\n      tag_259\n      jumpi\n      mload(0x40)\n      0x08c379a000000000000000000000000000000000000000000000000000000000\n      dup2\n      mstore\n      0x04\n      add\n      tag_260\n      swap1\n      tag_261\n      jump\t// in\n    tag_260:\n      mload(0x40)\n      dup1\n      swap2\n      sub\n      swap1\n      revert\n    tag_259:\n        /* \"@openzeppelin/contracts/access/Ownable.sol\":1359:1489  function _checkOwner() internal view virtual {... */\n      jump\t// out\n        /* \"@openzeppelin/contracts/utils/math/SafeMath.sol\":3465:3561  function mul(uint256 a, uint256 b) internal pure returns (uint256) {... */\n    tag_154:\n        /* \"@openzeppelin/contracts/utils/math/SafeMath.sol\":3523:3530  uint256 */\n      0x00\n        /* \"@openzeppelin/contracts/utils/math/SafeMath.sol\":3553:3554  b */\n      dup2\n        /* \"@openzeppelin/contracts/utils/math/SafeMath.sol\":3549:3550  a */\n      dup4\n        /* \"@openzeppelin/contracts/utils/math/SafeMath.sol\":3549:3554  a * b */\n      tag_263\n      swap2\n      swap1\n      tag_181\n      jump\t// in\n    tag_263:\n        /* \"@openzeppelin/contracts/utils/math/SafeMath.sol\":3542:3554  return a * b */\n      swap1\n      pop\n        /* \"@openzeppelin/contracts/utils/math/SafeMath.sol\":3465:3561  function mul(uint256 a, uint256 b) internal pure returns (uint256) {... */\n      swap3\n      swap2\n      pop\n      pop\n      jump\t// out\n        /* \"Final Smart Contract/Token.sol\":2505:2664  function _transfer(... */\n    tag_163:\n        /* \"Final Smart Contract/Token.sol\":2624:2657  super._transfer(from, to, amount) */\n      tag_265\n        /* \"Final Smart Contract/Token.sol\":2640:2644  from */\n      dup4\n        /* \"Final Smart Contract/Token.sol\":2646:2648  to */\n      dup4\n        /* \"Final Smart Contract/Token.sol\":2650:2656  amount */\n      dup4\n        /* \"Final Smart Contract/Token.sol\":2624:2639  super._transfer */\n      tag_266\n        /* \"Final Smart Contract/Token.sol\":2624:2657  super._transfer(from, to, amount) */\n      jump\t// in\n    tag_265:\n        /* \"Final Smart Contract/Token.sol\":2505:2664  function _transfer(... */\n      pop\n      pop\n      pop\n      jump\t// out\n        /* \"@openzeppelin/contracts/token/ERC20/ERC20.sol\":9379:10038  function _burn(address account, uint256 amount) internal virtual {... */\n    tag_169:\n        /* \"@openzeppelin/contracts/token/ERC20/ERC20.sol\":9481:9482  0 */\n      0x00\n        /* \"@openzeppelin/contracts/token/ERC20/ERC20.sol\":9462:9483  account != address(0) */\n      0xffffffffffffffffffffffffffffffffffffffff\n      and\n        /* \"@openzeppelin/contracts/token/ERC20/ERC20.sol\":9462:9469  account */\n      dup3\n        /* \"@openzeppelin/contracts/token/ERC20/ERC20.sol\":9462:9483  account != address(0) */\n      0xffffffffffffffffffffffffffffffffffffffff\n      and\n      sub\n        /* \"@openzeppelin/contracts/token/ERC20/ERC20.sol\":9454:9521  require(account != address(0), \"ERC20: burn from the zero address\") */\n      tag_268\n      jumpi\n      mload(0x40)\n      0x08c379a000000000000000000000000000000000000000000000000000000000\n      dup2\n      mstore\n      0x04\n      add\n      tag_269\n      swap1\n      tag_270\n      jump\t// in\n    tag_269:\n      mload(0x40)\n      dup1\n      swap2\n      sub\n      swap1\n      revert\n    tag_268:\n        /* \"@openzeppelin/contracts/token/ERC20/ERC20.sol\":9532:9581  _beforeTokenTransfer(account, address(0), amount) */\n      tag_271\n        /* \"@openzeppelin/contracts/token/ERC20/ERC20.sol\":9553:9560  account */\n      dup3\n        /* \"@openzeppelin/contracts/token/ERC20/ERC20.sol\":9570:9571  0 */\n      0x00\n        /* \"@openzeppelin/contracts/token/ERC20/ERC20.sol\":9574:9580  amount */\n      dup4\n        /* \"@openzeppelin/contracts/token/ERC20/ERC20.sol\":9532:9552  _beforeTokenTransfer */\n      tag_250\n        /* \"@openzeppelin/contracts/token/ERC20/ERC20.sol\":9532:9581  _beforeTokenTransfer(account, address(0), amount) */\n      jump\t// in\n    tag_271:\n        /* \"@openzeppelin/contracts/token/ERC20/ERC20.sol\":9592:9614  uint256 accountBalance */\n      0x00\n        /* \"@openzeppelin/contracts/token/ERC20/ERC20.sol\":9617:9626  _balances */\n      dup1\n        /* \"@openzeppelin/contracts/token/ERC20/ERC20.sol\":9617:9635  _balances[account] */\n      0x00\n        /* \"@openzeppelin/contracts/token/ERC20/ERC20.sol\":9627:9634  account */\n      dup5\n        /* \"@openzeppelin/contracts/token/ERC20/ERC20.sol\":9617:9635  _balances[account] */\n      0xffffffffffffffffffffffffffffffffffffffff\n      and\n      0xffffffffffffffffffffffffffffffffffffffff\n      and\n      dup2\n      mstore\n      0x20\n      add\n      swap1\n      dup2\n      mstore\n      0x20\n      add\n      0x00\n      keccak256\n      sload\n        /* \"@openzeppelin/contracts/token/ERC20/ERC20.sol\":9592:9635  uint256 accountBalance = _balances[account] */\n      swap1\n      pop\n        /* \"@openzeppelin/contracts/token/ERC20/ERC20.sol\":9671:9677  amount */\n      dup2\n        /* \"@openzeppelin/contracts/token/ERC20/ERC20.sol\":9653:9667  accountBalance */\n      dup2\n        /* \"@openzeppelin/contracts/token/ERC20/ERC20.sol\":9653:9677  accountBalance >= amount */\n      lt\n      iszero\n        /* \"@openzeppelin/contracts/token/ERC20/ERC20.sol\":9645:9716  require(accountBalance >= amount, \"ERC20: burn amount exceeds balance\") */\n      tag_272\n      jumpi\n      mload(0x40)\n      0x08c379a000000000000000000000000000000000000000000000000000000000\n      dup2\n      mstore\n      0x04\n      add\n      tag_273\n      swap1\n      tag_274\n      jump\t// in\n    tag_273:\n      mload(0x40)\n      dup1\n      swap2\n      sub\n      swap1\n      revert\n    tag_272:\n        /* \"@openzeppelin/contracts/token/ERC20/ERC20.sol\":9788:9794  amount */\n      dup2\n        /* \"@openzeppelin/contracts/token/ERC20/ERC20.sol\":9771:9785  accountBalance */\n      dup2\n        /* \"@openzeppelin/contracts/token/ERC20/ERC20.sol\":9771:9794  accountBalance - amount */\n      sub\n        /* \"@openzeppelin/contracts/token/ERC20/ERC20.sol\":9750:9759  _balances */\n      0x00\n        /* \"@openzeppelin/contracts/token/ERC20/ERC20.sol\":9750:9768  _balances[account] */\n      dup1\n        /* \"@openzeppelin/contracts/token/ERC20/ERC20.sol\":9760:9767  account */\n      dup6\n        /* \"@openzeppelin/contracts/token/ERC20/ERC20.sol\":9750:9768  _balances[account] */\n      0xffffffffffffffffffffffffffffffffffffffff\n      and\n      0xffffffffffffffffffffffffffffffffffffffff\n      and\n      dup2\n      mstore\n      0x20\n      add\n      swap1\n      dup2\n      mstore\n      0x20\n      add\n      0x00\n      keccak256\n        /* \"@openzeppelin/contracts/token/ERC20/ERC20.sol\":9750:9794  _balances[account] = accountBalance - amount */\n      dup2\n      swap1\n      sstore\n      pop\n        /* \"@openzeppelin/contracts/token/ERC20/ERC20.sol\":9903:9909  amount */\n      dup2\n        /* \"@openzeppelin/contracts/token/ERC20/ERC20.sol\":9887:9899  _totalSupply */\n      0x02\n      0x00\n        /* \"@openzeppelin/contracts/token/ERC20/ERC20.sol\":9887:9909  _totalSupply -= amount */\n      dup3\n      dup3\n      sload\n      sub\n      swap3\n      pop\n      pop\n      dup2\n      swap1\n      sstore\n      pop\n        /* \"@openzeppelin/contracts/token/ERC20/ERC20.sol\":9961:9962  0 */\n      0x00\n        /* \"@openzeppelin/contracts/token/ERC20/ERC20.sol\":9935:9972  Transfer(account, address(0), amount) */\n      0xffffffffffffffffffffffffffffffffffffffff\n      and\n        /* \"@openzeppelin/contracts/token/ERC20/ERC20.sol\":9944:9951  account */\n      dup4\n        /* \"@openzeppelin/contracts/token/ERC20/ERC20.sol\":9935:9972  Transfer(account, address(0), amount) */\n      0xffffffffffffffffffffffffffffffffffffffff\n      and\n      0xddf252ad1be2c89b69c2b068fc378daa952ba7f163c4a11628f55a4df523b3ef\n        /* \"@openzeppelin/contracts/token/ERC20/ERC20.sol\":9965:9971  amount */\n      dup5\n        /* \"@openzeppelin/contracts/token/ERC20/ERC20.sol\":9935:9972  Transfer(account, address(0), amount) */\n      mload(0x40)\n      tag_275\n      swap2\n      swap1\n      tag_49\n      jump\t// in\n    tag_275:\n      mload(0x40)\n      dup1\n      swap2\n      sub\n      swap1\n      log3\n        /* \"@openzeppelin/contracts/token/ERC20/ERC20.sol\":9983:10031  _afterTokenTransfer(account, address(0), amount) */\n      tag_276\n        /* \"@openzeppelin/contracts/token/ERC20/ERC20.sol\":10003:10010  account */\n      dup4\n        /* \"@openzeppelin/contracts/token/ERC20/ERC20.sol\":10020:10021  0 */\n      0x00\n        /* \"@openzeppelin/contracts/token/ERC20/ERC20.sol\":10024:10030  amount */\n      dup5\n        /* \"@openzeppelin/contracts/token/ERC20/ERC20.sol\":9983:10002  _afterTokenTransfer */\n      tag_255\n        /* \"@openzeppelin/contracts/token/ERC20/ERC20.sol\":9983:10031  _afterTokenTransfer(account, address(0), amount) */\n      jump\t// in\n    tag_276:\n        /* \"@openzeppelin/contracts/token/ERC20/ERC20.sol\":9444:10038  {... */\n      pop\n        /* \"@openzeppelin/contracts/token/ERC20/ERC20.sol\":9379:10038  function _burn(address account, uint256 amount) internal virtual {... */\n      pop\n      pop\n      jump\t// out\n        /* \"Final Smart Contract/Token.sol\":2670:2781  function _mint(address account, uint256 amount) internal override {... */\n    tag_196:\n        /* \"Final Smart Contract/Token.sol\":2746:2774  super._mint(account, amount) */\n      tag_278\n        /* \"Final Smart Contract/Token.sol\":2758:2765  account */\n      dup3\n        /* \"Final Smart Contract/Token.sol\":2767:2773  amount */\n      dup3\n        /* \"Final Smart Contract/Token.sol\":2746:2757  super._mint */\n      tag_135\n        /* \"Final Smart Contract/Token.sol\":2746:2774  super._mint(account, amount) */\n      jump\t// in\n    tag_278:\n        /* \"Final Smart Contract/Token.sol\":2670:2781  function _mint(address account, uint256 amount) internal override {... */\n      pop\n      pop\n      jump\t// out\n        /* \"@openzeppelin/contracts/utils/Context.sol\":640:736  function _msgSender() internal view virtual returns (address) {... */\n    tag_200:\n        /* \"@openzeppelin/contracts/utils/Context.sol\":693:700  address */\n      0x00\n        /* \"@openzeppelin/contracts/utils/Context.sol\":719:729  msg.sender */\n      caller\n        /* \"@openzeppelin/contracts/utils/Context.sol\":712:729  return msg.sender */\n      swap1\n      pop\n        /* \"@openzeppelin/contracts/utils/Context.sol\":640:736  function _msgSender() internal view virtual returns (address) {... */\n      swap1\n      jump\t// out\n        /* \"@openzeppelin/contracts/utils/math/SafeMath.sol\":3850:3946  function div(uint256 a, uint256 b) internal pure returns (uint256) {... */\n    tag_210:\n        /* \"@openzeppelin/contracts/utils/math/SafeMath.sol\":3908:3915  uint256 */\n      0x00\n        /* \"@openzeppelin/contracts/utils/math/SafeMath.sol\":3938:3939  b */\n      dup2\n        /* \"@openzeppelin/contracts/utils/math/SafeMath.sol\":3934:3935  a */\n      dup4\n        /* \"@openzeppelin/contracts/utils/math/SafeMath.sol\":3934:3939  a / b */\n      tag_281\n      swap2\n      swap1\n      tag_282\n      jump\t// in\n    tag_281:\n        /* \"@openzeppelin/contracts/utils/math/SafeMath.sol\":3927:3939  return a / b */\n      swap1\n      pop\n        /* \"@openzeppelin/contracts/utils/math/SafeMath.sol\":3850:3946  function div(uint256 a, uint256 b) internal pure returns (uint256) {... */\n      swap3\n      swap2\n      pop\n      pop\n      jump\t// out\n        /* \"@openzeppelin/contracts/access/Ownable.sol\":2426:2613  function _transferOwnership(address newOwner) internal virtual {... */\n    tag_219:\n        /* \"@openzeppelin/contracts/access/Ownable.sol\":2499:2515  address oldOwner */\n      0x00\n        /* \"@openzeppelin/contracts/access/Ownable.sol\":2518:2524  _owner */\n      0x05\n      0x00\n      swap1\n      sload\n      swap1\n      0x0100\n      exp\n      swap1\n      div\n      0xffffffffffffffffffffffffffffffffffffffff\n      and\n        /* \"@openzeppelin/contracts/access/Ownable.sol\":2499:2524  address oldOwner = _owner */\n      swap1\n      pop\n        /* \"@openzeppelin/contracts/access/Ownable.sol\":2543:2551  newOwner */\n      dup2\n        /* \"@openzeppelin/contracts/access/Ownable.sol\":2534:2540  _owner */\n      0x05\n      0x00\n        /* \"@openzeppelin/contracts/access/Ownable.sol\":2534:2551  _owner = newOwner */\n      0x0100\n      exp\n      dup2\n      sload\n      dup2\n      0xffffffffffffffffffffffffffffffffffffffff\n      mul\n      not\n      and\n      swap1\n      dup4\n      0xffffffffffffffffffffffffffffffffffffffff\n      and\n      mul\n      or\n      swap1\n      sstore\n      pop\n        /* \"@openzeppelin/contracts/access/Ownable.sol\":2597:2605  newOwner */\n      dup2\n        /* \"@openzeppelin/contracts/access/Ownable.sol\":2566:2606  OwnershipTransferred(oldOwner, newOwner) */\n      0xffffffffffffffffffffffffffffffffffffffff\n      and\n        /* \"@openzeppelin/contracts/access/Ownable.sol\":2587:2595  oldOwner */\n      dup2\n        /* \"@openzeppelin/contracts/access/Ownable.sol\":2566:2606  OwnershipTransferred(oldOwner, newOwner) */\n      0xffffffffffffffffffffffffffffffffffffffff\n      and\n      0x8be0079c531659141344cd1fd0a4f28419497f9722a3daafe3b4186f6b6457e0\n      mload(0x40)\n      mload(0x40)\n      dup1\n      swap2\n      sub\n      swap1\n      log3\n        /* \"@openzeppelin/contracts/access/Ownable.sol\":2489:2613  {... */\n      pop\n        /* \"@openzeppelin/contracts/access/Ownable.sol\":2426:2613  function _transferOwnership(address newOwner) internal virtual {... */\n      pop\n      jump\t// out\n        /* \"@openzeppelin/contracts/token/ERC20/ERC20.sol\":11082:11493  function _spendAllowance(address owner, address spender, uint256 amount) internal virtual {... */\n    tag_223:\n        /* \"@openzeppelin/contracts/token/ERC20/ERC20.sol\":11182:11206  uint256 currentAllowance */\n      0x00\n        /* \"@openzeppelin/contracts/token/ERC20/ERC20.sol\":11209:11234  allowance(owner, spender) */\n      tag_285\n        /* \"@openzeppelin/contracts/token/ERC20/ERC20.sol\":11219:11224  owner */\n      dup5\n        /* \"@openzeppelin/contracts/token/ERC20/ERC20.sol\":11226:11233  spender */\n      dup5\n        /* \"@openzeppelin/contracts/token/ERC20/ERC20.sol\":11209:11218  allowance */\n      tag_129\n        /* \"@openzeppelin/contracts/token/ERC20/ERC20.sol\":11209:11234  allowance(owner, spender) */\n      jump\t// in\n    tag_285:\n        /* \"@openzeppelin/contracts/token/ERC20/ERC20.sol\":11182:11234  uint256 currentAllowance = allowance(owner, spender) */\n      swap1\n      pop\n        /* \"@openzeppelin/contracts/token/ERC20/ERC20.sol\":11268:11285  type(uint256).max */\n      0xffffffffffffffffffffffffffffffffffffffffffffffffffffffffffffffff\n        /* \"@openzeppelin/contracts/token/ERC20/ERC20.sol\":11248:11264  currentAllowance */\n      dup2\n        /* \"@openzeppelin/contracts/token/ERC20/ERC20.sol\":11248:11285  currentAllowance != type(uint256).max */\n      eq\n        /* \"@openzeppelin/contracts/token/ERC20/ERC20.sol\":11244:11487  if (currentAllowance != type(uint256).max) {... */\n      tag_286\n      jumpi\n        /* \"@openzeppelin/contracts/token/ERC20/ERC20.sol\":11329:11335  amount */\n      dup2\n        /* \"@openzeppelin/contracts/token/ERC20/ERC20.sol\":11309:11325  currentAllowance */\n      dup2\n        /* \"@openzeppelin/contracts/token/ERC20/ERC20.sol\":11309:11335  currentAllowance >= amount */\n      lt\n      iszero\n        /* \"@openzeppelin/contracts/token/ERC20/ERC20.sol\":11301:11369  require(currentAllowance >= amount, \"ERC20: insufficient allowance\") */\n      tag_287\n      jumpi\n      mload(0x40)\n      0x08c379a000000000000000000000000000000000000000000000000000000000\n      dup2\n      mstore\n      0x04\n      add\n      tag_288\n      swap1\n      tag_289\n      jump\t// in\n    tag_288:\n      mload(0x40)\n      dup1\n      swap2\n      sub\n      swap1\n      revert\n    tag_287:\n        /* \"@openzeppelin/contracts/token/ERC20/ERC20.sol\":11411:11462  _approve(owner, spender, currentAllowance - amount) */\n      tag_290\n        /* \"@openzeppelin/contracts/token/ERC20/ERC20.sol\":11420:11425  owner */\n      dup5\n        /* \"@openzeppelin/contracts/token/ERC20/ERC20.sol\":11427:11434  spender */\n      dup5\n        /* \"@openzeppelin/contracts/token/ERC20/ERC20.sol\":11455:11461  amount */\n      dup5\n        /* \"@openzeppelin/contracts/token/ERC20/ERC20.sol\":11436:11452  currentAllowance */\n      dup5\n        /* \"@openzeppelin/contracts/token/ERC20/ERC20.sol\":11436:11461  currentAllowance - amount */\n      sub\n        /* \"@openzeppelin/contracts/token/ERC20/ERC20.sol\":11411:11419  _approve */\n      tag_291\n        /* \"@openzeppelin/contracts/token/ERC20/ERC20.sol\":11411:11462  _approve(owner, spender, currentAllowance - amount) */\n      jump\t// in\n    tag_290:\n        /* \"@openzeppelin/contracts/token/ERC20/ERC20.sol\":11244:11487  if (currentAllowance != type(uint256).max) {... */\n    tag_286:\n        /* \"@openzeppelin/contracts/token/ERC20/ERC20.sol\":11172:11493  {... */\n      pop\n        /* \"@openzeppelin/contracts/token/ERC20/ERC20.sol\":11082:11493  function _spendAllowance(address owner, address spender, uint256 amount) internal virtual {... */\n      pop\n      pop\n      pop\n      jump\t// out\n        /* \"@openzeppelin/contracts/token/ERC20/ERC20.sol\":12077:12168  function _beforeTokenTransfer(address from, address to, uint256 amount) internal virtual {} */\n    tag_250:\n      pop\n      pop\n      pop\n      jump\t// out\n        /* \"@openzeppelin/contracts/token/ERC20/ERC20.sol\":12756:12846  function _afterTokenTransfer(address from, address to, uint256 amount) internal virtual {} */\n    tag_255:\n      pop\n      pop\n      pop\n      jump\t// out\n        /* \"@openzeppelin/contracts/token/ERC20/ERC20.sol\":7460:8248  function _transfer(address from, address to, uint256 amount) internal virtual {... */\n    tag_266:\n        /* \"@openzeppelin/contracts/token/ERC20/ERC20.sol\":7572:7573  0 */\n      0x00\n        /* \"@openzeppelin/contracts/token/ERC20/ERC20.sol\":7556:7574  from != address(0) */\n      0xffffffffffffffffffffffffffffffffffffffff\n      and\n        /* \"@openzeppelin/contracts/token/ERC20/ERC20.sol\":7556:7560  from */\n      dup4\n        /* \"@openzeppelin/contracts/token/ERC20/ERC20.sol\":7556:7574  from != address(0) */\n      0xffffffffffffffffffffffffffffffffffffffff\n      and\n      sub\n        /* \"@openzeppelin/contracts/token/ERC20/ERC20.sol\":7548:7616  require(from != address(0), \"ERC20: transfer from the zero address\") */\n      tag_295\n      jumpi\n      mload(0x40)\n      0x08c379a000000000000000000000000000000000000000000000000000000000\n      dup2\n      mstore\n      0x04\n      add\n      tag_296\n      swap1\n      tag_297\n      jump\t// in\n    tag_296:\n      mload(0x40)\n      dup1\n      swap2\n      sub\n      swap1\n      revert\n    tag_295:\n        /* \"@openzeppelin/contracts/token/ERC20/ERC20.sol\":7648:7649  0 */\n      0x00\n        /* \"@openzeppelin/contracts/token/ERC20/ERC20.sol\":7634:7650  to != address(0) */\n      0xffffffffffffffffffffffffffffffffffffffff\n      and\n        /* \"@openzeppelin/contracts/token/ERC20/ERC20.sol\":7634:7636  to */\n      dup3\n        /* \"@openzeppelin/contracts/token/ERC20/ERC20.sol\":7634:7650  to != address(0) */\n      0xffffffffffffffffffffffffffffffffffffffff\n      and\n      sub\n        /* \"@openzeppelin/contracts/token/ERC20/ERC20.sol\":7626:7690  require(to != address(0), \"ERC20: transfer to the zero address\") */\n      tag_298\n      jumpi\n      mload(0x40)\n      0x08c379a000000000000000000000000000000000000000000000000000000000\n      dup2\n      mstore\n      0x04\n      add\n      tag_299\n      swap1\n      tag_300\n      jump\t// in\n    tag_299:\n      mload(0x40)\n      dup1\n      swap2\n      sub\n      swap1\n      revert\n    tag_298:\n        /* \"@openzeppelin/contracts/token/ERC20/ERC20.sol\":7701:7739  _beforeTokenTransfer(from, to, amount) */\n      tag_301\n        /* \"@openzeppelin/contracts/token/ERC20/ERC20.sol\":7722:7726  from */\n      dup4\n        /* \"@openzeppelin/contracts/token/ERC20/ERC20.sol\":7728:7730  to */\n      dup4\n        /* \"@openzeppelin/contracts/token/ERC20/ERC20.sol\":7732:7738  amount */\n      dup4\n        /* \"@openzeppelin/contracts/token/ERC20/ERC20.sol\":7701:7721  _beforeTokenTransfer */\n      tag_250\n        /* \"@openzeppelin/contracts/token/ERC20/ERC20.sol\":7701:7739  _beforeTokenTransfer(from, to, amount) */\n      jump\t// in\n    tag_301:\n        /* \"@openzeppelin/contracts/token/ERC20/ERC20.sol\":7750:7769  uint256 fromBalance */\n      0x00\n        /* \"@openzeppelin/contracts/token/ERC20/ERC20.sol\":7772:7781  _balances */\n      dup1\n        /* \"@openzeppelin/contracts/token/ERC20/ERC20.sol\":7772:7787  _balances[from] */\n      0x00\n        /* \"@openzeppelin/contracts/token/ERC20/ERC20.sol\":7782:7786  from */\n      dup6\n        /* \"@openzeppelin/contracts/token/ERC20/ERC20.sol\":7772:7787  _balances[from] */\n      0xffffffffffffffffffffffffffffffffffffffff\n      and\n      0xffffffffffffffffffffffffffffffffffffffff\n      and\n      dup2\n      mstore\n      0x20\n      add\n      swap1\n      dup2\n      mstore\n      0x20\n      add\n      0x00\n      keccak256\n      sload\n        /* \"@openzeppelin/contracts/token/ERC20/ERC20.sol\":7750:7787  uint256 fromBalance = _balances[from] */\n      swap1\n      pop\n        /* \"@openzeppelin/contracts/token/ERC20/ERC20.sol\":7820:7826  amount */\n      dup2\n        /* \"@openzeppelin/contracts/token/ERC20/ERC20.sol\":7805:7816  fromBalance */\n      dup2\n        /* \"@openzeppelin/contracts/token/ERC20/ERC20.sol\":7805:7826  fromBalance >= amount */\n      lt\n      iszero\n        /* \"@openzeppelin/contracts/token/ERC20/ERC20.sol\":7797:7869  require(fromBalance >= amount, \"ERC20: transfer amount exceeds balance\") */\n      tag_302\n      jumpi\n      mload(0x40)\n      0x08c379a000000000000000000000000000000000000000000000000000000000\n      dup2\n      mstore\n      0x04\n      add\n      tag_303\n      swap1\n      tag_304\n      jump\t// in\n    tag_303:\n      mload(0x40)\n      dup1\n      swap2\n      sub\n      swap1\n      revert\n    tag_302:\n        /* \"@openzeppelin/contracts/token/ERC20/ERC20.sol\":7935:7941  amount */\n      dup2\n        /* \"@openzeppelin/contracts/token/ERC20/ERC20.sol\":7921:7932  fromBalance */\n      dup2\n        /* \"@openzeppelin/contracts/token/ERC20/ERC20.sol\":7921:7941  fromBalance - amount */\n      sub\n        /* \"@openzeppelin/contracts/token/ERC20/ERC20.sol\":7903:7912  _balances */\n      0x00\n        /* \"@openzeppelin/contracts/token/ERC20/ERC20.sol\":7903:7918  _balances[from] */\n      dup1\n        /* \"@openzeppelin/contracts/token/ERC20/ERC20.sol\":7913:7917  from */\n      dup7\n        /* \"@openzeppelin/contracts/token/ERC20/ERC20.sol\":7903:7918  _balances[from] */\n      0xffffffffffffffffffffffffffffffffffffffff\n      and\n      0xffffffffffffffffffffffffffffffffffffffff\n      and\n      dup2\n      mstore\n      0x20\n      add\n      swap1\n      dup2\n      mstore\n      0x20\n      add\n      0x00\n      keccak256\n        /* \"@openzeppelin/contracts/token/ERC20/ERC20.sol\":7903:7941  _balances[from] = fromBalance - amount */\n      dup2\n      swap1\n      sstore\n      pop\n        /* \"@openzeppelin/contracts/token/ERC20/ERC20.sol\":8135:8141  amount */\n      dup2\n        /* \"@openzeppelin/contracts/token/ERC20/ERC20.sol\":8118:8127  _balances */\n      0x00\n        /* \"@openzeppelin/contracts/token/ERC20/ERC20.sol\":8118:8131  _balances[to] */\n      dup1\n        /* \"@openzeppelin/contracts/token/ERC20/ERC20.sol\":8128:8130  to */\n      dup6\n        /* \"@openzeppelin/contracts/token/ERC20/ERC20.sol\":8118:8131  _balances[to] */\n      0xffffffffffffffffffffffffffffffffffffffff\n      and\n      0xffffffffffffffffffffffffffffffffffffffff\n      and\n      dup2\n      mstore\n      0x20\n      add\n      swap1\n      dup2\n      mstore\n      0x20\n      add\n      0x00\n      keccak256\n      0x00\n        /* \"@openzeppelin/contracts/token/ERC20/ERC20.sol\":8118:8141  _balances[to] += amount */\n      dup3\n      dup3\n      sload\n      add\n      swap3\n      pop\n      pop\n      dup2\n      swap1\n      sstore\n      pop\n        /* \"@openzeppelin/contracts/token/ERC20/ERC20.sol\":8182:8184  to */\n      dup3\n        /* \"@openzeppelin/contracts/token/ERC20/ERC20.sol\":8167:8193  Transfer(from, to, amount) */\n      0xffffffffffffffffffffffffffffffffffffffff\n      and\n        /* \"@openzeppelin/contracts/token/ERC20/ERC20.sol\":8176:8180  from */\n      dup5\n        /* \"@openzeppelin/contracts/token/ERC20/ERC20.sol\":8167:8193  Transfer(from, to, amount) */\n      0xffffffffffffffffffffffffffffffffffffffff\n      and\n      0xddf252ad1be2c89b69c2b068fc378daa952ba7f163c4a11628f55a4df523b3ef\n        /* \"@openzeppelin/contracts/token/ERC20/ERC20.sol\":8186:8192  amount */\n      dup5\n        /* \"@openzeppelin/contracts/token/ERC20/ERC20.sol\":8167:8193  Transfer(from, to, amount) */\n      mload(0x40)\n      tag_305\n      swap2\n      swap1\n      tag_49\n      jump\t// in\n    tag_305:\n      mload(0x40)\n      dup1\n      swap2\n      sub\n      swap1\n      log3\n        /* \"@openzeppelin/contracts/token/ERC20/ERC20.sol\":8204:8241  _afterTokenTransfer(from, to, amount) */\n      tag_306\n        /* \"@openzeppelin/contracts/token/ERC20/ERC20.sol\":8224:8228  from */\n      dup5\n        /* \"@openzeppelin/contracts/token/ERC20/ERC20.sol\":8230:8232  to */\n      dup5\n        /* \"@openzeppelin/contracts/token/ERC20/ERC20.sol\":8234:8240  amount */\n      dup5\n        /* \"@openzeppelin/contracts/token/ERC20/ERC20.sol\":8204:8223  _afterTokenTransfer */\n      tag_255\n        /* \"@openzeppelin/contracts/token/ERC20/ERC20.sol\":8204:8241  _afterTokenTransfer(from, to, amount) */\n      jump\t// in\n    tag_306:\n        /* \"@openzeppelin/contracts/token/ERC20/ERC20.sol\":7538:8248  {... */\n      pop\n        /* \"@openzeppelin/contracts/token/ERC20/ERC20.sol\":7460:8248  function _transfer(address from, address to, uint256 amount) internal virtual {... */\n      pop\n      pop\n      pop\n      jump\t// out\n        /* \"@openzeppelin/contracts/token/ERC20/ERC20.sol\":10461:10801  function _approve(address owner, address spender, uint256 amount) internal virtual {... */\n    tag_291:\n        /* \"@openzeppelin/contracts/token/ERC20/ERC20.sol\":10579:10580  0 */\n      0x00\n        /* \"@openzeppelin/contracts/token/ERC20/ERC20.sol\":10562:10581  owner != address(0) */\n      0xffffffffffffffffffffffffffffffffffffffff\n      and\n        /* \"@openzeppelin/contracts/token/ERC20/ERC20.sol\":10562:10567  owner */\n      dup4\n        /* \"@openzeppelin/contracts/token/ERC20/ERC20.sol\":10562:10581  owner != address(0) */\n      0xffffffffffffffffffffffffffffffffffffffff\n      and\n      sub\n        /* \"@openzeppelin/contracts/token/ERC20/ERC20.sol\":10554:10622  require(owner != address(0), \"ERC20: approve from the zero address\") */\n      tag_308\n      jumpi\n      mload(0x40)\n      0x08c379a000000000000000000000000000000000000000000000000000000000\n      dup2\n      mstore\n      0x04\n      add\n      tag_309\n      swap1\n      tag_310\n      jump\t// in\n    tag_309:\n      mload(0x40)\n      dup1\n      swap2\n      sub\n      swap1\n      revert\n    tag_308:\n        /* \"@openzeppelin/contracts/token/ERC20/ERC20.sol\":10659:10660  0 */\n      0x00\n        /* \"@openzeppelin/contracts/token/ERC20/ERC20.sol\":10640:10661  spender != address(0) */\n      0xffffffffffffffffffffffffffffffffffffffff\n      and\n        /* \"@openzeppelin/contracts/token/ERC20/ERC20.sol\":10640:10647  spender */\n      dup3\n        /* \"@openzeppelin/contracts/token/ERC20/ERC20.sol\":10640:10661  spender != address(0) */\n      0xffffffffffffffffffffffffffffffffffffffff\n      and\n      sub\n        /* \"@openzeppelin/contracts/token/ERC20/ERC20.sol\":10632:10700  require(spender != address(0), \"ERC20: approve to the zero address\") */\n      tag_311\n      jumpi\n      mload(0x40)\n      0x08c379a000000000000000000000000000000000000000000000000000000000\n      dup2\n      mstore\n      0x04\n      add\n      tag_312\n      swap1\n      tag_313\n      jump\t// in\n    tag_312:\n      mload(0x40)\n      dup1\n      swap2\n      sub\n      swap1\n      revert\n    tag_311:\n        /* \"@openzeppelin/contracts/token/ERC20/ERC20.sol\":10741:10747  amount */\n      dup1\n        /* \"@openzeppelin/contracts/token/ERC20/ERC20.sol\":10711:10722  _allowances */\n      0x01\n        /* \"@openzeppelin/contracts/token/ERC20/ERC20.sol\":10711:10729  _allowances[owner] */\n      0x00\n        /* \"@openzeppelin/contracts/token/ERC20/ERC20.sol\":10723:10728  owner */\n      dup6\n        /* \"@openzeppelin/contracts/token/ERC20/ERC20.sol\":10711:10729  _allowances[owner] */\n      0xffffffffffffffffffffffffffffffffffffffff\n      and\n      0xffffffffffffffffffffffffffffffffffffffff\n      and\n      dup2\n      mstore\n      0x20\n      add\n      swap1\n      dup2\n      mstore\n      0x20\n      add\n      0x00\n      keccak256\n        /* \"@openzeppelin/contracts/token/ERC20/ERC20.sol\":10711:10738  _allowances[owner][spender] */\n      0x00\n        /* \"@openzeppelin/contracts/token/ERC20/ERC20.sol\":10730:10737  spender */\n      dup5\n        /* \"@openzeppelin/contracts/token/ERC20/ERC20.sol\":10711:10738  _allowances[owner][spender] */\n      0xffffffffffffffffffffffffffffffffffffffff\n      and\n      0xffffffffffffffffffffffffffffffffffffffff\n      and\n      dup2\n      mstore\n      0x20\n      add\n      swap1\n      dup2\n      mstore\n      0x20\n      add\n      0x00\n      keccak256\n        /* \"@openzeppelin/contracts/token/ERC20/ERC20.sol\":10711:10747  _allowances[owner][spender] = amount */\n      dup2\n      swap1\n      sstore\n      pop\n        /* \"@openzeppelin/contracts/token/ERC20/ERC20.sol\":10778:10785  spender */\n      dup2\n        /* \"@openzeppelin/contracts/token/ERC20/ERC20.sol\":10762:10794  Approval(owner, spender, amount) */\n      0xffffffffffffffffffffffffffffffffffffffff\n      and\n        /* \"@openzeppelin/contracts/token/ERC20/ERC20.sol\":10771:10776  owner */\n      dup4\n        /* \"@openzeppelin/contracts/token/ERC20/ERC20.sol\":10762:10794  Approval(owner, spender, amount) */\n      0xffffffffffffffffffffffffffffffffffffffff\n      and\n      0x8c5be1e5ebec7d5bd14f71427d1e84f3dd0314c0f7b2291e5b200ac8c7c3b925\n        /* \"@openzeppelin/contracts/token/ERC20/ERC20.sol\":10787:10793  amount */\n      dup4\n        /* \"@openzeppelin/contracts/token/ERC20/ERC20.sol\":10762:10794  Approval(owner, spender, amount) */\n      mload(0x40)\n      tag_314\n      swap2\n      swap1\n      tag_49\n      jump\t// in\n    tag_314:\n      mload(0x40)\n      dup1\n      swap2\n      sub\n      swap1\n      log3\n        /* \"@openzeppelin/contracts/token/ERC20/ERC20.sol\":10461:10801  function _approve(address owner, address spender, uint256 amount) internal virtual {... */\n      pop\n      pop\n      pop\n      jump\t// out\n        /* \"#utility.yul\":7:106   */\n    tag_315:\n        /* \"#utility.yul\":59:65   */\n      0x00\n        /* \"#utility.yul\":93:98   */\n      dup2\n        /* \"#utility.yul\":87:99   */\n      mload\n        /* \"#utility.yul\":77:99   */\n      swap1\n      pop\n        /* \"#utility.yul\":7:106   */\n      swap2\n      swap1\n      pop\n      jump\t// out\n        /* \"#utility.yul\":112:281   */\n    tag_316:\n        /* \"#utility.yul\":196:207   */\n      0x00\n        /* \"#utility.yul\":230:236   */\n      dup3\n        /* \"#utility.yul\":225:228   */\n      dup3\n        /* \"#utility.yul\":218:237   */\n      mstore\n        /* \"#utility.yul\":270:274   */\n      0x20\n        /* \"#utility.yul\":265:268   */\n      dup3\n        /* \"#utility.yul\":261:275   */\n      add\n        /* \"#utility.yul\":246:275   */\n      swap1\n      pop\n        /* \"#utility.yul\":112:281   */\n      swap3\n      swap2\n      pop\n      pop\n      jump\t// out\n        /* \"#utility.yul\":287:533   */\n    tag_317:\n        /* \"#utility.yul\":368:369   */\n      0x00\n        /* \"#utility.yul\":378:491   */\n    tag_377:\n        /* \"#utility.yul\":392:398   */\n      dup4\n        /* \"#utility.yul\":389:390   */\n      dup2\n        /* \"#utility.yul\":386:399   */\n      lt\n        /* \"#utility.yul\":378:491   */\n      iszero\n      tag_379\n      jumpi\n        /* \"#utility.yul\":477:478   */\n      dup1\n        /* \"#utility.yul\":472:475   */\n      dup3\n        /* \"#utility.yul\":468:479   */\n      add\n        /* \"#utility.yul\":462:480   */\n      mload\n        /* \"#utility.yul\":458:459   */\n      dup2\n        /* \"#utility.yul\":453:456   */\n      dup5\n        /* \"#utility.yul\":449:460   */\n      add\n        /* \"#utility.yul\":442:481   */\n      mstore\n        /* \"#utility.yul\":414:416   */\n      0x20\n        /* \"#utility.yul\":411:412   */\n      dup2\n        /* \"#utility.yul\":407:417   */\n      add\n        /* \"#utility.yul\":402:417   */\n      swap1\n      pop\n        /* \"#utility.yul\":378:491   */\n      jump(tag_377)\n    tag_379:\n        /* \"#utility.yul\":525:526   */\n      0x00\n        /* \"#utility.yul\":516:522   */\n      dup5\n        /* \"#utility.yul\":511:514   */\n      dup5\n        /* \"#utility.yul\":507:523   */\n      add\n        /* \"#utility.yul\":500:527   */\n      mstore\n        /* \"#utility.yul\":349:533   */\n      pop\n        /* \"#utility.yul\":287:533   */\n      pop\n      pop\n      pop\n      jump\t// out\n        /* \"#utility.yul\":539:641   */\n    tag_318:\n        /* \"#utility.yul\":580:586   */\n      0x00\n        /* \"#utility.yul\":631:633   */\n      0x1f\n        /* \"#utility.yul\":627:634   */\n      not\n        /* \"#utility.yul\":622:624   */\n      0x1f\n        /* \"#utility.yul\":615:620   */\n      dup4\n        /* \"#utility.yul\":611:625   */\n      add\n        /* \"#utility.yul\":607:635   */\n      and\n        /* \"#utility.yul\":597:635   */\n      swap1\n      pop\n        /* \"#utility.yul\":539:641   */\n      swap2\n      swap1\n      pop\n      jump\t// out\n        /* \"#utility.yul\":647:1024   */\n    tag_319:\n        /* \"#utility.yul\":735:738   */\n      0x00\n        /* \"#utility.yul\":763:802   */\n      tag_382\n        /* \"#utility.yul\":796:801   */\n      dup3\n        /* \"#utility.yul\":763:802   */\n      tag_315\n      jump\t// in\n    tag_382:\n        /* \"#utility.yul\":818:889   */\n      tag_383\n        /* \"#utility.yul\":882:888   */\n      dup2\n        /* \"#utility.yul\":877:880   */\n      dup6\n        /* \"#utility.yul\":818:889   */\n      tag_316\n      jump\t// in\n    tag_383:\n        /* \"#utility.yul\":811:889   */\n      swap4\n      pop\n        /* \"#utility.yul\":898:963   */\n      tag_384\n        /* \"#utility.yul\":956:962   */\n      dup2\n        /* \"#utility.yul\":951:954   */\n      dup6\n        /* \"#utility.yul\":944:948   */\n      0x20\n        /* \"#utility.yul\":937:942   */\n      dup7\n        /* \"#utility.yul\":933:949   */\n      add\n        /* \"#utility.yul\":898:963   */\n      tag_317\n      jump\t// in\n    tag_384:\n        /* \"#utility.yul\":988:1017   */\n      tag_385\n        /* \"#utility.yul\":1010:1016   */\n      dup2\n        /* \"#utility.yul\":988:1017   */\n      tag_318\n      jump\t// in\n    tag_385:\n        /* \"#utility.yul\":983:986   */\n      dup5\n        /* \"#utility.yul\":979:1018   */\n      add\n        /* \"#utility.yul\":972:1018   */\n      swap2\n      pop\n        /* \"#utility.yul\":739:1024   */\n      pop\n        /* \"#utility.yul\":647:1024   */\n      swap3\n      swap2\n      pop\n      pop\n      jump\t// out\n        /* \"#utility.yul\":1030:1343   */\n    tag_32:\n        /* \"#utility.yul\":1143:1147   */\n      0x00\n        /* \"#utility.yul\":1181:1183   */\n      0x20\n        /* \"#utility.yul\":1170:1179   */\n      dup3\n        /* \"#utility.yul\":1166:1184   */\n      add\n        /* \"#utility.yul\":1158:1184   */\n      swap1\n      pop\n        /* \"#utility.yul\":1230:1239   */\n      dup2\n        /* \"#utility.yul\":1224:1228   */\n      dup2\n        /* \"#utility.yul\":1220:1240   */\n      sub\n        /* \"#utility.yul\":1216:1217   */\n      0x00\n        /* \"#utility.yul\":1205:1214   */\n      dup4\n        /* \"#utility.yul\":1201:1218   */\n      add\n        /* \"#utility.yul\":1194:1241   */\n      mstore\n        /* \"#utility.yul\":1258:1336   */\n      tag_387\n        /* \"#utility.yul\":1331:1335   */\n      dup2\n        /* \"#utility.yul\":1322:1328   */\n      dup5\n        /* \"#utility.yul\":1258:1336   */\n      tag_319\n      jump\t// in\n    tag_387:\n        /* \"#utility.yul\":1250:1336   */\n      swap1\n      pop\n        /* \"#utility.yul\":1030:1343   */\n      swap3\n      swap2\n      pop\n      pop\n      jump\t// out\n        /* \"#utility.yul\":1430:1547   */\n    tag_321:\n        /* \"#utility.yul\":1539:1540   */\n      0x00\n        /* \"#utility.yul\":1536:1537   */\n      dup1\n        /* \"#utility.yul\":1529:1541   */\n      revert\n        /* \"#utility.yul\":1676:1802   */\n    tag_323:\n        /* \"#utility.yul\":1713:1720   */\n      0x00\n        /* \"#utility.yul\":1753:1795   */\n      0xffffffffffffffffffffffffffffffffffffffff\n        /* \"#utility.yul\":1746:1751   */\n      dup3\n        /* \"#utility.yul\":1742:1796   */\n      and\n        /* \"#utility.yul\":1731:1796   */\n      swap1\n      pop\n        /* \"#utility.yul\":1676:1802   */\n      swap2\n      swap1\n      pop\n      jump\t// out\n        /* \"#utility.yul\":1808:1904   */\n    tag_324:\n        /* \"#utility.yul\":1845:1852   */\n      0x00\n        /* \"#utility.yul\":1874:1898   */\n      tag_393\n        /* \"#utility.yul\":1892:1897   */\n      dup3\n        /* \"#utility.yul\":1874:1898   */\n      tag_323\n      jump\t// in\n    tag_393:\n        /* \"#utility.yul\":1863:1898   */\n      swap1\n      pop\n        /* \"#utility.yul\":1808:1904   */\n      swap2\n      swap1\n      pop\n      jump\t// out\n        /* \"#utility.yul\":1910:2032   */\n    tag_325:\n        /* \"#utility.yul\":1983:2007   */\n      tag_395\n        /* \"#utility.yul\":2001:2006   */\n      dup2\n        /* \"#utility.yul\":1983:2007   */\n      tag_324\n      jump\t// in\n    tag_395:\n        /* \"#utility.yul\":1976:1981   */\n      dup2\n        /* \"#utility.yul\":1973:2008   */\n      eq\n        /* \"#utility.yul\":1963:2026   */\n      tag_396\n      jumpi\n        /* \"#utility.yul\":2022:2023   */\n      0x00\n        /* \"#utility.yul\":2019:2020   */\n      dup1\n        /* \"#utility.yul\":2012:2024   */\n      revert\n        /* \"#utility.yul\":1963:2026   */\n    tag_396:\n        /* \"#utility.yul\":1910:2032   */\n      pop\n      jump\t// out\n        /* \"#utility.yul\":2038:2177   */\n    tag_326:\n        /* \"#utility.yul\":2084:2089   */\n      0x00\n        /* \"#utility.yul\":2122:2128   */\n      dup2\n        /* \"#utility.yul\":2109:2129   */\n      calldataload\n        /* \"#utility.yul\":2100:2129   */\n      swap1\n      pop\n        /* \"#utility.yul\":2138:2171   */\n      tag_398\n        /* \"#utility.yul\":2165:2170   */\n      dup2\n        /* \"#utility.yul\":2138:2171   */\n      tag_325\n      jump\t// in\n    tag_398:\n        /* \"#utility.yul\":2038:2177   */\n      swap3\n      swap2\n      pop\n      pop\n      jump\t// out\n        /* \"#utility.yul\":2183:2260   */\n    tag_327:\n        /* \"#utility.yul\":2220:2227   */\n      0x00\n        /* \"#utility.yul\":2249:2254   */\n      dup2\n        /* \"#utility.yul\":2238:2254   */\n      swap1\n      pop\n        /* \"#utility.yul\":2183:2260   */\n      swap2\n      swap1\n      pop\n      jump\t// out\n        /* \"#utility.yul\":2266:2388   */\n    tag_328:\n        /* \"#utility.yul\":2339:2363   */\n      tag_401\n        /* \"#utility.yul\":2357:2362   */\n      dup2\n        /* \"#utility.yul\":2339:2363   */\n      tag_327\n      jump\t// in\n    tag_401:\n        /* \"#utility.yul\":2332:2337   */\n      dup2\n        /* \"#utility.yul\":2329:2364   */\n      eq\n        /* \"#utility.yul\":2319:2382   */\n      tag_402\n      jumpi\n        /* \"#utility.yul\":2378:2379   */\n      0x00\n        /* \"#utility.yul\":2375:2376   */\n      dup1\n        /* \"#utility.yul\":2368:2380   */\n      revert\n        /* \"#utility.yul\":2319:2382   */\n    tag_402:\n        /* \"#utility.yul\":2266:2388   */\n      pop\n      jump\t// out\n        /* \"#utility.yul\":2394:2533   */\n    tag_329:\n        /* \"#utility.yul\":2440:2445   */\n      0x00\n        /* \"#utility.yul\":2478:2484   */\n      dup2\n        /* \"#utility.yul\":2465:2485   */\n      calldataload\n        /* \"#utility.yul\":2456:2485   */\n      swap1\n      pop\n        /* \"#utility.yul\":2494:2527   */\n      tag_404\n        /* \"#utility.yul\":2521:2526   */\n      dup2\n        /* \"#utility.yul\":2494:2527   */\n      tag_328\n      jump\t// in\n    tag_404:\n        /* \"#utility.yul\":2394:2533   */\n      swap3\n      swap2\n      pop\n      pop\n      jump\t// out\n        /* \"#utility.yul\":2539:3013   */\n    tag_36:\n        /* \"#utility.yul\":2607:2613   */\n      0x00\n        /* \"#utility.yul\":2615:2621   */\n      dup1\n        /* \"#utility.yul\":2664:2666   */\n      0x40\n        /* \"#utility.yul\":2652:2661   */\n      dup4\n        /* \"#utility.yul\":2643:2650   */\n      dup6\n        /* \"#utility.yul\":2639:2662   */\n      sub\n        /* \"#utility.yul\":2635:2667   */\n      slt\n        /* \"#utility.yul\":2632:2751   */\n      iszero\n      tag_406\n      jumpi\n        /* \"#utility.yul\":2670:2749   */\n      tag_407\n      tag_321\n      jump\t// in\n    tag_407:\n        /* \"#utility.yul\":2632:2751   */\n    tag_406:\n        /* \"#utility.yul\":2790:2791   */\n      0x00\n        /* \"#utility.yul\":2815:2868   */\n      tag_408\n        /* \"#utility.yul\":2860:2867   */\n      dup6\n        /* \"#utility.yul\":2851:2857   */\n      dup3\n        /* \"#utility.yul\":2840:2849   */\n      dup7\n        /* \"#utility.yul\":2836:2858   */\n      add\n        /* \"#utility.yul\":2815:2868   */\n      tag_326\n      jump\t// in\n    tag_408:\n        /* \"#utility.yul\":2805:2868   */\n      swap3\n      pop\n        /* \"#utility.yul\":2761:2878   */\n      pop\n        /* \"#utility.yul\":2917:2919   */\n      0x20\n        /* \"#utility.yul\":2943:2996   */\n      tag_409\n        /* \"#utility.yul\":2988:2995   */\n      dup6\n        /* \"#utility.yul\":2979:2985   */\n      dup3\n        /* \"#utility.yul\":2968:2977   */\n      dup7\n        /* \"#utility.yul\":2964:2986   */\n      add\n        /* \"#utility.yul\":2943:2996   */\n      tag_329\n      jump\t// in\n    tag_409:\n        /* \"#utility.yul\":2933:2996   */\n      swap2\n      pop\n        /* \"#utility.yul\":2888:3006   */\n      pop\n        /* \"#utility.yul\":2539:3013   */\n      swap3\n      pop\n      swap3\n      swap1\n      pop\n      jump\t// out\n        /* \"#utility.yul\":3019:3109   */\n    tag_330:\n        /* \"#utility.yul\":3053:3060   */\n      0x00\n        /* \"#utility.yul\":3096:3101   */\n      dup2\n        /* \"#utility.yul\":3089:3102   */\n      iszero\n        /* \"#utility.yul\":3082:3103   */\n      iszero\n        /* \"#utility.yul\":3071:3103   */\n      swap1\n      pop\n        /* \"#utility.yul\":3019:3109   */\n      swap2\n      swap1\n      pop\n      jump\t// out\n        /* \"#utility.yul\":3115:3224   */\n    tag_331:\n        /* \"#utility.yul\":3196:3217   */\n      tag_412\n        /* \"#utility.yul\":3211:3216   */\n      dup2\n        /* \"#utility.yul\":3196:3217   */\n      tag_330\n      jump\t// in\n    tag_412:\n        /* \"#utility.yul\":3191:3194   */\n      dup3\n        /* \"#utility.yul\":3184:3218   */\n      mstore\n        /* \"#utility.yul\":3115:3224   */\n      pop\n      pop\n      jump\t// out\n        /* \"#utility.yul\":3230:3440   */\n    tag_39:\n        /* \"#utility.yul\":3317:3321   */\n      0x00\n        /* \"#utility.yul\":3355:3357   */\n      0x20\n        /* \"#utility.yul\":3344:3353   */\n      dup3\n        /* \"#utility.yul\":3340:3358   */\n      add\n        /* \"#utility.yul\":3332:3358   */\n      swap1\n      pop\n        /* \"#utility.yul\":3368:3433   */\n      tag_414\n        /* \"#utility.yul\":3430:3431   */\n      0x00\n        /* \"#utility.yul\":3419:3428   */\n      dup4\n        /* \"#utility.yul\":3415:3432   */\n      add\n        /* \"#utility.yul\":3406:3412   */\n      dup5\n        /* \"#utility.yul\":3368:3433   */\n      tag_331\n      jump\t// in\n    tag_414:\n        /* \"#utility.yul\":3230:3440   */\n      swap3\n      swap2\n      pop\n      pop\n      jump\t// out\n        /* \"#utility.yul\":3446:3775   */\n    tag_43:\n        /* \"#utility.yul\":3505:3511   */\n      0x00\n        /* \"#utility.yul\":3554:3556   */\n      0x20\n        /* \"#utility.yul\":3542:3551   */\n      dup3\n        /* \"#utility.yul\":3533:3540   */\n      dup5\n        /* \"#utility.yul\":3529:3552   */\n      sub\n        /* \"#utility.yul\":3525:3557   */\n      slt\n        /* \"#utility.yul\":3522:3641   */\n      iszero\n      tag_416\n      jumpi\n        /* \"#utility.yul\":3560:3639   */\n      tag_417\n      tag_321\n      jump\t// in\n    tag_417:\n        /* \"#utility.yul\":3522:3641   */\n    tag_416:\n        /* \"#utility.yul\":3680:3681   */\n      0x00\n        /* \"#utility.yul\":3705:3758   */\n      tag_418\n        /* \"#utility.yul\":3750:3757   */\n      dup5\n        /* \"#utility.yul\":3741:3747   */\n      dup3\n        /* \"#utility.yul\":3730:3739   */\n      dup6\n        /* \"#utility.yul\":3726:3748   */\n      add\n        /* \"#utility.yul\":3705:3758   */\n      tag_329\n      jump\t// in\n    tag_418:\n        /* \"#utility.yul\":3695:3758   */\n      swap2\n      pop\n        /* \"#utility.yul\":3651:3768   */\n      pop\n        /* \"#utility.yul\":3446:3775   */\n      swap3\n      swap2\n      pop\n      pop\n      jump\t// out\n        /* \"#utility.yul\":3781:3899   */\n    tag_332:\n        /* \"#utility.yul\":3868:3892   */\n      tag_420\n        /* \"#utility.yul\":3886:3891   */\n      dup2\n        /* \"#utility.yul\":3868:3892   */\n      tag_327\n      jump\t// in\n    tag_420:\n        /* \"#utility.yul\":3863:3866   */\n      dup3\n        /* \"#utility.yul\":3856:3893   */\n      mstore\n        /* \"#utility.yul\":3781:3899   */\n      pop\n      pop\n      jump\t// out\n        /* \"#utility.yul\":3905:4127   */\n    tag_49:\n        /* \"#utility.yul\":3998:4002   */\n      0x00\n        /* \"#utility.yul\":4036:4038   */\n      0x20\n        /* \"#utility.yul\":4025:4034   */\n      dup3\n        /* \"#utility.yul\":4021:4039   */\n      add\n        /* \"#utility.yul\":4013:4039   */\n      swap1\n      pop\n        /* \"#utility.yul\":4049:4120   */\n      tag_422\n        /* \"#utility.yul\":4117:4118   */\n      0x00\n        /* \"#utility.yul\":4106:4115   */\n      dup4\n        /* \"#utility.yul\":4102:4119   */\n      add\n        /* \"#utility.yul\":4093:4099   */\n      dup5\n        /* \"#utility.yul\":4049:4120   */\n      tag_332\n      jump\t// in\n    tag_422:\n        /* \"#utility.yul\":3905:4127   */\n      swap3\n      swap2\n      pop\n      pop\n      jump\t// out\n        /* \"#utility.yul\":4133:4752   */\n    tag_53:\n        /* \"#utility.yul\":4210:4216   */\n      0x00\n        /* \"#utility.yul\":4218:4224   */\n      dup1\n        /* \"#utility.yul\":4226:4232   */\n      0x00\n        /* \"#utility.yul\":4275:4277   */\n      0x60\n        /* \"#utility.yul\":4263:4272   */\n      dup5\n        /* \"#utility.yul\":4254:4261   */\n      dup7\n        /* \"#utility.yul\":4250:4273   */\n      sub\n        /* \"#utility.yul\":4246:4278   */\n      slt\n        /* \"#utility.yul\":4243:4362   */\n      iszero\n      tag_424\n      jumpi\n        /* \"#utility.yul\":4281:4360   */\n      tag_425\n      tag_321\n      jump\t// in\n    tag_425:\n        /* \"#utility.yul\":4243:4362   */\n    tag_424:\n        /* \"#utility.yul\":4401:4402   */\n      0x00\n        /* \"#utility.yul\":4426:4479   */\n      tag_426\n        /* \"#utility.yul\":4471:4478   */\n      dup7\n        /* \"#utility.yul\":4462:4468   */\n      dup3\n        /* \"#utility.yul\":4451:4460   */\n      dup8\n        /* \"#utility.yul\":4447:4469   */\n      add\n        /* \"#utility.yul\":4426:4479   */\n      tag_326\n      jump\t// in\n    tag_426:\n        /* \"#utility.yul\":4416:4479   */\n      swap4\n      pop\n        /* \"#utility.yul\":4372:4489   */\n      pop\n        /* \"#utility.yul\":4528:4530   */\n      0x20\n        /* \"#utility.yul\":4554:4607   */\n      tag_427\n        /* \"#utility.yul\":4599:4606   */\n      dup7\n        /* \"#utility.yul\":4590:4596   */\n      dup3\n        /* \"#utility.yul\":4579:4588   */\n      dup8\n        /* \"#utility.yul\":4575:4597   */\n      add\n        /* \"#utility.yul\":4554:4607   */\n      tag_326\n      jump\t// in\n    tag_427:\n        /* \"#utility.yul\":4544:4607   */\n      swap3\n      pop\n        /* \"#utility.yul\":4499:4617   */\n      pop\n        /* \"#utility.yul\":4656:4658   */\n      0x40\n        /* \"#utility.yul\":4682:4735   */\n      tag_428\n        /* \"#utility.yul\":4727:4734   */\n      dup7\n        /* \"#utility.yul\":4718:4724   */\n      dup3\n        /* \"#utility.yul\":4707:4716   */\n      dup8\n        /* \"#utility.yul\":4703:4725   */\n      add\n        /* \"#utility.yul\":4682:4735   */\n      tag_329\n      jump\t// in\n    tag_428:\n        /* \"#utility.yul\":4672:4735   */\n      swap2\n      pop\n        /* \"#utility.yul\":4627:4745   */\n      pop\n        /* \"#utility.yul\":4133:4752   */\n      swap3\n      pop\n      swap3\n      pop\n      swap3\n      jump\t// out\n        /* \"#utility.yul\":4758:4844   */\n    tag_333:\n        /* \"#utility.yul\":4793:4800   */\n      0x00\n        /* \"#utility.yul\":4833:4837   */\n      0xff\n        /* \"#utility.yul\":4826:4831   */\n      dup3\n        /* \"#utility.yul\":4822:4838   */\n      and\n        /* \"#utility.yul\":4811:4838   */\n      swap1\n      pop\n        /* \"#utility.yul\":4758:4844   */\n      swap2\n      swap1\n      pop\n      jump\t// out\n        /* \"#utility.yul\":4850:4962   */\n    tag_334:\n        /* \"#utility.yul\":4933:4955   */\n      tag_431\n        /* \"#utility.yul\":4949:4954   */\n      dup2\n        /* \"#utility.yul\":4933:4955   */\n      tag_333\n      jump\t// in\n    tag_431:\n        /* \"#utility.yul\":4928:4931   */\n      dup3\n        /* \"#utility.yul\":4921:4956   */\n      mstore\n        /* \"#utility.yul\":4850:4962   */\n      pop\n      pop\n      jump\t// out\n        /* \"#utility.yul\":4968:5182   */\n    tag_60:\n        /* \"#utility.yul\":5057:5061   */\n      0x00\n        /* \"#utility.yul\":5095:5097   */\n      0x20\n        /* \"#utility.yul\":5084:5093   */\n      dup3\n        /* \"#utility.yul\":5080:5098   */\n      add\n        /* \"#utility.yul\":5072:5098   */\n      swap1\n      pop\n        /* \"#utility.yul\":5108:5175   */\n      tag_433\n        /* \"#utility.yul\":5172:5173   */\n      0x00\n        /* \"#utility.yul\":5161:5170   */\n      dup4\n        /* \"#utility.yul\":5157:5174   */\n      add\n        /* \"#utility.yul\":5148:5154   */\n      dup5\n        /* \"#utility.yul\":5108:5175   */\n      tag_334\n      jump\t// in\n    tag_433:\n        /* \"#utility.yul\":4968:5182   */\n      swap3\n      swap2\n      pop\n      pop\n      jump\t// out\n        /* \"#utility.yul\":5188:5517   */\n    tag_92:\n        /* \"#utility.yul\":5247:5253   */\n      0x00\n        /* \"#utility.yul\":5296:5298   */\n      0x20\n        /* \"#utility.yul\":5284:5293   */\n      dup3\n        /* \"#utility.yul\":5275:5282   */\n      dup5\n        /* \"#utility.yul\":5271:5294   */\n      sub\n        /* \"#utility.yul\":5267:5299   */\n      slt\n        /* \"#utility.yul\":5264:5383   */\n      iszero\n      tag_435\n      jumpi\n        /* \"#utility.yul\":5302:5381   */\n      tag_436\n      tag_321\n      jump\t// in\n    tag_436:\n        /* \"#utility.yul\":5264:5383   */\n    tag_435:\n        /* \"#utility.yul\":5422:5423   */\n      0x00\n        /* \"#utility.yul\":5447:5500   */\n      tag_437\n        /* \"#utility.yul\":5492:5499   */\n      dup5\n        /* \"#utility.yul\":5483:5489   */\n      dup3\n        /* \"#utility.yul\":5472:5481   */\n      dup6\n        /* \"#utility.yul\":5468:5490   */\n      add\n        /* \"#utility.yul\":5447:5500   */\n      tag_326\n      jump\t// in\n    tag_437:\n        /* \"#utility.yul\":5437:5500   */\n      swap2\n      pop\n        /* \"#utility.yul\":5393:5510   */\n      pop\n        /* \"#utility.yul\":5188:5517   */\n      swap3\n      swap2\n      pop\n      pop\n      jump\t// out\n        /* \"#utility.yul\":5523:5641   */\n    tag_335:\n        /* \"#utility.yul\":5610:5634   */\n      tag_439\n        /* \"#utility.yul\":5628:5633   */\n      dup2\n        /* \"#utility.yul\":5610:5634   */\n      tag_324\n      jump\t// in\n    tag_439:\n        /* \"#utility.yul\":5605:5608   */\n      dup3\n        /* \"#utility.yul\":5598:5635   */\n      mstore\n        /* \"#utility.yul\":5523:5641   */\n      pop\n      pop\n      jump\t// out\n        /* \"#utility.yul\":5647:5869   */\n    tag_110:\n        /* \"#utility.yul\":5740:5744   */\n      0x00\n        /* \"#utility.yul\":5778:5780   */\n      0x20\n        /* \"#utility.yul\":5767:5776   */\n      dup3\n        /* \"#utility.yul\":5763:5781   */\n      add\n        /* \"#utility.yul\":5755:5781   */\n      swap1\n      pop\n        /* \"#utility.yul\":5791:5862   */\n      tag_441\n        /* \"#utility.yul\":5859:5860   */\n      0x00\n        /* \"#utility.yul\":5848:5857   */\n      dup4\n        /* \"#utility.yul\":5844:5861   */\n      add\n        /* \"#utility.yul\":5835:5841   */\n      dup5\n        /* \"#utility.yul\":5791:5862   */\n      tag_335\n      jump\t// in\n    tag_441:\n        /* \"#utility.yul\":5647:5869   */\n      swap3\n      swap2\n      pop\n      pop\n      jump\t// out\n        /* \"#utility.yul\":5875:6349   */\n    tag_128:\n        /* \"#utility.yul\":5943:5949   */\n      0x00\n        /* \"#utility.yul\":5951:5957   */\n      dup1\n        /* \"#utility.yul\":6000:6002   */\n      0x40\n        /* \"#utility.yul\":5988:5997   */\n      dup4\n        /* \"#utility.yul\":5979:5986   */\n      dup6\n        /* \"#utility.yul\":5975:5998   */\n      sub\n        /* \"#utility.yul\":5971:6003   */\n      slt\n        /* \"#utility.yul\":5968:6087   */\n      iszero\n      tag_443\n      jumpi\n        /* \"#utility.yul\":6006:6085   */\n      tag_444\n      tag_321\n      jump\t// in\n    tag_444:\n        /* \"#utility.yul\":5968:6087   */\n    tag_443:\n        /* \"#utility.yul\":6126:6127   */\n      0x00\n        /* \"#utility.yul\":6151:6204   */\n      tag_445\n        /* \"#utility.yul\":6196:6203   */\n      dup6\n        /* \"#utility.yul\":6187:6193   */\n      dup3\n        /* \"#utility.yul\":6176:6185   */\n      dup7\n        /* \"#utility.yul\":6172:6194   */\n      add\n        /* \"#utility.yul\":6151:6204   */\n      tag_326\n      jump\t// in\n    tag_445:\n        /* \"#utility.yul\":6141:6204   */\n      swap3\n      pop\n        /* \"#utility.yul\":6097:6214   */\n      pop\n        /* \"#utility.yul\":6253:6255   */\n      0x20\n        /* \"#utility.yul\":6279:6332   */\n      tag_446\n        /* \"#utility.yul\":6324:6331   */\n      dup6\n        /* \"#utility.yul\":6315:6321   */\n      dup3\n        /* \"#utility.yul\":6304:6313   */\n      dup7\n        /* \"#utility.yul\":6300:6322   */\n      add\n        /* \"#utility.yul\":6279:6332   */\n      tag_326\n      jump\t// in\n    tag_446:\n        /* \"#utility.yul\":6269:6332   */\n      swap2\n      pop\n        /* \"#utility.yul\":6224:6342   */\n      pop\n        /* \"#utility.yul\":5875:6349   */\n      swap3\n      pop\n      swap3\n      swap1\n      pop\n      jump\t// out\n        /* \"#utility.yul\":6355:6535   */\n    tag_336:\n        /* \"#utility.yul\":6403:6480   */\n      0x4e487b7100000000000000000000000000000000000000000000000000000000\n        /* \"#utility.yul\":6400:6401   */\n      0x00\n        /* \"#utility.yul\":6393:6481   */\n      mstore\n        /* \"#utility.yul\":6500:6504   */\n      0x22\n        /* \"#utility.yul\":6497:6498   */\n      0x04\n        /* \"#utility.yul\":6490:6505   */\n      mstore\n        /* \"#utility.yul\":6524:6528   */\n      0x24\n        /* \"#utility.yul\":6521:6522   */\n      0x00\n        /* \"#utility.yul\":6514:6529   */\n      revert\n        /* \"#utility.yul\":6541:6861   */\n    tag_138:\n        /* \"#utility.yul\":6585:6591   */\n      0x00\n        /* \"#utility.yul\":6622:6623   */\n      0x02\n        /* \"#utility.yul\":6616:6620   */\n      dup3\n        /* \"#utility.yul\":6612:6624   */\n      div\n        /* \"#utility.yul\":6602:6624   */\n      swap1\n      pop\n        /* \"#utility.yul\":6669:6670   */\n      0x01\n        /* \"#utility.yul\":6663:6667   */\n      dup3\n        /* \"#utility.yul\":6659:6671   */\n      and\n        /* \"#utility.yul\":6690:6708   */\n      dup1\n        /* \"#utility.yul\":6680:6761   */\n      tag_449\n      jumpi\n        /* \"#utility.yul\":6746:6750   */\n      0x7f\n        /* \"#utility.yul\":6738:6744   */\n      dup3\n        /* \"#utility.yul\":6734:6751   */\n      and\n        /* \"#utility.yul\":6724:6751   */\n      swap2\n      pop\n        /* \"#utility.yul\":6680:6761   */\n    tag_449:\n        /* \"#utility.yul\":6808:6810   */\n      0x20\n        /* \"#utility.yul\":6800:6806   */\n      dup3\n        /* \"#utility.yul\":6797:6811   */\n      lt\n        /* \"#utility.yul\":6777:6795   */\n      dup2\n        /* \"#utility.yul\":6774:6812   */\n      sub\n        /* \"#utility.yul\":6771:6855   */\n      tag_450\n      jumpi\n        /* \"#utility.yul\":6827:6845   */\n      tag_451\n      tag_336\n      jump\t// in\n    tag_451:\n        /* \"#utility.yul\":6771:6855   */\n    tag_450:\n        /* \"#utility.yul\":6592:6861   */\n      pop\n        /* \"#utility.yul\":6541:6861   */\n      swap2\n      swap1\n      pop\n      jump\t// out\n        /* \"#utility.yul\":6867:7048   */\n    tag_337:\n        /* \"#utility.yul\":7007:7040   */\n      0x417070726f76616c2066756e6374696f6e616c6974792064697361626c656400\n        /* \"#utility.yul\":7003:7004   */\n      0x00\n        /* \"#utility.yul\":6995:7001   */\n      dup3\n        /* \"#utility.yul\":6991:7005   */\n      add\n        /* \"#utility.yul\":6984:7041   */\n      mstore\n        /* \"#utility.yul\":6867:7048   */\n      pop\n      jump\t// out\n        /* \"#utility.yul\":7054:7420   */\n    tag_338:\n        /* \"#utility.yul\":7196:7199   */\n      0x00\n        /* \"#utility.yul\":7217:7284   */\n      tag_454\n        /* \"#utility.yul\":7281:7283   */\n      0x1f\n        /* \"#utility.yul\":7276:7279   */\n      dup4\n        /* \"#utility.yul\":7217:7284   */\n      tag_316\n      jump\t// in\n    tag_454:\n        /* \"#utility.yul\":7210:7284   */\n      swap2\n      pop\n        /* \"#utility.yul\":7293:7386   */\n      tag_455\n        /* \"#utility.yul\":7382:7385   */\n      dup3\n        /* \"#utility.yul\":7293:7386   */\n      tag_337\n      jump\t// in\n    tag_455:\n        /* \"#utility.yul\":7411:7413   */\n      0x20\n        /* \"#utility.yul\":7406:7409   */\n      dup3\n        /* \"#utility.yul\":7402:7414   */\n      add\n        /* \"#utility.yul\":7395:7414   */\n      swap1\n      pop\n        /* \"#utility.yul\":7054:7420   */\n      swap2\n      swap1\n      pop\n      jump\t// out\n        /* \"#utility.yul\":7426:7845   */\n    tag_145:\n        /* \"#utility.yul\":7592:7596   */\n      0x00\n        /* \"#utility.yul\":7630:7632   */\n      0x20\n        /* \"#utility.yul\":7619:7628   */\n      dup3\n        /* \"#utility.yul\":7615:7633   */\n      add\n        /* \"#utility.yul\":7607:7633   */\n      swap1\n      pop\n        /* \"#utility.yul\":7679:7688   */\n      dup2\n        /* \"#utility.yul\":7673:7677   */\n      dup2\n        /* \"#utility.yul\":7669:7689   */\n      sub\n        /* \"#utility.yul\":7665:7666   */\n      0x00\n        /* \"#utility.yul\":7654:7663   */\n      dup4\n        /* \"#utility.yul\":7650:7667   */\n      add\n        /* \"#utility.yul\":7643:7690   */\n      mstore\n        /* \"#utility.yul\":7707:7838   */\n      tag_457\n        /* \"#utility.yul\":7833:7837   */\n      dup2\n        /* \"#utility.yul\":7707:7838   */\n      tag_338\n      jump\t// in\n    tag_457:\n        /* \"#utility.yul\":7699:7838   */\n      swap1\n      pop\n        /* \"#utility.yul\":7426:7845   */\n      swap2\n      swap1\n      pop\n      jump\t// out\n        /* \"#utility.yul\":7851:8030   */\n    tag_339:\n        /* \"#utility.yul\":7991:8022   */\n      0x496e73756666696369656e7420636f6e74726163742062616c616e6365000000\n        /* \"#utility.yul\":7987:7988   */\n      0x00\n        /* \"#utility.yul\":7979:7985   */\n      dup3\n        /* \"#utility.yul\":7975:7989   */\n      add\n        /* \"#utility.yul\":7968:8023   */\n      mstore\n        /* \"#utility.yul\":7851:8030   */\n      pop\n      jump\t// out\n        /* \"#utility.yul\":8036:8402   */\n    tag_340:\n        /* \"#utility.yul\":8178:8181   */\n      0x00\n        /* \"#utility.yul\":8199:8266   */\n      tag_460\n        /* \"#utility.yul\":8263:8265   */\n      0x1d\n        /* \"#utility.yul\":8258:8261   */\n      dup4\n        /* \"#utility.yul\":8199:8266   */\n      tag_316\n      jump\t// in\n    tag_460:\n        /* \"#utility.yul\":8192:8266   */\n      swap2\n      pop\n        /* \"#utility.yul\":8275:8368   */\n      tag_461\n        /* \"#utility.yul\":8364:8367   */\n      dup3\n        /* \"#utility.yul\":8275:8368   */\n      tag_339\n      jump\t// in\n    tag_461:\n        /* \"#utility.yul\":8393:8395   */\n      0x20\n        /* \"#utility.yul\":8388:8391   */\n      dup3\n        /* \"#utility.yul\":8384:8396   */\n      add\n        /* \"#utility.yul\":8377:8396   */\n      swap1\n      pop\n        /* \"#utility.yul\":8036:8402   */\n      swap2\n      swap1\n      pop\n      jump\t// out\n        /* \"#utility.yul\":8408:8827   */\n    tag_152:\n        /* \"#utility.yul\":8574:8578   */\n      0x00\n        /* \"#utility.yul\":8612:8614   */\n      0x20\n        /* \"#utility.yul\":8601:8610   */\n      dup3\n        /* \"#utility.yul\":8597:8615   */\n      add\n        /* \"#utility.yul\":8589:8615   */\n      swap1\n      pop\n        /* \"#utility.yul\":8661:8670   */\n      dup2\n        /* \"#utility.yul\":8655:8659   */\n      dup2\n        /* \"#utility.yul\":8651:8671   */\n      sub\n        /* \"#utility.yul\":8647:8648   */\n      0x00\n        /* \"#utility.yul\":8636:8645   */\n      dup4\n        /* \"#utility.yul\":8632:8649   */\n      add\n        /* \"#utility.yul\":8625:8672   */\n      mstore\n        /* \"#utility.yul\":8689:8820   */\n      tag_463\n        /* \"#utility.yul\":8815:8819   */\n      dup2\n        /* \"#utility.yul\":8689:8820   */\n      tag_340\n      jump\t// in\n    tag_463:\n        /* \"#utility.yul\":8681:8820   */\n      swap1\n      pop\n        /* \"#utility.yul\":8408:8827   */\n      swap2\n      swap1\n      pop\n      jump\t// out\n        /* \"#utility.yul\":8833:9069   */\n    tag_341:\n        /* \"#utility.yul\":8973:9007   */\n      0x4e756d626572206f6620746f6b656e7320746f20627579206d75737420626520\n        /* \"#utility.yul\":8969:8970   */\n      0x00\n        /* \"#utility.yul\":8961:8967   */\n      dup3\n        /* \"#utility.yul\":8957:8971   */\n      add\n        /* \"#utility.yul\":8950:9008   */\n      mstore\n        /* \"#utility.yul\":9042:9061   */\n      0x67726561746572207468616e207a65726f000000000000000000000000000000\n        /* \"#utility.yul\":9037:9039   */\n      0x20\n        /* \"#utility.yul\":9029:9035   */\n      dup3\n        /* \"#utility.yul\":9025:9040   */\n      add\n        /* \"#utility.yul\":9018:9062   */\n      mstore\n        /* \"#utility.yul\":8833:9069   */\n      pop\n      jump\t// out\n        /* \"#utility.yul\":9075:9441   */\n    tag_342:\n        /* \"#utility.yul\":9217:9220   */\n      0x00\n        /* \"#utility.yul\":9238:9305   */\n      tag_466\n        /* \"#utility.yul\":9302:9304   */\n      0x31\n        /* \"#utility.yul\":9297:9300   */\n      dup4\n        /* \"#utility.yul\":9238:9305   */\n      tag_316\n      jump\t// in\n    tag_466:\n        /* \"#utility.yul\":9231:9305   */\n      swap2\n      pop\n        /* \"#utility.yul\":9314:9407   */\n      tag_467\n        /* \"#utility.yul\":9403:9406   */\n      dup3\n        /* \"#utility.yul\":9314:9407   */\n      tag_341\n      jump\t// in\n    tag_467:\n        /* \"#utility.yul\":9432:9434   */\n      0x40\n        /* \"#utility.yul\":9427:9430   */\n      dup3\n        /* \"#utility.yul\":9423:9435   */\n      add\n        /* \"#utility.yul\":9416:9435   */\n      swap1\n      pop\n        /* \"#utility.yul\":9075:9441   */\n      swap2\n      swap1\n      pop\n      jump\t// out\n        /* \"#utility.yul\":9447:9866   */\n    tag_175:\n        /* \"#utility.yul\":9613:9617   */\n      0x00\n        /* \"#utility.yul\":9651:9653   */\n      0x20\n        /* \"#utility.yul\":9640:9649   */\n      dup3\n        /* \"#utility.yul\":9636:9654   */\n      add\n        /* \"#utility.yul\":9628:9654   */\n      swap1\n      pop\n        /* \"#utility.yul\":9700:9709   */\n      dup2\n        /* \"#utility.yul\":9694:9698   */\n      dup2\n        /* \"#utility.yul\":9690:9710   */\n      sub\n        /* \"#utility.yul\":9686:9687   */\n      0x00\n        /* \"#utility.yul\":9675:9684   */\n      dup4\n        /* \"#utility.yul\":9671:9688   */\n      add\n        /* \"#utility.yul\":9664:9711   */\n      mstore\n        /* \"#utility.yul\":9728:9859   */\n      tag_469\n        /* \"#utility.yul\":9854:9858   */\n      dup2\n        /* \"#utility.yul\":9728:9859   */\n      tag_342\n      jump\t// in\n    tag_469:\n        /* \"#utility.yul\":9720:9859   */\n      swap1\n      pop\n        /* \"#utility.yul\":9447:9866   */\n      swap2\n      swap1\n      pop\n      jump\t// out\n        /* \"#utility.yul\":9872:10045   */\n    tag_343:\n        /* \"#utility.yul\":10012:10037   */\n      0x496e73756666696369656e742065746865722073656e74000000000000000000\n        /* \"#utility.yul\":10008:10009   */\n      0x00\n        /* \"#utility.yul\":10000:10006   */\n      dup3\n        /* \"#utility.yul\":9996:10010   */\n      add\n        /* \"#utility.yul\":9989:10038   */\n      mstore\n        /* \"#utility.yul\":9872:10045   */\n      pop\n      jump\t// out\n        /* \"#utility.yul\":10051:10417   */\n    tag_344:\n        /* \"#utility.yul\":10193:10196   */\n      0x00\n        /* \"#utility.yul\":10214:10281   */\n      tag_472\n        /* \"#utility.yul\":10278:10280   */\n      0x17\n        /* \"#utility.yul\":10273:10276   */\n      dup4\n        /* \"#utility.yul\":10214:10281   */\n      tag_316\n      jump\t// in\n    tag_472:\n        /* \"#utility.yul\":10207:10281   */\n      swap2\n      pop\n        /* \"#utility.yul\":10290:10383   */\n      tag_473\n        /* \"#utility.yul\":10379:10382   */\n      dup3\n        /* \"#utility.yul\":10290:10383   */\n      tag_343\n      jump\t// in\n    tag_473:\n        /* \"#utility.yul\":10408:10410   */\n      0x20\n        /* \"#utility.yul\":10403:10406   */\n      dup3\n        /* \"#utility.yul\":10399:10411   */\n      add\n        /* \"#utility.yul\":10392:10411   */\n      swap1\n      pop\n        /* \"#utility.yul\":10051:10417   */\n      swap2\n      swap1\n      pop\n      jump\t// out\n        /* \"#utility.yul\":10423:10842   */\n    tag_179:\n        /* \"#utility.yul\":10589:10593   */\n      0x00\n        /* \"#utility.yul\":10627:10629   */\n      0x20\n        /* \"#utility.yul\":10616:10625   */\n      dup3\n        /* \"#utility.yul\":10612:10630   */\n      add\n        /* \"#utility.yul\":10604:10630   */\n      swap1\n      pop\n        /* \"#utility.yul\":10676:10685   */\n      dup2\n        /* \"#utility.yul\":10670:10674   */\n      dup2\n        /* \"#utility.yul\":10666:10686   */\n      sub\n        /* \"#utility.yul\":10662:10663   */\n      0x00\n        /* \"#utility.yul\":10651:10660   */\n      dup4\n        /* \"#utility.yul\":10647:10664   */\n      add\n        /* \"#utility.yul\":10640:10687   */\n      mstore\n        /* \"#utility.yul\":10704:10835   */\n      tag_475\n        /* \"#utility.yul\":10830:10834   */\n      dup2\n        /* \"#utility.yul\":10704:10835   */\n      tag_344\n      jump\t// in\n    tag_475:\n        /* \"#utility.yul\":10696:10835   */\n      swap1\n      pop\n        /* \"#utility.yul\":10423:10842   */\n      swap2\n      swap1\n      pop\n      jump\t// out\n        /* \"#utility.yul\":10848:11028   */\n    tag_345:\n        /* \"#utility.yul\":10896:10973   */\n      0x4e487b7100000000000000000000000000000000000000000000000000000000\n        /* \"#utility.yul\":10893:10894   */\n      0x00\n        /* \"#utility.yul\":10886:10974   */\n      mstore\n        /* \"#utility.yul\":10993:10997   */\n      0x11\n        /* \"#utility.yul\":10990:10991   */\n      0x04\n        /* \"#utility.yul\":10983:10998   */\n      mstore\n        /* \"#utility.yul\":11017:11021   */\n      0x24\n        /* \"#utility.yul\":11014:11015   */\n      0x00\n        /* \"#utility.yul\":11007:11022   */\n      revert\n        /* \"#utility.yul\":11034:11444   */\n    tag_181:\n        /* \"#utility.yul\":11074:11081   */\n      0x00\n        /* \"#utility.yul\":11097:11117   */\n      tag_478\n        /* \"#utility.yul\":11115:11116   */\n      dup3\n        /* \"#utility.yul\":11097:11117   */\n      tag_327\n      jump\t// in\n    tag_478:\n        /* \"#utility.yul\":11092:11117   */\n      swap2\n      pop\n        /* \"#utility.yul\":11131:11151   */\n      tag_479\n        /* \"#utility.yul\":11149:11150   */\n      dup4\n        /* \"#utility.yul\":11131:11151   */\n      tag_327\n      jump\t// in\n    tag_479:\n        /* \"#utility.yul\":11126:11151   */\n      swap3\n      pop\n        /* \"#utility.yul\":11186:11187   */\n      dup3\n        /* \"#utility.yul\":11183:11184   */\n      dup3\n        /* \"#utility.yul\":11179:11188   */\n      mul\n        /* \"#utility.yul\":11208:11238   */\n      tag_480\n        /* \"#utility.yul\":11226:11237   */\n      dup2\n        /* \"#utility.yul\":11208:11238   */\n      tag_327\n      jump\t// in\n    tag_480:\n        /* \"#utility.yul\":11197:11238   */\n      swap2\n      pop\n        /* \"#utility.yul\":11387:11388   */\n      dup3\n        /* \"#utility.yul\":11378:11385   */\n      dup3\n        /* \"#utility.yul\":11374:11389   */\n      div\n        /* \"#utility.yul\":11371:11372   */\n      dup5\n        /* \"#utility.yul\":11368:11390   */\n      eq\n        /* \"#utility.yul\":11348:11349   */\n      dup4\n        /* \"#utility.yul\":11341:11350   */\n      iszero\n        /* \"#utility.yul\":11321:11404   */\n      or\n        /* \"#utility.yul\":11298:11437   */\n      tag_481\n      jumpi\n        /* \"#utility.yul\":11417:11435   */\n      tag_482\n      tag_345\n      jump\t// in\n    tag_482:\n        /* \"#utility.yul\":11298:11437   */\n    tag_481:\n        /* \"#utility.yul\":11082:11444   */\n      pop\n        /* \"#utility.yul\":11034:11444   */\n      swap3\n      swap2\n      pop\n      pop\n      jump\t// out\n        /* \"#utility.yul\":11450:11626   */\n    tag_346:\n        /* \"#utility.yul\":11590:11618   */\n      0x496e73756666696369656e7420746f6b656e2062616c616e6365000000000000\n        /* \"#utility.yul\":11586:11587   */\n      0x00\n        /* \"#utility.yul\":11578:11584   */\n      dup3\n        /* \"#utility.yul\":11574:11588   */\n      add\n        /* \"#utility.yul\":11567:11619   */\n      mstore\n        /* \"#utility.yul\":11450:11626   */\n      pop\n      jump\t// out\n        /* \"#utility.yul\":11632:11998   */\n    tag_347:\n        /* \"#utility.yul\":11774:11777   */\n      0x00\n        /* \"#utility.yul\":11795:11862   */\n      tag_485\n        /* \"#utility.yul\":11859:11861   */\n      0x1a\n        /* \"#utility.yul\":11854:11857   */\n      dup4\n        /* \"#utility.yul\":11795:11862   */\n      tag_316\n      jump\t// in\n    tag_485:\n        /* \"#utility.yul\":11788:11862   */\n      swap2\n      pop\n        /* \"#utility.yul\":11871:11964   */\n      tag_486\n        /* \"#utility.yul\":11960:11963   */\n      dup3\n        /* \"#utility.yul\":11871:11964   */\n      tag_346\n      jump\t// in\n    tag_486:\n        /* \"#utility.yul\":11989:11991   */\n      0x20\n        /* \"#utility.yul\":11984:11987   */\n      dup3\n        /* \"#utility.yul\":11980:11992   */\n      add\n        /* \"#utility.yul\":11973:11992   */\n      swap1\n      pop\n        /* \"#utility.yul\":11632:11998   */\n      swap2\n      swap1\n      pop\n      jump\t// out\n        /* \"#utility.yul\":12004:12423   */\n    tag_186:\n        /* \"#utility.yul\":12170:12174   */\n      0x00\n        /* \"#utility.yul\":12208:12210   */\n      0x20\n        /* \"#utility.yul\":12197:12206   */\n      dup3\n        /* \"#utility.yul\":12193:12211   */\n      add\n        /* \"#utility.yul\":12185:12211   */\n      swap1\n      pop\n        /* \"#utility.yul\":12257:12266   */\n      dup2\n        /* \"#utility.yul\":12251:12255   */\n      dup2\n        /* \"#utility.yul\":12247:12267   */\n      sub\n        /* \"#utility.yul\":12243:12244   */\n      0x00\n        /* \"#utility.yul\":12232:12241   */\n      dup4\n        /* \"#utility.yul\":12228:12245   */\n      add\n        /* \"#utility.yul\":12221:12268   */\n      mstore\n        /* \"#utility.yul\":12285:12416   */\n      tag_488\n        /* \"#utility.yul\":12411:12415   */\n      dup2\n        /* \"#utility.yul\":12285:12416   */\n      tag_347\n      jump\t// in\n    tag_488:\n        /* \"#utility.yul\":12277:12416   */\n      swap1\n      pop\n        /* \"#utility.yul\":12004:12423   */\n      swap2\n      swap1\n      pop\n      jump\t// out\n        /* \"#utility.yul\":12429:12611   */\n    tag_348:\n        /* \"#utility.yul\":12569:12603   */\n      0x416d6f756e74206d7573742062652067726561746572207468616e207a65726f\n        /* \"#utility.yul\":12565:12566   */\n      0x00\n        /* \"#utility.yul\":12557:12563   */\n      dup3\n        /* \"#utility.yul\":12553:12567   */\n      add\n        /* \"#utility.yul\":12546:12604   */\n      mstore\n        /* \"#utility.yul\":12429:12611   */\n      pop\n      jump\t// out\n        /* \"#utility.yul\":12617:12983   */\n    tag_349:\n        /* \"#utility.yul\":12759:12762   */\n      0x00\n        /* \"#utility.yul\":12780:12847   */\n      tag_491\n        /* \"#utility.yul\":12844:12846   */\n      0x20\n        /* \"#utility.yul\":12839:12842   */\n      dup4\n        /* \"#utility.yul\":12780:12847   */\n      tag_316\n      jump\t// in\n    tag_491:\n        /* \"#utility.yul\":12773:12847   */\n      swap2\n      pop\n        /* \"#utility.yul\":12856:12949   */\n      tag_492\n        /* \"#utility.yul\":12945:12948   */\n      dup3\n        /* \"#utility.yul\":12856:12949   */\n      tag_348\n      jump\t// in\n    tag_492:\n        /* \"#utility.yul\":12974:12976   */\n      0x20\n        /* \"#utility.yul\":12969:12972   */\n      dup3\n        /* \"#utility.yul\":12965:12977   */\n      add\n        /* \"#utility.yul\":12958:12977   */\n      swap1\n      pop\n        /* \"#utility.yul\":12617:12983   */\n      swap2\n      swap1\n      pop\n      jump\t// out\n        /* \"#utility.yul\":12989:13408   */\n    tag_207:\n        /* \"#utility.yul\":13155:13159   */\n      0x00\n        /* \"#utility.yul\":13193:13195   */\n      0x20\n        /* \"#utility.yul\":13182:13191   */\n      dup3\n        /* \"#utility.yul\":13178:13196   */\n      add\n        /* \"#utility.yul\":13170:13196   */\n      swap1\n      pop\n        /* \"#utility.yul\":13242:13251   */\n      dup2\n        /* \"#utility.yul\":13236:13240   */\n      dup2\n        /* \"#utility.yul\":13232:13252   */\n      sub\n        /* \"#utility.yul\":13228:13229   */\n      0x00\n        /* \"#utility.yul\":13217:13226   */\n      dup4\n        /* \"#utility.yul\":13213:13230   */\n      add\n        /* \"#utility.yul\":13206:13253   */\n      mstore\n        /* \"#utility.yul\":13270:13401   */\n      tag_494\n        /* \"#utility.yul\":13396:13400   */\n      dup2\n        /* \"#utility.yul\":13270:13401   */\n      tag_349\n      jump\t// in\n    tag_494:\n        /* \"#utility.yul\":13262:13401   */\n      swap1\n      pop\n        /* \"#utility.yul\":12989:13408   */\n      swap2\n      swap1\n      pop\n      jump\t// out\n        /* \"#utility.yul\":13414:13639   */\n    tag_350:\n        /* \"#utility.yul\":13554:13588   */\n      0x4f776e61626c653a206e6577206f776e657220697320746865207a65726f2061\n        /* \"#utility.yul\":13550:13551   */\n      0x00\n        /* \"#utility.yul\":13542:13548   */\n      dup3\n        /* \"#utility.yul\":13538:13552   */\n      add\n        /* \"#utility.yul\":13531:13589   */\n      mstore\n        /* \"#utility.yul\":13623:13631   */\n      0x6464726573730000000000000000000000000000000000000000000000000000\n        /* \"#utility.yul\":13618:13620   */\n      0x20\n        /* \"#utility.yul\":13610:13616   */\n      dup3\n        /* \"#utility.yul\":13606:13621   */\n      add\n        /* \"#utility.yul\":13599:13632   */\n      mstore\n        /* \"#utility.yul\":13414:13639   */\n      pop\n      jump\t// out\n        /* \"#utility.yul\":13645:14011   */\n    tag_351:\n        /* \"#utility.yul\":13787:13790   */\n      0x00\n        /* \"#utility.yul\":13808:13875   */\n      tag_497\n        /* \"#utility.yul\":13872:13874   */\n      0x26\n        /* \"#utility.yul\":13867:13870   */\n      dup4\n        /* \"#utility.yul\":13808:13875   */\n      tag_316\n      jump\t// in\n    tag_497:\n        /* \"#utility.yul\":13801:13875   */\n      swap2\n      pop\n        /* \"#utility.yul\":13884:13977   */\n      tag_498\n        /* \"#utility.yul\":13973:13976   */\n      dup3\n        /* \"#utility.yul\":13884:13977   */\n      tag_350\n      jump\t// in\n    tag_498:\n        /* \"#utility.yul\":14002:14004   */\n      0x40\n        /* \"#utility.yul\":13997:14000   */\n      dup3\n        /* \"#utility.yul\":13993:14005   */\n      add\n        /* \"#utility.yul\":13986:14005   */\n      swap1\n      pop\n        /* \"#utility.yul\":13645:14011   */\n      swap2\n      swap1\n      pop\n      jump\t// out\n        /* \"#utility.yul\":14017:14436   */\n    tag_243:\n        /* \"#utility.yul\":14183:14187   */\n      0x00\n        /* \"#utility.yul\":14221:14223   */\n      0x20\n        /* \"#utility.yul\":14210:14219   */\n      dup3\n        /* \"#utility.yul\":14206:14224   */\n      add\n        /* \"#utility.yul\":14198:14224   */\n      swap1\n      pop\n        /* \"#utility.yul\":14270:14279   */\n      dup2\n        /* \"#utility.yul\":14264:14268   */\n      dup2\n        /* \"#utility.yul\":14260:14280   */\n      sub\n        /* \"#utility.yul\":14256:14257   */\n      0x00\n        /* \"#utility.yul\":14245:14254   */\n      dup4\n        /* \"#utility.yul\":14241:14258   */\n      add\n        /* \"#utility.yul\":14234:14281   */\n      mstore\n        /* \"#utility.yul\":14298:14429   */\n      tag_500\n        /* \"#utility.yul\":14424:14428   */\n      dup2\n        /* \"#utility.yul\":14298:14429   */\n      tag_351\n      jump\t// in\n    tag_500:\n        /* \"#utility.yul\":14290:14429   */\n      swap1\n      pop\n        /* \"#utility.yul\":14017:14436   */\n      swap2\n      swap1\n      pop\n      jump\t// out\n        /* \"#utility.yul\":14442:14623   */\n    tag_352:\n        /* \"#utility.yul\":14582:14615   */\n      0x45524332303a206d696e7420746f20746865207a65726f206164647265737300\n        /* \"#utility.yul\":14578:14579   */\n      0x00\n        /* \"#utility.yul\":14570:14576   */\n      dup3\n        /* \"#utility.yul\":14566:14580   */\n      add\n        /* \"#utility.yul\":14559:14616   */\n      mstore\n        /* \"#utility.yul\":14442:14623   */\n      pop\n      jump\t// out\n        /* \"#utility.yul\":14629:14995   */\n    tag_353:\n        /* \"#utility.yul\":14771:14774   */\n      0x00\n        /* \"#utility.yul\":14792:14859   */\n      tag_503\n        /* \"#utility.yul\":14856:14858   */\n      0x1f\n        /* \"#utility.yul\":14851:14854   */\n      dup4\n        /* \"#utility.yul\":14792:14859   */\n      tag_316\n      jump\t// in\n    tag_503:\n        /* \"#utility.yul\":14785:14859   */\n      swap2\n      pop\n        /* \"#utility.yul\":14868:14961   */\n      tag_504\n        /* \"#utility.yul\":14957:14960   */\n      dup3\n        /* \"#utility.yul\":14868:14961   */\n      tag_352\n      jump\t// in\n    tag_504:\n        /* \"#utility.yul\":14986:14988   */\n      0x20\n        /* \"#utility.yul\":14981:14984   */\n      dup3\n        /* \"#utility.yul\":14977:14989   */\n      add\n        /* \"#utility.yul\":14970:14989   */\n      swap1\n      pop\n        /* \"#utility.yul\":14629:14995   */\n      swap2\n      swap1\n      pop\n      jump\t// out\n        /* \"#utility.yul\":15001:15420   */\n    tag_248:\n        /* \"#utility.yul\":15167:15171   */\n      0x00\n        /* \"#utility.yul\":15205:15207   */\n      0x20\n        /* \"#utility.yul\":15194:15203   */\n      dup3\n        /* \"#utility.yul\":15190:15208   */\n      add\n        /* \"#utility.yul\":15182:15208   */\n      swap1\n      pop\n        /* \"#utility.yul\":15254:15263   */\n      dup2\n        /* \"#utility.yul\":15248:15252   */\n      dup2\n        /* \"#utility.yul\":15244:15264   */\n      sub\n        /* \"#utility.yul\":15240:15241   */\n      0x00\n        /* \"#utility.yul\":15229:15238   */\n      dup4\n        /* \"#utility.yul\":15225:15242   */\n      add\n        /* \"#utility.yul\":15218:15265   */\n      mstore\n        /* \"#utility.yul\":15282:15413   */\n      tag_506\n        /* \"#utility.yul\":15408:15412   */\n      dup2\n        /* \"#utility.yul\":15282:15413   */\n      tag_353\n      jump\t// in\n    tag_506:\n        /* \"#utility.yul\":15274:15413   */\n      swap1\n      pop\n        /* \"#utility.yul\":15001:15420   */\n      swap2\n      swap1\n      pop\n      jump\t// out\n        /* \"#utility.yul\":15426:15617   */\n    tag_252:\n        /* \"#utility.yul\":15466:15469   */\n      0x00\n        /* \"#utility.yul\":15485:15505   */\n      tag_508\n        /* \"#utility.yul\":15503:15504   */\n      dup3\n        /* \"#utility.yul\":15485:15505   */\n      tag_327\n      jump\t// in\n    tag_508:\n        /* \"#utility.yul\":15480:15505   */\n      swap2\n      pop\n        /* \"#utility.yul\":15519:15539   */\n      tag_509\n        /* \"#utility.yul\":15537:15538   */\n      dup4\n        /* \"#utility.yul\":15519:15539   */\n      tag_327\n      jump\t// in\n    tag_509:\n        /* \"#utility.yul\":15514:15539   */\n      swap3\n      pop\n        /* \"#utility.yul\":15562:15563   */\n      dup3\n        /* \"#utility.yul\":15559:15560   */\n      dup3\n        /* \"#utility.yul\":15555:15564   */\n      add\n        /* \"#utility.yul\":15548:15564   */\n      swap1\n      pop\n        /* \"#utility.yul\":15583:15586   */\n      dup1\n        /* \"#utility.yul\":15580:15581   */\n      dup3\n        /* \"#utility.yul\":15577:15587   */\n      gt\n        /* \"#utility.yul\":15574:15610   */\n      iszero\n      tag_510\n      jumpi\n        /* \"#utility.yul\":15590:15608   */\n      tag_511\n      tag_345\n      jump\t// in\n    tag_511:\n        /* \"#utility.yul\":15574:15610   */\n    tag_510:\n        /* \"#utility.yul\":15426:15617   */\n      swap3\n      swap2\n      pop\n      pop\n      jump\t// out\n        /* \"#utility.yul\":15623:15805   */\n    tag_354:\n        /* \"#utility.yul\":15763:15797   */\n      0x4f776e61626c653a2063616c6c6572206973206e6f7420746865206f776e6572\n        /* \"#utility.yul\":15759:15760   */\n      0x00\n        /* \"#utility.yul\":15751:15757   */\n      dup3\n        /* \"#utility.yul\":15747:15761   */\n      add\n        /* \"#utility.yul\":15740:15798   */\n      mstore\n        /* \"#utility.yul\":15623:15805   */\n      pop\n      jump\t// out\n        /* \"#utility.yul\":15811:16177   */\n    tag_355:\n        /* \"#utility.yul\":15953:15956   */\n      0x00\n        /* \"#utility.yul\":15974:16041   */\n      tag_514\n        /* \"#utility.yul\":16038:16040   */\n      0x20\n        /* \"#utility.yul\":16033:16036   */\n      dup4\n        /* \"#utility.yul\":15974:16041   */\n      tag_316\n      jump\t// in\n    tag_514:\n        /* \"#utility.yul\":15967:16041   */\n      swap2\n      pop\n        /* \"#utility.yul\":16050:16143   */\n      tag_515\n        /* \"#utility.yul\":16139:16142   */\n      dup3\n        /* \"#utility.yul\":16050:16143   */\n      tag_354\n      jump\t// in\n    tag_515:\n        /* \"#utility.yul\":16168:16170   */\n      0x20\n        /* \"#utility.yul\":16163:16166   */\n      dup3\n        /* \"#utility.yul\":16159:16171   */\n      add\n        /* \"#utility.yul\":16152:16171   */\n      swap1\n      pop\n        /* \"#utility.yul\":15811:16177   */\n      swap2\n      swap1\n      pop\n      jump\t// out\n        /* \"#utility.yul\":16183:16602   */\n    tag_261:\n        /* \"#utility.yul\":16349:16353   */\n      0x00\n        /* \"#utility.yul\":16387:16389   */\n      0x20\n        /* \"#utility.yul\":16376:16385   */\n      dup3\n        /* \"#utility.yul\":16372:16390   */\n      add\n        /* \"#utility.yul\":16364:16390   */\n      swap1\n      pop\n        /* \"#utility.yul\":16436:16445   */\n      dup2\n        /* \"#utility.yul\":16430:16434   */\n      dup2\n        /* \"#utility.yul\":16426:16446   */\n      sub\n        /* \"#utility.yul\":16422:16423   */\n      0x00\n        /* \"#utility.yul\":16411:16420   */\n      dup4\n        /* \"#utility.yul\":16407:16424   */\n      add\n        /* \"#utility.yul\":16400:16447   */\n      mstore\n        /* \"#utility.yul\":16464:16595   */\n      tag_517\n        /* \"#utility.yul\":16590:16594   */\n      dup2\n        /* \"#utility.yul\":16464:16595   */\n      tag_355\n      jump\t// in\n    tag_517:\n        /* \"#utility.yul\":16456:16595   */\n      swap1\n      pop\n        /* \"#utility.yul\":16183:16602   */\n      swap2\n      swap1\n      pop\n      jump\t// out\n        /* \"#utility.yul\":16608:16828   */\n    tag_356:\n        /* \"#utility.yul\":16748:16782   */\n      0x45524332303a206275726e2066726f6d20746865207a65726f20616464726573\n        /* \"#utility.yul\":16744:16745   */\n      0x00\n        /* \"#utility.yul\":16736:16742   */\n      dup3\n        /* \"#utility.yul\":16732:16746   */\n      add\n        /* \"#utility.yul\":16725:16783   */\n      mstore\n        /* \"#utility.yul\":16817:16820   */\n      0x7300000000000000000000000000000000000000000000000000000000000000\n        /* \"#utility.yul\":16812:16814   */\n      0x20\n        /* \"#utility.yul\":16804:16810   */\n      dup3\n        /* \"#utility.yul\":16800:16815   */\n      add\n        /* \"#utility.yul\":16793:16821   */\n      mstore\n        /* \"#utility.yul\":16608:16828   */\n      pop\n      jump\t// out\n        /* \"#utility.yul\":16834:17200   */\n    tag_357:\n        /* \"#utility.yul\":16976:16979   */\n      0x00\n        /* \"#utility.yul\":16997:17064   */\n      tag_520\n        /* \"#utility.yul\":17061:17063   */\n      0x21\n        /* \"#utility.yul\":17056:17059   */\n      dup4\n        /* \"#utility.yul\":16997:17064   */\n      tag_316\n      jump\t// in\n    tag_520:\n        /* \"#utility.yul\":16990:17064   */\n      swap2\n      pop\n        /* \"#utility.yul\":17073:17166   */\n      tag_521\n        /* \"#utility.yul\":17162:17165   */\n      dup3\n        /* \"#utility.yul\":17073:17166   */\n      tag_356\n      jump\t// in\n    tag_521:\n        /* \"#utility.yul\":17191:17193   */\n      0x40\n        /* \"#utility.yul\":17186:17189   */\n      dup3\n        /* \"#utility.yul\":17182:17194   */\n      add\n        /* \"#utility.yul\":17175:17194   */\n      swap1\n      pop\n        /* \"#utility.yul\":16834:17200   */\n      swap2\n      swap1\n      pop\n      jump\t// out\n        /* \"#utility.yul\":17206:17625   */\n    tag_270:\n        /* \"#utility.yul\":17372:17376   */\n      0x00\n        /* \"#utility.yul\":17410:17412   */\n      0x20\n        /* \"#utility.yul\":17399:17408   */\n      dup3\n        /* \"#utility.yul\":17395:17413   */\n      add\n        /* \"#utility.yul\":17387:17413   */\n      swap1\n      pop\n        /* \"#utility.yul\":17459:17468   */\n      dup2\n        /* \"#utility.yul\":17453:17457   */\n      dup2\n        /* \"#utility.yul\":17449:17469   */\n      sub\n        /* \"#utility.yul\":17445:17446   */\n      0x00\n        /* \"#utility.yul\":17434:17443   */\n      dup4\n        /* \"#utility.yul\":17430:17447   */\n      add\n        /* \"#utility.yul\":17423:17470   */\n      mstore\n        /* \"#utility.yul\":17487:17618   */\n      tag_523\n        /* \"#utility.yul\":17613:17617   */\n      dup2\n        /* \"#utility.yul\":17487:17618   */\n      tag_357\n      jump\t// in\n    tag_523:\n        /* \"#utility.yul\":17479:17618   */\n      swap1\n      pop\n        /* \"#utility.yul\":17206:17625   */\n      swap2\n      swap1\n      pop\n      jump\t// out\n        /* \"#utility.yul\":17631:17852   */\n    tag_358:\n        /* \"#utility.yul\":17771:17805   */\n      0x45524332303a206275726e20616d6f756e7420657863656564732062616c616e\n        /* \"#utility.yul\":17767:17768   */\n      0x00\n        /* \"#utility.yul\":17759:17765   */\n      dup3\n        /* \"#utility.yul\":17755:17769   */\n      add\n        /* \"#utility.yul\":17748:17806   */\n      mstore\n        /* \"#utility.yul\":17840:17844   */\n      0x6365000000000000000000000000000000000000000000000000000000000000\n        /* \"#utility.yul\":17835:17837   */\n      0x20\n        /* \"#utility.yul\":17827:17833   */\n      dup3\n        /* \"#utility.yul\":17823:17838   */\n      add\n        /* \"#utility.yul\":17816:17845   */\n      mstore\n        /* \"#utility.yul\":17631:17852   */\n      pop\n      jump\t// out\n        /* \"#utility.yul\":17858:18224   */\n    tag_359:\n        /* \"#utility.yul\":18000:18003   */\n      0x00\n        /* \"#utility.yul\":18021:18088   */\n      tag_526\n        /* \"#utility.yul\":18085:18087   */\n      0x22\n        /* \"#utility.yul\":18080:18083   */\n      dup4\n        /* \"#utility.yul\":18021:18088   */\n      tag_316\n      jump\t// in\n    tag_526:\n        /* \"#utility.yul\":18014:18088   */\n      swap2\n      pop\n        /* \"#utility.yul\":18097:18190   */\n      tag_527\n        /* \"#utility.yul\":18186:18189   */\n      dup3\n        /* \"#utility.yul\":18097:18190   */\n      tag_358\n      jump\t// in\n    tag_527:\n        /* \"#utility.yul\":18215:18217   */\n      0x40\n        /* \"#utility.yul\":18210:18213   */\n      dup3\n        /* \"#utility.yul\":18206:18218   */\n      add\n        /* \"#utility.yul\":18199:18218   */\n      swap1\n      pop\n        /* \"#utility.yul\":17858:18224   */\n      swap2\n      swap1\n      pop\n      jump\t// out\n        /* \"#utility.yul\":18230:18649   */\n    tag_274:\n        /* \"#utility.yul\":18396:18400   */\n      0x00\n        /* \"#utility.yul\":18434:18436   */\n      0x20\n        /* \"#utility.yul\":18423:18432   */\n      dup3\n        /* \"#utility.yul\":18419:18437   */\n      add\n        /* \"#utility.yul\":18411:18437   */\n      swap1\n      pop\n        /* \"#utility.yul\":18483:18492   */\n      dup2\n        /* \"#utility.yul\":18477:18481   */\n      dup2\n        /* \"#utility.yul\":18473:18493   */\n      sub\n        /* \"#utility.yul\":18469:18470   */\n      0x00\n        /* \"#utility.yul\":18458:18467   */\n      dup4\n        /* \"#utility.yul\":18454:18471   */\n      add\n        /* \"#utility.yul\":18447:18494   */\n      mstore\n        /* \"#utility.yul\":18511:18642   */\n      tag_529\n        /* \"#utility.yul\":18637:18641   */\n      dup2\n        /* \"#utility.yul\":18511:18642   */\n      tag_359\n      jump\t// in\n    tag_529:\n        /* \"#utility.yul\":18503:18642   */\n      swap1\n      pop\n        /* \"#utility.yul\":18230:18649   */\n      swap2\n      swap1\n      pop\n      jump\t// out\n        /* \"#utility.yul\":18655:18835   */\n    tag_360:\n        /* \"#utility.yul\":18703:18780   */\n      0x4e487b7100000000000000000000000000000000000000000000000000000000\n        /* \"#utility.yul\":18700:18701   */\n      0x00\n        /* \"#utility.yul\":18693:18781   */\n      mstore\n        /* \"#utility.yul\":18800:18804   */\n      0x12\n        /* \"#utility.yul\":18797:18798   */\n      0x04\n        /* \"#utility.yul\":18790:18805   */\n      mstore\n        /* \"#utility.yul\":18824:18828   */\n      0x24\n        /* \"#utility.yul\":18821:18822   */\n      0x00\n        /* \"#utility.yul\":18814:18829   */\n      revert\n        /* \"#utility.yul\":18841:19026   */\n    tag_282:\n        /* \"#utility.yul\":18881:18882   */\n      0x00\n        /* \"#utility.yul\":18898:18918   */\n      tag_532\n        /* \"#utility.yul\":18916:18917   */\n      dup3\n        /* \"#utility.yul\":18898:18918   */\n      tag_327\n      jump\t// in\n    tag_532:\n        /* \"#utility.yul\":18893:18918   */\n      swap2\n      pop\n        /* \"#utility.yul\":18932:18952   */\n      tag_533\n        /* \"#utility.yul\":18950:18951   */\n      dup4\n        /* \"#utility.yul\":18932:18952   */\n      tag_327\n      jump\t// in\n    tag_533:\n        /* \"#utility.yul\":18927:18952   */\n      swap3\n      pop\n        /* \"#utility.yul\":18971:18972   */\n      dup3\n        /* \"#utility.yul\":18961:18996   */\n      tag_534\n      jumpi\n        /* \"#utility.yul\":18976:18994   */\n      tag_535\n      tag_360\n      jump\t// in\n    tag_535:\n        /* \"#utility.yul\":18961:18996   */\n    tag_534:\n        /* \"#utility.yul\":19018:19019   */\n      dup3\n        /* \"#utility.yul\":19015:19016   */\n      dup3\n        /* \"#utility.yul\":19011:19020   */\n      div\n        /* \"#utility.yul\":19006:19020   */\n      swap1\n      pop\n        /* \"#utility.yul\":18841:19026   */\n      swap3\n      swap2\n      pop\n      pop\n      jump\t// out\n        /* \"#utility.yul\":19032:19211   */\n    tag_361:\n        /* \"#utility.yul\":19172:19203   */\n      0x45524332303a20696e73756666696369656e7420616c6c6f77616e6365000000\n        /* \"#utility.yul\":19168:19169   */\n      0x00\n        /* \"#utility.yul\":19160:19166   */\n      dup3\n        /* \"#utility.yul\":19156:19170   */\n      add\n        /* \"#utility.yul\":19149:19204   */\n      mstore\n        /* \"#utility.yul\":19032:19211   */\n      pop\n      jump\t// out\n        /* \"#utility.yul\":19217:19583   */\n    tag_362:\n        /* \"#utility.yul\":19359:19362   */\n      0x00\n        /* \"#utility.yul\":19380:19447   */\n      tag_538\n        /* \"#utility.yul\":19444:19446   */\n      0x1d\n        /* \"#utility.yul\":19439:19442   */\n      dup4\n        /* \"#utility.yul\":19380:19447   */\n      tag_316\n      jump\t// in\n    tag_538:\n        /* \"#utility.yul\":19373:19447   */\n      swap2\n      pop\n        /* \"#utility.yul\":19456:19549   */\n      tag_539\n        /* \"#utility.yul\":19545:19548   */\n      dup3\n        /* \"#utility.yul\":19456:19549   */\n      tag_361\n      jump\t// in\n    tag_539:\n        /* \"#utility.yul\":19574:19576   */\n      0x20\n        /* \"#utility.yul\":19569:19572   */\n      dup3\n        /* \"#utility.yul\":19565:19577   */\n      add\n        /* \"#utility.yul\":19558:19577   */\n      swap1\n      pop\n        /* \"#utility.yul\":19217:19583   */\n      swap2\n      swap1\n      pop\n      jump\t// out\n        /* \"#utility.yul\":19589:20008   */\n    tag_289:\n        /* \"#utility.yul\":19755:19759   */\n      0x00\n        /* \"#utility.yul\":19793:19795   */\n      0x20\n        /* \"#utility.yul\":19782:19791   */\n      dup3\n        /* \"#utility.yul\":19778:19796   */\n      add\n        /* \"#utility.yul\":19770:19796   */\n      swap1\n      pop\n        /* \"#utility.yul\":19842:19851   */\n      dup2\n        /* \"#utility.yul\":19836:19840   */\n      dup2\n        /* \"#utility.yul\":19832:19852   */\n      sub\n        /* \"#utility.yul\":19828:19829   */\n      0x00\n        /* \"#utility.yul\":19817:19826   */\n      dup4\n        /* \"#utility.yul\":19813:19830   */\n      add\n        /* \"#utility.yul\":19806:19853   */\n      mstore\n        /* \"#utility.yul\":19870:20001   */\n      tag_541\n        /* \"#utility.yul\":19996:20000   */\n      dup2\n        /* \"#utility.yul\":19870:20001   */\n      tag_362\n      jump\t// in\n    tag_541:\n        /* \"#utility.yul\":19862:20001   */\n      swap1\n      pop\n        /* \"#utility.yul\":19589:20008   */\n      swap2\n      swap1\n      pop\n      jump\t// out\n        /* \"#utility.yul\":20014:20238   */\n    tag_363:\n        /* \"#utility.yul\":20154:20188   */\n      0x45524332303a207472616e736665722066726f6d20746865207a65726f206164\n        /* \"#utility.yul\":20150:20151   */\n      0x00\n        /* \"#utility.yul\":20142:20148   */\n      dup3\n        /* \"#utility.yul\":20138:20152   */\n      add\n        /* \"#utility.yul\":20131:20189   */\n      mstore\n        /* \"#utility.yul\":20223:20230   */\n      0x6472657373000000000000000000000000000000000000000000000000000000\n        /* \"#utility.yul\":20218:20220   */\n      0x20\n        /* \"#utility.yul\":20210:20216   */\n      dup3\n        /* \"#utility.yul\":20206:20221   */\n      add\n        /* \"#utility.yul\":20199:20231   */\n      mstore\n        /* \"#utility.yul\":20014:20238   */\n      pop\n      jump\t// out\n        /* \"#utility.yul\":20244:20610   */\n    tag_364:\n        /* \"#utility.yul\":20386:20389   */\n      0x00\n        /* \"#utility.yul\":20407:20474   */\n      tag_544\n        /* \"#utility.yul\":20471:20473   */\n      0x25\n        /* \"#utility.yul\":20466:20469   */\n      dup4\n        /* \"#utility.yul\":20407:20474   */\n      tag_316\n      jump\t// in\n    tag_544:\n        /* \"#utility.yul\":20400:20474   */\n      swap2\n      pop\n        /* \"#utility.yul\":20483:20576   */\n      tag_545\n        /* \"#utility.yul\":20572:20575   */\n      dup3\n        /* \"#utility.yul\":20483:20576   */\n      tag_363\n      jump\t// in\n    tag_545:\n        /* \"#utility.yul\":20601:20603   */\n      0x40\n        /* \"#utility.yul\":20596:20599   */\n      dup3\n        /* \"#utility.yul\":20592:20604   */\n      add\n        /* \"#utility.yul\":20585:20604   */\n      swap1\n      pop\n        /* \"#utility.yul\":20244:20610   */\n      swap2\n      swap1\n      pop\n      jump\t// out\n        /* \"#utility.yul\":20616:21035   */\n    tag_297:\n        /* \"#utility.yul\":20782:20786   */\n      0x00\n        /* \"#utility.yul\":20820:20822   */\n      0x20\n        /* \"#utility.yul\":20809:20818   */\n      dup3\n        /* \"#utility.yul\":20805:20823   */\n      add\n        /* \"#utility.yul\":20797:20823   */\n      swap1\n      pop\n        /* \"#utility.yul\":20869:20878   */\n      dup2\n        /* \"#utility.yul\":20863:20867   */\n      dup2\n        /* \"#utility.yul\":20859:20879   */\n      sub\n        /* \"#utility.yul\":20855:20856   */\n      0x00\n        /* \"#utility.yul\":20844:20853   */\n      dup4\n        /* \"#utility.yul\":20840:20857   */\n      add\n        /* \"#utility.yul\":20833:20880   */\n      mstore\n        /* \"#utility.yul\":20897:21028   */\n      tag_547\n        /* \"#utility.yul\":21023:21027   */\n      dup2\n        /* \"#utility.yul\":20897:21028   */\n      tag_364\n      jump\t// in\n    tag_547:\n        /* \"#utility.yul\":20889:21028   */\n      swap1\n      pop\n        /* \"#utility.yul\":20616:21035   */\n      swap2\n      swap1\n      pop\n      jump\t// out\n        /* \"#utility.yul\":21041:21263   */\n    tag_365:\n        /* \"#utility.yul\":21181:21215   */\n      0x45524332303a207472616e7366657220746f20746865207a65726f2061646472\n        /* \"#utility.yul\":21177:21178   */\n      0x00\n        /* \"#utility.yul\":21169:21175   */\n      dup3\n        /* \"#utility.yul\":21165:21179   */\n      add\n        /* \"#utility.yul\":21158:21216   */\n      mstore\n        /* \"#utility.yul\":21250:21255   */\n      0x6573730000000000000000000000000000000000000000000000000000000000\n        /* \"#utility.yul\":21245:21247   */\n      0x20\n        /* \"#utility.yul\":21237:21243   */\n      dup3\n        /* \"#utility.yul\":21233:21248   */\n      add\n        /* \"#utility.yul\":21226:21256   */\n      mstore\n        /* \"#utility.yul\":21041:21263   */\n      pop\n      jump\t// out\n        /* \"#utility.yul\":21269:21635   */\n    tag_366:\n        /* \"#utility.yul\":21411:21414   */\n      0x00\n        /* \"#utility.yul\":21432:21499   */\n      tag_550\n        /* \"#utility.yul\":21496:21498   */\n      0x23\n        /* \"#utility.yul\":21491:21494   */\n      dup4\n        /* \"#utility.yul\":21432:21499   */\n      tag_316\n      jump\t// in\n    tag_550:\n        /* \"#utility.yul\":21425:21499   */\n      swap2\n      pop\n        /* \"#utility.yul\":21508:21601   */\n      tag_551\n        /* \"#utility.yul\":21597:21600   */\n      dup3\n        /* \"#utility.yul\":21508:21601   */\n      tag_365\n      jump\t// in\n    tag_551:\n        /* \"#utility.yul\":21626:21628   */\n      0x40\n        /* \"#utility.yul\":21621:21624   */\n      dup3\n        /* \"#utility.yul\":21617:21629   */\n      add\n        /* \"#utility.yul\":21610:21629   */\n      swap1\n      pop\n        /* \"#utility.yul\":21269:21635   */\n      swap2\n      swap1\n      pop\n      jump\t// out\n        /* \"#utility.yul\":21641:22060   */\n    tag_300:\n        /* \"#utility.yul\":21807:21811   */\n      0x00\n        /* \"#utility.yul\":21845:21847   */\n      0x20\n        /* \"#utility.yul\":21834:21843   */\n      dup3\n        /* \"#utility.yul\":21830:21848   */\n      add\n        /* \"#utility.yul\":21822:21848   */\n      swap1\n      pop\n        /* \"#utility.yul\":21894:21903   */\n      dup2\n        /* \"#utility.yul\":21888:21892   */\n      dup2\n        /* \"#utility.yul\":21884:21904   */\n      sub\n        /* \"#utility.yul\":21880:21881   */\n      0x00\n        /* \"#utility.yul\":21869:21878   */\n      dup4\n        /* \"#utility.yul\":21865:21882   */\n      add\n        /* \"#utility.yul\":21858:21905   */\n      mstore\n        /* \"#utility.yul\":21922:22053   */\n      tag_553\n        /* \"#utility.yul\":22048:22052   */\n      dup2\n        /* \"#utility.yul\":21922:22053   */\n      tag_366\n      jump\t// in\n    tag_553:\n        /* \"#utility.yul\":21914:22053   */\n      swap1\n      pop\n        /* \"#utility.yul\":21641:22060   */\n      swap2\n      swap1\n      pop\n      jump\t// out\n        /* \"#utility.yul\":22066:22291   */\n    tag_367:\n        /* \"#utility.yul\":22206:22240   */\n      0x45524332303a207472616e7366657220616d6f756e7420657863656564732062\n        /* \"#utility.yul\":22202:22203   */\n      0x00\n        /* \"#utility.yul\":22194:22200   */\n      dup3\n        /* \"#utility.yul\":22190:22204   */\n      add\n        /* \"#utility.yul\":22183:22241   */\n      mstore\n        /* \"#utility.yul\":22275:22283   */\n      0x616c616e63650000000000000000000000000000000000000000000000000000\n        /* \"#utility.yul\":22270:22272   */\n      0x20\n        /* \"#utility.yul\":22262:22268   */\n      dup3\n        /* \"#utility.yul\":22258:22273   */\n      add\n        /* \"#utility.yul\":22251:22284   */\n      mstore\n        /* \"#utility.yul\":22066:22291   */\n      pop\n      jump\t// out\n        /* \"#utility.yul\":22297:22663   */\n    tag_368:\n        /* \"#utility.yul\":22439:22442   */\n      0x00\n        /* \"#utility.yul\":22460:22527   */\n      tag_556\n        /* \"#utility.yul\":22524:22526   */\n      0x26\n        /* \"#utility.yul\":22519:22522   */\n      dup4\n        /* \"#utility.yul\":22460:22527   */\n      tag_316\n      jump\t// in\n    tag_556:\n        /* \"#utility.yul\":22453:22527   */\n      swap2\n      pop\n        /* \"#utility.yul\":22536:22629   */\n      tag_557\n        /* \"#utility.yul\":22625:22628   */\n      dup3\n        /* \"#utility.yul\":22536:22629   */\n      tag_367\n      jump\t// in\n    tag_557:\n        /* \"#utility.yul\":22654:22656   */\n      0x40\n        /* \"#utility.yul\":22649:22652   */\n      dup3\n        /* \"#utility.yul\":22645:22657   */\n      add\n        /* \"#utility.yul\":22638:22657   */\n      swap1\n      pop\n        /* \"#utility.yul\":22297:22663   */\n      swap2\n      swap1\n      pop\n      jump\t// out\n        /* \"#utility.yul\":22669:23088   */\n    tag_304:\n        /* \"#utility.yul\":22835:22839   */\n      0x00\n        /* \"#utility.yul\":22873:22875   */\n      0x20\n        /* \"#utility.yul\":22862:22871   */\n      dup3\n        /* \"#utility.yul\":22858:22876   */\n      add\n        /* \"#utility.yul\":22850:22876   */\n      swap1\n      pop\n        /* \"#utility.yul\":22922:22931   */\n      dup2\n        /* \"#utility.yul\":22916:22920   */\n      dup2\n        /* \"#utility.yul\":22912:22932   */\n      sub\n        /* \"#utility.yul\":22908:22909   */\n      0x00\n        /* \"#utility.yul\":22897:22906   */\n      dup4\n        /* \"#utility.yul\":22893:22910   */\n      add\n        /* \"#utility.yul\":22886:22933   */\n      mstore\n        /* \"#utility.yul\":22950:23081   */\n      tag_559\n        /* \"#utility.yul\":23076:23080   */\n      dup2\n        /* \"#utility.yul\":22950:23081   */\n      tag_368\n      jump\t// in\n    tag_559:\n        /* \"#utility.yul\":22942:23081   */\n      swap1\n      pop\n        /* \"#utility.yul\":22669:23088   */\n      swap2\n      swap1\n      pop\n      jump\t// out\n        /* \"#utility.yul\":23094:23317   */\n    tag_369:\n        /* \"#utility.yul\":23234:23268   */\n      0x45524332303a20617070726f76652066726f6d20746865207a65726f20616464\n        /* \"#utility.yul\":23230:23231   */\n      0x00\n        /* \"#utility.yul\":23222:23228   */\n      dup3\n        /* \"#utility.yul\":23218:23232   */\n      add\n        /* \"#utility.yul\":23211:23269   */\n      mstore\n        /* \"#utility.yul\":23303:23309   */\n      0x7265737300000000000000000000000000000000000000000000000000000000\n        /* \"#utility.yul\":23298:23300   */\n      0x20\n        /* \"#utility.yul\":23290:23296   */\n      dup3\n        /* \"#utility.yul\":23286:23301   */\n      add\n        /* \"#utility.yul\":23279:23310   */\n      mstore\n        /* \"#utility.yul\":23094:23317   */\n      pop\n      jump\t// out\n        /* \"#utility.yul\":23323:23689   */\n    tag_370:\n        /* \"#utility.yul\":23465:23468   */\n      0x00\n        /* \"#utility.yul\":23486:23553   */\n      tag_562\n        /* \"#utility.yul\":23550:23552   */\n      0x24\n        /* \"#utility.yul\":23545:23548   */\n      dup4\n        /* \"#utility.yul\":23486:23553   */\n      tag_316\n      jump\t// in\n    tag_562:\n        /* \"#utility.yul\":23479:23553   */\n      swap2\n      pop\n        /* \"#utility.yul\":23562:23655   */\n      tag_563\n        /* \"#utility.yul\":23651:23654   */\n      dup3\n        /* \"#utility.yul\":23562:23655   */\n      tag_369\n      jump\t// in\n    tag_563:\n        /* \"#utility.yul\":23680:23682   */\n      0x40\n        /* \"#utility.yul\":23675:23678   */\n      dup3\n        /* \"#utility.yul\":23671:23683   */\n      add\n        /* \"#utility.yul\":23664:23683   */\n      swap1\n      pop\n        /* \"#utility.yul\":23323:23689   */\n      swap2\n      swap1\n      pop\n      jump\t// out\n        /* \"#utility.yul\":23695:24114   */\n    tag_310:\n        /* \"#utility.yul\":23861:23865   */\n      0x00\n        /* \"#utility.yul\":23899:23901   */\n      0x20\n        /* \"#utility.yul\":23888:23897   */\n      dup3\n        /* \"#utility.yul\":23884:23902   */\n      add\n        /* \"#utility.yul\":23876:23902   */\n      swap1\n      pop\n        /* \"#utility.yul\":23948:23957   */\n      dup2\n        /* \"#utility.yul\":23942:23946   */\n      dup2\n        /* \"#utility.yul\":23938:23958   */\n      sub\n        /* \"#utility.yul\":23934:23935   */\n      0x00\n        /* \"#utility.yul\":23923:23932   */\n      dup4\n        /* \"#utility.yul\":23919:23936   */\n      add\n        /* \"#utility.yul\":23912:23959   */\n      mstore\n        /* \"#utility.yul\":23976:24107   */\n      tag_565\n        /* \"#utility.yul\":24102:24106   */\n      dup2\n        /* \"#utility.yul\":23976:24107   */\n      tag_370\n      jump\t// in\n    tag_565:\n        /* \"#utility.yul\":23968:24107   */\n      swap1\n      pop\n        /* \"#utility.yul\":23695:24114   */\n      swap2\n      swap1\n      pop\n      jump\t// out\n        /* \"#utility.yul\":24120:24341   */\n    tag_371:\n        /* \"#utility.yul\":24260:24294   */\n      0x45524332303a20617070726f766520746f20746865207a65726f206164647265\n        /* \"#utility.yul\":24256:24257   */\n      0x00\n        /* \"#utility.yul\":24248:24254   */\n      dup3\n        /* \"#utility.yul\":24244:24258   */\n      add\n        /* \"#utility.yul\":24237:24295   */\n      mstore\n        /* \"#utility.yul\":24329:24333   */\n      0x7373000000000000000000000000000000000000000000000000000000000000\n        /* \"#utility.yul\":24324:24326   */\n      0x20\n        /* \"#utility.yul\":24316:24322   */\n      dup3\n        /* \"#utility.yul\":24312:24327   */\n      add\n        /* \"#utility.yul\":24305:24334   */\n      mstore\n        /* \"#utility.yul\":24120:24341   */\n      pop\n      jump\t// out\n        /* \"#utility.yul\":24347:24713   */\n    tag_372:\n        /* \"#utility.yul\":24489:24492   */\n      0x00\n        /* \"#utility.yul\":24510:24577   */\n      tag_568\n        /* \"#utility.yul\":24574:24576   */\n      0x22\n        /* \"#utility.yul\":24569:24572   */\n      dup4\n        /* \"#utility.yul\":24510:24577   */\n      tag_316\n      jump\t// in\n    tag_568:\n        /* \"#utility.yul\":24503:24577   */\n      swap2\n      pop\n        /* \"#utility.yul\":24586:24679   */\n      tag_569\n        /* \"#utility.yul\":24675:24678   */\n      dup3\n        /* \"#utility.yul\":24586:24679   */\n      tag_371\n      jump\t// in\n    tag_569:\n        /* \"#utility.yul\":24704:24706   */\n      0x40\n        /* \"#utility.yul\":24699:24702   */\n      dup3\n        /* \"#utility.yul\":24695:24707   */\n      add\n        /* \"#utility.yul\":24688:24707   */\n      swap1\n      pop\n        /* \"#utility.yul\":24347:24713   */\n      swap2\n      swap1\n      pop\n      jump\t// out\n        /* \"#utility.yul\":24719:25138   */\n    tag_313:\n        /* \"#utility.yul\":24885:24889   */\n      0x00\n        /* \"#utility.yul\":24923:24925   */\n      0x20\n        /* \"#utility.yul\":24912:24921   */\n      dup3\n        /* \"#utility.yul\":24908:24926   */\n      add\n        /* \"#utility.yul\":24900:24926   */\n      swap1\n      pop\n        /* \"#utility.yul\":24972:24981   */\n      dup2\n        /* \"#utility.yul\":24966:24970   */\n      dup2\n        /* \"#utility.yul\":24962:24982   */\n      sub\n        /* \"#utility.yul\":24958:24959   */\n      0x00\n        /* \"#utility.yul\":24947:24956   */\n      dup4\n        /* \"#utility.yul\":24943:24960   */\n      add\n        /* \"#utility.yul\":24936:24983   */\n      mstore\n        /* \"#utility.yul\":25000:25131   */\n      tag_571\n        /* \"#utility.yul\":25126:25130   */\n      dup2\n        /* \"#utility.yul\":25000:25131   */\n      tag_372\n      jump\t// in\n    tag_571:\n        /* \"#utility.yul\":24992:25131   */\n      swap1\n      pop\n        /* \"#utility.yul\":24719:25138   */\n      swap2\n      swap1\n      pop\n      jump\t// out\n\n    auxdata: 0xa2646970667358221220c1abf514d5c0be9cdb9cfc6ecc2b318ccc927e397c680a06bae71be83274434464736f6c63430008120033\n}\n",
				"bytecode": {
					"linkReferences": {},
					"object": "60806040523480156200001157600080fd5b5060405162002d4738038062002d47833981810160405281019062000037919062000405565b6040518060400160405280600881526020017f44655365617263680000000000000000000000000000000000000000000000008152506040518060400160405280600281526020017f44530000000000000000000000000000000000000000000000000000000000008152508160039081620000b49190620006bc565b508060049081620000c69190620006bc565b505050620000e9620000dd6200016560201b60201c565b6200016d60201b60201c565b600082116200012f576040517f08c379a000000000000000000000000000000000000000000000000000000000815260040162000126906200082a565b60405180910390fd5b6200015633670de0b6b3a7640000846200014a91906200087b565b6200023360201b60201c565b806006819055505050620009a1565b600033905090565b6000600560009054906101000a900473ffffffffffffffffffffffffffffffffffffffff16905081600560006101000a81548173ffffffffffffffffffffffffffffffffffffffff021916908373ffffffffffffffffffffffffffffffffffffffff1602179055508173ffffffffffffffffffffffffffffffffffffffff168173ffffffffffffffffffffffffffffffffffffffff167f8be0079c531659141344cd1fd0a4f28419497f9722a3daafe3b4186f6b6457e060405160405180910390a35050565b6200024a82826200024e60201b62000cb21760201c565b5050565b600073ffffffffffffffffffffffffffffffffffffffff168273ffffffffffffffffffffffffffffffffffffffff1603620002c0576040517f08c379a0000000000000000000000000000000000000000000000000000000008152600401620002b79062000916565b60405180910390fd5b620002d460008383620003bb60201b60201c565b8060026000828254620002e8919062000938565b92505081905550806000808473ffffffffffffffffffffffffffffffffffffffff1673ffffffffffffffffffffffffffffffffffffffff168152602001908152602001600020600082825401925050819055508173ffffffffffffffffffffffffffffffffffffffff16600073ffffffffffffffffffffffffffffffffffffffff167fddf252ad1be2c89b69c2b068fc378daa952ba7f163c4a11628f55a4df523b3ef836040516200039b919062000984565b60405180910390a3620003b760008383620003c060201b60201c565b5050565b505050565b505050565b600080fd5b6000819050919050565b620003df81620003ca565b8114620003eb57600080fd5b50565b600081519050620003ff81620003d4565b92915050565b600080604083850312156200041f576200041e620003c5565b5b60006200042f85828601620003ee565b92505060206200044285828601620003ee565b9150509250929050565b600081519050919050565b7f4e487b7100000000000000000000000000000000000000000000000000000000600052604160045260246000fd5b7f4e487b7100000000000000000000000000000000000000000000000000000000600052602260045260246000fd5b60006002820490506001821680620004ce57607f821691505b602082108103620004e457620004e362000486565b5b50919050565b60008190508160005260206000209050919050565b60006020601f8301049050919050565b600082821b905092915050565b6000600883026200054e7fffffffffffffffffffffffffffffffffffffffffffffffffffffffffffffffff826200050f565b6200055a86836200050f565b95508019841693508086168417925050509392505050565b6000819050919050565b60006200059d620005976200059184620003ca565b62000572565b620003ca565b9050919050565b6000819050919050565b620005b9836200057c565b620005d1620005c882620005a4565b8484546200051c565b825550505050565b600090565b620005e8620005d9565b620005f5818484620005ae565b505050565b5b818110156200061d5762000611600082620005de565b600181019050620005fb565b5050565b601f8211156200066c576200063681620004ea565b6200064184620004ff565b8101602085101562000651578190505b620006696200066085620004ff565b830182620005fa565b50505b505050565b600082821c905092915050565b6000620006916000198460080262000671565b1980831691505092915050565b6000620006ac83836200067e565b9150826002028217905092915050565b620006c7826200044c565b67ffffffffffffffff811115620006e357620006e262000457565b5b620006ef8254620004b5565b620006fc82828562000621565b600060209050601f8311600181146200073457600084156200071f578287015190505b6200072b85826200069e565b8655506200079b565b601f1984166200074486620004ea565b60005b828110156200076e5784890151825560018201915060208501945060208101905062000747565b868310156200078e57848901516200078a601f8916826200067e565b8355505b6001600288020188555050505b505050505050565b600082825260208201905092915050565b7f496e697469616c20737570706c79206d7573742062652067726561746572207460008201527f68616e207a65726f000000000000000000000000000000000000000000000000602082015250565b600062000812602883620007a3565b91506200081f82620007b4565b604082019050919050565b60006020820190508181036000830152620008458162000803565b9050919050565b7f4e487b7100000000000000000000000000000000000000000000000000000000600052601160045260246000fd5b60006200088882620003ca565b91506200089583620003ca565b9250828202620008a581620003ca565b91508282048414831517620008bf57620008be6200084c565b5b5092915050565b7f45524332303a206d696e7420746f20746865207a65726f206164647265737300600082015250565b6000620008fe601f83620007a3565b91506200090b82620008c6565b602082019050919050565b600060208201905081810360008301526200093181620008ef565b9050919050565b60006200094582620003ca565b91506200095283620003ca565b92508282019050808211156200096d576200096c6200084c565b5b92915050565b6200097e81620003ca565b82525050565b60006020820190506200099b600083018462000973565b92915050565b61239680620009b16000396000f3fe6080604052600436106101405760003560e01c80636a61e5fc116100b65780638da5cb5b1161006f5780638da5cb5b1461043757806395d89b4114610462578063a457c2d71461048d578063a9059cbb146104ca578063dd62ed3e14610507578063f2fde38b1461054457610140565b80636a61e5fc1461033d5780636c11bcd31461036657806370a082311461038f578063715018a6146103cc57806379cc6790146103e35780637ff9b5961461040c57610140565b8063313ce56711610108578063313ce5671461023e578063315a095d146102695780633610724e1461029257806339509351146102ae57806340c10f19146102eb57806342966c681461031457610140565b806306fdde0314610145578063095ea7b314610170578063155dd5ee146101ad57806318160ddd146101d657806323b872dd14610201575b600080fd5b34801561015157600080fd5b5061015a61056d565b60405161016791906116d0565b60405180910390f35b34801561017c57600080fd5b506101976004803603810190610192919061178b565b6105ff565b6040516101a491906117e6565b60405180910390f35b3480156101b957600080fd5b506101d460048036038101906101cf9190611801565b61063c565b005b3480156101e257600080fd5b506101eb61073b565b6040516101f8919061183d565b60405180910390f35b34801561020d57600080fd5b5061022860048036038101906102239190611858565b610745565b60405161023591906117e6565b60405180910390f35b34801561024a57600080fd5b5061025361075d565b60405161026091906118c7565b60405180910390f35b34801561027557600080fd5b50610290600480360381019061028b9190611801565b610766565b005b6102ac60048036038101906102a79190611801565b61078d565b005b3480156102ba57600080fd5b506102d560048036038101906102d0919061178b565b6108ad565b6040516102e291906117e6565b60405180910390f35b3480156102f757600080fd5b50610312600480360381019061030d919061178b565b6108ea565b005b34801561032057600080fd5b5061033b60048036038101906103369190611801565b610919565b005b34801561034957600080fd5b50610364600480360381019061035f9190611801565b61092d565b005b34801561037257600080fd5b5061038d60048036038101906103889190611801565b61093f565b005b34801561039b57600080fd5b506103b660048036038101906103b191906118e2565b610a0a565b6040516103c3919061183d565b60405180910390f35b3480156103d857600080fd5b506103e1610a52565b005b3480156103ef57600080fd5b5061040a6004803603810190610405919061178b565b610a66565b005b34801561041857600080fd5b50610421610a86565b60405161042e919061183d565b60405180910390f35b34801561044357600080fd5b5061044c610a8c565b604051610459919061191e565b60405180910390f35b34801561046e57600080fd5b50610477610ab6565b60405161048491906116d0565b60405180910390f35b34801561049957600080fd5b506104b460048036038101906104af919061178b565b610b48565b6040516104c191906117e6565b60405180910390f35b3480156104d657600080fd5b506104f160048036038101906104ec919061178b565b610b85565b6040516104fe91906117e6565b60405180910390f35b34801561051357600080fd5b5061052e60048036038101906105299190611939565b610ba8565b60405161053b919061183d565b60405180910390f35b34801561055057600080fd5b5061056b600480360381019061056691906118e2565b610c2f565b005b60606003805461057c906119a8565b80601f01602080910402602001604051908101604052809291908181526020018280546105a8906119a8565b80156105f55780601f106105ca576101008083540402835291602001916105f5565b820191906000526020600020905b8154815290600101906020018083116105d857829003601f168201915b5050505050905090565b60006040517f08c379a000000000000000000000000000000000000000000000000000000000815260040161063390611a25565b60405180910390fd5b610644610e08565b80471015610687576040517f08c379a000000000000000000000000000000000000000000000000000000000815260040161067e90611a91565b60405180910390fd5b60006106a4670de0b6b3a764000083610e8690919063ffffffff16565b9050478111156106e9576040517f08c379a00000000000000000000000000000000000000000000000000000000081526004016106e090611a91565b60405180910390fd5b6106f1610a8c565b73ffffffffffffffffffffffffffffffffffffffff166108fc829081150290604051600060405180830381858888f19350505050158015610736573d6000803e3d6000fd5b505050565b6000600254905090565b6000610752848484610e9c565b600190509392505050565b60006012905090565b61076e610e08565b6107783082610eac565b61078a30610784610a8c565b83610e9c565b50565b600081116107d0576040517f08c379a00000000000000000000000000000000000000000000000000000000081526004016107c790611b23565b60405180910390fd5b60006107e760065483610e8690919063ffffffff16565b90508034101561082c576040517f08c379a000000000000000000000000000000000000000000000000000000000815260040161082390611b8f565b60405180910390fd5b6000670de0b6b3a7640000836108429190611bde565b905061085461084f610a8c565b610a0a565b811115610896576040517f08c379a000000000000000000000000000000000000000000000000000000000815260040161088d90611c6c565b60405180910390fd5b6108a86108a1610a8c565b3383610e9c565b505050565b60006040517f08c379a00000000000000000000000000000000000000000000000000000000081526004016108e190611a25565b60405180910390fd5b6108f2610e08565b6000670de0b6b3a7640000826109089190611bde565b90506109148382611079565b505050565b61092a610924611087565b82610eac565b50565b610935610e08565b8060068190555050565b60008111610982576040517f08c379a000000000000000000000000000000000000000000000000000000000815260040161097990611cd8565b60405180910390fd5b60006109b3670de0b6b3a76400006109a560065485610e8690919063ffffffff16565b61108f90919063ffffffff16565b90506109bf3383610eac565b3373ffffffffffffffffffffffffffffffffffffffff166108fc829081150290604051600060405180830381858888f19350505050158015610a05573d6000803e3d6000fd5b505050565b60008060008373ffffffffffffffffffffffffffffffffffffffff1673ffffffffffffffffffffffffffffffffffffffff168152602001908152602001600020549050919050565b610a5a610e08565b610a6460006110a5565b565b610a7882610a72611087565b8361116b565b610a828282610eac565b5050565b60065481565b6000600560009054906101000a900473ffffffffffffffffffffffffffffffffffffffff16905090565b606060048054610ac5906119a8565b80601f0160208091040260200160405190810160405280929190818152602001828054610af1906119a8565b8015610b3e5780601f10610b1357610100808354040283529160200191610b3e565b820191906000526020600020905b815481529060010190602001808311610b2157829003601f168201915b5050505050905090565b60006040517f08c379a0000000000000000000000000000000000000000000000000000000008152600401610b7c90611a25565b60405180910390fd5b600080610b90611087565b9050610b9d818585610e9c565b600191505092915050565b6000600160008473ffffffffffffffffffffffffffffffffffffffff1673ffffffffffffffffffffffffffffffffffffffff16815260200190815260200160002060008373ffffffffffffffffffffffffffffffffffffffff1673ffffffffffffffffffffffffffffffffffffffff16815260200190815260200160002054905092915050565b610c37610e08565b600073ffffffffffffffffffffffffffffffffffffffff168173ffffffffffffffffffffffffffffffffffffffff1603610ca6576040517f08c379a0000000000000000000000000000000000000000000000000000000008152600401610c9d90611d6a565b60405180910390fd5b610caf816110a5565b50565b600073ffffffffffffffffffffffffffffffffffffffff168273ffffffffffffffffffffffffffffffffffffffff1603610d21576040517f08c379a0000000000000000000000000000000000000000000000000000000008152600401610d1890611dd6565b60405180910390fd5b610d2d600083836111f7565b8060026000828254610d3f9190611df6565b92505081905550806000808473ffffffffffffffffffffffffffffffffffffffff1673ffffffffffffffffffffffffffffffffffffffff168152602001908152602001600020600082825401925050819055508173ffffffffffffffffffffffffffffffffffffffff16600073ffffffffffffffffffffffffffffffffffffffff167fddf252ad1be2c89b69c2b068fc378daa952ba7f163c4a11628f55a4df523b3ef83604051610df0919061183d565b60405180910390a3610e04600083836111fc565b5050565b610e10611087565b73ffffffffffffffffffffffffffffffffffffffff16610e2e610a8c565b73ffffffffffffffffffffffffffffffffffffffff1614610e84576040517f08c379a0000000000000000000000000000000000000000000000000000000008152600401610e7b90611e76565b60405180910390fd5b565b60008183610e949190611bde565b905092915050565b610ea7838383611201565b505050565b600073ffffffffffffffffffffffffffffffffffffffff168273ffffffffffffffffffffffffffffffffffffffff1603610f1b576040517f08c379a0000000000000000000000000000000000000000000000000000000008152600401610f1290611f08565b60405180910390fd5b610f27826000836111f7565b60008060008473ffffffffffffffffffffffffffffffffffffffff1673ffffffffffffffffffffffffffffffffffffffff16815260200190815260200160002054905081811015610fad576040517f08c379a0000000000000000000000000000000000000000000000000000000008152600401610fa490611f9a565b60405180910390fd5b8181036000808573ffffffffffffffffffffffffffffffffffffffff1673ffffffffffffffffffffffffffffffffffffffff1681526020019081526020016000208190555081600260008282540392505081905550600073ffffffffffffffffffffffffffffffffffffffff168373ffffffffffffffffffffffffffffffffffffffff167fddf252ad1be2c89b69c2b068fc378daa952ba7f163c4a11628f55a4df523b3ef84604051611060919061183d565b60405180910390a3611074836000846111fc565b505050565b6110838282610cb2565b5050565b600033905090565b6000818361109d9190611fe9565b905092915050565b6000600560009054906101000a900473ffffffffffffffffffffffffffffffffffffffff16905081600560006101000a81548173ffffffffffffffffffffffffffffffffffffffff021916908373ffffffffffffffffffffffffffffffffffffffff1602179055508173ffffffffffffffffffffffffffffffffffffffff168173ffffffffffffffffffffffffffffffffffffffff167f8be0079c531659141344cd1fd0a4f28419497f9722a3daafe3b4186f6b6457e060405160405180910390a35050565b60006111778484610ba8565b90507fffffffffffffffffffffffffffffffffffffffffffffffffffffffffffffffff81146111f157818110156111e3576040517f08c379a00000000000000000000000000000000000000000000000000000000081526004016111da90612066565b60405180910390fd5b6111f08484848403611477565b5b50505050565b505050565b505050565b600073ffffffffffffffffffffffffffffffffffffffff168373ffffffffffffffffffffffffffffffffffffffff1603611270576040517f08c379a0000000000000000000000000000000000000000000000000000000008152600401611267906120f8565b60405180910390fd5b600073ffffffffffffffffffffffffffffffffffffffff168273ffffffffffffffffffffffffffffffffffffffff16036112df576040517f08c379a00000000000000000000000000000000000000000000000000000000081526004016112d69061218a565b60405180910390fd5b6112ea8383836111f7565b60008060008573ffffffffffffffffffffffffffffffffffffffff1673ffffffffffffffffffffffffffffffffffffffff16815260200190815260200160002054905081811015611370576040517f08c379a00000000000000000000000000000000000000000000000000000000081526004016113679061221c565b60405180910390fd5b8181036000808673ffffffffffffffffffffffffffffffffffffffff1673ffffffffffffffffffffffffffffffffffffffff16815260200190815260200160002081905550816000808573ffffffffffffffffffffffffffffffffffffffff1673ffffffffffffffffffffffffffffffffffffffff168152602001908152602001600020600082825401925050819055508273ffffffffffffffffffffffffffffffffffffffff168473ffffffffffffffffffffffffffffffffffffffff167fddf252ad1be2c89b69c2b068fc378daa952ba7f163c4a11628f55a4df523b3ef8460405161145e919061183d565b60405180910390a36114718484846111fc565b50505050565b600073ffffffffffffffffffffffffffffffffffffffff168373ffffffffffffffffffffffffffffffffffffffff16036114e6576040517f08c379a00000000000000000000000000000000000000000000000000000000081526004016114dd906122ae565b60405180910390fd5b600073ffffffffffffffffffffffffffffffffffffffff168273ffffffffffffffffffffffffffffffffffffffff1603611555576040517f08c379a000000000000000000000000000000000000000000000000000000000815260040161154c90612340565b60405180910390fd5b80600160008573ffffffffffffffffffffffffffffffffffffffff1673ffffffffffffffffffffffffffffffffffffffff16815260200190815260200160002060008473ffffffffffffffffffffffffffffffffffffffff1673ffffffffffffffffffffffffffffffffffffffff168152602001908152602001600020819055508173ffffffffffffffffffffffffffffffffffffffff168373ffffffffffffffffffffffffffffffffffffffff167f8c5be1e5ebec7d5bd14f71427d1e84f3dd0314c0f7b2291e5b200ac8c7c3b92583604051611633919061183d565b60405180910390a3505050565b600081519050919050565b600082825260208201905092915050565b60005b8381101561167a57808201518184015260208101905061165f565b60008484015250505050565b6000601f19601f8301169050919050565b60006116a282611640565b6116ac818561164b565b93506116bc81856020860161165c565b6116c581611686565b840191505092915050565b600060208201905081810360008301526116ea8184611697565b905092915050565b600080fd5b600073ffffffffffffffffffffffffffffffffffffffff82169050919050565b6000611722826116f7565b9050919050565b61173281611717565b811461173d57600080fd5b50565b60008135905061174f81611729565b92915050565b6000819050919050565b61176881611755565b811461177357600080fd5b50565b6000813590506117858161175f565b92915050565b600080604083850312156117a2576117a16116f2565b5b60006117b085828601611740565b92505060206117c185828601611776565b9150509250929050565b60008115159050919050565b6117e0816117cb565b82525050565b60006020820190506117fb60008301846117d7565b92915050565b600060208284031215611817576118166116f2565b5b600061182584828501611776565b91505092915050565b61183781611755565b82525050565b6000602082019050611852600083018461182e565b92915050565b600080600060608486031215611871576118706116f2565b5b600061187f86828701611740565b935050602061189086828701611740565b92505060406118a186828701611776565b9150509250925092565b600060ff82169050919050565b6118c1816118ab565b82525050565b60006020820190506118dc60008301846118b8565b92915050565b6000602082840312156118f8576118f76116f2565b5b600061190684828501611740565b91505092915050565b61191881611717565b82525050565b6000602082019050611933600083018461190f565b92915050565b600080604083850312156119505761194f6116f2565b5b600061195e85828601611740565b925050602061196f85828601611740565b9150509250929050565b7f4e487b7100000000000000000000000000000000000000000000000000000000600052602260045260246000fd5b600060028204905060018216806119c057607f821691505b6020821081036119d3576119d2611979565b5b50919050565b7f417070726f76616c2066756e6374696f6e616c6974792064697361626c656400600082015250565b6000611a0f601f8361164b565b9150611a1a826119d9565b602082019050919050565b60006020820190508181036000830152611a3e81611a02565b9050919050565b7f496e73756666696369656e7420636f6e74726163742062616c616e6365000000600082015250565b6000611a7b601d8361164b565b9150611a8682611a45565b602082019050919050565b60006020820190508181036000830152611aaa81611a6e565b9050919050565b7f4e756d626572206f6620746f6b656e7320746f20627579206d7573742062652060008201527f67726561746572207468616e207a65726f000000000000000000000000000000602082015250565b6000611b0d60318361164b565b9150611b1882611ab1565b604082019050919050565b60006020820190508181036000830152611b3c81611b00565b9050919050565b7f496e73756666696369656e742065746865722073656e74000000000000000000600082015250565b6000611b7960178361164b565b9150611b8482611b43565b602082019050919050565b60006020820190508181036000830152611ba881611b6c565b9050919050565b7f4e487b7100000000000000000000000000000000000000000000000000000000600052601160045260246000fd5b6000611be982611755565b9150611bf483611755565b9250828202611c0281611755565b91508282048414831517611c1957611c18611baf565b5b5092915050565b7f496e73756666696369656e7420746f6b656e2062616c616e6365000000000000600082015250565b6000611c56601a8361164b565b9150611c6182611c20565b602082019050919050565b60006020820190508181036000830152611c8581611c49565b9050919050565b7f416d6f756e74206d7573742062652067726561746572207468616e207a65726f600082015250565b6000611cc260208361164b565b9150611ccd82611c8c565b602082019050919050565b60006020820190508181036000830152611cf181611cb5565b9050919050565b7f4f776e61626c653a206e6577206f776e657220697320746865207a65726f206160008201527f6464726573730000000000000000000000000000000000000000000000000000602082015250565b6000611d5460268361164b565b9150611d5f82611cf8565b604082019050919050565b60006020820190508181036000830152611d8381611d47565b9050919050565b7f45524332303a206d696e7420746f20746865207a65726f206164647265737300600082015250565b6000611dc0601f8361164b565b9150611dcb82611d8a565b602082019050919050565b60006020820190508181036000830152611def81611db3565b9050919050565b6000611e0182611755565b9150611e0c83611755565b9250828201905080821115611e2457611e23611baf565b5b92915050565b7f4f776e61626c653a2063616c6c6572206973206e6f7420746865206f776e6572600082015250565b6000611e6060208361164b565b9150611e6b82611e2a565b602082019050919050565b60006020820190508181036000830152611e8f81611e53565b9050919050565b7f45524332303a206275726e2066726f6d20746865207a65726f2061646472657360008201527f7300000000000000000000000000000000000000000000000000000000000000602082015250565b6000611ef260218361164b565b9150611efd82611e96565b604082019050919050565b60006020820190508181036000830152611f2181611ee5565b9050919050565b7f45524332303a206275726e20616d6f756e7420657863656564732062616c616e60008201527f6365000000000000000000000000000000000000000000000000000000000000602082015250565b6000611f8460228361164b565b9150611f8f82611f28565b604082019050919050565b60006020820190508181036000830152611fb381611f77565b9050919050565b7f4e487b7100000000000000000000000000000000000000000000000000000000600052601260045260246000fd5b6000611ff482611755565b9150611fff83611755565b92508261200f5761200e611fba565b5b828204905092915050565b7f45524332303a20696e73756666696369656e7420616c6c6f77616e6365000000600082015250565b6000612050601d8361164b565b915061205b8261201a565b602082019050919050565b6000602082019050818103600083015261207f81612043565b9050919050565b7f45524332303a207472616e736665722066726f6d20746865207a65726f20616460008201527f6472657373000000000000000000000000000000000000000000000000000000602082015250565b60006120e260258361164b565b91506120ed82612086565b604082019050919050565b60006020820190508181036000830152612111816120d5565b9050919050565b7f45524332303a207472616e7366657220746f20746865207a65726f206164647260008201527f6573730000000000000000000000000000000000000000000000000000000000602082015250565b600061217460238361164b565b915061217f82612118565b604082019050919050565b600060208201905081810360008301526121a381612167565b9050919050565b7f45524332303a207472616e7366657220616d6f756e742065786365656473206260008201527f616c616e63650000000000000000000000000000000000000000000000000000602082015250565b600061220660268361164b565b9150612211826121aa565b604082019050919050565b60006020820190508181036000830152612235816121f9565b9050919050565b7f45524332303a20617070726f76652066726f6d20746865207a65726f2061646460008201527f7265737300000000000000000000000000000000000000000000000000000000602082015250565b600061229860248361164b565b91506122a38261223c565b604082019050919050565b600060208201905081810360008301526122c78161228b565b9050919050565b7f45524332303a20617070726f766520746f20746865207a65726f20616464726560008201527f7373000000000000000000000000000000000000000000000000000000000000602082015250565b600061232a60228361164b565b9150612335826122ce565b604082019050919050565b600060208201905081810360008301526123598161231d565b905091905056fea2646970667358221220c1abf514d5c0be9cdb9cfc6ecc2b318ccc927e397c680a06bae71be83274434464736f6c63430008120033",
					"opcodes": "PUSH1 0x80 PUSH1 0x40 MSTORE CALLVALUE DUP1 ISZERO PUSH3 0x11 JUMPI PUSH1 0x0 DUP1 REVERT JUMPDEST POP PUSH1 0x40 MLOAD PUSH3 0x2D47 CODESIZE SUB DUP1 PUSH3 0x2D47 DUP4 CODECOPY DUP2 DUP2 ADD PUSH1 0x40 MSTORE DUP2 ADD SWAP1 PUSH3 0x37 SWAP2 SWAP1 PUSH3 0x405 JUMP JUMPDEST PUSH1 0x40 MLOAD DUP1 PUSH1 0x40 ADD PUSH1 0x40 MSTORE DUP1 PUSH1 0x8 DUP2 MSTORE PUSH1 0x20 ADD PUSH32 0x4465536561726368000000000000000000000000000000000000000000000000 DUP2 MSTORE POP PUSH1 0x40 MLOAD DUP1 PUSH1 0x40 ADD PUSH1 0x40 MSTORE DUP1 PUSH1 0x2 DUP2 MSTORE PUSH1 0x20 ADD PUSH32 0x4453000000000000000000000000000000000000000000000000000000000000 DUP2 MSTORE POP DUP2 PUSH1 0x3 SWAP1 DUP2 PUSH3 0xB4 SWAP2 SWAP1 PUSH3 0x6BC JUMP JUMPDEST POP DUP1 PUSH1 0x4 SWAP1 DUP2 PUSH3 0xC6 SWAP2 SWAP1 PUSH3 0x6BC JUMP JUMPDEST POP POP POP PUSH3 0xE9 PUSH3 0xDD PUSH3 0x165 PUSH1 0x20 SHL PUSH1 0x20 SHR JUMP JUMPDEST PUSH3 0x16D PUSH1 0x20 SHL PUSH1 0x20 SHR JUMP JUMPDEST PUSH1 0x0 DUP3 GT PUSH3 0x12F JUMPI PUSH1 0x40 MLOAD PUSH32 0x8C379A000000000000000000000000000000000000000000000000000000000 DUP2 MSTORE PUSH1 0x4 ADD PUSH3 0x126 SWAP1 PUSH3 0x82A JUMP JUMPDEST PUSH1 0x40 MLOAD DUP1 SWAP2 SUB SWAP1 REVERT JUMPDEST PUSH3 0x156 CALLER PUSH8 0xDE0B6B3A7640000 DUP5 PUSH3 0x14A SWAP2 SWAP1 PUSH3 0x87B JUMP JUMPDEST PUSH3 0x233 PUSH1 0x20 SHL PUSH1 0x20 SHR JUMP JUMPDEST DUP1 PUSH1 0x6 DUP2 SWAP1 SSTORE POP POP POP PUSH3 0x9A1 JUMP JUMPDEST PUSH1 0x0 CALLER SWAP1 POP SWAP1 JUMP JUMPDEST PUSH1 0x0 PUSH1 0x5 PUSH1 0x0 SWAP1 SLOAD SWAP1 PUSH2 0x100 EXP SWAP1 DIV PUSH20 0xFFFFFFFFFFFFFFFFFFFFFFFFFFFFFFFFFFFFFFFF AND SWAP1 POP DUP2 PUSH1 0x5 PUSH1 0x0 PUSH2 0x100 EXP DUP2 SLOAD DUP2 PUSH20 0xFFFFFFFFFFFFFFFFFFFFFFFFFFFFFFFFFFFFFFFF MUL NOT AND SWAP1 DUP4 PUSH20 0xFFFFFFFFFFFFFFFFFFFFFFFFFFFFFFFFFFFFFFFF AND MUL OR SWAP1 SSTORE POP DUP2 PUSH20 0xFFFFFFFFFFFFFFFFFFFFFFFFFFFFFFFFFFFFFFFF AND DUP2 PUSH20 0xFFFFFFFFFFFFFFFFFFFFFFFFFFFFFFFFFFFFFFFF AND PUSH32 0x8BE0079C531659141344CD1FD0A4F28419497F9722A3DAAFE3B4186F6B6457E0 PUSH1 0x40 MLOAD PUSH1 0x40 MLOAD DUP1 SWAP2 SUB SWAP1 LOG3 POP POP JUMP JUMPDEST PUSH3 0x24A DUP3 DUP3 PUSH3 0x24E PUSH1 0x20 SHL PUSH3 0xCB2 OR PUSH1 0x20 SHR JUMP JUMPDEST POP POP JUMP JUMPDEST PUSH1 0x0 PUSH20 0xFFFFFFFFFFFFFFFFFFFFFFFFFFFFFFFFFFFFFFFF AND DUP3 PUSH20 0xFFFFFFFFFFFFFFFFFFFFFFFFFFFFFFFFFFFFFFFF AND SUB PUSH3 0x2C0 JUMPI PUSH1 0x40 MLOAD PUSH32 0x8C379A000000000000000000000000000000000000000000000000000000000 DUP2 MSTORE PUSH1 0x4 ADD PUSH3 0x2B7 SWAP1 PUSH3 0x916 JUMP JUMPDEST PUSH1 0x40 MLOAD DUP1 SWAP2 SUB SWAP1 REVERT JUMPDEST PUSH3 0x2D4 PUSH1 0x0 DUP4 DUP4 PUSH3 0x3BB PUSH1 0x20 SHL PUSH1 0x20 SHR JUMP JUMPDEST DUP1 PUSH1 0x2 PUSH1 0x0 DUP3 DUP3 SLOAD PUSH3 0x2E8 SWAP2 SWAP1 PUSH3 0x938 JUMP JUMPDEST SWAP3 POP POP DUP2 SWAP1 SSTORE POP DUP1 PUSH1 0x0 DUP1 DUP5 PUSH20 0xFFFFFFFFFFFFFFFFFFFFFFFFFFFFFFFFFFFFFFFF AND PUSH20 0xFFFFFFFFFFFFFFFFFFFFFFFFFFFFFFFFFFFFFFFF AND DUP2 MSTORE PUSH1 0x20 ADD SWAP1 DUP2 MSTORE PUSH1 0x20 ADD PUSH1 0x0 KECCAK256 PUSH1 0x0 DUP3 DUP3 SLOAD ADD SWAP3 POP POP DUP2 SWAP1 SSTORE POP DUP2 PUSH20 0xFFFFFFFFFFFFFFFFFFFFFFFFFFFFFFFFFFFFFFFF AND PUSH1 0x0 PUSH20 0xFFFFFFFFFFFFFFFFFFFFFFFFFFFFFFFFFFFFFFFF AND PUSH32 0xDDF252AD1BE2C89B69C2B068FC378DAA952BA7F163C4A11628F55A4DF523B3EF DUP4 PUSH1 0x40 MLOAD PUSH3 0x39B SWAP2 SWAP1 PUSH3 0x984 JUMP JUMPDEST PUSH1 0x40 MLOAD DUP1 SWAP2 SUB SWAP1 LOG3 PUSH3 0x3B7 PUSH1 0x0 DUP4 DUP4 PUSH3 0x3C0 PUSH1 0x20 SHL PUSH1 0x20 SHR JUMP JUMPDEST POP POP JUMP JUMPDEST POP POP POP JUMP JUMPDEST POP POP POP JUMP JUMPDEST PUSH1 0x0 DUP1 REVERT JUMPDEST PUSH1 0x0 DUP2 SWAP1 POP SWAP2 SWAP1 POP JUMP JUMPDEST PUSH3 0x3DF DUP2 PUSH3 0x3CA JUMP JUMPDEST DUP2 EQ PUSH3 0x3EB JUMPI PUSH1 0x0 DUP1 REVERT JUMPDEST POP JUMP JUMPDEST PUSH1 0x0 DUP2 MLOAD SWAP1 POP PUSH3 0x3FF DUP2 PUSH3 0x3D4 JUMP JUMPDEST SWAP3 SWAP2 POP POP JUMP JUMPDEST PUSH1 0x0 DUP1 PUSH1 0x40 DUP4 DUP6 SUB SLT ISZERO PUSH3 0x41F JUMPI PUSH3 0x41E PUSH3 0x3C5 JUMP JUMPDEST JUMPDEST PUSH1 0x0 PUSH3 0x42F DUP6 DUP3 DUP7 ADD PUSH3 0x3EE JUMP JUMPDEST SWAP3 POP POP PUSH1 0x20 PUSH3 0x442 DUP6 DUP3 DUP7 ADD PUSH3 0x3EE JUMP JUMPDEST SWAP2 POP POP SWAP3 POP SWAP3 SWAP1 POP JUMP JUMPDEST PUSH1 0x0 DUP2 MLOAD SWAP1 POP SWAP2 SWAP1 POP JUMP JUMPDEST PUSH32 0x4E487B7100000000000000000000000000000000000000000000000000000000 PUSH1 0x0 MSTORE PUSH1 0x41 PUSH1 0x4 MSTORE PUSH1 0x24 PUSH1 0x0 REVERT JUMPDEST PUSH32 0x4E487B7100000000000000000000000000000000000000000000000000000000 PUSH1 0x0 MSTORE PUSH1 0x22 PUSH1 0x4 MSTORE PUSH1 0x24 PUSH1 0x0 REVERT JUMPDEST PUSH1 0x0 PUSH1 0x2 DUP3 DIV SWAP1 POP PUSH1 0x1 DUP3 AND DUP1 PUSH3 0x4CE JUMPI PUSH1 0x7F DUP3 AND SWAP2 POP JUMPDEST PUSH1 0x20 DUP3 LT DUP2 SUB PUSH3 0x4E4 JUMPI PUSH3 0x4E3 PUSH3 0x486 JUMP JUMPDEST JUMPDEST POP SWAP2 SWAP1 POP JUMP JUMPDEST PUSH1 0x0 DUP2 SWAP1 POP DUP2 PUSH1 0x0 MSTORE PUSH1 0x20 PUSH1 0x0 KECCAK256 SWAP1 POP SWAP2 SWAP1 POP JUMP JUMPDEST PUSH1 0x0 PUSH1 0x20 PUSH1 0x1F DUP4 ADD DIV SWAP1 POP SWAP2 SWAP1 POP JUMP JUMPDEST PUSH1 0x0 DUP3 DUP3 SHL SWAP1 POP SWAP3 SWAP2 POP POP JUMP JUMPDEST PUSH1 0x0 PUSH1 0x8 DUP4 MUL PUSH3 0x54E PUSH32 0xFFFFFFFFFFFFFFFFFFFFFFFFFFFFFFFFFFFFFFFFFFFFFFFFFFFFFFFFFFFFFFFF DUP3 PUSH3 0x50F JUMP JUMPDEST PUSH3 0x55A DUP7 DUP4 PUSH3 0x50F JUMP JUMPDEST SWAP6 POP DUP1 NOT DUP5 AND SWAP4 POP DUP1 DUP7 AND DUP5 OR SWAP3 POP POP POP SWAP4 SWAP3 POP POP POP JUMP JUMPDEST PUSH1 0x0 DUP2 SWAP1 POP SWAP2 SWAP1 POP JUMP JUMPDEST PUSH1 0x0 PUSH3 0x59D PUSH3 0x597 PUSH3 0x591 DUP5 PUSH3 0x3CA JUMP JUMPDEST PUSH3 0x572 JUMP JUMPDEST PUSH3 0x3CA JUMP JUMPDEST SWAP1 POP SWAP2 SWAP1 POP JUMP JUMPDEST PUSH1 0x0 DUP2 SWAP1 POP SWAP2 SWAP1 POP JUMP JUMPDEST PUSH3 0x5B9 DUP4 PUSH3 0x57C JUMP JUMPDEST PUSH3 0x5D1 PUSH3 0x5C8 DUP3 PUSH3 0x5A4 JUMP JUMPDEST DUP5 DUP5 SLOAD PUSH3 0x51C JUMP JUMPDEST DUP3 SSTORE POP POP POP POP JUMP JUMPDEST PUSH1 0x0 SWAP1 JUMP JUMPDEST PUSH3 0x5E8 PUSH3 0x5D9 JUMP JUMPDEST PUSH3 0x5F5 DUP2 DUP5 DUP5 PUSH3 0x5AE JUMP JUMPDEST POP POP POP JUMP JUMPDEST JUMPDEST DUP2 DUP2 LT ISZERO PUSH3 0x61D JUMPI PUSH3 0x611 PUSH1 0x0 DUP3 PUSH3 0x5DE JUMP JUMPDEST PUSH1 0x1 DUP2 ADD SWAP1 POP PUSH3 0x5FB JUMP JUMPDEST POP POP JUMP JUMPDEST PUSH1 0x1F DUP3 GT ISZERO PUSH3 0x66C JUMPI PUSH3 0x636 DUP2 PUSH3 0x4EA JUMP JUMPDEST PUSH3 0x641 DUP5 PUSH3 0x4FF JUMP JUMPDEST DUP2 ADD PUSH1 0x20 DUP6 LT ISZERO PUSH3 0x651 JUMPI DUP2 SWAP1 POP JUMPDEST PUSH3 0x669 PUSH3 0x660 DUP6 PUSH3 0x4FF JUMP JUMPDEST DUP4 ADD DUP3 PUSH3 0x5FA JUMP JUMPDEST POP POP JUMPDEST POP POP POP JUMP JUMPDEST PUSH1 0x0 DUP3 DUP3 SHR SWAP1 POP SWAP3 SWAP2 POP POP JUMP JUMPDEST PUSH1 0x0 PUSH3 0x691 PUSH1 0x0 NOT DUP5 PUSH1 0x8 MUL PUSH3 0x671 JUMP JUMPDEST NOT DUP1 DUP4 AND SWAP2 POP POP SWAP3 SWAP2 POP POP JUMP JUMPDEST PUSH1 0x0 PUSH3 0x6AC DUP4 DUP4 PUSH3 0x67E JUMP JUMPDEST SWAP2 POP DUP3 PUSH1 0x2 MUL DUP3 OR SWAP1 POP SWAP3 SWAP2 POP POP JUMP JUMPDEST PUSH3 0x6C7 DUP3 PUSH3 0x44C JUMP JUMPDEST PUSH8 0xFFFFFFFFFFFFFFFF DUP2 GT ISZERO PUSH3 0x6E3 JUMPI PUSH3 0x6E2 PUSH3 0x457 JUMP JUMPDEST JUMPDEST PUSH3 0x6EF DUP3 SLOAD PUSH3 0x4B5 JUMP JUMPDEST PUSH3 0x6FC DUP3 DUP3 DUP6 PUSH3 0x621 JUMP JUMPDEST PUSH1 0x0 PUSH1 0x20 SWAP1 POP PUSH1 0x1F DUP4 GT PUSH1 0x1 DUP2 EQ PUSH3 0x734 JUMPI PUSH1 0x0 DUP5 ISZERO PUSH3 0x71F JUMPI DUP3 DUP8 ADD MLOAD SWAP1 POP JUMPDEST PUSH3 0x72B DUP6 DUP3 PUSH3 0x69E JUMP JUMPDEST DUP7 SSTORE POP PUSH3 0x79B JUMP JUMPDEST PUSH1 0x1F NOT DUP5 AND PUSH3 0x744 DUP7 PUSH3 0x4EA JUMP JUMPDEST PUSH1 0x0 JUMPDEST DUP3 DUP2 LT ISZERO PUSH3 0x76E JUMPI DUP5 DUP10 ADD MLOAD DUP3 SSTORE PUSH1 0x1 DUP3 ADD SWAP2 POP PUSH1 0x20 DUP6 ADD SWAP5 POP PUSH1 0x20 DUP2 ADD SWAP1 POP PUSH3 0x747 JUMP JUMPDEST DUP7 DUP4 LT ISZERO PUSH3 0x78E JUMPI DUP5 DUP10 ADD MLOAD PUSH3 0x78A PUSH1 0x1F DUP10 AND DUP3 PUSH3 0x67E JUMP JUMPDEST DUP4 SSTORE POP JUMPDEST PUSH1 0x1 PUSH1 0x2 DUP9 MUL ADD DUP9 SSTORE POP POP POP JUMPDEST POP POP POP POP POP POP JUMP JUMPDEST PUSH1 0x0 DUP3 DUP3 MSTORE PUSH1 0x20 DUP3 ADD SWAP1 POP SWAP3 SWAP2 POP POP JUMP JUMPDEST PUSH32 0x496E697469616C20737570706C79206D75737420626520677265617465722074 PUSH1 0x0 DUP3 ADD MSTORE PUSH32 0x68616E207A65726F000000000000000000000000000000000000000000000000 PUSH1 0x20 DUP3 ADD MSTORE POP JUMP JUMPDEST PUSH1 0x0 PUSH3 0x812 PUSH1 0x28 DUP4 PUSH3 0x7A3 JUMP JUMPDEST SWAP2 POP PUSH3 0x81F DUP3 PUSH3 0x7B4 JUMP JUMPDEST PUSH1 0x40 DUP3 ADD SWAP1 POP SWAP2 SWAP1 POP JUMP JUMPDEST PUSH1 0x0 PUSH1 0x20 DUP3 ADD SWAP1 POP DUP2 DUP2 SUB PUSH1 0x0 DUP4 ADD MSTORE PUSH3 0x845 DUP2 PUSH3 0x803 JUMP JUMPDEST SWAP1 POP SWAP2 SWAP1 POP JUMP JUMPDEST PUSH32 0x4E487B7100000000000000000000000000000000000000000000000000000000 PUSH1 0x0 MSTORE PUSH1 0x11 PUSH1 0x4 MSTORE PUSH1 0x24 PUSH1 0x0 REVERT JUMPDEST PUSH1 0x0 PUSH3 0x888 DUP3 PUSH3 0x3CA JUMP JUMPDEST SWAP2 POP PUSH3 0x895 DUP4 PUSH3 0x3CA JUMP JUMPDEST SWAP3 POP DUP3 DUP3 MUL PUSH3 0x8A5 DUP2 PUSH3 0x3CA JUMP JUMPDEST SWAP2 POP DUP3 DUP3 DIV DUP5 EQ DUP4 ISZERO OR PUSH3 0x8BF JUMPI PUSH3 0x8BE PUSH3 0x84C JUMP JUMPDEST JUMPDEST POP SWAP3 SWAP2 POP POP JUMP JUMPDEST PUSH32 0x45524332303A206D696E7420746F20746865207A65726F206164647265737300 PUSH1 0x0 DUP3 ADD MSTORE POP JUMP JUMPDEST PUSH1 0x0 PUSH3 0x8FE PUSH1 0x1F DUP4 PUSH3 0x7A3 JUMP JUMPDEST SWAP2 POP PUSH3 0x90B DUP3 PUSH3 0x8C6 JUMP JUMPDEST PUSH1 0x20 DUP3 ADD SWAP1 POP SWAP2 SWAP1 POP JUMP JUMPDEST PUSH1 0x0 PUSH1 0x20 DUP3 ADD SWAP1 POP DUP2 DUP2 SUB PUSH1 0x0 DUP4 ADD MSTORE PUSH3 0x931 DUP2 PUSH3 0x8EF JUMP JUMPDEST SWAP1 POP SWAP2 SWAP1 POP JUMP JUMPDEST PUSH1 0x0 PUSH3 0x945 DUP3 PUSH3 0x3CA JUMP JUMPDEST SWAP2 POP PUSH3 0x952 DUP4 PUSH3 0x3CA JUMP JUMPDEST SWAP3 POP DUP3 DUP3 ADD SWAP1 POP DUP1 DUP3 GT ISZERO PUSH3 0x96D JUMPI PUSH3 0x96C PUSH3 0x84C JUMP JUMPDEST JUMPDEST SWAP3 SWAP2 POP POP JUMP JUMPDEST PUSH3 0x97E DUP2 PUSH3 0x3CA JUMP JUMPDEST DUP3 MSTORE POP POP JUMP JUMPDEST PUSH1 0x0 PUSH1 0x20 DUP3 ADD SWAP1 POP PUSH3 0x99B PUSH1 0x0 DUP4 ADD DUP5 PUSH3 0x973 JUMP JUMPDEST SWAP3 SWAP2 POP POP JUMP JUMPDEST PUSH2 0x2396 DUP1 PUSH3 0x9B1 PUSH1 0x0 CODECOPY PUSH1 0x0 RETURN INVALID PUSH1 0x80 PUSH1 0x40 MSTORE PUSH1 0x4 CALLDATASIZE LT PUSH2 0x140 JUMPI PUSH1 0x0 CALLDATALOAD PUSH1 0xE0 SHR DUP1 PUSH4 0x6A61E5FC GT PUSH2 0xB6 JUMPI DUP1 PUSH4 0x8DA5CB5B GT PUSH2 0x6F JUMPI DUP1 PUSH4 0x8DA5CB5B EQ PUSH2 0x437 JUMPI DUP1 PUSH4 0x95D89B41 EQ PUSH2 0x462 JUMPI DUP1 PUSH4 0xA457C2D7 EQ PUSH2 0x48D JUMPI DUP1 PUSH4 0xA9059CBB EQ PUSH2 0x4CA JUMPI DUP1 PUSH4 0xDD62ED3E EQ PUSH2 0x507 JUMPI DUP1 PUSH4 0xF2FDE38B EQ PUSH2 0x544 JUMPI PUSH2 0x140 JUMP JUMPDEST DUP1 PUSH4 0x6A61E5FC EQ PUSH2 0x33D JUMPI DUP1 PUSH4 0x6C11BCD3 EQ PUSH2 0x366 JUMPI DUP1 PUSH4 0x70A08231 EQ PUSH2 0x38F JUMPI DUP1 PUSH4 0x715018A6 EQ PUSH2 0x3CC JUMPI DUP1 PUSH4 0x79CC6790 EQ PUSH2 0x3E3 JUMPI DUP1 PUSH4 0x7FF9B596 EQ PUSH2 0x40C JUMPI PUSH2 0x140 JUMP JUMPDEST DUP1 PUSH4 0x313CE567 GT PUSH2 0x108 JUMPI DUP1 PUSH4 0x313CE567 EQ PUSH2 0x23E JUMPI DUP1 PUSH4 0x315A095D EQ PUSH2 0x269 JUMPI DUP1 PUSH4 0x3610724E EQ PUSH2 0x292 JUMPI DUP1 PUSH4 0x39509351 EQ PUSH2 0x2AE JUMPI DUP1 PUSH4 0x40C10F19 EQ PUSH2 0x2EB JUMPI DUP1 PUSH4 0x42966C68 EQ PUSH2 0x314 JUMPI PUSH2 0x140 JUMP JUMPDEST DUP1 PUSH4 0x6FDDE03 EQ PUSH2 0x145 JUMPI DUP1 PUSH4 0x95EA7B3 EQ PUSH2 0x170 JUMPI DUP1 PUSH4 0x155DD5EE EQ PUSH2 0x1AD JUMPI DUP1 PUSH4 0x18160DDD EQ PUSH2 0x1D6 JUMPI DUP1 PUSH4 0x23B872DD EQ PUSH2 0x201 JUMPI JUMPDEST PUSH1 0x0 DUP1 REVERT JUMPDEST CALLVALUE DUP1 ISZERO PUSH2 0x151 JUMPI PUSH1 0x0 DUP1 REVERT JUMPDEST POP PUSH2 0x15A PUSH2 0x56D JUMP JUMPDEST PUSH1 0x40 MLOAD PUSH2 0x167 SWAP2 SWAP1 PUSH2 0x16D0 JUMP JUMPDEST PUSH1 0x40 MLOAD DUP1 SWAP2 SUB SWAP1 RETURN JUMPDEST CALLVALUE DUP1 ISZERO PUSH2 0x17C JUMPI PUSH1 0x0 DUP1 REVERT JUMPDEST POP PUSH2 0x197 PUSH1 0x4 DUP1 CALLDATASIZE SUB DUP2 ADD SWAP1 PUSH2 0x192 SWAP2 SWAP1 PUSH2 0x178B JUMP JUMPDEST PUSH2 0x5FF JUMP JUMPDEST PUSH1 0x40 MLOAD PUSH2 0x1A4 SWAP2 SWAP1 PUSH2 0x17E6 JUMP JUMPDEST PUSH1 0x40 MLOAD DUP1 SWAP2 SUB SWAP1 RETURN JUMPDEST CALLVALUE DUP1 ISZERO PUSH2 0x1B9 JUMPI PUSH1 0x0 DUP1 REVERT JUMPDEST POP PUSH2 0x1D4 PUSH1 0x4 DUP1 CALLDATASIZE SUB DUP2 ADD SWAP1 PUSH2 0x1CF SWAP2 SWAP1 PUSH2 0x1801 JUMP JUMPDEST PUSH2 0x63C JUMP JUMPDEST STOP JUMPDEST CALLVALUE DUP1 ISZERO PUSH2 0x1E2 JUMPI PUSH1 0x0 DUP1 REVERT JUMPDEST POP PUSH2 0x1EB PUSH2 0x73B JUMP JUMPDEST PUSH1 0x40 MLOAD PUSH2 0x1F8 SWAP2 SWAP1 PUSH2 0x183D JUMP JUMPDEST PUSH1 0x40 MLOAD DUP1 SWAP2 SUB SWAP1 RETURN JUMPDEST CALLVALUE DUP1 ISZERO PUSH2 0x20D JUMPI PUSH1 0x0 DUP1 REVERT JUMPDEST POP PUSH2 0x228 PUSH1 0x4 DUP1 CALLDATASIZE SUB DUP2 ADD SWAP1 PUSH2 0x223 SWAP2 SWAP1 PUSH2 0x1858 JUMP JUMPDEST PUSH2 0x745 JUMP JUMPDEST PUSH1 0x40 MLOAD PUSH2 0x235 SWAP2 SWAP1 PUSH2 0x17E6 JUMP JUMPDEST PUSH1 0x40 MLOAD DUP1 SWAP2 SUB SWAP1 RETURN JUMPDEST CALLVALUE DUP1 ISZERO PUSH2 0x24A JUMPI PUSH1 0x0 DUP1 REVERT JUMPDEST POP PUSH2 0x253 PUSH2 0x75D JUMP JUMPDEST PUSH1 0x40 MLOAD PUSH2 0x260 SWAP2 SWAP1 PUSH2 0x18C7 JUMP JUMPDEST PUSH1 0x40 MLOAD DUP1 SWAP2 SUB SWAP1 RETURN JUMPDEST CALLVALUE DUP1 ISZERO PUSH2 0x275 JUMPI PUSH1 0x0 DUP1 REVERT JUMPDEST POP PUSH2 0x290 PUSH1 0x4 DUP1 CALLDATASIZE SUB DUP2 ADD SWAP1 PUSH2 0x28B SWAP2 SWAP1 PUSH2 0x1801 JUMP JUMPDEST PUSH2 0x766 JUMP JUMPDEST STOP JUMPDEST PUSH2 0x2AC PUSH1 0x4 DUP1 CALLDATASIZE SUB DUP2 ADD SWAP1 PUSH2 0x2A7 SWAP2 SWAP1 PUSH2 0x1801 JUMP JUMPDEST PUSH2 0x78D JUMP JUMPDEST STOP JUMPDEST CALLVALUE DUP1 ISZERO PUSH2 0x2BA JUMPI PUSH1 0x0 DUP1 REVERT JUMPDEST POP PUSH2 0x2D5 PUSH1 0x4 DUP1 CALLDATASIZE SUB DUP2 ADD SWAP1 PUSH2 0x2D0 SWAP2 SWAP1 PUSH2 0x178B JUMP JUMPDEST PUSH2 0x8AD JUMP JUMPDEST PUSH1 0x40 MLOAD PUSH2 0x2E2 SWAP2 SWAP1 PUSH2 0x17E6 JUMP JUMPDEST PUSH1 0x40 MLOAD DUP1 SWAP2 SUB SWAP1 RETURN JUMPDEST CALLVALUE DUP1 ISZERO PUSH2 0x2F7 JUMPI PUSH1 0x0 DUP1 REVERT JUMPDEST POP PUSH2 0x312 PUSH1 0x4 DUP1 CALLDATASIZE SUB DUP2 ADD SWAP1 PUSH2 0x30D SWAP2 SWAP1 PUSH2 0x178B JUMP JUMPDEST PUSH2 0x8EA JUMP JUMPDEST STOP JUMPDEST CALLVALUE DUP1 ISZERO PUSH2 0x320 JUMPI PUSH1 0x0 DUP1 REVERT JUMPDEST POP PUSH2 0x33B PUSH1 0x4 DUP1 CALLDATASIZE SUB DUP2 ADD SWAP1 PUSH2 0x336 SWAP2 SWAP1 PUSH2 0x1801 JUMP JUMPDEST PUSH2 0x919 JUMP JUMPDEST STOP JUMPDEST CALLVALUE DUP1 ISZERO PUSH2 0x349 JUMPI PUSH1 0x0 DUP1 REVERT JUMPDEST POP PUSH2 0x364 PUSH1 0x4 DUP1 CALLDATASIZE SUB DUP2 ADD SWAP1 PUSH2 0x35F SWAP2 SWAP1 PUSH2 0x1801 JUMP JUMPDEST PUSH2 0x92D JUMP JUMPDEST STOP JUMPDEST CALLVALUE DUP1 ISZERO PUSH2 0x372 JUMPI PUSH1 0x0 DUP1 REVERT JUMPDEST POP PUSH2 0x38D PUSH1 0x4 DUP1 CALLDATASIZE SUB DUP2 ADD SWAP1 PUSH2 0x388 SWAP2 SWAP1 PUSH2 0x1801 JUMP JUMPDEST PUSH2 0x93F JUMP JUMPDEST STOP JUMPDEST CALLVALUE DUP1 ISZERO PUSH2 0x39B JUMPI PUSH1 0x0 DUP1 REVERT JUMPDEST POP PUSH2 0x3B6 PUSH1 0x4 DUP1 CALLDATASIZE SUB DUP2 ADD SWAP1 PUSH2 0x3B1 SWAP2 SWAP1 PUSH2 0x18E2 JUMP JUMPDEST PUSH2 0xA0A JUMP JUMPDEST PUSH1 0x40 MLOAD PUSH2 0x3C3 SWAP2 SWAP1 PUSH2 0x183D JUMP JUMPDEST PUSH1 0x40 MLOAD DUP1 SWAP2 SUB SWAP1 RETURN JUMPDEST CALLVALUE DUP1 ISZERO PUSH2 0x3D8 JUMPI PUSH1 0x0 DUP1 REVERT JUMPDEST POP PUSH2 0x3E1 PUSH2 0xA52 JUMP JUMPDEST STOP JUMPDEST CALLVALUE DUP1 ISZERO PUSH2 0x3EF JUMPI PUSH1 0x0 DUP1 REVERT JUMPDEST POP PUSH2 0x40A PUSH1 0x4 DUP1 CALLDATASIZE SUB DUP2 ADD SWAP1 PUSH2 0x405 SWAP2 SWAP1 PUSH2 0x178B JUMP JUMPDEST PUSH2 0xA66 JUMP JUMPDEST STOP JUMPDEST CALLVALUE DUP1 ISZERO PUSH2 0x418 JUMPI PUSH1 0x0 DUP1 REVERT JUMPDEST POP PUSH2 0x421 PUSH2 0xA86 JUMP JUMPDEST PUSH1 0x40 MLOAD PUSH2 0x42E SWAP2 SWAP1 PUSH2 0x183D JUMP JUMPDEST PUSH1 0x40 MLOAD DUP1 SWAP2 SUB SWAP1 RETURN JUMPDEST CALLVALUE DUP1 ISZERO PUSH2 0x443 JUMPI PUSH1 0x0 DUP1 REVERT JUMPDEST POP PUSH2 0x44C PUSH2 0xA8C JUMP JUMPDEST PUSH1 0x40 MLOAD PUSH2 0x459 SWAP2 SWAP1 PUSH2 0x191E JUMP JUMPDEST PUSH1 0x40 MLOAD DUP1 SWAP2 SUB SWAP1 RETURN JUMPDEST CALLVALUE DUP1 ISZERO PUSH2 0x46E JUMPI PUSH1 0x0 DUP1 REVERT JUMPDEST POP PUSH2 0x477 PUSH2 0xAB6 JUMP JUMPDEST PUSH1 0x40 MLOAD PUSH2 0x484 SWAP2 SWAP1 PUSH2 0x16D0 JUMP JUMPDEST PUSH1 0x40 MLOAD DUP1 SWAP2 SUB SWAP1 RETURN JUMPDEST CALLVALUE DUP1 ISZERO PUSH2 0x499 JUMPI PUSH1 0x0 DUP1 REVERT JUMPDEST POP PUSH2 0x4B4 PUSH1 0x4 DUP1 CALLDATASIZE SUB DUP2 ADD SWAP1 PUSH2 0x4AF SWAP2 SWAP1 PUSH2 0x178B JUMP JUMPDEST PUSH2 0xB48 JUMP JUMPDEST PUSH1 0x40 MLOAD PUSH2 0x4C1 SWAP2 SWAP1 PUSH2 0x17E6 JUMP JUMPDEST PUSH1 0x40 MLOAD DUP1 SWAP2 SUB SWAP1 RETURN JUMPDEST CALLVALUE DUP1 ISZERO PUSH2 0x4D6 JUMPI PUSH1 0x0 DUP1 REVERT JUMPDEST POP PUSH2 0x4F1 PUSH1 0x4 DUP1 CALLDATASIZE SUB DUP2 ADD SWAP1 PUSH2 0x4EC SWAP2 SWAP1 PUSH2 0x178B JUMP JUMPDEST PUSH2 0xB85 JUMP JUMPDEST PUSH1 0x40 MLOAD PUSH2 0x4FE SWAP2 SWAP1 PUSH2 0x17E6 JUMP JUMPDEST PUSH1 0x40 MLOAD DUP1 SWAP2 SUB SWAP1 RETURN JUMPDEST CALLVALUE DUP1 ISZERO PUSH2 0x513 JUMPI PUSH1 0x0 DUP1 REVERT JUMPDEST POP PUSH2 0x52E PUSH1 0x4 DUP1 CALLDATASIZE SUB DUP2 ADD SWAP1 PUSH2 0x529 SWAP2 SWAP1 PUSH2 0x1939 JUMP JUMPDEST PUSH2 0xBA8 JUMP JUMPDEST PUSH1 0x40 MLOAD PUSH2 0x53B SWAP2 SWAP1 PUSH2 0x183D JUMP JUMPDEST PUSH1 0x40 MLOAD DUP1 SWAP2 SUB SWAP1 RETURN JUMPDEST CALLVALUE DUP1 ISZERO PUSH2 0x550 JUMPI PUSH1 0x0 DUP1 REVERT JUMPDEST POP PUSH2 0x56B PUSH1 0x4 DUP1 CALLDATASIZE SUB DUP2 ADD SWAP1 PUSH2 0x566 SWAP2 SWAP1 PUSH2 0x18E2 JUMP JUMPDEST PUSH2 0xC2F JUMP JUMPDEST STOP JUMPDEST PUSH1 0x60 PUSH1 0x3 DUP1 SLOAD PUSH2 0x57C SWAP1 PUSH2 0x19A8 JUMP JUMPDEST DUP1 PUSH1 0x1F ADD PUSH1 0x20 DUP1 SWAP2 DIV MUL PUSH1 0x20 ADD PUSH1 0x40 MLOAD SWAP1 DUP2 ADD PUSH1 0x40 MSTORE DUP1 SWAP3 SWAP2 SWAP1 DUP2 DUP2 MSTORE PUSH1 0x20 ADD DUP3 DUP1 SLOAD PUSH2 0x5A8 SWAP1 PUSH2 0x19A8 JUMP JUMPDEST DUP1 ISZERO PUSH2 0x5F5 JUMPI DUP1 PUSH1 0x1F LT PUSH2 0x5CA JUMPI PUSH2 0x100 DUP1 DUP4 SLOAD DIV MUL DUP4 MSTORE SWAP2 PUSH1 0x20 ADD SWAP2 PUSH2 0x5F5 JUMP JUMPDEST DUP3 ADD SWAP2 SWAP1 PUSH1 0x0 MSTORE PUSH1 0x20 PUSH1 0x0 KECCAK256 SWAP1 JUMPDEST DUP2 SLOAD DUP2 MSTORE SWAP1 PUSH1 0x1 ADD SWAP1 PUSH1 0x20 ADD DUP1 DUP4 GT PUSH2 0x5D8 JUMPI DUP3 SWAP1 SUB PUSH1 0x1F AND DUP3 ADD SWAP2 JUMPDEST POP POP POP POP POP SWAP1 POP SWAP1 JUMP JUMPDEST PUSH1 0x0 PUSH1 0x40 MLOAD PUSH32 0x8C379A000000000000000000000000000000000000000000000000000000000 DUP2 MSTORE PUSH1 0x4 ADD PUSH2 0x633 SWAP1 PUSH2 0x1A25 JUMP JUMPDEST PUSH1 0x40 MLOAD DUP1 SWAP2 SUB SWAP1 REVERT JUMPDEST PUSH2 0x644 PUSH2 0xE08 JUMP JUMPDEST DUP1 SELFBALANCE LT ISZERO PUSH2 0x687 JUMPI PUSH1 0x40 MLOAD PUSH32 0x8C379A000000000000000000000000000000000000000000000000000000000 DUP2 MSTORE PUSH1 0x4 ADD PUSH2 0x67E SWAP1 PUSH2 0x1A91 JUMP JUMPDEST PUSH1 0x40 MLOAD DUP1 SWAP2 SUB SWAP1 REVERT JUMPDEST PUSH1 0x0 PUSH2 0x6A4 PUSH8 0xDE0B6B3A7640000 DUP4 PUSH2 0xE86 SWAP1 SWAP2 SWAP1 PUSH4 0xFFFFFFFF AND JUMP JUMPDEST SWAP1 POP SELFBALANCE DUP2 GT ISZERO PUSH2 0x6E9 JUMPI PUSH1 0x40 MLOAD PUSH32 0x8C379A000000000000000000000000000000000000000000000000000000000 DUP2 MSTORE PUSH1 0x4 ADD PUSH2 0x6E0 SWAP1 PUSH2 0x1A91 JUMP JUMPDEST PUSH1 0x40 MLOAD DUP1 SWAP2 SUB SWAP1 REVERT JUMPDEST PUSH2 0x6F1 PUSH2 0xA8C JUMP JUMPDEST PUSH20 0xFFFFFFFFFFFFFFFFFFFFFFFFFFFFFFFFFFFFFFFF AND PUSH2 0x8FC DUP3 SWAP1 DUP2 ISZERO MUL SWAP1 PUSH1 0x40 MLOAD PUSH1 0x0 PUSH1 0x40 MLOAD DUP1 DUP4 SUB DUP2 DUP6 DUP9 DUP9 CALL SWAP4 POP POP POP POP ISZERO DUP1 ISZERO PUSH2 0x736 JUMPI RETURNDATASIZE PUSH1 0x0 DUP1 RETURNDATACOPY RETURNDATASIZE PUSH1 0x0 REVERT JUMPDEST POP POP POP JUMP JUMPDEST PUSH1 0x0 PUSH1 0x2 SLOAD SWAP1 POP SWAP1 JUMP JUMPDEST PUSH1 0x0 PUSH2 0x752 DUP5 DUP5 DUP5 PUSH2 0xE9C JUMP JUMPDEST PUSH1 0x1 SWAP1 POP SWAP4 SWAP3 POP POP POP JUMP JUMPDEST PUSH1 0x0 PUSH1 0x12 SWAP1 POP SWAP1 JUMP JUMPDEST PUSH2 0x76E PUSH2 0xE08 JUMP JUMPDEST PUSH2 0x778 ADDRESS DUP3 PUSH2 0xEAC JUMP JUMPDEST PUSH2 0x78A ADDRESS PUSH2 0x784 PUSH2 0xA8C JUMP JUMPDEST DUP4 PUSH2 0xE9C JUMP JUMPDEST POP JUMP JUMPDEST PUSH1 0x0 DUP2 GT PUSH2 0x7D0 JUMPI PUSH1 0x40 MLOAD PUSH32 0x8C379A000000000000000000000000000000000000000000000000000000000 DUP2 MSTORE PUSH1 0x4 ADD PUSH2 0x7C7 SWAP1 PUSH2 0x1B23 JUMP JUMPDEST PUSH1 0x40 MLOAD DUP1 SWAP2 SUB SWAP1 REVERT JUMPDEST PUSH1 0x0 PUSH2 0x7E7 PUSH1 0x6 SLOAD DUP4 PUSH2 0xE86 SWAP1 SWAP2 SWAP1 PUSH4 0xFFFFFFFF AND JUMP JUMPDEST SWAP1 POP DUP1 CALLVALUE LT ISZERO PUSH2 0x82C JUMPI PUSH1 0x40 MLOAD PUSH32 0x8C379A000000000000000000000000000000000000000000000000000000000 DUP2 MSTORE PUSH1 0x4 ADD PUSH2 0x823 SWAP1 PUSH2 0x1B8F JUMP JUMPDEST PUSH1 0x40 MLOAD DUP1 SWAP2 SUB SWAP1 REVERT JUMPDEST PUSH1 0x0 PUSH8 0xDE0B6B3A7640000 DUP4 PUSH2 0x842 SWAP2 SWAP1 PUSH2 0x1BDE JUMP JUMPDEST SWAP1 POP PUSH2 0x854 PUSH2 0x84F PUSH2 0xA8C JUMP JUMPDEST PUSH2 0xA0A JUMP JUMPDEST DUP2 GT ISZERO PUSH2 0x896 JUMPI PUSH1 0x40 MLOAD PUSH32 0x8C379A000000000000000000000000000000000000000000000000000000000 DUP2 MSTORE PUSH1 0x4 ADD PUSH2 0x88D SWAP1 PUSH2 0x1C6C JUMP JUMPDEST PUSH1 0x40 MLOAD DUP1 SWAP2 SUB SWAP1 REVERT JUMPDEST PUSH2 0x8A8 PUSH2 0x8A1 PUSH2 0xA8C JUMP JUMPDEST CALLER DUP4 PUSH2 0xE9C JUMP JUMPDEST POP POP POP JUMP JUMPDEST PUSH1 0x0 PUSH1 0x40 MLOAD PUSH32 0x8C379A000000000000000000000000000000000000000000000000000000000 DUP2 MSTORE PUSH1 0x4 ADD PUSH2 0x8E1 SWAP1 PUSH2 0x1A25 JUMP JUMPDEST PUSH1 0x40 MLOAD DUP1 SWAP2 SUB SWAP1 REVERT JUMPDEST PUSH2 0x8F2 PUSH2 0xE08 JUMP JUMPDEST PUSH1 0x0 PUSH8 0xDE0B6B3A7640000 DUP3 PUSH2 0x908 SWAP2 SWAP1 PUSH2 0x1BDE JUMP JUMPDEST SWAP1 POP PUSH2 0x914 DUP4 DUP3 PUSH2 0x1079 JUMP JUMPDEST POP POP POP JUMP JUMPDEST PUSH2 0x92A PUSH2 0x924 PUSH2 0x1087 JUMP JUMPDEST DUP3 PUSH2 0xEAC JUMP JUMPDEST POP JUMP JUMPDEST PUSH2 0x935 PUSH2 0xE08 JUMP JUMPDEST DUP1 PUSH1 0x6 DUP2 SWAP1 SSTORE POP POP JUMP JUMPDEST PUSH1 0x0 DUP2 GT PUSH2 0x982 JUMPI PUSH1 0x40 MLOAD PUSH32 0x8C379A000000000000000000000000000000000000000000000000000000000 DUP2 MSTORE PUSH1 0x4 ADD PUSH2 0x979 SWAP1 PUSH2 0x1CD8 JUMP JUMPDEST PUSH1 0x40 MLOAD DUP1 SWAP2 SUB SWAP1 REVERT JUMPDEST PUSH1 0x0 PUSH2 0x9B3 PUSH8 0xDE0B6B3A7640000 PUSH2 0x9A5 PUSH1 0x6 SLOAD DUP6 PUSH2 0xE86 SWAP1 SWAP2 SWAP1 PUSH4 0xFFFFFFFF AND JUMP JUMPDEST PUSH2 0x108F SWAP1 SWAP2 SWAP1 PUSH4 0xFFFFFFFF AND JUMP JUMPDEST SWAP1 POP PUSH2 0x9BF CALLER DUP4 PUSH2 0xEAC JUMP JUMPDEST CALLER PUSH20 0xFFFFFFFFFFFFFFFFFFFFFFFFFFFFFFFFFFFFFFFF AND PUSH2 0x8FC DUP3 SWAP1 DUP2 ISZERO MUL SWAP1 PUSH1 0x40 MLOAD PUSH1 0x0 PUSH1 0x40 MLOAD DUP1 DUP4 SUB DUP2 DUP6 DUP9 DUP9 CALL SWAP4 POP POP POP POP ISZERO DUP1 ISZERO PUSH2 0xA05 JUMPI RETURNDATASIZE PUSH1 0x0 DUP1 RETURNDATACOPY RETURNDATASIZE PUSH1 0x0 REVERT JUMPDEST POP POP POP JUMP JUMPDEST PUSH1 0x0 DUP1 PUSH1 0x0 DUP4 PUSH20 0xFFFFFFFFFFFFFFFFFFFFFFFFFFFFFFFFFFFFFFFF AND PUSH20 0xFFFFFFFFFFFFFFFFFFFFFFFFFFFFFFFFFFFFFFFF AND DUP2 MSTORE PUSH1 0x20 ADD SWAP1 DUP2 MSTORE PUSH1 0x20 ADD PUSH1 0x0 KECCAK256 SLOAD SWAP1 POP SWAP2 SWAP1 POP JUMP JUMPDEST PUSH2 0xA5A PUSH2 0xE08 JUMP JUMPDEST PUSH2 0xA64 PUSH1 0x0 PUSH2 0x10A5 JUMP JUMPDEST JUMP JUMPDEST PUSH2 0xA78 DUP3 PUSH2 0xA72 PUSH2 0x1087 JUMP JUMPDEST DUP4 PUSH2 0x116B JUMP JUMPDEST PUSH2 0xA82 DUP3 DUP3 PUSH2 0xEAC JUMP JUMPDEST POP POP JUMP JUMPDEST PUSH1 0x6 SLOAD DUP2 JUMP JUMPDEST PUSH1 0x0 PUSH1 0x5 PUSH1 0x0 SWAP1 SLOAD SWAP1 PUSH2 0x100 EXP SWAP1 DIV PUSH20 0xFFFFFFFFFFFFFFFFFFFFFFFFFFFFFFFFFFFFFFFF AND SWAP1 POP SWAP1 JUMP JUMPDEST PUSH1 0x60 PUSH1 0x4 DUP1 SLOAD PUSH2 0xAC5 SWAP1 PUSH2 0x19A8 JUMP JUMPDEST DUP1 PUSH1 0x1F ADD PUSH1 0x20 DUP1 SWAP2 DIV MUL PUSH1 0x20 ADD PUSH1 0x40 MLOAD SWAP1 DUP2 ADD PUSH1 0x40 MSTORE DUP1 SWAP3 SWAP2 SWAP1 DUP2 DUP2 MSTORE PUSH1 0x20 ADD DUP3 DUP1 SLOAD PUSH2 0xAF1 SWAP1 PUSH2 0x19A8 JUMP JUMPDEST DUP1 ISZERO PUSH2 0xB3E JUMPI DUP1 PUSH1 0x1F LT PUSH2 0xB13 JUMPI PUSH2 0x100 DUP1 DUP4 SLOAD DIV MUL DUP4 MSTORE SWAP2 PUSH1 0x20 ADD SWAP2 PUSH2 0xB3E JUMP JUMPDEST DUP3 ADD SWAP2 SWAP1 PUSH1 0x0 MSTORE PUSH1 0x20 PUSH1 0x0 KECCAK256 SWAP1 JUMPDEST DUP2 SLOAD DUP2 MSTORE SWAP1 PUSH1 0x1 ADD SWAP1 PUSH1 0x20 ADD DUP1 DUP4 GT PUSH2 0xB21 JUMPI DUP3 SWAP1 SUB PUSH1 0x1F AND DUP3 ADD SWAP2 JUMPDEST POP POP POP POP POP SWAP1 POP SWAP1 JUMP JUMPDEST PUSH1 0x0 PUSH1 0x40 MLOAD PUSH32 0x8C379A000000000000000000000000000000000000000000000000000000000 DUP2 MSTORE PUSH1 0x4 ADD PUSH2 0xB7C SWAP1 PUSH2 0x1A25 JUMP JUMPDEST PUSH1 0x40 MLOAD DUP1 SWAP2 SUB SWAP1 REVERT JUMPDEST PUSH1 0x0 DUP1 PUSH2 0xB90 PUSH2 0x1087 JUMP JUMPDEST SWAP1 POP PUSH2 0xB9D DUP2 DUP6 DUP6 PUSH2 0xE9C JUMP JUMPDEST PUSH1 0x1 SWAP2 POP POP SWAP3 SWAP2 POP POP JUMP JUMPDEST PUSH1 0x0 PUSH1 0x1 PUSH1 0x0 DUP5 PUSH20 0xFFFFFFFFFFFFFFFFFFFFFFFFFFFFFFFFFFFFFFFF AND PUSH20 0xFFFFFFFFFFFFFFFFFFFFFFFFFFFFFFFFFFFFFFFF AND DUP2 MSTORE PUSH1 0x20 ADD SWAP1 DUP2 MSTORE PUSH1 0x20 ADD PUSH1 0x0 KECCAK256 PUSH1 0x0 DUP4 PUSH20 0xFFFFFFFFFFFFFFFFFFFFFFFFFFFFFFFFFFFFFFFF AND PUSH20 0xFFFFFFFFFFFFFFFFFFFFFFFFFFFFFFFFFFFFFFFF AND DUP2 MSTORE PUSH1 0x20 ADD SWAP1 DUP2 MSTORE PUSH1 0x20 ADD PUSH1 0x0 KECCAK256 SLOAD SWAP1 POP SWAP3 SWAP2 POP POP JUMP JUMPDEST PUSH2 0xC37 PUSH2 0xE08 JUMP JUMPDEST PUSH1 0x0 PUSH20 0xFFFFFFFFFFFFFFFFFFFFFFFFFFFFFFFFFFFFFFFF AND DUP2 PUSH20 0xFFFFFFFFFFFFFFFFFFFFFFFFFFFFFFFFFFFFFFFF AND SUB PUSH2 0xCA6 JUMPI PUSH1 0x40 MLOAD PUSH32 0x8C379A000000000000000000000000000000000000000000000000000000000 DUP2 MSTORE PUSH1 0x4 ADD PUSH2 0xC9D SWAP1 PUSH2 0x1D6A JUMP JUMPDEST PUSH1 0x40 MLOAD DUP1 SWAP2 SUB SWAP1 REVERT JUMPDEST PUSH2 0xCAF DUP2 PUSH2 0x10A5 JUMP JUMPDEST POP JUMP JUMPDEST PUSH1 0x0 PUSH20 0xFFFFFFFFFFFFFFFFFFFFFFFFFFFFFFFFFFFFFFFF AND DUP3 PUSH20 0xFFFFFFFFFFFFFFFFFFFFFFFFFFFFFFFFFFFFFFFF AND SUB PUSH2 0xD21 JUMPI PUSH1 0x40 MLOAD PUSH32 0x8C379A000000000000000000000000000000000000000000000000000000000 DUP2 MSTORE PUSH1 0x4 ADD PUSH2 0xD18 SWAP1 PUSH2 0x1DD6 JUMP JUMPDEST PUSH1 0x40 MLOAD DUP1 SWAP2 SUB SWAP1 REVERT JUMPDEST PUSH2 0xD2D PUSH1 0x0 DUP4 DUP4 PUSH2 0x11F7 JUMP JUMPDEST DUP1 PUSH1 0x2 PUSH1 0x0 DUP3 DUP3 SLOAD PUSH2 0xD3F SWAP2 SWAP1 PUSH2 0x1DF6 JUMP JUMPDEST SWAP3 POP POP DUP2 SWAP1 SSTORE POP DUP1 PUSH1 0x0 DUP1 DUP5 PUSH20 0xFFFFFFFFFFFFFFFFFFFFFFFFFFFFFFFFFFFFFFFF AND PUSH20 0xFFFFFFFFFFFFFFFFFFFFFFFFFFFFFFFFFFFFFFFF AND DUP2 MSTORE PUSH1 0x20 ADD SWAP1 DUP2 MSTORE PUSH1 0x20 ADD PUSH1 0x0 KECCAK256 PUSH1 0x0 DUP3 DUP3 SLOAD ADD SWAP3 POP POP DUP2 SWAP1 SSTORE POP DUP2 PUSH20 0xFFFFFFFFFFFFFFFFFFFFFFFFFFFFFFFFFFFFFFFF AND PUSH1 0x0 PUSH20 0xFFFFFFFFFFFFFFFFFFFFFFFFFFFFFFFFFFFFFFFF AND PUSH32 0xDDF252AD1BE2C89B69C2B068FC378DAA952BA7F163C4A11628F55A4DF523B3EF DUP4 PUSH1 0x40 MLOAD PUSH2 0xDF0 SWAP2 SWAP1 PUSH2 0x183D JUMP JUMPDEST PUSH1 0x40 MLOAD DUP1 SWAP2 SUB SWAP1 LOG3 PUSH2 0xE04 PUSH1 0x0 DUP4 DUP4 PUSH2 0x11FC JUMP JUMPDEST POP POP JUMP JUMPDEST PUSH2 0xE10 PUSH2 0x1087 JUMP JUMPDEST PUSH20 0xFFFFFFFFFFFFFFFFFFFFFFFFFFFFFFFFFFFFFFFF AND PUSH2 0xE2E PUSH2 0xA8C JUMP JUMPDEST PUSH20 0xFFFFFFFFFFFFFFFFFFFFFFFFFFFFFFFFFFFFFFFF AND EQ PUSH2 0xE84 JUMPI PUSH1 0x40 MLOAD PUSH32 0x8C379A000000000000000000000000000000000000000000000000000000000 DUP2 MSTORE PUSH1 0x4 ADD PUSH2 0xE7B SWAP1 PUSH2 0x1E76 JUMP JUMPDEST PUSH1 0x40 MLOAD DUP1 SWAP2 SUB SWAP1 REVERT JUMPDEST JUMP JUMPDEST PUSH1 0x0 DUP2 DUP4 PUSH2 0xE94 SWAP2 SWAP1 PUSH2 0x1BDE JUMP JUMPDEST SWAP1 POP SWAP3 SWAP2 POP POP JUMP JUMPDEST PUSH2 0xEA7 DUP4 DUP4 DUP4 PUSH2 0x1201 JUMP JUMPDEST POP POP POP JUMP JUMPDEST PUSH1 0x0 PUSH20 0xFFFFFFFFFFFFFFFFFFFFFFFFFFFFFFFFFFFFFFFF AND DUP3 PUSH20 0xFFFFFFFFFFFFFFFFFFFFFFFFFFFFFFFFFFFFFFFF AND SUB PUSH2 0xF1B JUMPI PUSH1 0x40 MLOAD PUSH32 0x8C379A000000000000000000000000000000000000000000000000000000000 DUP2 MSTORE PUSH1 0x4 ADD PUSH2 0xF12 SWAP1 PUSH2 0x1F08 JUMP JUMPDEST PUSH1 0x40 MLOAD DUP1 SWAP2 SUB SWAP1 REVERT JUMPDEST PUSH2 0xF27 DUP3 PUSH1 0x0 DUP4 PUSH2 0x11F7 JUMP JUMPDEST PUSH1 0x0 DUP1 PUSH1 0x0 DUP5 PUSH20 0xFFFFFFFFFFFFFFFFFFFFFFFFFFFFFFFFFFFFFFFF AND PUSH20 0xFFFFFFFFFFFFFFFFFFFFFFFFFFFFFFFFFFFFFFFF AND DUP2 MSTORE PUSH1 0x20 ADD SWAP1 DUP2 MSTORE PUSH1 0x20 ADD PUSH1 0x0 KECCAK256 SLOAD SWAP1 POP DUP2 DUP2 LT ISZERO PUSH2 0xFAD JUMPI PUSH1 0x40 MLOAD PUSH32 0x8C379A000000000000000000000000000000000000000000000000000000000 DUP2 MSTORE PUSH1 0x4 ADD PUSH2 0xFA4 SWAP1 PUSH2 0x1F9A JUMP JUMPDEST PUSH1 0x40 MLOAD DUP1 SWAP2 SUB SWAP1 REVERT JUMPDEST DUP2 DUP2 SUB PUSH1 0x0 DUP1 DUP6 PUSH20 0xFFFFFFFFFFFFFFFFFFFFFFFFFFFFFFFFFFFFFFFF AND PUSH20 0xFFFFFFFFFFFFFFFFFFFFFFFFFFFFFFFFFFFFFFFF AND DUP2 MSTORE PUSH1 0x20 ADD SWAP1 DUP2 MSTORE PUSH1 0x20 ADD PUSH1 0x0 KECCAK256 DUP2 SWAP1 SSTORE POP DUP2 PUSH1 0x2 PUSH1 0x0 DUP3 DUP3 SLOAD SUB SWAP3 POP POP DUP2 SWAP1 SSTORE POP PUSH1 0x0 PUSH20 0xFFFFFFFFFFFFFFFFFFFFFFFFFFFFFFFFFFFFFFFF AND DUP4 PUSH20 0xFFFFFFFFFFFFFFFFFFFFFFFFFFFFFFFFFFFFFFFF AND PUSH32 0xDDF252AD1BE2C89B69C2B068FC378DAA952BA7F163C4A11628F55A4DF523B3EF DUP5 PUSH1 0x40 MLOAD PUSH2 0x1060 SWAP2 SWAP1 PUSH2 0x183D JUMP JUMPDEST PUSH1 0x40 MLOAD DUP1 SWAP2 SUB SWAP1 LOG3 PUSH2 0x1074 DUP4 PUSH1 0x0 DUP5 PUSH2 0x11FC JUMP JUMPDEST POP POP POP JUMP JUMPDEST PUSH2 0x1083 DUP3 DUP3 PUSH2 0xCB2 JUMP JUMPDEST POP POP JUMP JUMPDEST PUSH1 0x0 CALLER SWAP1 POP SWAP1 JUMP JUMPDEST PUSH1 0x0 DUP2 DUP4 PUSH2 0x109D SWAP2 SWAP1 PUSH2 0x1FE9 JUMP JUMPDEST SWAP1 POP SWAP3 SWAP2 POP POP JUMP JUMPDEST PUSH1 0x0 PUSH1 0x5 PUSH1 0x0 SWAP1 SLOAD SWAP1 PUSH2 0x100 EXP SWAP1 DIV PUSH20 0xFFFFFFFFFFFFFFFFFFFFFFFFFFFFFFFFFFFFFFFF AND SWAP1 POP DUP2 PUSH1 0x5 PUSH1 0x0 PUSH2 0x100 EXP DUP2 SLOAD DUP2 PUSH20 0xFFFFFFFFFFFFFFFFFFFFFFFFFFFFFFFFFFFFFFFF MUL NOT AND SWAP1 DUP4 PUSH20 0xFFFFFFFFFFFFFFFFFFFFFFFFFFFFFFFFFFFFFFFF AND MUL OR SWAP1 SSTORE POP DUP2 PUSH20 0xFFFFFFFFFFFFFFFFFFFFFFFFFFFFFFFFFFFFFFFF AND DUP2 PUSH20 0xFFFFFFFFFFFFFFFFFFFFFFFFFFFFFFFFFFFFFFFF AND PUSH32 0x8BE0079C531659141344CD1FD0A4F28419497F9722A3DAAFE3B4186F6B6457E0 PUSH1 0x40 MLOAD PUSH1 0x40 MLOAD DUP1 SWAP2 SUB SWAP1 LOG3 POP POP JUMP JUMPDEST PUSH1 0x0 PUSH2 0x1177 DUP5 DUP5 PUSH2 0xBA8 JUMP JUMPDEST SWAP1 POP PUSH32 0xFFFFFFFFFFFFFFFFFFFFFFFFFFFFFFFFFFFFFFFFFFFFFFFFFFFFFFFFFFFFFFFF DUP2 EQ PUSH2 0x11F1 JUMPI DUP2 DUP2 LT ISZERO PUSH2 0x11E3 JUMPI PUSH1 0x40 MLOAD PUSH32 0x8C379A000000000000000000000000000000000000000000000000000000000 DUP2 MSTORE PUSH1 0x4 ADD PUSH2 0x11DA SWAP1 PUSH2 0x2066 JUMP JUMPDEST PUSH1 0x40 MLOAD DUP1 SWAP2 SUB SWAP1 REVERT JUMPDEST PUSH2 0x11F0 DUP5 DUP5 DUP5 DUP5 SUB PUSH2 0x1477 JUMP JUMPDEST JUMPDEST POP POP POP POP JUMP JUMPDEST POP POP POP JUMP JUMPDEST POP POP POP JUMP JUMPDEST PUSH1 0x0 PUSH20 0xFFFFFFFFFFFFFFFFFFFFFFFFFFFFFFFFFFFFFFFF AND DUP4 PUSH20 0xFFFFFFFFFFFFFFFFFFFFFFFFFFFFFFFFFFFFFFFF AND SUB PUSH2 0x1270 JUMPI PUSH1 0x40 MLOAD PUSH32 0x8C379A000000000000000000000000000000000000000000000000000000000 DUP2 MSTORE PUSH1 0x4 ADD PUSH2 0x1267 SWAP1 PUSH2 0x20F8 JUMP JUMPDEST PUSH1 0x40 MLOAD DUP1 SWAP2 SUB SWAP1 REVERT JUMPDEST PUSH1 0x0 PUSH20 0xFFFFFFFFFFFFFFFFFFFFFFFFFFFFFFFFFFFFFFFF AND DUP3 PUSH20 0xFFFFFFFFFFFFFFFFFFFFFFFFFFFFFFFFFFFFFFFF AND SUB PUSH2 0x12DF JUMPI PUSH1 0x40 MLOAD PUSH32 0x8C379A000000000000000000000000000000000000000000000000000000000 DUP2 MSTORE PUSH1 0x4 ADD PUSH2 0x12D6 SWAP1 PUSH2 0x218A JUMP JUMPDEST PUSH1 0x40 MLOAD DUP1 SWAP2 SUB SWAP1 REVERT JUMPDEST PUSH2 0x12EA DUP4 DUP4 DUP4 PUSH2 0x11F7 JUMP JUMPDEST PUSH1 0x0 DUP1 PUSH1 0x0 DUP6 PUSH20 0xFFFFFFFFFFFFFFFFFFFFFFFFFFFFFFFFFFFFFFFF AND PUSH20 0xFFFFFFFFFFFFFFFFFFFFFFFFFFFFFFFFFFFFFFFF AND DUP2 MSTORE PUSH1 0x20 ADD SWAP1 DUP2 MSTORE PUSH1 0x20 ADD PUSH1 0x0 KECCAK256 SLOAD SWAP1 POP DUP2 DUP2 LT ISZERO PUSH2 0x1370 JUMPI PUSH1 0x40 MLOAD PUSH32 0x8C379A000000000000000000000000000000000000000000000000000000000 DUP2 MSTORE PUSH1 0x4 ADD PUSH2 0x1367 SWAP1 PUSH2 0x221C JUMP JUMPDEST PUSH1 0x40 MLOAD DUP1 SWAP2 SUB SWAP1 REVERT JUMPDEST DUP2 DUP2 SUB PUSH1 0x0 DUP1 DUP7 PUSH20 0xFFFFFFFFFFFFFFFFFFFFFFFFFFFFFFFFFFFFFFFF AND PUSH20 0xFFFFFFFFFFFFFFFFFFFFFFFFFFFFFFFFFFFFFFFF AND DUP2 MSTORE PUSH1 0x20 ADD SWAP1 DUP2 MSTORE PUSH1 0x20 ADD PUSH1 0x0 KECCAK256 DUP2 SWAP1 SSTORE POP DUP2 PUSH1 0x0 DUP1 DUP6 PUSH20 0xFFFFFFFFFFFFFFFFFFFFFFFFFFFFFFFFFFFFFFFF AND PUSH20 0xFFFFFFFFFFFFFFFFFFFFFFFFFFFFFFFFFFFFFFFF AND DUP2 MSTORE PUSH1 0x20 ADD SWAP1 DUP2 MSTORE PUSH1 0x20 ADD PUSH1 0x0 KECCAK256 PUSH1 0x0 DUP3 DUP3 SLOAD ADD SWAP3 POP POP DUP2 SWAP1 SSTORE POP DUP3 PUSH20 0xFFFFFFFFFFFFFFFFFFFFFFFFFFFFFFFFFFFFFFFF AND DUP5 PUSH20 0xFFFFFFFFFFFFFFFFFFFFFFFFFFFFFFFFFFFFFFFF AND PUSH32 0xDDF252AD1BE2C89B69C2B068FC378DAA952BA7F163C4A11628F55A4DF523B3EF DUP5 PUSH1 0x40 MLOAD PUSH2 0x145E SWAP2 SWAP1 PUSH2 0x183D JUMP JUMPDEST PUSH1 0x40 MLOAD DUP1 SWAP2 SUB SWAP1 LOG3 PUSH2 0x1471 DUP5 DUP5 DUP5 PUSH2 0x11FC JUMP JUMPDEST POP POP POP POP JUMP JUMPDEST PUSH1 0x0 PUSH20 0xFFFFFFFFFFFFFFFFFFFFFFFFFFFFFFFFFFFFFFFF AND DUP4 PUSH20 0xFFFFFFFFFFFFFFFFFFFFFFFFFFFFFFFFFFFFFFFF AND SUB PUSH2 0x14E6 JUMPI PUSH1 0x40 MLOAD PUSH32 0x8C379A000000000000000000000000000000000000000000000000000000000 DUP2 MSTORE PUSH1 0x4 ADD PUSH2 0x14DD SWAP1 PUSH2 0x22AE JUMP JUMPDEST PUSH1 0x40 MLOAD DUP1 SWAP2 SUB SWAP1 REVERT JUMPDEST PUSH1 0x0 PUSH20 0xFFFFFFFFFFFFFFFFFFFFFFFFFFFFFFFFFFFFFFFF AND DUP3 PUSH20 0xFFFFFFFFFFFFFFFFFFFFFFFFFFFFFFFFFFFFFFFF AND SUB PUSH2 0x1555 JUMPI PUSH1 0x40 MLOAD PUSH32 0x8C379A000000000000000000000000000000000000000000000000000000000 DUP2 MSTORE PUSH1 0x4 ADD PUSH2 0x154C SWAP1 PUSH2 0x2340 JUMP JUMPDEST PUSH1 0x40 MLOAD DUP1 SWAP2 SUB SWAP1 REVERT JUMPDEST DUP1 PUSH1 0x1 PUSH1 0x0 DUP6 PUSH20 0xFFFFFFFFFFFFFFFFFFFFFFFFFFFFFFFFFFFFFFFF AND PUSH20 0xFFFFFFFFFFFFFFFFFFFFFFFFFFFFFFFFFFFFFFFF AND DUP2 MSTORE PUSH1 0x20 ADD SWAP1 DUP2 MSTORE PUSH1 0x20 ADD PUSH1 0x0 KECCAK256 PUSH1 0x0 DUP5 PUSH20 0xFFFFFFFFFFFFFFFFFFFFFFFFFFFFFFFFFFFFFFFF AND PUSH20 0xFFFFFFFFFFFFFFFFFFFFFFFFFFFFFFFFFFFFFFFF AND DUP2 MSTORE PUSH1 0x20 ADD SWAP1 DUP2 MSTORE PUSH1 0x20 ADD PUSH1 0x0 KECCAK256 DUP2 SWAP1 SSTORE POP DUP2 PUSH20 0xFFFFFFFFFFFFFFFFFFFFFFFFFFFFFFFFFFFFFFFF AND DUP4 PUSH20 0xFFFFFFFFFFFFFFFFFFFFFFFFFFFFFFFFFFFFFFFF AND PUSH32 0x8C5BE1E5EBEC7D5BD14F71427D1E84F3DD0314C0F7B2291E5B200AC8C7C3B925 DUP4 PUSH1 0x40 MLOAD PUSH2 0x1633 SWAP2 SWAP1 PUSH2 0x183D JUMP JUMPDEST PUSH1 0x40 MLOAD DUP1 SWAP2 SUB SWAP1 LOG3 POP POP POP JUMP JUMPDEST PUSH1 0x0 DUP2 MLOAD SWAP1 POP SWAP2 SWAP1 POP JUMP JUMPDEST PUSH1 0x0 DUP3 DUP3 MSTORE PUSH1 0x20 DUP3 ADD SWAP1 POP SWAP3 SWAP2 POP POP JUMP JUMPDEST PUSH1 0x0 JUMPDEST DUP4 DUP2 LT ISZERO PUSH2 0x167A JUMPI DUP1 DUP3 ADD MLOAD DUP2 DUP5 ADD MSTORE PUSH1 0x20 DUP2 ADD SWAP1 POP PUSH2 0x165F JUMP JUMPDEST PUSH1 0x0 DUP5 DUP5 ADD MSTORE POP POP POP POP JUMP JUMPDEST PUSH1 0x0 PUSH1 0x1F NOT PUSH1 0x1F DUP4 ADD AND SWAP1 POP SWAP2 SWAP1 POP JUMP JUMPDEST PUSH1 0x0 PUSH2 0x16A2 DUP3 PUSH2 0x1640 JUMP JUMPDEST PUSH2 0x16AC DUP2 DUP6 PUSH2 0x164B JUMP JUMPDEST SWAP4 POP PUSH2 0x16BC DUP2 DUP6 PUSH1 0x20 DUP7 ADD PUSH2 0x165C JUMP JUMPDEST PUSH2 0x16C5 DUP2 PUSH2 0x1686 JUMP JUMPDEST DUP5 ADD SWAP2 POP POP SWAP3 SWAP2 POP POP JUMP JUMPDEST PUSH1 0x0 PUSH1 0x20 DUP3 ADD SWAP1 POP DUP2 DUP2 SUB PUSH1 0x0 DUP4 ADD MSTORE PUSH2 0x16EA DUP2 DUP5 PUSH2 0x1697 JUMP JUMPDEST SWAP1 POP SWAP3 SWAP2 POP POP JUMP JUMPDEST PUSH1 0x0 DUP1 REVERT JUMPDEST PUSH1 0x0 PUSH20 0xFFFFFFFFFFFFFFFFFFFFFFFFFFFFFFFFFFFFFFFF DUP3 AND SWAP1 POP SWAP2 SWAP1 POP JUMP JUMPDEST PUSH1 0x0 PUSH2 0x1722 DUP3 PUSH2 0x16F7 JUMP JUMPDEST SWAP1 POP SWAP2 SWAP1 POP JUMP JUMPDEST PUSH2 0x1732 DUP2 PUSH2 0x1717 JUMP JUMPDEST DUP2 EQ PUSH2 0x173D JUMPI PUSH1 0x0 DUP1 REVERT JUMPDEST POP JUMP JUMPDEST PUSH1 0x0 DUP2 CALLDATALOAD SWAP1 POP PUSH2 0x174F DUP2 PUSH2 0x1729 JUMP JUMPDEST SWAP3 SWAP2 POP POP JUMP JUMPDEST PUSH1 0x0 DUP2 SWAP1 POP SWAP2 SWAP1 POP JUMP JUMPDEST PUSH2 0x1768 DUP2 PUSH2 0x1755 JUMP JUMPDEST DUP2 EQ PUSH2 0x1773 JUMPI PUSH1 0x0 DUP1 REVERT JUMPDEST POP JUMP JUMPDEST PUSH1 0x0 DUP2 CALLDATALOAD SWAP1 POP PUSH2 0x1785 DUP2 PUSH2 0x175F JUMP JUMPDEST SWAP3 SWAP2 POP POP JUMP JUMPDEST PUSH1 0x0 DUP1 PUSH1 0x40 DUP4 DUP6 SUB SLT ISZERO PUSH2 0x17A2 JUMPI PUSH2 0x17A1 PUSH2 0x16F2 JUMP JUMPDEST JUMPDEST PUSH1 0x0 PUSH2 0x17B0 DUP6 DUP3 DUP7 ADD PUSH2 0x1740 JUMP JUMPDEST SWAP3 POP POP PUSH1 0x20 PUSH2 0x17C1 DUP6 DUP3 DUP7 ADD PUSH2 0x1776 JUMP JUMPDEST SWAP2 POP POP SWAP3 POP SWAP3 SWAP1 POP JUMP JUMPDEST PUSH1 0x0 DUP2 ISZERO ISZERO SWAP1 POP SWAP2 SWAP1 POP JUMP JUMPDEST PUSH2 0x17E0 DUP2 PUSH2 0x17CB JUMP JUMPDEST DUP3 MSTORE POP POP JUMP JUMPDEST PUSH1 0x0 PUSH1 0x20 DUP3 ADD SWAP1 POP PUSH2 0x17FB PUSH1 0x0 DUP4 ADD DUP5 PUSH2 0x17D7 JUMP JUMPDEST SWAP3 SWAP2 POP POP JUMP JUMPDEST PUSH1 0x0 PUSH1 0x20 DUP3 DUP5 SUB SLT ISZERO PUSH2 0x1817 JUMPI PUSH2 0x1816 PUSH2 0x16F2 JUMP JUMPDEST JUMPDEST PUSH1 0x0 PUSH2 0x1825 DUP5 DUP3 DUP6 ADD PUSH2 0x1776 JUMP JUMPDEST SWAP2 POP POP SWAP3 SWAP2 POP POP JUMP JUMPDEST PUSH2 0x1837 DUP2 PUSH2 0x1755 JUMP JUMPDEST DUP3 MSTORE POP POP JUMP JUMPDEST PUSH1 0x0 PUSH1 0x20 DUP3 ADD SWAP1 POP PUSH2 0x1852 PUSH1 0x0 DUP4 ADD DUP5 PUSH2 0x182E JUMP JUMPDEST SWAP3 SWAP2 POP POP JUMP JUMPDEST PUSH1 0x0 DUP1 PUSH1 0x0 PUSH1 0x60 DUP5 DUP7 SUB SLT ISZERO PUSH2 0x1871 JUMPI PUSH2 0x1870 PUSH2 0x16F2 JUMP JUMPDEST JUMPDEST PUSH1 0x0 PUSH2 0x187F DUP7 DUP3 DUP8 ADD PUSH2 0x1740 JUMP JUMPDEST SWAP4 POP POP PUSH1 0x20 PUSH2 0x1890 DUP7 DUP3 DUP8 ADD PUSH2 0x1740 JUMP JUMPDEST SWAP3 POP POP PUSH1 0x40 PUSH2 0x18A1 DUP7 DUP3 DUP8 ADD PUSH2 0x1776 JUMP JUMPDEST SWAP2 POP POP SWAP3 POP SWAP3 POP SWAP3 JUMP JUMPDEST PUSH1 0x0 PUSH1 0xFF DUP3 AND SWAP1 POP SWAP2 SWAP1 POP JUMP JUMPDEST PUSH2 0x18C1 DUP2 PUSH2 0x18AB JUMP JUMPDEST DUP3 MSTORE POP POP JUMP JUMPDEST PUSH1 0x0 PUSH1 0x20 DUP3 ADD SWAP1 POP PUSH2 0x18DC PUSH1 0x0 DUP4 ADD DUP5 PUSH2 0x18B8 JUMP JUMPDEST SWAP3 SWAP2 POP POP JUMP JUMPDEST PUSH1 0x0 PUSH1 0x20 DUP3 DUP5 SUB SLT ISZERO PUSH2 0x18F8 JUMPI PUSH2 0x18F7 PUSH2 0x16F2 JUMP JUMPDEST JUMPDEST PUSH1 0x0 PUSH2 0x1906 DUP5 DUP3 DUP6 ADD PUSH2 0x1740 JUMP JUMPDEST SWAP2 POP POP SWAP3 SWAP2 POP POP JUMP JUMPDEST PUSH2 0x1918 DUP2 PUSH2 0x1717 JUMP JUMPDEST DUP3 MSTORE POP POP JUMP JUMPDEST PUSH1 0x0 PUSH1 0x20 DUP3 ADD SWAP1 POP PUSH2 0x1933 PUSH1 0x0 DUP4 ADD DUP5 PUSH2 0x190F JUMP JUMPDEST SWAP3 SWAP2 POP POP JUMP JUMPDEST PUSH1 0x0 DUP1 PUSH1 0x40 DUP4 DUP6 SUB SLT ISZERO PUSH2 0x1950 JUMPI PUSH2 0x194F PUSH2 0x16F2 JUMP JUMPDEST JUMPDEST PUSH1 0x0 PUSH2 0x195E DUP6 DUP3 DUP7 ADD PUSH2 0x1740 JUMP JUMPDEST SWAP3 POP POP PUSH1 0x20 PUSH2 0x196F DUP6 DUP3 DUP7 ADD PUSH2 0x1740 JUMP JUMPDEST SWAP2 POP POP SWAP3 POP SWAP3 SWAP1 POP JUMP JUMPDEST PUSH32 0x4E487B7100000000000000000000000000000000000000000000000000000000 PUSH1 0x0 MSTORE PUSH1 0x22 PUSH1 0x4 MSTORE PUSH1 0x24 PUSH1 0x0 REVERT JUMPDEST PUSH1 0x0 PUSH1 0x2 DUP3 DIV SWAP1 POP PUSH1 0x1 DUP3 AND DUP1 PUSH2 0x19C0 JUMPI PUSH1 0x7F DUP3 AND SWAP2 POP JUMPDEST PUSH1 0x20 DUP3 LT DUP2 SUB PUSH2 0x19D3 JUMPI PUSH2 0x19D2 PUSH2 0x1979 JUMP JUMPDEST JUMPDEST POP SWAP2 SWAP1 POP JUMP JUMPDEST PUSH32 0x417070726F76616C2066756E6374696F6E616C6974792064697361626C656400 PUSH1 0x0 DUP3 ADD MSTORE POP JUMP JUMPDEST PUSH1 0x0 PUSH2 0x1A0F PUSH1 0x1F DUP4 PUSH2 0x164B JUMP JUMPDEST SWAP2 POP PUSH2 0x1A1A DUP3 PUSH2 0x19D9 JUMP JUMPDEST PUSH1 0x20 DUP3 ADD SWAP1 POP SWAP2 SWAP1 POP JUMP JUMPDEST PUSH1 0x0 PUSH1 0x20 DUP3 ADD SWAP1 POP DUP2 DUP2 SUB PUSH1 0x0 DUP4 ADD MSTORE PUSH2 0x1A3E DUP2 PUSH2 0x1A02 JUMP JUMPDEST SWAP1 POP SWAP2 SWAP1 POP JUMP JUMPDEST PUSH32 0x496E73756666696369656E7420636F6E74726163742062616C616E6365000000 PUSH1 0x0 DUP3 ADD MSTORE POP JUMP JUMPDEST PUSH1 0x0 PUSH2 0x1A7B PUSH1 0x1D DUP4 PUSH2 0x164B JUMP JUMPDEST SWAP2 POP PUSH2 0x1A86 DUP3 PUSH2 0x1A45 JUMP JUMPDEST PUSH1 0x20 DUP3 ADD SWAP1 POP SWAP2 SWAP1 POP JUMP JUMPDEST PUSH1 0x0 PUSH1 0x20 DUP3 ADD SWAP1 POP DUP2 DUP2 SUB PUSH1 0x0 DUP4 ADD MSTORE PUSH2 0x1AAA DUP2 PUSH2 0x1A6E JUMP JUMPDEST SWAP1 POP SWAP2 SWAP1 POP JUMP JUMPDEST PUSH32 0x4E756D626572206F6620746F6B656E7320746F20627579206D75737420626520 PUSH1 0x0 DUP3 ADD MSTORE PUSH32 0x67726561746572207468616E207A65726F000000000000000000000000000000 PUSH1 0x20 DUP3 ADD MSTORE POP JUMP JUMPDEST PUSH1 0x0 PUSH2 0x1B0D PUSH1 0x31 DUP4 PUSH2 0x164B JUMP JUMPDEST SWAP2 POP PUSH2 0x1B18 DUP3 PUSH2 0x1AB1 JUMP JUMPDEST PUSH1 0x40 DUP3 ADD SWAP1 POP SWAP2 SWAP1 POP JUMP JUMPDEST PUSH1 0x0 PUSH1 0x20 DUP3 ADD SWAP1 POP DUP2 DUP2 SUB PUSH1 0x0 DUP4 ADD MSTORE PUSH2 0x1B3C DUP2 PUSH2 0x1B00 JUMP JUMPDEST SWAP1 POP SWAP2 SWAP1 POP JUMP JUMPDEST PUSH32 0x496E73756666696369656E742065746865722073656E74000000000000000000 PUSH1 0x0 DUP3 ADD MSTORE POP JUMP JUMPDEST PUSH1 0x0 PUSH2 0x1B79 PUSH1 0x17 DUP4 PUSH2 0x164B JUMP JUMPDEST SWAP2 POP PUSH2 0x1B84 DUP3 PUSH2 0x1B43 JUMP JUMPDEST PUSH1 0x20 DUP3 ADD SWAP1 POP SWAP2 SWAP1 POP JUMP JUMPDEST PUSH1 0x0 PUSH1 0x20 DUP3 ADD SWAP1 POP DUP2 DUP2 SUB PUSH1 0x0 DUP4 ADD MSTORE PUSH2 0x1BA8 DUP2 PUSH2 0x1B6C JUMP JUMPDEST SWAP1 POP SWAP2 SWAP1 POP JUMP JUMPDEST PUSH32 0x4E487B7100000000000000000000000000000000000000000000000000000000 PUSH1 0x0 MSTORE PUSH1 0x11 PUSH1 0x4 MSTORE PUSH1 0x24 PUSH1 0x0 REVERT JUMPDEST PUSH1 0x0 PUSH2 0x1BE9 DUP3 PUSH2 0x1755 JUMP JUMPDEST SWAP2 POP PUSH2 0x1BF4 DUP4 PUSH2 0x1755 JUMP JUMPDEST SWAP3 POP DUP3 DUP3 MUL PUSH2 0x1C02 DUP2 PUSH2 0x1755 JUMP JUMPDEST SWAP2 POP DUP3 DUP3 DIV DUP5 EQ DUP4 ISZERO OR PUSH2 0x1C19 JUMPI PUSH2 0x1C18 PUSH2 0x1BAF JUMP JUMPDEST JUMPDEST POP SWAP3 SWAP2 POP POP JUMP JUMPDEST PUSH32 0x496E73756666696369656E7420746F6B656E2062616C616E6365000000000000 PUSH1 0x0 DUP3 ADD MSTORE POP JUMP JUMPDEST PUSH1 0x0 PUSH2 0x1C56 PUSH1 0x1A DUP4 PUSH2 0x164B JUMP JUMPDEST SWAP2 POP PUSH2 0x1C61 DUP3 PUSH2 0x1C20 JUMP JUMPDEST PUSH1 0x20 DUP3 ADD SWAP1 POP SWAP2 SWAP1 POP JUMP JUMPDEST PUSH1 0x0 PUSH1 0x20 DUP3 ADD SWAP1 POP DUP2 DUP2 SUB PUSH1 0x0 DUP4 ADD MSTORE PUSH2 0x1C85 DUP2 PUSH2 0x1C49 JUMP JUMPDEST SWAP1 POP SWAP2 SWAP1 POP JUMP JUMPDEST PUSH32 0x416D6F756E74206D7573742062652067726561746572207468616E207A65726F PUSH1 0x0 DUP3 ADD MSTORE POP JUMP JUMPDEST PUSH1 0x0 PUSH2 0x1CC2 PUSH1 0x20 DUP4 PUSH2 0x164B JUMP JUMPDEST SWAP2 POP PUSH2 0x1CCD DUP3 PUSH2 0x1C8C JUMP JUMPDEST PUSH1 0x20 DUP3 ADD SWAP1 POP SWAP2 SWAP1 POP JUMP JUMPDEST PUSH1 0x0 PUSH1 0x20 DUP3 ADD SWAP1 POP DUP2 DUP2 SUB PUSH1 0x0 DUP4 ADD MSTORE PUSH2 0x1CF1 DUP2 PUSH2 0x1CB5 JUMP JUMPDEST SWAP1 POP SWAP2 SWAP1 POP JUMP JUMPDEST PUSH32 0x4F776E61626C653A206E6577206F776E657220697320746865207A65726F2061 PUSH1 0x0 DUP3 ADD MSTORE PUSH32 0x6464726573730000000000000000000000000000000000000000000000000000 PUSH1 0x20 DUP3 ADD MSTORE POP JUMP JUMPDEST PUSH1 0x0 PUSH2 0x1D54 PUSH1 0x26 DUP4 PUSH2 0x164B JUMP JUMPDEST SWAP2 POP PUSH2 0x1D5F DUP3 PUSH2 0x1CF8 JUMP JUMPDEST PUSH1 0x40 DUP3 ADD SWAP1 POP SWAP2 SWAP1 POP JUMP JUMPDEST PUSH1 0x0 PUSH1 0x20 DUP3 ADD SWAP1 POP DUP2 DUP2 SUB PUSH1 0x0 DUP4 ADD MSTORE PUSH2 0x1D83 DUP2 PUSH2 0x1D47 JUMP JUMPDEST SWAP1 POP SWAP2 SWAP1 POP JUMP JUMPDEST PUSH32 0x45524332303A206D696E7420746F20746865207A65726F206164647265737300 PUSH1 0x0 DUP3 ADD MSTORE POP JUMP JUMPDEST PUSH1 0x0 PUSH2 0x1DC0 PUSH1 0x1F DUP4 PUSH2 0x164B JUMP JUMPDEST SWAP2 POP PUSH2 0x1DCB DUP3 PUSH2 0x1D8A JUMP JUMPDEST PUSH1 0x20 DUP3 ADD SWAP1 POP SWAP2 SWAP1 POP JUMP JUMPDEST PUSH1 0x0 PUSH1 0x20 DUP3 ADD SWAP1 POP DUP2 DUP2 SUB PUSH1 0x0 DUP4 ADD MSTORE PUSH2 0x1DEF DUP2 PUSH2 0x1DB3 JUMP JUMPDEST SWAP1 POP SWAP2 SWAP1 POP JUMP JUMPDEST PUSH1 0x0 PUSH2 0x1E01 DUP3 PUSH2 0x1755 JUMP JUMPDEST SWAP2 POP PUSH2 0x1E0C DUP4 PUSH2 0x1755 JUMP JUMPDEST SWAP3 POP DUP3 DUP3 ADD SWAP1 POP DUP1 DUP3 GT ISZERO PUSH2 0x1E24 JUMPI PUSH2 0x1E23 PUSH2 0x1BAF JUMP JUMPDEST JUMPDEST SWAP3 SWAP2 POP POP JUMP JUMPDEST PUSH32 0x4F776E61626C653A2063616C6C6572206973206E6F7420746865206F776E6572 PUSH1 0x0 DUP3 ADD MSTORE POP JUMP JUMPDEST PUSH1 0x0 PUSH2 0x1E60 PUSH1 0x20 DUP4 PUSH2 0x164B JUMP JUMPDEST SWAP2 POP PUSH2 0x1E6B DUP3 PUSH2 0x1E2A JUMP JUMPDEST PUSH1 0x20 DUP3 ADD SWAP1 POP SWAP2 SWAP1 POP JUMP JUMPDEST PUSH1 0x0 PUSH1 0x20 DUP3 ADD SWAP1 POP DUP2 DUP2 SUB PUSH1 0x0 DUP4 ADD MSTORE PUSH2 0x1E8F DUP2 PUSH2 0x1E53 JUMP JUMPDEST SWAP1 POP SWAP2 SWAP1 POP JUMP JUMPDEST PUSH32 0x45524332303A206275726E2066726F6D20746865207A65726F20616464726573 PUSH1 0x0 DUP3 ADD MSTORE PUSH32 0x7300000000000000000000000000000000000000000000000000000000000000 PUSH1 0x20 DUP3 ADD MSTORE POP JUMP JUMPDEST PUSH1 0x0 PUSH2 0x1EF2 PUSH1 0x21 DUP4 PUSH2 0x164B JUMP JUMPDEST SWAP2 POP PUSH2 0x1EFD DUP3 PUSH2 0x1E96 JUMP JUMPDEST PUSH1 0x40 DUP3 ADD SWAP1 POP SWAP2 SWAP1 POP JUMP JUMPDEST PUSH1 0x0 PUSH1 0x20 DUP3 ADD SWAP1 POP DUP2 DUP2 SUB PUSH1 0x0 DUP4 ADD MSTORE PUSH2 0x1F21 DUP2 PUSH2 0x1EE5 JUMP JUMPDEST SWAP1 POP SWAP2 SWAP1 POP JUMP JUMPDEST PUSH32 0x45524332303A206275726E20616D6F756E7420657863656564732062616C616E PUSH1 0x0 DUP3 ADD MSTORE PUSH32 0x6365000000000000000000000000000000000000000000000000000000000000 PUSH1 0x20 DUP3 ADD MSTORE POP JUMP JUMPDEST PUSH1 0x0 PUSH2 0x1F84 PUSH1 0x22 DUP4 PUSH2 0x164B JUMP JUMPDEST SWAP2 POP PUSH2 0x1F8F DUP3 PUSH2 0x1F28 JUMP JUMPDEST PUSH1 0x40 DUP3 ADD SWAP1 POP SWAP2 SWAP1 POP JUMP JUMPDEST PUSH1 0x0 PUSH1 0x20 DUP3 ADD SWAP1 POP DUP2 DUP2 SUB PUSH1 0x0 DUP4 ADD MSTORE PUSH2 0x1FB3 DUP2 PUSH2 0x1F77 JUMP JUMPDEST SWAP1 POP SWAP2 SWAP1 POP JUMP JUMPDEST PUSH32 0x4E487B7100000000000000000000000000000000000000000000000000000000 PUSH1 0x0 MSTORE PUSH1 0x12 PUSH1 0x4 MSTORE PUSH1 0x24 PUSH1 0x0 REVERT JUMPDEST PUSH1 0x0 PUSH2 0x1FF4 DUP3 PUSH2 0x1755 JUMP JUMPDEST SWAP2 POP PUSH2 0x1FFF DUP4 PUSH2 0x1755 JUMP JUMPDEST SWAP3 POP DUP3 PUSH2 0x200F JUMPI PUSH2 0x200E PUSH2 0x1FBA JUMP JUMPDEST JUMPDEST DUP3 DUP3 DIV SWAP1 POP SWAP3 SWAP2 POP POP JUMP JUMPDEST PUSH32 0x45524332303A20696E73756666696369656E7420616C6C6F77616E6365000000 PUSH1 0x0 DUP3 ADD MSTORE POP JUMP JUMPDEST PUSH1 0x0 PUSH2 0x2050 PUSH1 0x1D DUP4 PUSH2 0x164B JUMP JUMPDEST SWAP2 POP PUSH2 0x205B DUP3 PUSH2 0x201A JUMP JUMPDEST PUSH1 0x20 DUP3 ADD SWAP1 POP SWAP2 SWAP1 POP JUMP JUMPDEST PUSH1 0x0 PUSH1 0x20 DUP3 ADD SWAP1 POP DUP2 DUP2 SUB PUSH1 0x0 DUP4 ADD MSTORE PUSH2 0x207F DUP2 PUSH2 0x2043 JUMP JUMPDEST SWAP1 POP SWAP2 SWAP1 POP JUMP JUMPDEST PUSH32 0x45524332303A207472616E736665722066726F6D20746865207A65726F206164 PUSH1 0x0 DUP3 ADD MSTORE PUSH32 0x6472657373000000000000000000000000000000000000000000000000000000 PUSH1 0x20 DUP3 ADD MSTORE POP JUMP JUMPDEST PUSH1 0x0 PUSH2 0x20E2 PUSH1 0x25 DUP4 PUSH2 0x164B JUMP JUMPDEST SWAP2 POP PUSH2 0x20ED DUP3 PUSH2 0x2086 JUMP JUMPDEST PUSH1 0x40 DUP3 ADD SWAP1 POP SWAP2 SWAP1 POP JUMP JUMPDEST PUSH1 0x0 PUSH1 0x20 DUP3 ADD SWAP1 POP DUP2 DUP2 SUB PUSH1 0x0 DUP4 ADD MSTORE PUSH2 0x2111 DUP2 PUSH2 0x20D5 JUMP JUMPDEST SWAP1 POP SWAP2 SWAP1 POP JUMP JUMPDEST PUSH32 0x45524332303A207472616E7366657220746F20746865207A65726F2061646472 PUSH1 0x0 DUP3 ADD MSTORE PUSH32 0x6573730000000000000000000000000000000000000000000000000000000000 PUSH1 0x20 DUP3 ADD MSTORE POP JUMP JUMPDEST PUSH1 0x0 PUSH2 0x2174 PUSH1 0x23 DUP4 PUSH2 0x164B JUMP JUMPDEST SWAP2 POP PUSH2 0x217F DUP3 PUSH2 0x2118 JUMP JUMPDEST PUSH1 0x40 DUP3 ADD SWAP1 POP SWAP2 SWAP1 POP JUMP JUMPDEST PUSH1 0x0 PUSH1 0x20 DUP3 ADD SWAP1 POP DUP2 DUP2 SUB PUSH1 0x0 DUP4 ADD MSTORE PUSH2 0x21A3 DUP2 PUSH2 0x2167 JUMP JUMPDEST SWAP1 POP SWAP2 SWAP1 POP JUMP JUMPDEST PUSH32 0x45524332303A207472616E7366657220616D6F756E7420657863656564732062 PUSH1 0x0 DUP3 ADD MSTORE PUSH32 0x616C616E63650000000000000000000000000000000000000000000000000000 PUSH1 0x20 DUP3 ADD MSTORE POP JUMP JUMPDEST PUSH1 0x0 PUSH2 0x2206 PUSH1 0x26 DUP4 PUSH2 0x164B JUMP JUMPDEST SWAP2 POP PUSH2 0x2211 DUP3 PUSH2 0x21AA JUMP JUMPDEST PUSH1 0x40 DUP3 ADD SWAP1 POP SWAP2 SWAP1 POP JUMP JUMPDEST PUSH1 0x0 PUSH1 0x20 DUP3 ADD SWAP1 POP DUP2 DUP2 SUB PUSH1 0x0 DUP4 ADD MSTORE PUSH2 0x2235 DUP2 PUSH2 0x21F9 JUMP JUMPDEST SWAP1 POP SWAP2 SWAP1 POP JUMP JUMPDEST PUSH32 0x45524332303A20617070726F76652066726F6D20746865207A65726F20616464 PUSH1 0x0 DUP3 ADD MSTORE PUSH32 0x7265737300000000000000000000000000000000000000000000000000000000 PUSH1 0x20 DUP3 ADD MSTORE POP JUMP JUMPDEST PUSH1 0x0 PUSH2 0x2298 PUSH1 0x24 DUP4 PUSH2 0x164B JUMP JUMPDEST SWAP2 POP PUSH2 0x22A3 DUP3 PUSH2 0x223C JUMP JUMPDEST PUSH1 0x40 DUP3 ADD SWAP1 POP SWAP2 SWAP1 POP JUMP JUMPDEST PUSH1 0x0 PUSH1 0x20 DUP3 ADD SWAP1 POP DUP2 DUP2 SUB PUSH1 0x0 DUP4 ADD MSTORE PUSH2 0x22C7 DUP2 PUSH2 0x228B JUMP JUMPDEST SWAP1 POP SWAP2 SWAP1 POP JUMP JUMPDEST PUSH32 0x45524332303A20617070726F766520746F20746865207A65726F206164647265 PUSH1 0x0 DUP3 ADD MSTORE PUSH32 0x7373000000000000000000000000000000000000000000000000000000000000 PUSH1 0x20 DUP3 ADD MSTORE POP JUMP JUMPDEST PUSH1 0x0 PUSH2 0x232A PUSH1 0x22 DUP4 PUSH2 0x164B JUMP JUMPDEST SWAP2 POP PUSH2 0x2335 DUP3 PUSH2 0x22CE JUMP JUMPDEST PUSH1 0x40 DUP3 ADD SWAP1 POP SWAP2 SWAP1 POP JUMP JUMPDEST PUSH1 0x0 PUSH1 0x20 DUP3 ADD SWAP1 POP DUP2 DUP2 SUB PUSH1 0x0 DUP4 ADD MSTORE PUSH2 0x2359 DUP2 PUSH2 0x231D JUMP JUMPDEST SWAP1 POP SWAP2 SWAP1 POP JUMP INVALID LOG2 PUSH5 0x6970667358 0x22 SLT KECCAK256 0xC1 0xAB CREATE2 EQ 0xD5 0xC0 0xBE SWAP13 0xDB SWAP13 0xFC PUSH15 0xCC2B318CCC927E397C680A06BAE71B 0xE8 ORIGIN PUSH21 0x434464736F6C634300081200330000000000000000 "
				},
				"gasEstimates": {
					"creation": {
						"codeDepositCost": "1822000",
						"executionCost": "infinite",
						"totalCost": "infinite"
					},
					"external": {
						"allowance(address,address)": "infinite",
						"approve(address,uint256)": "963",
						"balanceOf(address)": "2908",
						"burn(uint256)": "infinite",
						"burnFrom(address,uint256)": "infinite",
						"buyTokens(uint256)": "infinite",
						"decimals()": "366",
						"decreaseAllowance(address,uint256)": "983",
						"increaseAllowance(address,uint256)": "1006",
						"mint(address,uint256)": "infinite",
						"name()": "infinite",
						"owner()": "2544",
						"renounceOwnership()": "30487",
						"sellTokens(uint256)": "infinite",
						"setTokenPrice(uint256)": "24807",
						"symbol()": "infinite",
						"tokenPrice()": "2562",
						"totalSupply()": "2527",
						"transfer(address,uint256)": "infinite",
						"transferFrom(address,address,uint256)": "infinite",
						"transferOwnership(address)": "30876",
						"withdrawFunds(uint256)": "infinite",
						"withdrawTokens(uint256)": "infinite"
					},
					"internal": {
						"_mint(address,uint256)": "infinite",
						"_transfer(address,address,uint256)": "infinite"
					}
				},
				"methodIdentifiers": {
					"allowance(address,address)": "dd62ed3e",
					"approve(address,uint256)": "095ea7b3",
					"balanceOf(address)": "70a08231",
					"burn(uint256)": "42966c68",
					"burnFrom(address,uint256)": "79cc6790",
					"buyTokens(uint256)": "3610724e",
					"decimals()": "313ce567",
					"decreaseAllowance(address,uint256)": "a457c2d7",
					"increaseAllowance(address,uint256)": "39509351",
					"mint(address,uint256)": "40c10f19",
					"name()": "06fdde03",
					"owner()": "8da5cb5b",
					"renounceOwnership()": "715018a6",
					"sellTokens(uint256)": "6c11bcd3",
					"setTokenPrice(uint256)": "6a61e5fc",
					"symbol()": "95d89b41",
					"tokenPrice()": "7ff9b596",
					"totalSupply()": "18160ddd",
					"transfer(address,uint256)": "a9059cbb",
					"transferFrom(address,address,uint256)": "23b872dd",
					"transferOwnership(address)": "f2fde38b",
					"withdrawFunds(uint256)": "155dd5ee",
					"withdrawTokens(uint256)": "315a095d"
				}
			},
			"storageLayout": {
				"storage": [
					{
						"astId": 128,
						"contract": "Final Smart Contract/Token.sol:DeSearch",
						"label": "_balances",
						"offset": 0,
						"slot": "0",
						"type": "t_mapping(t_address,t_uint256)"
					},
					{
						"astId": 134,
						"contract": "Final Smart Contract/Token.sol:DeSearch",
						"label": "_allowances",
						"offset": 0,
						"slot": "1",
						"type": "t_mapping(t_address,t_mapping(t_address,t_uint256))"
					},
					{
						"astId": 136,
						"contract": "Final Smart Contract/Token.sol:DeSearch",
						"label": "_totalSupply",
						"offset": 0,
						"slot": "2",
						"type": "t_uint256"
					},
					{
						"astId": 138,
						"contract": "Final Smart Contract/Token.sol:DeSearch",
						"label": "_name",
						"offset": 0,
						"slot": "3",
						"type": "t_string_storage"
					},
					{
						"astId": 140,
						"contract": "Final Smart Contract/Token.sol:DeSearch",
						"label": "_symbol",
						"offset": 0,
						"slot": "4",
						"type": "t_string_storage"
					},
					{
						"astId": 7,
						"contract": "Final Smart Contract/Token.sol:DeSearch",
						"label": "_owner",
						"offset": 0,
						"slot": "5",
						"type": "t_address"
					},
					{
						"astId": 1520,
						"contract": "Final Smart Contract/Token.sol:DeSearch",
						"label": "tokenPrice",
						"offset": 0,
						"slot": "6",
						"type": "t_uint256"
					}
				],
				"types": {
					"t_address": {
						"encoding": "inplace",
						"label": "address",
						"numberOfBytes": "20"
					},
					"t_mapping(t_address,t_mapping(t_address,t_uint256))": {
						"encoding": "mapping",
						"key": "t_address",
						"label": "mapping(address => mapping(address => uint256))",
						"numberOfBytes": "32",
						"value": "t_mapping(t_address,t_uint256)"
					},
					"t_mapping(t_address,t_uint256)": {
						"encoding": "mapping",
						"key": "t_address",
						"label": "mapping(address => uint256)",
						"numberOfBytes": "32",
						"value": "t_uint256"
					},
					"t_string_storage": {
						"encoding": "bytes",
						"label": "string",
						"numberOfBytes": "32"
					},
					"t_uint256": {
						"encoding": "inplace",
						"label": "uint256",
						"numberOfBytes": "32"
					}
				}
			},
			"userdoc": {
				"kind": "user",
				"methods": {},
				"version": 1
			}
		}
	}
}