{
	"Final Smart Contract/Token_flattened.sol": {
		"DeSearch": {
			"abi": [
				{
					"inputs": [
						{
							"internalType": "uint256",
							"name": "initialSupply",
							"type": "uint256"
						},
						{
							"internalType": "uint256",
							"name": "initialTokenPrice",
							"type": "uint256"
						}
					],
					"stateMutability": "nonpayable",
					"type": "constructor"
				},
				{
					"anonymous": false,
					"inputs": [
						{
							"indexed": true,
							"internalType": "address",
							"name": "owner",
							"type": "address"
						},
						{
							"indexed": true,
							"internalType": "address",
							"name": "spender",
							"type": "address"
						},
						{
							"indexed": false,
							"internalType": "uint256",
							"name": "value",
							"type": "uint256"
						}
					],
					"name": "Approval",
					"type": "event"
				},
				{
					"anonymous": false,
					"inputs": [
						{
							"indexed": true,
							"internalType": "address",
							"name": "previousOwner",
							"type": "address"
						},
						{
							"indexed": true,
							"internalType": "address",
							"name": "newOwner",
							"type": "address"
						}
					],
					"name": "OwnershipTransferred",
					"type": "event"
				},
				{
					"anonymous": false,
					"inputs": [
						{
							"indexed": true,
							"internalType": "address",
							"name": "from",
							"type": "address"
						},
						{
							"indexed": true,
							"internalType": "address",
							"name": "to",
							"type": "address"
						},
						{
							"indexed": false,
							"internalType": "uint256",
							"name": "value",
							"type": "uint256"
						}
					],
					"name": "Transfer",
					"type": "event"
				},
				{
					"inputs": [
						{
							"internalType": "address",
							"name": "owner",
							"type": "address"
						},
						{
							"internalType": "address",
							"name": "spender",
							"type": "address"
						}
					],
					"name": "allowance",
					"outputs": [
						{
							"internalType": "uint256",
							"name": "",
							"type": "uint256"
						}
					],
					"stateMutability": "view",
					"type": "function"
				},
				{
					"inputs": [
						{
							"internalType": "address",
							"name": "spender",
							"type": "address"
						},
						{
							"internalType": "uint256",
							"name": "amount",
							"type": "uint256"
						}
					],
					"name": "approve",
					"outputs": [
						{
							"internalType": "bool",
							"name": "",
							"type": "bool"
						}
					],
					"stateMutability": "nonpayable",
					"type": "function"
				},
				{
					"inputs": [
						{
							"internalType": "address",
							"name": "account",
							"type": "address"
						}
					],
					"name": "balanceOf",
					"outputs": [
						{
							"internalType": "uint256",
							"name": "",
							"type": "uint256"
						}
					],
					"stateMutability": "view",
					"type": "function"
				},
				{
					"inputs": [
						{
							"internalType": "uint256",
							"name": "amount",
							"type": "uint256"
						}
					],
					"name": "burn",
					"outputs": [],
					"stateMutability": "nonpayable",
					"type": "function"
				},
				{
					"inputs": [
						{
							"internalType": "address",
							"name": "account",
							"type": "address"
						},
						{
							"internalType": "uint256",
							"name": "amount",
							"type": "uint256"
						}
					],
					"name": "burnFrom",
					"outputs": [],
					"stateMutability": "nonpayable",
					"type": "function"
				},
				{
					"inputs": [],
					"name": "decimals",
					"outputs": [
						{
							"internalType": "uint8",
							"name": "",
							"type": "uint8"
						}
					],
					"stateMutability": "view",
					"type": "function"
				},
				{
					"inputs": [
						{
							"internalType": "address",
							"name": "spender",
							"type": "address"
						},
						{
							"internalType": "uint256",
							"name": "subtractedValue",
							"type": "uint256"
						}
					],
					"name": "decreaseAllowance",
					"outputs": [
						{
							"internalType": "bool",
							"name": "",
							"type": "bool"
						}
					],
					"stateMutability": "nonpayable",
					"type": "function"
				},
				{
					"inputs": [
						{
							"internalType": "address",
							"name": "spender",
							"type": "address"
						},
						{
							"internalType": "uint256",
							"name": "addedValue",
							"type": "uint256"
						}
					],
					"name": "increaseAllowance",
					"outputs": [
						{
							"internalType": "bool",
							"name": "",
							"type": "bool"
						}
					],
					"stateMutability": "nonpayable",
					"type": "function"
				},
				{
					"inputs": [
						{
							"internalType": "address",
							"name": "to",
							"type": "address"
						},
						{
							"internalType": "uint256",
							"name": "amount",
							"type": "uint256"
						}
					],
					"name": "mint",
					"outputs": [],
					"stateMutability": "nonpayable",
					"type": "function"
				},
				{
					"inputs": [],
					"name": "name",
					"outputs": [
						{
							"internalType": "string",
							"name": "",
							"type": "string"
						}
					],
					"stateMutability": "view",
					"type": "function"
				},
				{
					"inputs": [],
					"name": "owner",
					"outputs": [
						{
							"internalType": "address",
							"name": "",
							"type": "address"
						}
					],
					"stateMutability": "view",
					"type": "function"
				},
				{
					"inputs": [],
					"name": "renounceOwnership",
					"outputs": [],
					"stateMutability": "nonpayable",
					"type": "function"
				},
				{
					"inputs": [
						{
							"internalType": "uint256",
							"name": "newTokenPrice",
							"type": "uint256"
						}
					],
					"name": "setTokenPrice",
					"outputs": [],
					"stateMutability": "nonpayable",
					"type": "function"
				},
				{
					"inputs": [],
					"name": "symbol",
					"outputs": [
						{
							"internalType": "string",
							"name": "",
							"type": "string"
						}
					],
					"stateMutability": "view",
					"type": "function"
				},
				{
					"inputs": [],
					"name": "tokenPrice",
					"outputs": [
						{
							"internalType": "uint256",
							"name": "",
							"type": "uint256"
						}
					],
					"stateMutability": "view",
					"type": "function"
				},
				{
					"inputs": [
						{
							"internalType": "address",
							"name": "to",
							"type": "address"
						},
						{
							"internalType": "uint256",
							"name": "amount",
							"type": "uint256"
						}
					],
					"name": "tokenTransfer",
					"outputs": [],
					"stateMutability": "nonpayable",
					"type": "function"
				},
				{
					"inputs": [],
					"name": "totalSupply",
					"outputs": [
						{
							"internalType": "uint256",
							"name": "",
							"type": "uint256"
						}
					],
					"stateMutability": "view",
					"type": "function"
				},
				{
					"inputs": [
						{
							"internalType": "address",
							"name": "to",
							"type": "address"
						},
						{
							"internalType": "uint256",
							"name": "amount",
							"type": "uint256"
						}
					],
					"name": "transfer",
					"outputs": [
						{
							"internalType": "bool",
							"name": "",
							"type": "bool"
						}
					],
					"stateMutability": "nonpayable",
					"type": "function"
				},
				{
					"inputs": [
						{
							"internalType": "address",
							"name": "from",
							"type": "address"
						},
						{
							"internalType": "address",
							"name": "to",
							"type": "address"
						},
						{
							"internalType": "uint256",
							"name": "amount",
							"type": "uint256"
						}
					],
					"name": "transferFrom",
					"outputs": [
						{
							"internalType": "bool",
							"name": "",
							"type": "bool"
						}
					],
					"stateMutability": "nonpayable",
					"type": "function"
				},
				{
					"inputs": [
						{
							"internalType": "address",
							"name": "newOwner",
							"type": "address"
						}
					],
					"name": "transferOwnership",
					"outputs": [],
					"stateMutability": "nonpayable",
					"type": "function"
				},
				{
					"inputs": [
						{
							"internalType": "uint256",
							"name": "amount",
							"type": "uint256"
						}
					],
					"name": "withdrawTokens",
					"outputs": [],
					"stateMutability": "nonpayable",
					"type": "function"
				}
			],
			"devdoc": {
				"events": {
					"Approval(address,address,uint256)": {
						"details": "Emitted when the allowance of a `spender` for an `owner` is set by a call to {approve}. `value` is the new allowance."
					},
					"Transfer(address,address,uint256)": {
						"details": "Emitted when `value` tokens are moved from one account (`from`) to another (`to`). Note that `value` may be zero."
					}
				},
				"kind": "dev",
				"methods": {
					"allowance(address,address)": {
						"details": "See {IERC20-allowance}."
					},
					"approve(address,uint256)": {
						"details": "See {IERC20-approve}. NOTE: If `amount` is the maximum `uint256`, the allowance is not updated on `transferFrom`. This is semantically equivalent to an infinite approval. Requirements: - `spender` cannot be the zero address."
					},
					"balanceOf(address)": {
						"details": "See {IERC20-balanceOf}."
					},
					"burn(uint256)": {
						"details": "Destroys `amount` tokens from the caller. See {ERC20-_burn}."
					},
					"burnFrom(address,uint256)": {
						"details": "Destroys `amount` tokens from `account`, deducting from the caller's allowance. See {ERC20-_burn} and {ERC20-allowance}. Requirements: - the caller must have allowance for ``accounts``'s tokens of at least `amount`."
					},
					"decimals()": {
						"details": "Returns the number of decimals used to get its user representation. For example, if `decimals` equals `2`, a balance of `505` tokens should be displayed to a user as `5.05` (`505 / 10 ** 2`). Tokens usually opt for a value of 18, imitating the relationship between Ether and Wei. This is the default value returned by this function, unless it's overridden. NOTE: This information is only used for _display_ purposes: it in no way affects any of the arithmetic of the contract, including {IERC20-balanceOf} and {IERC20-transfer}."
					},
					"decreaseAllowance(address,uint256)": {
						"details": "Atomically decreases the allowance granted to `spender` by the caller. This is an alternative to {approve} that can be used as a mitigation for problems described in {IERC20-approve}. Emits an {Approval} event indicating the updated allowance. Requirements: - `spender` cannot be the zero address. - `spender` must have allowance for the caller of at least `subtractedValue`."
					},
					"increaseAllowance(address,uint256)": {
						"details": "Atomically increases the allowance granted to `spender` by the caller. This is an alternative to {approve} that can be used as a mitigation for problems described in {IERC20-approve}. Emits an {Approval} event indicating the updated allowance. Requirements: - `spender` cannot be the zero address."
					},
					"name()": {
						"details": "Returns the name of the token."
					},
					"owner()": {
						"details": "Returns the address of the current owner."
					},
					"renounceOwnership()": {
						"details": "Leaves the contract without owner. It will not be possible to call `onlyOwner` functions. Can only be called by the current owner. NOTE: Renouncing ownership will leave the contract without an owner, thereby disabling any functionality that is only available to the owner."
					},
					"symbol()": {
						"details": "Returns the symbol of the token, usually a shorter version of the name."
					},
					"totalSupply()": {
						"details": "See {IERC20-totalSupply}."
					},
					"transfer(address,uint256)": {
						"details": "See {IERC20-transfer}. Requirements: - `to` cannot be the zero address. - the caller must have a balance of at least `amount`."
					},
					"transferFrom(address,address,uint256)": {
						"details": "See {IERC20-transferFrom}. Emits an {Approval} event indicating the updated allowance. This is not required by the EIP. See the note at the beginning of {ERC20}. NOTE: Does not update the allowance if the current allowance is the maximum `uint256`. Requirements: - `from` and `to` cannot be the zero address. - `from` must have a balance of at least `amount`. - the caller must have allowance for ``from``'s tokens of at least `amount`."
					},
					"transferOwnership(address)": {
						"details": "Transfers ownership of the contract to a new account (`newOwner`). Can only be called by the current owner."
					}
				},
				"version": 1
			},
			"evm": {
				"assembly": "    /* \"Final Smart Contract/Token_flattened.sol\":20943:21874  contract DeSearch is ERC20, ERC20Burnable, Ownable {... */\n  mstore(0x40, 0x80)\n    /* \"Final Smart Contract/Token_flattened.sol\":21032:21299  constructor(uint256 initialSupply, uint256 initialTokenPrice)... */\n  callvalue\n  dup1\n  iszero\n  tag_1\n  jumpi\n  0x00\n  dup1\n  revert\ntag_1:\n  pop\n  mload(0x40)\n  sub(codesize, bytecodeSize)\n  dup1\n  bytecodeSize\n  dup4\n  codecopy\n  dup2\n  dup2\n  add\n  0x40\n  mstore\n  dup2\n  add\n  swap1\n  tag_2\n  swap2\n  swap1\n  tag_3\n  jump\t// in\ntag_2:\n    /* \"Final Smart Contract/Token_flattened.sol\":8884:8997  constructor(string memory name_, string memory symbol_) {... */\n  mload(0x40)\n  dup1\n  0x40\n  add\n  0x40\n  mstore\n  dup1\n  0x08\n  dup2\n  mstore\n  0x20\n  add\n  0x4465536561726368000000000000000000000000000000000000000000000000\n  dup2\n  mstore\n  pop\n  mload(0x40)\n  dup1\n  0x40\n  add\n  0x40\n  mstore\n  dup1\n  0x02\n  dup2\n  mstore\n  0x20\n  add\n  0x4453000000000000000000000000000000000000000000000000000000000000\n  dup2\n  mstore\n  pop\n    /* \"Final Smart Contract/Token_flattened.sol\":8958:8963  name_ */\n  dup2\n    /* \"Final Smart Contract/Token_flattened.sol\":8950:8955  _name */\n  0x03\n    /* \"Final Smart Contract/Token_flattened.sol\":8950:8963  _name = name_ */\n  swap1\n  dup2\n  tag_8\n  swap2\n  swap1\n  tag_9\n  jump\t// in\ntag_8:\n  pop\n    /* \"Final Smart Contract/Token_flattened.sol\":8983:8990  symbol_ */\n  dup1\n    /* \"Final Smart Contract/Token_flattened.sol\":8973:8980  _symbol */\n  0x04\n    /* \"Final Smart Contract/Token_flattened.sol\":8973:8990  _symbol = symbol_ */\n  swap1\n  dup2\n  tag_10\n  swap2\n  swap1\n  tag_9\n  jump\t// in\ntag_10:\n  pop\n    /* \"Final Smart Contract/Token_flattened.sol\":8884:8997  constructor(string memory name_, string memory symbol_) {... */\n  pop\n  pop\n    /* \"Final Smart Contract/Token_flattened.sol\":1826:1858  _transferOwnership(_msgSender()) */\n  tag_12\n    /* \"Final Smart Contract/Token_flattened.sol\":1845:1857  _msgSender() */\n  tag_13\n    /* \"Final Smart Contract/Token_flattened.sol\":1845:1855  _msgSender */\n  shl(0x20, tag_14)\n    /* \"Final Smart Contract/Token_flattened.sol\":1845:1857  _msgSender() */\n  0x20\n  shr\n  jump\t// in\ntag_13:\n    /* \"Final Smart Contract/Token_flattened.sol\":1826:1844  _transferOwnership */\n  shl(0x20, tag_15)\n    /* \"Final Smart Contract/Token_flattened.sol\":1826:1858  _transferOwnership(_msgSender()) */\n  0x20\n  shr\n  jump\t// in\ntag_12:\n    /* \"Final Smart Contract/Token_flattened.sol\":21164:21165  0 */\n  0x00\n    /* \"Final Smart Contract/Token_flattened.sol\":21148:21161  initialSupply */\n  dup3\n    /* \"Final Smart Contract/Token_flattened.sol\":21148:21165  initialSupply > 0 */\n  gt\n    /* \"Final Smart Contract/Token_flattened.sol\":21140:21210  require(initialSupply > 0, \"Initial supply must be greater than zero\") */\n  tag_17\n  jumpi\n  mload(0x40)\n  0x08c379a000000000000000000000000000000000000000000000000000000000\n  dup2\n  mstore\n  0x04\n  add\n  tag_18\n  swap1\n  tag_19\n  jump\t// in\ntag_18:\n  mload(0x40)\n  dup1\n  swap2\n  sub\n  swap1\n  revert\ntag_17:\n    /* \"Final Smart Contract/Token_flattened.sol\":21220:21252  _mint(msg.sender, initialSupply) */\n  tag_20\n    /* \"Final Smart Contract/Token_flattened.sol\":21226:21236  msg.sender */\n  caller\n    /* \"Final Smart Contract/Token_flattened.sol\":21238:21251  initialSupply */\n  dup4\n    /* \"Final Smart Contract/Token_flattened.sol\":21220:21225  _mint */\n  shl(0x20, tag_21)\n    /* \"Final Smart Contract/Token_flattened.sol\":21220:21252  _mint(msg.sender, initialSupply) */\n  0x20\n  shr\n  jump\t// in\ntag_20:\n    /* \"Final Smart Contract/Token_flattened.sol\":21275:21292  initialTokenPrice */\n  dup1\n    /* \"Final Smart Contract/Token_flattened.sol\":21262:21272  tokenPrice */\n  0x06\n    /* \"Final Smart Contract/Token_flattened.sol\":21262:21292  tokenPrice = initialTokenPrice */\n  dup2\n  swap1\n  sstore\n  pop\n    /* \"Final Smart Contract/Token_flattened.sol\":21032:21299  constructor(uint256 initialSupply, uint256 initialTokenPrice)... */\n  pop\n  pop\n    /* \"Final Smart Contract/Token_flattened.sol\":20943:21874  contract DeSearch is ERC20, ERC20Burnable, Ownable {... */\n  jump(tag_22)\n    /* \"Final Smart Contract/Token_flattened.sol\":694:790  function _msgSender() internal view virtual returns (address) {... */\ntag_14:\n    /* \"Final Smart Contract/Token_flattened.sol\":747:754  address */\n  0x00\n    /* \"Final Smart Contract/Token_flattened.sol\":773:783  msg.sender */\n  caller\n    /* \"Final Smart Contract/Token_flattened.sol\":766:783  return msg.sender */\n  swap1\n  pop\n    /* \"Final Smart Contract/Token_flattened.sol\":694:790  function _msgSender() internal view virtual returns (address) {... */\n  swap1\n  jump\t// out\n    /* \"Final Smart Contract/Token_flattened.sol\":3316:3503  function _transferOwnership(address newOwner) internal virtual {... */\ntag_15:\n    /* \"Final Smart Contract/Token_flattened.sol\":3389:3405  address oldOwner */\n  0x00\n    /* \"Final Smart Contract/Token_flattened.sol\":3408:3414  _owner */\n  0x05\n  0x00\n  swap1\n  sload\n  swap1\n  0x0100\n  exp\n  swap1\n  div\n  0xffffffffffffffffffffffffffffffffffffffff\n  and\n    /* \"Final Smart Contract/Token_flattened.sol\":3389:3414  address oldOwner = _owner */\n  swap1\n  pop\n    /* \"Final Smart Contract/Token_flattened.sol\":3433:3441  newOwner */\n  dup2\n    /* \"Final Smart Contract/Token_flattened.sol\":3424:3430  _owner */\n  0x05\n  0x00\n    /* \"Final Smart Contract/Token_flattened.sol\":3424:3441  _owner = newOwner */\n  0x0100\n  exp\n  dup2\n  sload\n  dup2\n  0xffffffffffffffffffffffffffffffffffffffff\n  mul\n  not\n  and\n  swap1\n  dup4\n  0xffffffffffffffffffffffffffffffffffffffff\n  and\n  mul\n  or\n  swap1\n  sstore\n  pop\n    /* \"Final Smart Contract/Token_flattened.sol\":3487:3495  newOwner */\n  dup2\n    /* \"Final Smart Contract/Token_flattened.sol\":3456:3496  OwnershipTransferred(oldOwner, newOwner) */\n  0xffffffffffffffffffffffffffffffffffffffff\n  and\n    /* \"Final Smart Contract/Token_flattened.sol\":3477:3485  oldOwner */\n  dup2\n    /* \"Final Smart Contract/Token_flattened.sol\":3456:3496  OwnershipTransferred(oldOwner, newOwner) */\n  0xffffffffffffffffffffffffffffffffffffffff\n  and\n  0x8be0079c531659141344cd1fd0a4f28419497f9722a3daafe3b4186f6b6457e0\n  mload(0x40)\n  mload(0x40)\n  dup1\n  swap2\n  sub\n  swap1\n  log3\n    /* \"Final Smart Contract/Token_flattened.sol\":3379:3503  {... */\n  pop\n    /* \"Final Smart Contract/Token_flattened.sol\":3316:3503  function _transferOwnership(address newOwner) internal virtual {... */\n  pop\n  jump\t// out\n    /* \"Final Smart Contract/Token_flattened.sol\":15424:15959  function _mint(address account, uint256 amount) internal virtual {... */\ntag_21:\n    /* \"Final Smart Contract/Token_flattened.sol\":15526:15527  0 */\n  0x00\n    /* \"Final Smart Contract/Token_flattened.sol\":15507:15528  account != address(0) */\n  0xffffffffffffffffffffffffffffffffffffffff\n  and\n    /* \"Final Smart Contract/Token_flattened.sol\":15507:15514  account */\n  dup3\n    /* \"Final Smart Contract/Token_flattened.sol\":15507:15528  account != address(0) */\n  0xffffffffffffffffffffffffffffffffffffffff\n  and\n  sub\n    /* \"Final Smart Contract/Token_flattened.sol\":15499:15564  require(account != address(0), \"ERC20: mint to the zero address\") */\n  tag_26\n  jumpi\n  mload(0x40)\n  0x08c379a000000000000000000000000000000000000000000000000000000000\n  dup2\n  mstore\n  0x04\n  add\n  tag_27\n  swap1\n  tag_28\n  jump\t// in\ntag_27:\n  mload(0x40)\n  dup1\n  swap2\n  sub\n  swap1\n  revert\ntag_26:\n    /* \"Final Smart Contract/Token_flattened.sol\":15575:15624  _beforeTokenTransfer(address(0), account, amount) */\n  tag_29\n    /* \"Final Smart Contract/Token_flattened.sol\":15604:15605  0 */\n  0x00\n    /* \"Final Smart Contract/Token_flattened.sol\":15608:15615  account */\n  dup4\n    /* \"Final Smart Contract/Token_flattened.sol\":15617:15623  amount */\n  dup4\n    /* \"Final Smart Contract/Token_flattened.sol\":15575:15595  _beforeTokenTransfer */\n  shl(0x20, tag_30)\n    /* \"Final Smart Contract/Token_flattened.sol\":15575:15624  _beforeTokenTransfer(address(0), account, amount) */\n  0x20\n  shr\n  jump\t// in\ntag_29:\n    /* \"Final Smart Contract/Token_flattened.sol\":15651:15657  amount */\n  dup1\n    /* \"Final Smart Contract/Token_flattened.sol\":15635:15647  _totalSupply */\n  0x02\n  0x00\n    /* \"Final Smart Contract/Token_flattened.sol\":15635:15657  _totalSupply += amount */\n  dup3\n  dup3\n  sload\n  tag_31\n  swap2\n  swap1\n  tag_32\n  jump\t// in\ntag_31:\n  swap3\n  pop\n  pop\n  dup2\n  swap1\n  sstore\n  pop\n    /* \"Final Smart Contract/Token_flattened.sol\":15825:15831  amount */\n  dup1\n    /* \"Final Smart Contract/Token_flattened.sol\":15803:15812  _balances */\n  0x00\n    /* \"Final Smart Contract/Token_flattened.sol\":15803:15821  _balances[account] */\n  dup1\n    /* \"Final Smart Contract/Token_flattened.sol\":15813:15820  account */\n  dup5\n    /* \"Final Smart Contract/Token_flattened.sol\":15803:15821  _balances[account] */\n  0xffffffffffffffffffffffffffffffffffffffff\n  and\n  0xffffffffffffffffffffffffffffffffffffffff\n  and\n  dup2\n  mstore\n  0x20\n  add\n  swap1\n  dup2\n  mstore\n  0x20\n  add\n  0x00\n  keccak256\n  0x00\n    /* \"Final Smart Contract/Token_flattened.sol\":15803:15831  _balances[account] += amount */\n  dup3\n  dup3\n  sload\n  add\n  swap3\n  pop\n  pop\n  dup2\n  swap1\n  sstore\n  pop\n    /* \"Final Smart Contract/Token_flattened.sol\":15877:15884  account */\n  dup2\n    /* \"Final Smart Contract/Token_flattened.sol\":15856:15893  Transfer(address(0), account, amount) */\n  0xffffffffffffffffffffffffffffffffffffffff\n  and\n    /* \"Final Smart Contract/Token_flattened.sol\":15873:15874  0 */\n  0x00\n    /* \"Final Smart Contract/Token_flattened.sol\":15856:15893  Transfer(address(0), account, amount) */\n  0xffffffffffffffffffffffffffffffffffffffff\n  and\n  0xddf252ad1be2c89b69c2b068fc378daa952ba7f163c4a11628f55a4df523b3ef\n    /* \"Final Smart Contract/Token_flattened.sol\":15886:15892  amount */\n  dup4\n    /* \"Final Smart Contract/Token_flattened.sol\":15856:15893  Transfer(address(0), account, amount) */\n  mload(0x40)\n  tag_33\n  swap2\n  swap1\n  tag_34\n  jump\t// in\ntag_33:\n  mload(0x40)\n  dup1\n  swap2\n  sub\n  swap1\n  log3\n    /* \"Final Smart Contract/Token_flattened.sol\":15904:15952  _afterTokenTransfer(address(0), account, amount) */\n  tag_35\n    /* \"Final Smart Contract/Token_flattened.sol\":15932:15933  0 */\n  0x00\n    /* \"Final Smart Contract/Token_flattened.sol\":15936:15943  account */\n  dup4\n    /* \"Final Smart Contract/Token_flattened.sol\":15945:15951  amount */\n  dup4\n    /* \"Final Smart Contract/Token_flattened.sol\":15904:15923  _afterTokenTransfer */\n  shl(0x20, tag_36)\n    /* \"Final Smart Contract/Token_flattened.sol\":15904:15952  _afterTokenTransfer(address(0), account, amount) */\n  0x20\n  shr\n  jump\t// in\ntag_35:\n    /* \"Final Smart Contract/Token_flattened.sol\":15424:15959  function _mint(address account, uint256 amount) internal virtual {... */\n  pop\n  pop\n  jump\t// out\n    /* \"Final Smart Contract/Token_flattened.sol\":18977:19068  function _beforeTokenTransfer(address from, address to, uint256 amount) internal virtual {} */\ntag_30:\n  pop\n  pop\n  pop\n  jump\t// out\n    /* \"Final Smart Contract/Token_flattened.sol\":19656:19746  function _afterTokenTransfer(address from, address to, uint256 amount) internal virtual {} */\ntag_36:\n  pop\n  pop\n  pop\n  jump\t// out\n    /* \"#utility.yul\":88:205   */\ntag_40:\n    /* \"#utility.yul\":197:198   */\n  0x00\n    /* \"#utility.yul\":194:195   */\n  dup1\n    /* \"#utility.yul\":187:199   */\n  revert\n    /* \"#utility.yul\":334:411   */\ntag_42:\n    /* \"#utility.yul\":371:378   */\n  0x00\n    /* \"#utility.yul\":400:405   */\n  dup2\n    /* \"#utility.yul\":389:405   */\n  swap1\n  pop\n    /* \"#utility.yul\":334:411   */\n  swap2\n  swap1\n  pop\n  jump\t// out\n    /* \"#utility.yul\":417:539   */\ntag_43:\n    /* \"#utility.yul\":490:514   */\n  tag_77\n    /* \"#utility.yul\":508:513   */\n  dup2\n    /* \"#utility.yul\":490:514   */\n  tag_42\n  jump\t// in\ntag_77:\n    /* \"#utility.yul\":483:488   */\n  dup2\n    /* \"#utility.yul\":480:515   */\n  eq\n    /* \"#utility.yul\":470:533   */\n  tag_78\n  jumpi\n    /* \"#utility.yul\":529:530   */\n  0x00\n    /* \"#utility.yul\":526:527   */\n  dup1\n    /* \"#utility.yul\":519:531   */\n  revert\n    /* \"#utility.yul\":470:533   */\ntag_78:\n    /* \"#utility.yul\":417:539   */\n  pop\n  jump\t// out\n    /* \"#utility.yul\":545:688   */\ntag_44:\n    /* \"#utility.yul\":602:607   */\n  0x00\n    /* \"#utility.yul\":633:639   */\n  dup2\n    /* \"#utility.yul\":627:640   */\n  mload\n    /* \"#utility.yul\":618:640   */\n  swap1\n  pop\n    /* \"#utility.yul\":649:682   */\n  tag_80\n    /* \"#utility.yul\":676:681   */\n  dup2\n    /* \"#utility.yul\":649:682   */\n  tag_43\n  jump\t// in\ntag_80:\n    /* \"#utility.yul\":545:688   */\n  swap3\n  swap2\n  pop\n  pop\n  jump\t// out\n    /* \"#utility.yul\":694:1201   */\ntag_3:\n    /* \"#utility.yul\":773:779   */\n  0x00\n    /* \"#utility.yul\":781:787   */\n  dup1\n    /* \"#utility.yul\":830:832   */\n  0x40\n    /* \"#utility.yul\":818:827   */\n  dup4\n    /* \"#utility.yul\":809:816   */\n  dup6\n    /* \"#utility.yul\":805:828   */\n  sub\n    /* \"#utility.yul\":801:833   */\n  slt\n    /* \"#utility.yul\":798:917   */\n  iszero\n  tag_82\n  jumpi\n    /* \"#utility.yul\":836:915   */\n  tag_83\n  tag_40\n  jump\t// in\ntag_83:\n    /* \"#utility.yul\":798:917   */\ntag_82:\n    /* \"#utility.yul\":956:957   */\n  0x00\n    /* \"#utility.yul\":981:1045   */\n  tag_84\n    /* \"#utility.yul\":1037:1044   */\n  dup6\n    /* \"#utility.yul\":1028:1034   */\n  dup3\n    /* \"#utility.yul\":1017:1026   */\n  dup7\n    /* \"#utility.yul\":1013:1035   */\n  add\n    /* \"#utility.yul\":981:1045   */\n  tag_44\n  jump\t// in\ntag_84:\n    /* \"#utility.yul\":971:1045   */\n  swap3\n  pop\n    /* \"#utility.yul\":927:1055   */\n  pop\n    /* \"#utility.yul\":1094:1096   */\n  0x20\n    /* \"#utility.yul\":1120:1184   */\n  tag_85\n    /* \"#utility.yul\":1176:1183   */\n  dup6\n    /* \"#utility.yul\":1167:1173   */\n  dup3\n    /* \"#utility.yul\":1156:1165   */\n  dup7\n    /* \"#utility.yul\":1152:1174   */\n  add\n    /* \"#utility.yul\":1120:1184   */\n  tag_44\n  jump\t// in\ntag_85:\n    /* \"#utility.yul\":1110:1184   */\n  swap2\n  pop\n    /* \"#utility.yul\":1065:1194   */\n  pop\n    /* \"#utility.yul\":694:1201   */\n  swap3\n  pop\n  swap3\n  swap1\n  pop\n  jump\t// out\n    /* \"#utility.yul\":1207:1306   */\ntag_45:\n    /* \"#utility.yul\":1259:1265   */\n  0x00\n    /* \"#utility.yul\":1293:1298   */\n  dup2\n    /* \"#utility.yul\":1287:1299   */\n  mload\n    /* \"#utility.yul\":1277:1299   */\n  swap1\n  pop\n    /* \"#utility.yul\":1207:1306   */\n  swap2\n  swap1\n  pop\n  jump\t// out\n    /* \"#utility.yul\":1312:1492   */\ntag_46:\n    /* \"#utility.yul\":1360:1437   */\n  0x4e487b7100000000000000000000000000000000000000000000000000000000\n    /* \"#utility.yul\":1357:1358   */\n  0x00\n    /* \"#utility.yul\":1350:1438   */\n  mstore\n    /* \"#utility.yul\":1457:1461   */\n  0x41\n    /* \"#utility.yul\":1454:1455   */\n  0x04\n    /* \"#utility.yul\":1447:1462   */\n  mstore\n    /* \"#utility.yul\":1481:1485   */\n  0x24\n    /* \"#utility.yul\":1478:1479   */\n  0x00\n    /* \"#utility.yul\":1471:1486   */\n  revert\n    /* \"#utility.yul\":1498:1678   */\ntag_47:\n    /* \"#utility.yul\":1546:1623   */\n  0x4e487b7100000000000000000000000000000000000000000000000000000000\n    /* \"#utility.yul\":1543:1544   */\n  0x00\n    /* \"#utility.yul\":1536:1624   */\n  mstore\n    /* \"#utility.yul\":1643:1647   */\n  0x22\n    /* \"#utility.yul\":1640:1641   */\n  0x04\n    /* \"#utility.yul\":1633:1648   */\n  mstore\n    /* \"#utility.yul\":1667:1671   */\n  0x24\n    /* \"#utility.yul\":1664:1665   */\n  0x00\n    /* \"#utility.yul\":1657:1672   */\n  revert\n    /* \"#utility.yul\":1684:2004   */\ntag_48:\n    /* \"#utility.yul\":1728:1734   */\n  0x00\n    /* \"#utility.yul\":1765:1766   */\n  0x02\n    /* \"#utility.yul\":1759:1763   */\n  dup3\n    /* \"#utility.yul\":1755:1767   */\n  div\n    /* \"#utility.yul\":1745:1767   */\n  swap1\n  pop\n    /* \"#utility.yul\":1812:1813   */\n  0x01\n    /* \"#utility.yul\":1806:1810   */\n  dup3\n    /* \"#utility.yul\":1802:1814   */\n  and\n    /* \"#utility.yul\":1833:1851   */\n  dup1\n    /* \"#utility.yul\":1823:1904   */\n  tag_90\n  jumpi\n    /* \"#utility.yul\":1889:1893   */\n  0x7f\n    /* \"#utility.yul\":1881:1887   */\n  dup3\n    /* \"#utility.yul\":1877:1894   */\n  and\n    /* \"#utility.yul\":1867:1894   */\n  swap2\n  pop\n    /* \"#utility.yul\":1823:1904   */\ntag_90:\n    /* \"#utility.yul\":1951:1953   */\n  0x20\n    /* \"#utility.yul\":1943:1949   */\n  dup3\n    /* \"#utility.yul\":1940:1954   */\n  lt\n    /* \"#utility.yul\":1920:1938   */\n  dup2\n    /* \"#utility.yul\":1917:1955   */\n  sub\n    /* \"#utility.yul\":1914:1998   */\n  tag_91\n  jumpi\n    /* \"#utility.yul\":1970:1988   */\n  tag_92\n  tag_47\n  jump\t// in\ntag_92:\n    /* \"#utility.yul\":1914:1998   */\ntag_91:\n    /* \"#utility.yul\":1735:2004   */\n  pop\n    /* \"#utility.yul\":1684:2004   */\n  swap2\n  swap1\n  pop\n  jump\t// out\n    /* \"#utility.yul\":2010:2151   */\ntag_49:\n    /* \"#utility.yul\":2059:2063   */\n  0x00\n    /* \"#utility.yul\":2082:2085   */\n  dup2\n    /* \"#utility.yul\":2074:2085   */\n  swap1\n  pop\n    /* \"#utility.yul\":2105:2108   */\n  dup2\n    /* \"#utility.yul\":2102:2103   */\n  0x00\n    /* \"#utility.yul\":2095:2109   */\n  mstore\n    /* \"#utility.yul\":2139:2143   */\n  0x20\n    /* \"#utility.yul\":2136:2137   */\n  0x00\n    /* \"#utility.yul\":2126:2144   */\n  keccak256\n    /* \"#utility.yul\":2118:2144   */\n  swap1\n  pop\n    /* \"#utility.yul\":2010:2151   */\n  swap2\n  swap1\n  pop\n  jump\t// out\n    /* \"#utility.yul\":2157:2250   */\ntag_50:\n    /* \"#utility.yul\":2194:2200   */\n  0x00\n    /* \"#utility.yul\":2241:2243   */\n  0x20\n    /* \"#utility.yul\":2236:2238   */\n  0x1f\n    /* \"#utility.yul\":2229:2234   */\n  dup4\n    /* \"#utility.yul\":2225:2239   */\n  add\n    /* \"#utility.yul\":2221:2244   */\n  div\n    /* \"#utility.yul\":2211:2244   */\n  swap1\n  pop\n    /* \"#utility.yul\":2157:2250   */\n  swap2\n  swap1\n  pop\n  jump\t// out\n    /* \"#utility.yul\":2256:2363   */\ntag_51:\n    /* \"#utility.yul\":2300:2308   */\n  0x00\n    /* \"#utility.yul\":2350:2355   */\n  dup3\n    /* \"#utility.yul\":2344:2348   */\n  dup3\n    /* \"#utility.yul\":2340:2356   */\n  shl\n    /* \"#utility.yul\":2319:2356   */\n  swap1\n  pop\n    /* \"#utility.yul\":2256:2363   */\n  swap3\n  swap2\n  pop\n  pop\n  jump\t// out\n    /* \"#utility.yul\":2369:2762   */\ntag_52:\n    /* \"#utility.yul\":2438:2444   */\n  0x00\n    /* \"#utility.yul\":2488:2489   */\n  0x08\n    /* \"#utility.yul\":2476:2486   */\n  dup4\n    /* \"#utility.yul\":2472:2490   */\n  mul\n    /* \"#utility.yul\":2511:2608   */\n  tag_97\n    /* \"#utility.yul\":2541:2607   */\n  0xffffffffffffffffffffffffffffffffffffffffffffffffffffffffffffffff\n    /* \"#utility.yul\":2530:2539   */\n  dup3\n    /* \"#utility.yul\":2511:2608   */\n  tag_51\n  jump\t// in\ntag_97:\n    /* \"#utility.yul\":2629:2668   */\n  tag_98\n    /* \"#utility.yul\":2659:2667   */\n  dup7\n    /* \"#utility.yul\":2648:2657   */\n  dup4\n    /* \"#utility.yul\":2629:2668   */\n  tag_51\n  jump\t// in\ntag_98:\n    /* \"#utility.yul\":2617:2668   */\n  swap6\n  pop\n    /* \"#utility.yul\":2701:2705   */\n  dup1\n    /* \"#utility.yul\":2697:2706   */\n  not\n    /* \"#utility.yul\":2690:2695   */\n  dup5\n    /* \"#utility.yul\":2686:2707   */\n  and\n    /* \"#utility.yul\":2677:2707   */\n  swap4\n  pop\n    /* \"#utility.yul\":2750:2754   */\n  dup1\n    /* \"#utility.yul\":2740:2748   */\n  dup7\n    /* \"#utility.yul\":2736:2755   */\n  and\n    /* \"#utility.yul\":2729:2734   */\n  dup5\n    /* \"#utility.yul\":2726:2756   */\n  or\n    /* \"#utility.yul\":2716:2756   */\n  swap3\n  pop\n    /* \"#utility.yul\":2445:2762   */\n  pop\n  pop\n    /* \"#utility.yul\":2369:2762   */\n  swap4\n  swap3\n  pop\n  pop\n  pop\n  jump\t// out\n    /* \"#utility.yul\":2768:2828   */\ntag_53:\n    /* \"#utility.yul\":2796:2799   */\n  0x00\n    /* \"#utility.yul\":2817:2822   */\n  dup2\n    /* \"#utility.yul\":2810:2822   */\n  swap1\n  pop\n    /* \"#utility.yul\":2768:2828   */\n  swap2\n  swap1\n  pop\n  jump\t// out\n    /* \"#utility.yul\":2834:2976   */\ntag_54:\n    /* \"#utility.yul\":2884:2893   */\n  0x00\n    /* \"#utility.yul\":2917:2970   */\n  tag_101\n    /* \"#utility.yul\":2935:2969   */\n  tag_102\n    /* \"#utility.yul\":2944:2968   */\n  tag_103\n    /* \"#utility.yul\":2962:2967   */\n  dup5\n    /* \"#utility.yul\":2944:2968   */\n  tag_42\n  jump\t// in\ntag_103:\n    /* \"#utility.yul\":2935:2969   */\n  tag_53\n  jump\t// in\ntag_102:\n    /* \"#utility.yul\":2917:2970   */\n  tag_42\n  jump\t// in\ntag_101:\n    /* \"#utility.yul\":2904:2970   */\n  swap1\n  pop\n    /* \"#utility.yul\":2834:2976   */\n  swap2\n  swap1\n  pop\n  jump\t// out\n    /* \"#utility.yul\":2982:3057   */\ntag_55:\n    /* \"#utility.yul\":3025:3028   */\n  0x00\n    /* \"#utility.yul\":3046:3051   */\n  dup2\n    /* \"#utility.yul\":3039:3051   */\n  swap1\n  pop\n    /* \"#utility.yul\":2982:3057   */\n  swap2\n  swap1\n  pop\n  jump\t// out\n    /* \"#utility.yul\":3063:3332   */\ntag_56:\n    /* \"#utility.yul\":3173:3212   */\n  tag_106\n    /* \"#utility.yul\":3204:3211   */\n  dup4\n    /* \"#utility.yul\":3173:3212   */\n  tag_54\n  jump\t// in\ntag_106:\n    /* \"#utility.yul\":3234:3325   */\n  tag_107\n    /* \"#utility.yul\":3283:3324   */\n  tag_108\n    /* \"#utility.yul\":3307:3323   */\n  dup3\n    /* \"#utility.yul\":3283:3324   */\n  tag_55\n  jump\t// in\ntag_108:\n    /* \"#utility.yul\":3275:3281   */\n  dup5\n    /* \"#utility.yul\":3268:3272   */\n  dup5\n    /* \"#utility.yul\":3262:3273   */\n  sload\n    /* \"#utility.yul\":3234:3325   */\n  tag_52\n  jump\t// in\ntag_107:\n    /* \"#utility.yul\":3228:3232   */\n  dup3\n    /* \"#utility.yul\":3221:3326   */\n  sstore\n    /* \"#utility.yul\":3139:3332   */\n  pop\n    /* \"#utility.yul\":3063:3332   */\n  pop\n  pop\n  pop\n  jump\t// out\n    /* \"#utility.yul\":3338:3411   */\ntag_57:\n    /* \"#utility.yul\":3383:3386   */\n  0x00\n    /* \"#utility.yul\":3338:3411   */\n  swap1\n  jump\t// out\n    /* \"#utility.yul\":3417:3606   */\ntag_58:\n    /* \"#utility.yul\":3494:3526   */\n  tag_111\n  tag_57\n  jump\t// in\ntag_111:\n    /* \"#utility.yul\":3535:3600   */\n  tag_112\n    /* \"#utility.yul\":3593:3599   */\n  dup2\n    /* \"#utility.yul\":3585:3591   */\n  dup5\n    /* \"#utility.yul\":3579:3583   */\n  dup5\n    /* \"#utility.yul\":3535:3600   */\n  tag_56\n  jump\t// in\ntag_112:\n    /* \"#utility.yul\":3470:3606   */\n  pop\n    /* \"#utility.yul\":3417:3606   */\n  pop\n  pop\n  jump\t// out\n    /* \"#utility.yul\":3612:3798   */\ntag_59:\n    /* \"#utility.yul\":3672:3792   */\ntag_114:\n    /* \"#utility.yul\":3689:3692   */\n  dup2\n    /* \"#utility.yul\":3682:3687   */\n  dup2\n    /* \"#utility.yul\":3679:3693   */\n  lt\n    /* \"#utility.yul\":3672:3792   */\n  iszero\n  tag_116\n  jumpi\n    /* \"#utility.yul\":3743:3782   */\n  tag_117\n    /* \"#utility.yul\":3780:3781   */\n  0x00\n    /* \"#utility.yul\":3773:3778   */\n  dup3\n    /* \"#utility.yul\":3743:3782   */\n  tag_58\n  jump\t// in\ntag_117:\n    /* \"#utility.yul\":3716:3717   */\n  0x01\n    /* \"#utility.yul\":3709:3714   */\n  dup2\n    /* \"#utility.yul\":3705:3718   */\n  add\n    /* \"#utility.yul\":3696:3718   */\n  swap1\n  pop\n    /* \"#utility.yul\":3672:3792   */\n  jump(tag_114)\ntag_116:\n    /* \"#utility.yul\":3612:3798   */\n  pop\n  pop\n  jump\t// out\n    /* \"#utility.yul\":3804:4347   */\ntag_60:\n    /* \"#utility.yul\":3905:3907   */\n  0x1f\n    /* \"#utility.yul\":3900:3903   */\n  dup3\n    /* \"#utility.yul\":3897:3908   */\n  gt\n    /* \"#utility.yul\":3894:4340   */\n  iszero\n  tag_119\n  jumpi\n    /* \"#utility.yul\":3939:3977   */\n  tag_120\n    /* \"#utility.yul\":3971:3976   */\n  dup2\n    /* \"#utility.yul\":3939:3977   */\n  tag_49\n  jump\t// in\ntag_120:\n    /* \"#utility.yul\":4023:4052   */\n  tag_121\n    /* \"#utility.yul\":4041:4051   */\n  dup5\n    /* \"#utility.yul\":4023:4052   */\n  tag_50\n  jump\t// in\ntag_121:\n    /* \"#utility.yul\":4013:4021   */\n  dup2\n    /* \"#utility.yul\":4009:4053   */\n  add\n    /* \"#utility.yul\":4206:4208   */\n  0x20\n    /* \"#utility.yul\":4194:4204   */\n  dup6\n    /* \"#utility.yul\":4191:4209   */\n  lt\n    /* \"#utility.yul\":4188:4237   */\n  iszero\n  tag_122\n  jumpi\n    /* \"#utility.yul\":4227:4235   */\n  dup2\n    /* \"#utility.yul\":4212:4235   */\n  swap1\n  pop\n    /* \"#utility.yul\":4188:4237   */\ntag_122:\n    /* \"#utility.yul\":4250:4330   */\n  tag_123\n    /* \"#utility.yul\":4306:4328   */\n  tag_124\n    /* \"#utility.yul\":4324:4327   */\n  dup6\n    /* \"#utility.yul\":4306:4328   */\n  tag_50\n  jump\t// in\ntag_124:\n    /* \"#utility.yul\":4296:4304   */\n  dup4\n    /* \"#utility.yul\":4292:4329   */\n  add\n    /* \"#utility.yul\":4279:4290   */\n  dup3\n    /* \"#utility.yul\":4250:4330   */\n  tag_59\n  jump\t// in\ntag_123:\n    /* \"#utility.yul\":3909:4340   */\n  pop\n  pop\n    /* \"#utility.yul\":3894:4340   */\ntag_119:\n    /* \"#utility.yul\":3804:4347   */\n  pop\n  pop\n  pop\n  jump\t// out\n    /* \"#utility.yul\":4353:4470   */\ntag_61:\n    /* \"#utility.yul\":4407:4415   */\n  0x00\n    /* \"#utility.yul\":4457:4462   */\n  dup3\n    /* \"#utility.yul\":4451:4455   */\n  dup3\n    /* \"#utility.yul\":4447:4463   */\n  shr\n    /* \"#utility.yul\":4426:4463   */\n  swap1\n  pop\n    /* \"#utility.yul\":4353:4470   */\n  swap3\n  swap2\n  pop\n  pop\n  jump\t// out\n    /* \"#utility.yul\":4476:4645   */\ntag_62:\n    /* \"#utility.yul\":4520:4526   */\n  0x00\n    /* \"#utility.yul\":4553:4604   */\n  tag_127\n    /* \"#utility.yul\":4601:4602   */\n  0x00\n    /* \"#utility.yul\":4597:4603   */\n  not\n    /* \"#utility.yul\":4589:4594   */\n  dup5\n    /* \"#utility.yul\":4586:4587   */\n  0x08\n    /* \"#utility.yul\":4582:4595   */\n  mul\n    /* \"#utility.yul\":4553:4604   */\n  tag_61\n  jump\t// in\ntag_127:\n    /* \"#utility.yul\":4549:4605   */\n  not\n    /* \"#utility.yul\":4634:4638   */\n  dup1\n    /* \"#utility.yul\":4628:4632   */\n  dup4\n    /* \"#utility.yul\":4624:4639   */\n  and\n    /* \"#utility.yul\":4614:4639   */\n  swap2\n  pop\n    /* \"#utility.yul\":4527:4645   */\n  pop\n    /* \"#utility.yul\":4476:4645   */\n  swap3\n  swap2\n  pop\n  pop\n  jump\t// out\n    /* \"#utility.yul\":4650:4945   */\ntag_63:\n    /* \"#utility.yul\":4726:4730   */\n  0x00\n    /* \"#utility.yul\":4872:4901   */\n  tag_129\n    /* \"#utility.yul\":4897:4900   */\n  dup4\n    /* \"#utility.yul\":4891:4895   */\n  dup4\n    /* \"#utility.yul\":4872:4901   */\n  tag_62\n  jump\t// in\ntag_129:\n    /* \"#utility.yul\":4864:4901   */\n  swap2\n  pop\n    /* \"#utility.yul\":4934:4937   */\n  dup3\n    /* \"#utility.yul\":4931:4932   */\n  0x02\n    /* \"#utility.yul\":4927:4938   */\n  mul\n    /* \"#utility.yul\":4921:4925   */\n  dup3\n    /* \"#utility.yul\":4918:4939   */\n  or\n    /* \"#utility.yul\":4910:4939   */\n  swap1\n  pop\n    /* \"#utility.yul\":4650:4945   */\n  swap3\n  swap2\n  pop\n  pop\n  jump\t// out\n    /* \"#utility.yul\":4950:6345   */\ntag_9:\n    /* \"#utility.yul\":5067:5104   */\n  tag_131\n    /* \"#utility.yul\":5100:5103   */\n  dup3\n    /* \"#utility.yul\":5067:5104   */\n  tag_45\n  jump\t// in\ntag_131:\n    /* \"#utility.yul\":5169:5187   */\n  0xffffffffffffffff\n    /* \"#utility.yul\":5161:5167   */\n  dup2\n    /* \"#utility.yul\":5158:5188   */\n  gt\n    /* \"#utility.yul\":5155:5211   */\n  iszero\n  tag_132\n  jumpi\n    /* \"#utility.yul\":5191:5209   */\n  tag_133\n  tag_46\n  jump\t// in\ntag_133:\n    /* \"#utility.yul\":5155:5211   */\ntag_132:\n    /* \"#utility.yul\":5235:5273   */\n  tag_134\n    /* \"#utility.yul\":5267:5271   */\n  dup3\n    /* \"#utility.yul\":5261:5272   */\n  sload\n    /* \"#utility.yul\":5235:5273   */\n  tag_48\n  jump\t// in\ntag_134:\n    /* \"#utility.yul\":5320:5387   */\n  tag_135\n    /* \"#utility.yul\":5380:5386   */\n  dup3\n    /* \"#utility.yul\":5372:5378   */\n  dup3\n    /* \"#utility.yul\":5366:5370   */\n  dup6\n    /* \"#utility.yul\":5320:5387   */\n  tag_60\n  jump\t// in\ntag_135:\n    /* \"#utility.yul\":5414:5415   */\n  0x00\n    /* \"#utility.yul\":5438:5442   */\n  0x20\n    /* \"#utility.yul\":5425:5442   */\n  swap1\n  pop\n    /* \"#utility.yul\":5470:5472   */\n  0x1f\n    /* \"#utility.yul\":5462:5468   */\n  dup4\n    /* \"#utility.yul\":5459:5473   */\n  gt\n    /* \"#utility.yul\":5487:5488   */\n  0x01\n    /* \"#utility.yul\":5482:6100   */\n  dup2\n  eq\n  tag_137\n  jumpi\n    /* \"#utility.yul\":6144:6145   */\n  0x00\n    /* \"#utility.yul\":6161:6167   */\n  dup5\n    /* \"#utility.yul\":6158:6235   */\n  iszero\n  tag_138\n  jumpi\n    /* \"#utility.yul\":6210:6219   */\n  dup3\n    /* \"#utility.yul\":6205:6208   */\n  dup8\n    /* \"#utility.yul\":6201:6220   */\n  add\n    /* \"#utility.yul\":6195:6221   */\n  mload\n    /* \"#utility.yul\":6186:6221   */\n  swap1\n  pop\n    /* \"#utility.yul\":6158:6235   */\ntag_138:\n    /* \"#utility.yul\":6261:6328   */\n  tag_139\n    /* \"#utility.yul\":6321:6327   */\n  dup6\n    /* \"#utility.yul\":6314:6319   */\n  dup3\n    /* \"#utility.yul\":6261:6328   */\n  tag_63\n  jump\t// in\ntag_139:\n    /* \"#utility.yul\":6255:6259   */\n  dup7\n    /* \"#utility.yul\":6248:6329   */\n  sstore\n    /* \"#utility.yul\":6117:6339   */\n  pop\n    /* \"#utility.yul\":5452:6339   */\n  jump(tag_136)\n    /* \"#utility.yul\":5482:6100   */\ntag_137:\n    /* \"#utility.yul\":5534:5538   */\n  0x1f\n    /* \"#utility.yul\":5530:5539   */\n  not\n    /* \"#utility.yul\":5522:5528   */\n  dup5\n    /* \"#utility.yul\":5518:5540   */\n  and\n    /* \"#utility.yul\":5568:5605   */\n  tag_140\n    /* \"#utility.yul\":5600:5604   */\n  dup7\n    /* \"#utility.yul\":5568:5605   */\n  tag_49\n  jump\t// in\ntag_140:\n    /* \"#utility.yul\":5627:5628   */\n  0x00\n    /* \"#utility.yul\":5641:5849   */\ntag_141:\n    /* \"#utility.yul\":5655:5662   */\n  dup3\n    /* \"#utility.yul\":5652:5653   */\n  dup2\n    /* \"#utility.yul\":5649:5663   */\n  lt\n    /* \"#utility.yul\":5641:5849   */\n  iszero\n  tag_143\n  jumpi\n    /* \"#utility.yul\":5734:5743   */\n  dup5\n    /* \"#utility.yul\":5729:5732   */\n  dup10\n    /* \"#utility.yul\":5725:5744   */\n  add\n    /* \"#utility.yul\":5719:5745   */\n  mload\n    /* \"#utility.yul\":5711:5717   */\n  dup3\n    /* \"#utility.yul\":5704:5746   */\n  sstore\n    /* \"#utility.yul\":5785:5786   */\n  0x01\n    /* \"#utility.yul\":5777:5783   */\n  dup3\n    /* \"#utility.yul\":5773:5787   */\n  add\n    /* \"#utility.yul\":5763:5787   */\n  swap2\n  pop\n    /* \"#utility.yul\":5832:5834   */\n  0x20\n    /* \"#utility.yul\":5821:5830   */\n  dup6\n    /* \"#utility.yul\":5817:5835   */\n  add\n    /* \"#utility.yul\":5804:5835   */\n  swap5\n  pop\n    /* \"#utility.yul\":5678:5682   */\n  0x20\n    /* \"#utility.yul\":5675:5676   */\n  dup2\n    /* \"#utility.yul\":5671:5683   */\n  add\n    /* \"#utility.yul\":5666:5683   */\n  swap1\n  pop\n    /* \"#utility.yul\":5641:5849   */\n  jump(tag_141)\ntag_143:\n    /* \"#utility.yul\":5877:5883   */\n  dup7\n    /* \"#utility.yul\":5868:5875   */\n  dup4\n    /* \"#utility.yul\":5865:5884   */\n  lt\n    /* \"#utility.yul\":5862:6041   */\n  iszero\n  tag_144\n  jumpi\n    /* \"#utility.yul\":5935:5944   */\n  dup5\n    /* \"#utility.yul\":5930:5933   */\n  dup10\n    /* \"#utility.yul\":5926:5945   */\n  add\n    /* \"#utility.yul\":5920:5946   */\n  mload\n    /* \"#utility.yul\":5978:6026   */\n  tag_145\n    /* \"#utility.yul\":6020:6024   */\n  0x1f\n    /* \"#utility.yul\":6012:6018   */\n  dup10\n    /* \"#utility.yul\":6008:6025   */\n  and\n    /* \"#utility.yul\":5997:6006   */\n  dup3\n    /* \"#utility.yul\":5978:6026   */\n  tag_62\n  jump\t// in\ntag_145:\n    /* \"#utility.yul\":5970:5976   */\n  dup4\n    /* \"#utility.yul\":5963:6027   */\n  sstore\n    /* \"#utility.yul\":5885:6041   */\n  pop\n    /* \"#utility.yul\":5862:6041   */\ntag_144:\n    /* \"#utility.yul\":6087:6088   */\n  0x01\n    /* \"#utility.yul\":6083:6084   */\n  0x02\n    /* \"#utility.yul\":6075:6081   */\n  dup9\n    /* \"#utility.yul\":6071:6085   */\n  mul\n    /* \"#utility.yul\":6067:6089   */\n  add\n    /* \"#utility.yul\":6061:6065   */\n  dup9\n    /* \"#utility.yul\":6054:6090   */\n  sstore\n    /* \"#utility.yul\":5489:6100   */\n  pop\n  pop\n  pop\n    /* \"#utility.yul\":5452:6339   */\ntag_136:\n  pop\n    /* \"#utility.yul\":5042:6345   */\n  pop\n  pop\n  pop\n    /* \"#utility.yul\":4950:6345   */\n  pop\n  pop\n  jump\t// out\n    /* \"#utility.yul\":6351:6520   */\ntag_64:\n    /* \"#utility.yul\":6435:6446   */\n  0x00\n    /* \"#utility.yul\":6469:6475   */\n  dup3\n    /* \"#utility.yul\":6464:6467   */\n  dup3\n    /* \"#utility.yul\":6457:6476   */\n  mstore\n    /* \"#utility.yul\":6509:6513   */\n  0x20\n    /* \"#utility.yul\":6504:6507   */\n  dup3\n    /* \"#utility.yul\":6500:6514   */\n  add\n    /* \"#utility.yul\":6485:6514   */\n  swap1\n  pop\n    /* \"#utility.yul\":6351:6520   */\n  swap3\n  swap2\n  pop\n  pop\n  jump\t// out\n    /* \"#utility.yul\":6526:6753   */\ntag_65:\n    /* \"#utility.yul\":6666:6700   */\n  0x496e697469616c20737570706c79206d75737420626520677265617465722074\n    /* \"#utility.yul\":6662:6663   */\n  0x00\n    /* \"#utility.yul\":6654:6660   */\n  dup3\n    /* \"#utility.yul\":6650:6664   */\n  add\n    /* \"#utility.yul\":6643:6701   */\n  mstore\n    /* \"#utility.yul\":6735:6745   */\n  0x68616e207a65726f000000000000000000000000000000000000000000000000\n    /* \"#utility.yul\":6730:6732   */\n  0x20\n    /* \"#utility.yul\":6722:6728   */\n  dup3\n    /* \"#utility.yul\":6718:6733   */\n  add\n    /* \"#utility.yul\":6711:6746   */\n  mstore\n    /* \"#utility.yul\":6526:6753   */\n  pop\n  jump\t// out\n    /* \"#utility.yul\":6759:7125   */\ntag_66:\n    /* \"#utility.yul\":6901:6904   */\n  0x00\n    /* \"#utility.yul\":6922:6989   */\n  tag_149\n    /* \"#utility.yul\":6986:6988   */\n  0x28\n    /* \"#utility.yul\":6981:6984   */\n  dup4\n    /* \"#utility.yul\":6922:6989   */\n  tag_64\n  jump\t// in\ntag_149:\n    /* \"#utility.yul\":6915:6989   */\n  swap2\n  pop\n    /* \"#utility.yul\":6998:7091   */\n  tag_150\n    /* \"#utility.yul\":7087:7090   */\n  dup3\n    /* \"#utility.yul\":6998:7091   */\n  tag_65\n  jump\t// in\ntag_150:\n    /* \"#utility.yul\":7116:7118   */\n  0x40\n    /* \"#utility.yul\":7111:7114   */\n  dup3\n    /* \"#utility.yul\":7107:7119   */\n  add\n    /* \"#utility.yul\":7100:7119   */\n  swap1\n  pop\n    /* \"#utility.yul\":6759:7125   */\n  swap2\n  swap1\n  pop\n  jump\t// out\n    /* \"#utility.yul\":7131:7550   */\ntag_19:\n    /* \"#utility.yul\":7297:7301   */\n  0x00\n    /* \"#utility.yul\":7335:7337   */\n  0x20\n    /* \"#utility.yul\":7324:7333   */\n  dup3\n    /* \"#utility.yul\":7320:7338   */\n  add\n    /* \"#utility.yul\":7312:7338   */\n  swap1\n  pop\n    /* \"#utility.yul\":7384:7393   */\n  dup2\n    /* \"#utility.yul\":7378:7382   */\n  dup2\n    /* \"#utility.yul\":7374:7394   */\n  sub\n    /* \"#utility.yul\":7370:7371   */\n  0x00\n    /* \"#utility.yul\":7359:7368   */\n  dup4\n    /* \"#utility.yul\":7355:7372   */\n  add\n    /* \"#utility.yul\":7348:7395   */\n  mstore\n    /* \"#utility.yul\":7412:7543   */\n  tag_152\n    /* \"#utility.yul\":7538:7542   */\n  dup2\n    /* \"#utility.yul\":7412:7543   */\n  tag_66\n  jump\t// in\ntag_152:\n    /* \"#utility.yul\":7404:7543   */\n  swap1\n  pop\n    /* \"#utility.yul\":7131:7550   */\n  swap2\n  swap1\n  pop\n  jump\t// out\n    /* \"#utility.yul\":7556:7737   */\ntag_67:\n    /* \"#utility.yul\":7696:7729   */\n  0x45524332303a206d696e7420746f20746865207a65726f206164647265737300\n    /* \"#utility.yul\":7692:7693   */\n  0x00\n    /* \"#utility.yul\":7684:7690   */\n  dup3\n    /* \"#utility.yul\":7680:7694   */\n  add\n    /* \"#utility.yul\":7673:7730   */\n  mstore\n    /* \"#utility.yul\":7556:7737   */\n  pop\n  jump\t// out\n    /* \"#utility.yul\":7743:8109   */\ntag_68:\n    /* \"#utility.yul\":7885:7888   */\n  0x00\n    /* \"#utility.yul\":7906:7973   */\n  tag_155\n    /* \"#utility.yul\":7970:7972   */\n  0x1f\n    /* \"#utility.yul\":7965:7968   */\n  dup4\n    /* \"#utility.yul\":7906:7973   */\n  tag_64\n  jump\t// in\ntag_155:\n    /* \"#utility.yul\":7899:7973   */\n  swap2\n  pop\n    /* \"#utility.yul\":7982:8075   */\n  tag_156\n    /* \"#utility.yul\":8071:8074   */\n  dup3\n    /* \"#utility.yul\":7982:8075   */\n  tag_67\n  jump\t// in\ntag_156:\n    /* \"#utility.yul\":8100:8102   */\n  0x20\n    /* \"#utility.yul\":8095:8098   */\n  dup3\n    /* \"#utility.yul\":8091:8103   */\n  add\n    /* \"#utility.yul\":8084:8103   */\n  swap1\n  pop\n    /* \"#utility.yul\":7743:8109   */\n  swap2\n  swap1\n  pop\n  jump\t// out\n    /* \"#utility.yul\":8115:8534   */\ntag_28:\n    /* \"#utility.yul\":8281:8285   */\n  0x00\n    /* \"#utility.yul\":8319:8321   */\n  0x20\n    /* \"#utility.yul\":8308:8317   */\n  dup3\n    /* \"#utility.yul\":8304:8322   */\n  add\n    /* \"#utility.yul\":8296:8322   */\n  swap1\n  pop\n    /* \"#utility.yul\":8368:8377   */\n  dup2\n    /* \"#utility.yul\":8362:8366   */\n  dup2\n    /* \"#utility.yul\":8358:8378   */\n  sub\n    /* \"#utility.yul\":8354:8355   */\n  0x00\n    /* \"#utility.yul\":8343:8352   */\n  dup4\n    /* \"#utility.yul\":8339:8356   */\n  add\n    /* \"#utility.yul\":8332:8379   */\n  mstore\n    /* \"#utility.yul\":8396:8527   */\n  tag_158\n    /* \"#utility.yul\":8522:8526   */\n  dup2\n    /* \"#utility.yul\":8396:8527   */\n  tag_68\n  jump\t// in\ntag_158:\n    /* \"#utility.yul\":8388:8527   */\n  swap1\n  pop\n    /* \"#utility.yul\":8115:8534   */\n  swap2\n  swap1\n  pop\n  jump\t// out\n    /* \"#utility.yul\":8540:8720   */\ntag_69:\n    /* \"#utility.yul\":8588:8665   */\n  0x4e487b7100000000000000000000000000000000000000000000000000000000\n    /* \"#utility.yul\":8585:8586   */\n  0x00\n    /* \"#utility.yul\":8578:8666   */\n  mstore\n    /* \"#utility.yul\":8685:8689   */\n  0x11\n    /* \"#utility.yul\":8682:8683   */\n  0x04\n    /* \"#utility.yul\":8675:8690   */\n  mstore\n    /* \"#utility.yul\":8709:8713   */\n  0x24\n    /* \"#utility.yul\":8706:8707   */\n  0x00\n    /* \"#utility.yul\":8699:8714   */\n  revert\n    /* \"#utility.yul\":8726:8917   */\ntag_32:\n    /* \"#utility.yul\":8766:8769   */\n  0x00\n    /* \"#utility.yul\":8785:8805   */\n  tag_161\n    /* \"#utility.yul\":8803:8804   */\n  dup3\n    /* \"#utility.yul\":8785:8805   */\n  tag_42\n  jump\t// in\ntag_161:\n    /* \"#utility.yul\":8780:8805   */\n  swap2\n  pop\n    /* \"#utility.yul\":8819:8839   */\n  tag_162\n    /* \"#utility.yul\":8837:8838   */\n  dup4\n    /* \"#utility.yul\":8819:8839   */\n  tag_42\n  jump\t// in\ntag_162:\n    /* \"#utility.yul\":8814:8839   */\n  swap3\n  pop\n    /* \"#utility.yul\":8862:8863   */\n  dup3\n    /* \"#utility.yul\":8859:8860   */\n  dup3\n    /* \"#utility.yul\":8855:8864   */\n  add\n    /* \"#utility.yul\":8848:8864   */\n  swap1\n  pop\n    /* \"#utility.yul\":8883:8886   */\n  dup1\n    /* \"#utility.yul\":8880:8881   */\n  dup3\n    /* \"#utility.yul\":8877:8887   */\n  gt\n    /* \"#utility.yul\":8874:8910   */\n  iszero\n  tag_163\n  jumpi\n    /* \"#utility.yul\":8890:8908   */\n  tag_164\n  tag_69\n  jump\t// in\ntag_164:\n    /* \"#utility.yul\":8874:8910   */\ntag_163:\n    /* \"#utility.yul\":8726:8917   */\n  swap3\n  swap2\n  pop\n  pop\n  jump\t// out\n    /* \"#utility.yul\":8923:9041   */\ntag_70:\n    /* \"#utility.yul\":9010:9034   */\n  tag_166\n    /* \"#utility.yul\":9028:9033   */\n  dup2\n    /* \"#utility.yul\":9010:9034   */\n  tag_42\n  jump\t// in\ntag_166:\n    /* \"#utility.yul\":9005:9008   */\n  dup3\n    /* \"#utility.yul\":8998:9035   */\n  mstore\n    /* \"#utility.yul\":8923:9041   */\n  pop\n  pop\n  jump\t// out\n    /* \"#utility.yul\":9047:9269   */\ntag_34:\n    /* \"#utility.yul\":9140:9144   */\n  0x00\n    /* \"#utility.yul\":9178:9180   */\n  0x20\n    /* \"#utility.yul\":9167:9176   */\n  dup3\n    /* \"#utility.yul\":9163:9181   */\n  add\n    /* \"#utility.yul\":9155:9181   */\n  swap1\n  pop\n    /* \"#utility.yul\":9191:9262   */\n  tag_168\n    /* \"#utility.yul\":9259:9260   */\n  0x00\n    /* \"#utility.yul\":9248:9257   */\n  dup4\n    /* \"#utility.yul\":9244:9261   */\n  add\n    /* \"#utility.yul\":9235:9241   */\n  dup5\n    /* \"#utility.yul\":9191:9262   */\n  tag_70\n  jump\t// in\ntag_168:\n    /* \"#utility.yul\":9047:9269   */\n  swap3\n  swap2\n  pop\n  pop\n  jump\t// out\n    /* \"Final Smart Contract/Token_flattened.sol\":20943:21874  contract DeSearch is ERC20, ERC20Burnable, Ownable {... */\ntag_22:\n  dataSize(sub_0)\n  dup1\n  dataOffset(sub_0)\n  0x00\n  codecopy\n  0x00\n  return\nstop\n\nsub_0: assembly {\n        /* \"Final Smart Contract/Token_flattened.sol\":20943:21874  contract DeSearch is ERC20, ERC20Burnable, Ownable {... */\n      mstore(0x40, 0x80)\n      callvalue\n      dup1\n      iszero\n      tag_1\n      jumpi\n      0x00\n      dup1\n      revert\n    tag_1:\n      pop\n      jumpi(tag_2, lt(calldatasize, 0x04))\n      shr(0xe0, calldataload(0x00))\n      dup1\n      0x6a61e5fc\n      gt\n      tag_24\n      jumpi\n      dup1\n      0x8da5cb5b\n      gt\n      tag_25\n      jumpi\n      dup1\n      0x8da5cb5b\n      eq\n      tag_18\n      jumpi\n      dup1\n      0x95d89b41\n      eq\n      tag_19\n      jumpi\n      dup1\n      0xa457c2d7\n      eq\n      tag_20\n      jumpi\n      dup1\n      0xa9059cbb\n      eq\n      tag_21\n      jumpi\n      dup1\n      0xdd62ed3e\n      eq\n      tag_22\n      jumpi\n      dup1\n      0xf2fde38b\n      eq\n      tag_23\n      jumpi\n      jump(tag_2)\n    tag_25:\n      dup1\n      0x6a61e5fc\n      eq\n      tag_13\n      jumpi\n      dup1\n      0x70a08231\n      eq\n      tag_14\n      jumpi\n      dup1\n      0x715018a6\n      eq\n      tag_15\n      jumpi\n      dup1\n      0x79cc6790\n      eq\n      tag_16\n      jumpi\n      dup1\n      0x7ff9b596\n      eq\n      tag_17\n      jumpi\n      jump(tag_2)\n    tag_24:\n      dup1\n      0x315a095d\n      gt\n      tag_26\n      jumpi\n      dup1\n      0x315a095d\n      eq\n      tag_8\n      jumpi\n      dup1\n      0x39509351\n      eq\n      tag_9\n      jumpi\n      dup1\n      0x40c10f19\n      eq\n      tag_10\n      jumpi\n      dup1\n      0x42966c68\n      eq\n      tag_11\n      jumpi\n      dup1\n      0x68cdafe6\n      eq\n      tag_12\n      jumpi\n      jump(tag_2)\n    tag_26:\n      dup1\n      0x06fdde03\n      eq\n      tag_3\n      jumpi\n      dup1\n      0x095ea7b3\n      eq\n      tag_4\n      jumpi\n      dup1\n      0x18160ddd\n      eq\n      tag_5\n      jumpi\n      dup1\n      0x23b872dd\n      eq\n      tag_6\n      jumpi\n      dup1\n      0x313ce567\n      eq\n      tag_7\n      jumpi\n    tag_2:\n      0x00\n      dup1\n      revert\n        /* \"Final Smart Contract/Token_flattened.sol\":9062:9160  function name() public view virtual override returns (string memory) {... */\n    tag_3:\n      tag_27\n      tag_28\n      jump\t// in\n    tag_27:\n      mload(0x40)\n      tag_29\n      swap2\n      swap1\n      tag_30\n      jump\t// in\n    tag_29:\n      mload(0x40)\n      dup1\n      swap2\n      sub\n      swap1\n      return\n        /* \"Final Smart Contract/Token_flattened.sol\":11348:11545  function approve(address spender, uint256 amount) public virtual override returns (bool) {... */\n    tag_4:\n      tag_31\n      0x04\n      dup1\n      calldatasize\n      sub\n      dup2\n      add\n      swap1\n      tag_32\n      swap2\n      swap1\n      tag_33\n      jump\t// in\n    tag_32:\n      tag_34\n      jump\t// in\n    tag_31:\n      mload(0x40)\n      tag_35\n      swap2\n      swap1\n      tag_36\n      jump\t// in\n    tag_35:\n      mload(0x40)\n      dup1\n      swap2\n      sub\n      swap1\n      return\n        /* \"Final Smart Contract/Token_flattened.sol\":10159:10265  function totalSupply() public view virtual override returns (uint256) {... */\n    tag_5:\n      tag_37\n      tag_38\n      jump\t// in\n    tag_37:\n      mload(0x40)\n      tag_39\n      swap2\n      swap1\n      tag_40\n      jump\t// in\n    tag_39:\n      mload(0x40)\n      dup1\n      swap2\n      sub\n      swap1\n      return\n        /* \"Final Smart Contract/Token_flattened.sol\":12107:12363  function transferFrom(address from, address to, uint256 amount) public virtual override returns (bool) {... */\n    tag_6:\n      tag_41\n      0x04\n      dup1\n      calldatasize\n      sub\n      dup2\n      add\n      swap1\n      tag_42\n      swap2\n      swap1\n      tag_43\n      jump\t// in\n    tag_42:\n      tag_44\n      jump\t// in\n    tag_41:\n      mload(0x40)\n      tag_45\n      swap2\n      swap1\n      tag_36\n      jump\t// in\n    tag_45:\n      mload(0x40)\n      dup1\n      swap2\n      sub\n      swap1\n      return\n        /* \"Final Smart Contract/Token_flattened.sol\":10008:10099  function decimals() public view virtual override returns (uint8) {... */\n    tag_7:\n      tag_46\n      tag_47\n      jump\t// in\n    tag_46:\n      mload(0x40)\n      tag_48\n      swap2\n      swap1\n      tag_49\n      jump\t// in\n    tag_48:\n      mload(0x40)\n      dup1\n      swap2\n      sub\n      swap1\n      return\n        /* \"Final Smart Contract/Token_flattened.sol\":21516:21751  function withdrawTokens(uint256 amount) public onlyOwner {... */\n    tag_8:\n      tag_50\n      0x04\n      dup1\n      calldatasize\n      sub\n      dup2\n      add\n      swap1\n      tag_51\n      swap2\n      swap1\n      tag_52\n      jump\t// in\n    tag_51:\n      tag_53\n      jump\t// in\n    tag_50:\n      stop\n        /* \"Final Smart Contract/Token_flattened.sol\":12758:12992  function increaseAllowance(address spender, uint256 addedValue) public virtual returns (bool) {... */\n    tag_9:\n      tag_54\n      0x04\n      dup1\n      calldatasize\n      sub\n      dup2\n      add\n      swap1\n      tag_55\n      swap2\n      swap1\n      tag_33\n      jump\t// in\n    tag_55:\n      tag_56\n      jump\t// in\n    tag_54:\n      mload(0x40)\n      tag_57\n      swap2\n      swap1\n      tag_36\n      jump\t// in\n    tag_57:\n      mload(0x40)\n      dup1\n      swap2\n      sub\n      swap1\n      return\n        /* \"Final Smart Contract/Token_flattened.sol\":21305:21398  function mint(address to, uint256 amount) public onlyOwner {... */\n    tag_10:\n      tag_58\n      0x04\n      dup1\n      calldatasize\n      sub\n      dup2\n      add\n      swap1\n      tag_59\n      swap2\n      swap1\n      tag_33\n      jump\t// in\n    tag_59:\n      tag_60\n      jump\t// in\n    tag_58:\n      stop\n        /* \"Final Smart Contract/Token_flattened.sol\":20313:20402  function burn(uint256 amount) public virtual {... */\n    tag_11:\n      tag_61\n      0x04\n      dup1\n      calldatasize\n      sub\n      dup2\n      add\n      swap1\n      tag_62\n      swap2\n      swap1\n      tag_52\n      jump\t// in\n    tag_62:\n      tag_63\n      jump\t// in\n    tag_61:\n      stop\n        /* \"Final Smart Contract/Token_flattened.sol\":21757:21872  function tokenTransfer(address to, uint256 amount) public onlyOwner {... */\n    tag_12:\n      tag_64\n      0x04\n      dup1\n      calldatasize\n      sub\n      dup2\n      add\n      swap1\n      tag_65\n      swap2\n      swap1\n      tag_33\n      jump\t// in\n    tag_65:\n      tag_66\n      jump\t// in\n    tag_64:\n      stop\n        /* \"Final Smart Contract/Token_flattened.sol\":21404:21510  function setTokenPrice(uint256 newTokenPrice) public onlyOwner {... */\n    tag_13:\n      tag_67\n      0x04\n      dup1\n      calldatasize\n      sub\n      dup2\n      add\n      swap1\n      tag_68\n      swap2\n      swap1\n      tag_52\n      jump\t// in\n    tag_68:\n      tag_69\n      jump\t// in\n    tag_67:\n      stop\n        /* \"Final Smart Contract/Token_flattened.sol\":10323:10448  function balanceOf(address account) public view virtual override returns (uint256) {... */\n    tag_14:\n      tag_70\n      0x04\n      dup1\n      calldatasize\n      sub\n      dup2\n      add\n      swap1\n      tag_71\n      swap2\n      swap1\n      tag_72\n      jump\t// in\n    tag_71:\n      tag_73\n      jump\t// in\n    tag_70:\n      mload(0x40)\n      tag_74\n      swap2\n      swap1\n      tag_40\n      jump\t// in\n    tag_74:\n      mload(0x40)\n      dup1\n      swap2\n      sub\n      swap1\n      return\n        /* \"Final Smart Contract/Token_flattened.sol\":2714:2815  function renounceOwnership() public virtual onlyOwner {... */\n    tag_15:\n      tag_75\n      tag_76\n      jump\t// in\n    tag_75:\n      stop\n        /* \"Final Smart Contract/Token_flattened.sol\":20708:20869  function burnFrom(address account, uint256 amount) public virtual {... */\n    tag_16:\n      tag_77\n      0x04\n      dup1\n      calldatasize\n      sub\n      dup2\n      add\n      swap1\n      tag_78\n      swap2\n      swap1\n      tag_33\n      jump\t// in\n    tag_78:\n      tag_79\n      jump\t// in\n    tag_77:\n      stop\n        /* \"Final Smart Contract/Token_flattened.sol\":21000:21025  uint256 public tokenPrice */\n    tag_17:\n      tag_80\n      tag_81\n      jump\t// in\n    tag_80:\n      mload(0x40)\n      tag_82\n      swap2\n      swap1\n      tag_40\n      jump\t// in\n    tag_82:\n      mload(0x40)\n      dup1\n      swap2\n      sub\n      swap1\n      return\n        /* \"Final Smart Contract/Token_flattened.sol\":2091:2176  function owner() public view virtual returns (address) {... */\n    tag_18:\n      tag_83\n      tag_84\n      jump\t// in\n    tag_83:\n      mload(0x40)\n      tag_85\n      swap2\n      swap1\n      tag_86\n      jump\t// in\n    tag_85:\n      mload(0x40)\n      dup1\n      swap2\n      sub\n      swap1\n      return\n        /* \"Final Smart Contract/Token_flattened.sol\":9273:9375  function symbol() public view virtual override returns (string memory) {... */\n    tag_19:\n      tag_87\n      tag_88\n      jump\t// in\n    tag_87:\n      mload(0x40)\n      tag_89\n      swap2\n      swap1\n      tag_30\n      jump\t// in\n    tag_89:\n      mload(0x40)\n      dup1\n      swap2\n      sub\n      swap1\n      return\n        /* \"Final Smart Contract/Token_flattened.sol\":13479:13906  function decreaseAllowance(address spender, uint256 subtractedValue) public virtual returns (bool) {... */\n    tag_20:\n      tag_90\n      0x04\n      dup1\n      calldatasize\n      sub\n      dup2\n      add\n      swap1\n      tag_91\n      swap2\n      swap1\n      tag_33\n      jump\t// in\n    tag_91:\n      tag_92\n      jump\t// in\n    tag_90:\n      mload(0x40)\n      tag_93\n      swap2\n      swap1\n      tag_36\n      jump\t// in\n    tag_93:\n      mload(0x40)\n      dup1\n      swap2\n      sub\n      swap1\n      return\n        /* \"Final Smart Contract/Token_flattened.sol\":10644:10833  function transfer(address to, uint256 amount) public virtual override returns (bool) {... */\n    tag_21:\n      tag_94\n      0x04\n      dup1\n      calldatasize\n      sub\n      dup2\n      add\n      swap1\n      tag_95\n      swap2\n      swap1\n      tag_33\n      jump\t// in\n    tag_95:\n      tag_96\n      jump\t// in\n    tag_94:\n      mload(0x40)\n      tag_97\n      swap2\n      swap1\n      tag_36\n      jump\t// in\n    tag_97:\n      mload(0x40)\n      dup1\n      swap2\n      sub\n      swap1\n      return\n        /* \"Final Smart Contract/Token_flattened.sol\":10891:11040  function allowance(address owner, address spender) public view virtual override returns (uint256) {... */\n    tag_22:\n      tag_98\n      0x04\n      dup1\n      calldatasize\n      sub\n      dup2\n      add\n      swap1\n      tag_99\n      swap2\n      swap1\n      tag_100\n      jump\t// in\n    tag_99:\n      tag_101\n      jump\t// in\n    tag_98:\n      mload(0x40)\n      tag_102\n      swap2\n      swap1\n      tag_40\n      jump\t// in\n    tag_102:\n      mload(0x40)\n      dup1\n      swap2\n      sub\n      swap1\n      return\n        /* \"Final Smart Contract/Token_flattened.sol\":2964:3162  function transferOwnership(address newOwner) public virtual onlyOwner {... */\n    tag_23:\n      tag_103\n      0x04\n      dup1\n      calldatasize\n      sub\n      dup2\n      add\n      swap1\n      tag_104\n      swap2\n      swap1\n      tag_72\n      jump\t// in\n    tag_104:\n      tag_105\n      jump\t// in\n    tag_103:\n      stop\n        /* \"Final Smart Contract/Token_flattened.sol\":9062:9160  function name() public view virtual override returns (string memory) {... */\n    tag_28:\n        /* \"Final Smart Contract/Token_flattened.sol\":9116:9129  string memory */\n      0x60\n        /* \"Final Smart Contract/Token_flattened.sol\":9148:9153  _name */\n      0x03\n        /* \"Final Smart Contract/Token_flattened.sol\":9141:9153  return _name */\n      dup1\n      sload\n      tag_107\n      swap1\n      tag_108\n      jump\t// in\n    tag_107:\n      dup1\n      0x1f\n      add\n      0x20\n      dup1\n      swap2\n      div\n      mul\n      0x20\n      add\n      mload(0x40)\n      swap1\n      dup2\n      add\n      0x40\n      mstore\n      dup1\n      swap3\n      swap2\n      swap1\n      dup2\n      dup2\n      mstore\n      0x20\n      add\n      dup3\n      dup1\n      sload\n      tag_109\n      swap1\n      tag_108\n      jump\t// in\n    tag_109:\n      dup1\n      iszero\n      tag_110\n      jumpi\n      dup1\n      0x1f\n      lt\n      tag_111\n      jumpi\n      0x0100\n      dup1\n      dup4\n      sload\n      div\n      mul\n      dup4\n      mstore\n      swap2\n      0x20\n      add\n      swap2\n      jump(tag_110)\n    tag_111:\n      dup3\n      add\n      swap2\n      swap1\n      0x00\n      mstore\n      keccak256(0x00, 0x20)\n      swap1\n    tag_112:\n      dup2\n      sload\n      dup2\n      mstore\n      swap1\n      0x01\n      add\n      swap1\n      0x20\n      add\n      dup1\n      dup4\n      gt\n      tag_112\n      jumpi\n      dup3\n      swap1\n      sub\n      0x1f\n      and\n      dup3\n      add\n      swap2\n    tag_110:\n      pop\n      pop\n      pop\n      pop\n      pop\n      swap1\n      pop\n        /* \"Final Smart Contract/Token_flattened.sol\":9062:9160  function name() public view virtual override returns (string memory) {... */\n      swap1\n      jump\t// out\n        /* \"Final Smart Contract/Token_flattened.sol\":11348:11545  function approve(address spender, uint256 amount) public virtual override returns (bool) {... */\n    tag_34:\n        /* \"Final Smart Contract/Token_flattened.sol\":11431:11435  bool */\n      0x00\n        /* \"Final Smart Contract/Token_flattened.sol\":11447:11460  address owner */\n      dup1\n        /* \"Final Smart Contract/Token_flattened.sol\":11463:11475  _msgSender() */\n      tag_114\n        /* \"Final Smart Contract/Token_flattened.sol\":11463:11473  _msgSender */\n      tag_115\n        /* \"Final Smart Contract/Token_flattened.sol\":11463:11475  _msgSender() */\n      jump\t// in\n    tag_114:\n        /* \"Final Smart Contract/Token_flattened.sol\":11447:11475  address owner = _msgSender() */\n      swap1\n      pop\n        /* \"Final Smart Contract/Token_flattened.sol\":11485:11517  _approve(owner, spender, amount) */\n      tag_116\n        /* \"Final Smart Contract/Token_flattened.sol\":11494:11499  owner */\n      dup2\n        /* \"Final Smart Contract/Token_flattened.sol\":11501:11508  spender */\n      dup6\n        /* \"Final Smart Contract/Token_flattened.sol\":11510:11516  amount */\n      dup6\n        /* \"Final Smart Contract/Token_flattened.sol\":11485:11493  _approve */\n      tag_117\n        /* \"Final Smart Contract/Token_flattened.sol\":11485:11517  _approve(owner, spender, amount) */\n      jump\t// in\n    tag_116:\n        /* \"Final Smart Contract/Token_flattened.sol\":11534:11538  true */\n      0x01\n        /* \"Final Smart Contract/Token_flattened.sol\":11527:11538  return true */\n      swap2\n      pop\n      pop\n        /* \"Final Smart Contract/Token_flattened.sol\":11348:11545  function approve(address spender, uint256 amount) public virtual override returns (bool) {... */\n      swap3\n      swap2\n      pop\n      pop\n      jump\t// out\n        /* \"Final Smart Contract/Token_flattened.sol\":10159:10265  function totalSupply() public view virtual override returns (uint256) {... */\n    tag_38:\n        /* \"Final Smart Contract/Token_flattened.sol\":10220:10227  uint256 */\n      0x00\n        /* \"Final Smart Contract/Token_flattened.sol\":10246:10258  _totalSupply */\n      sload(0x02)\n        /* \"Final Smart Contract/Token_flattened.sol\":10239:10258  return _totalSupply */\n      swap1\n      pop\n        /* \"Final Smart Contract/Token_flattened.sol\":10159:10265  function totalSupply() public view virtual override returns (uint256) {... */\n      swap1\n      jump\t// out\n        /* \"Final Smart Contract/Token_flattened.sol\":12107:12363  function transferFrom(address from, address to, uint256 amount) public virtual override returns (bool) {... */\n    tag_44:\n        /* \"Final Smart Contract/Token_flattened.sol\":12204:12208  bool */\n      0x00\n        /* \"Final Smart Contract/Token_flattened.sol\":12220:12235  address spender */\n      dup1\n        /* \"Final Smart Contract/Token_flattened.sol\":12238:12250  _msgSender() */\n      tag_120\n        /* \"Final Smart Contract/Token_flattened.sol\":12238:12248  _msgSender */\n      tag_115\n        /* \"Final Smart Contract/Token_flattened.sol\":12238:12250  _msgSender() */\n      jump\t// in\n    tag_120:\n        /* \"Final Smart Contract/Token_flattened.sol\":12220:12250  address spender = _msgSender() */\n      swap1\n      pop\n        /* \"Final Smart Contract/Token_flattened.sol\":12260:12298  _spendAllowance(from, spender, amount) */\n      tag_121\n        /* \"Final Smart Contract/Token_flattened.sol\":12276:12280  from */\n      dup6\n        /* \"Final Smart Contract/Token_flattened.sol\":12282:12289  spender */\n      dup3\n        /* \"Final Smart Contract/Token_flattened.sol\":12291:12297  amount */\n      dup6\n        /* \"Final Smart Contract/Token_flattened.sol\":12260:12275  _spendAllowance */\n      tag_122\n        /* \"Final Smart Contract/Token_flattened.sol\":12260:12298  _spendAllowance(from, spender, amount) */\n      jump\t// in\n    tag_121:\n        /* \"Final Smart Contract/Token_flattened.sol\":12308:12335  _transfer(from, to, amount) */\n      tag_123\n        /* \"Final Smart Contract/Token_flattened.sol\":12318:12322  from */\n      dup6\n        /* \"Final Smart Contract/Token_flattened.sol\":12324:12326  to */\n      dup6\n        /* \"Final Smart Contract/Token_flattened.sol\":12328:12334  amount */\n      dup6\n        /* \"Final Smart Contract/Token_flattened.sol\":12308:12317  _transfer */\n      tag_124\n        /* \"Final Smart Contract/Token_flattened.sol\":12308:12335  _transfer(from, to, amount) */\n      jump\t// in\n    tag_123:\n        /* \"Final Smart Contract/Token_flattened.sol\":12352:12356  true */\n      0x01\n        /* \"Final Smart Contract/Token_flattened.sol\":12345:12356  return true */\n      swap2\n      pop\n      pop\n        /* \"Final Smart Contract/Token_flattened.sol\":12107:12363  function transferFrom(address from, address to, uint256 amount) public virtual override returns (bool) {... */\n      swap4\n      swap3\n      pop\n      pop\n      pop\n      jump\t// out\n        /* \"Final Smart Contract/Token_flattened.sol\":10008:10099  function decimals() public view virtual override returns (uint8) {... */\n    tag_47:\n        /* \"Final Smart Contract/Token_flattened.sol\":10066:10071  uint8 */\n      0x00\n        /* \"Final Smart Contract/Token_flattened.sol\":10090:10092  18 */\n      0x12\n        /* \"Final Smart Contract/Token_flattened.sol\":10083:10092  return 18 */\n      swap1\n      pop\n        /* \"Final Smart Contract/Token_flattened.sol\":10008:10099  function decimals() public view virtual override returns (uint8) {... */\n      swap1\n      jump\t// out\n        /* \"Final Smart Contract/Token_flattened.sol\":21516:21751  function withdrawTokens(uint256 amount) public onlyOwner {... */\n    tag_53:\n        /* \"Final Smart Contract/Token_flattened.sol\":1984:1997  _checkOwner() */\n      tag_127\n        /* \"Final Smart Contract/Token_flattened.sol\":1984:1995  _checkOwner */\n      tag_128\n        /* \"Final Smart Contract/Token_flattened.sol\":1984:1997  _checkOwner() */\n      jump\t// in\n    tag_127:\n        /* \"Final Smart Contract/Token_flattened.sol\":21614:21638  balanceOf(address(this)) */\n      tag_130\n        /* \"Final Smart Contract/Token_flattened.sol\":21632:21636  this */\n      address\n        /* \"Final Smart Contract/Token_flattened.sol\":21614:21623  balanceOf */\n      tag_73\n        /* \"Final Smart Contract/Token_flattened.sol\":21614:21638  balanceOf(address(this)) */\n      jump\t// in\n    tag_130:\n        /* \"Final Smart Contract/Token_flattened.sol\":21604:21610  amount */\n      dup2\n        /* \"Final Smart Contract/Token_flattened.sol\":21604:21638  amount <= balanceOf(address(this)) */\n      gt\n      iszero\n        /* \"Final Smart Contract/Token_flattened.sol\":21583:21693  require(... */\n      tag_131\n      jumpi\n      mload(0x40)\n      0x08c379a000000000000000000000000000000000000000000000000000000000\n      dup2\n      mstore\n      0x04\n      add\n      tag_132\n      swap1\n      tag_133\n      jump\t// in\n    tag_132:\n      mload(0x40)\n      dup1\n      swap2\n      sub\n      swap1\n      revert\n    tag_131:\n        /* \"Final Smart Contract/Token_flattened.sol\":21703:21744  _transfer(address(this), owner(), amount) */\n      tag_134\n        /* \"Final Smart Contract/Token_flattened.sol\":21721:21725  this */\n      address\n        /* \"Final Smart Contract/Token_flattened.sol\":21728:21735  owner() */\n      tag_135\n        /* \"Final Smart Contract/Token_flattened.sol\":21728:21733  owner */\n      tag_84\n        /* \"Final Smart Contract/Token_flattened.sol\":21728:21735  owner() */\n      jump\t// in\n    tag_135:\n        /* \"Final Smart Contract/Token_flattened.sol\":21737:21743  amount */\n      dup4\n        /* \"Final Smart Contract/Token_flattened.sol\":21703:21712  _transfer */\n      tag_124\n        /* \"Final Smart Contract/Token_flattened.sol\":21703:21744  _transfer(address(this), owner(), amount) */\n      jump\t// in\n    tag_134:\n        /* \"Final Smart Contract/Token_flattened.sol\":21516:21751  function withdrawTokens(uint256 amount) public onlyOwner {... */\n      pop\n      jump\t// out\n        /* \"Final Smart Contract/Token_flattened.sol\":12758:12992  function increaseAllowance(address spender, uint256 addedValue) public virtual returns (bool) {... */\n    tag_56:\n        /* \"Final Smart Contract/Token_flattened.sol\":12846:12850  bool */\n      0x00\n        /* \"Final Smart Contract/Token_flattened.sol\":12862:12875  address owner */\n      dup1\n        /* \"Final Smart Contract/Token_flattened.sol\":12878:12890  _msgSender() */\n      tag_137\n        /* \"Final Smart Contract/Token_flattened.sol\":12878:12888  _msgSender */\n      tag_115\n        /* \"Final Smart Contract/Token_flattened.sol\":12878:12890  _msgSender() */\n      jump\t// in\n    tag_137:\n        /* \"Final Smart Contract/Token_flattened.sol\":12862:12890  address owner = _msgSender() */\n      swap1\n      pop\n        /* \"Final Smart Contract/Token_flattened.sol\":12900:12964  _approve(owner, spender, allowance(owner, spender) + addedValue) */\n      tag_138\n        /* \"Final Smart Contract/Token_flattened.sol\":12909:12914  owner */\n      dup2\n        /* \"Final Smart Contract/Token_flattened.sol\":12916:12923  spender */\n      dup6\n        /* \"Final Smart Contract/Token_flattened.sol\":12953:12963  addedValue */\n      dup6\n        /* \"Final Smart Contract/Token_flattened.sol\":12925:12950  allowance(owner, spender) */\n      tag_139\n        /* \"Final Smart Contract/Token_flattened.sol\":12935:12940  owner */\n      dup6\n        /* \"Final Smart Contract/Token_flattened.sol\":12942:12949  spender */\n      dup10\n        /* \"Final Smart Contract/Token_flattened.sol\":12925:12934  allowance */\n      tag_101\n        /* \"Final Smart Contract/Token_flattened.sol\":12925:12950  allowance(owner, spender) */\n      jump\t// in\n    tag_139:\n        /* \"Final Smart Contract/Token_flattened.sol\":12925:12963  allowance(owner, spender) + addedValue */\n      tag_140\n      swap2\n      swap1\n      tag_141\n      jump\t// in\n    tag_140:\n        /* \"Final Smart Contract/Token_flattened.sol\":12900:12908  _approve */\n      tag_117\n        /* \"Final Smart Contract/Token_flattened.sol\":12900:12964  _approve(owner, spender, allowance(owner, spender) + addedValue) */\n      jump\t// in\n    tag_138:\n        /* \"Final Smart Contract/Token_flattened.sol\":12981:12985  true */\n      0x01\n        /* \"Final Smart Contract/Token_flattened.sol\":12974:12985  return true */\n      swap2\n      pop\n      pop\n        /* \"Final Smart Contract/Token_flattened.sol\":12758:12992  function increaseAllowance(address spender, uint256 addedValue) public virtual returns (bool) {... */\n      swap3\n      swap2\n      pop\n      pop\n      jump\t// out\n        /* \"Final Smart Contract/Token_flattened.sol\":21305:21398  function mint(address to, uint256 amount) public onlyOwner {... */\n    tag_60:\n        /* \"Final Smart Contract/Token_flattened.sol\":1984:1997  _checkOwner() */\n      tag_143\n        /* \"Final Smart Contract/Token_flattened.sol\":1984:1995  _checkOwner */\n      tag_128\n        /* \"Final Smart Contract/Token_flattened.sol\":1984:1997  _checkOwner() */\n      jump\t// in\n    tag_143:\n        /* \"Final Smart Contract/Token_flattened.sol\":21374:21391  _mint(to, amount) */\n      tag_145\n        /* \"Final Smart Contract/Token_flattened.sol\":21380:21382  to */\n      dup3\n        /* \"Final Smart Contract/Token_flattened.sol\":21384:21390  amount */\n      dup3\n        /* \"Final Smart Contract/Token_flattened.sol\":21374:21379  _mint */\n      tag_146\n        /* \"Final Smart Contract/Token_flattened.sol\":21374:21391  _mint(to, amount) */\n      jump\t// in\n    tag_145:\n        /* \"Final Smart Contract/Token_flattened.sol\":21305:21398  function mint(address to, uint256 amount) public onlyOwner {... */\n      pop\n      pop\n      jump\t// out\n        /* \"Final Smart Contract/Token_flattened.sol\":20313:20402  function burn(uint256 amount) public virtual {... */\n    tag_63:\n        /* \"Final Smart Contract/Token_flattened.sol\":20368:20395  _burn(_msgSender(), amount) */\n      tag_148\n        /* \"Final Smart Contract/Token_flattened.sol\":20374:20386  _msgSender() */\n      tag_149\n        /* \"Final Smart Contract/Token_flattened.sol\":20374:20384  _msgSender */\n      tag_115\n        /* \"Final Smart Contract/Token_flattened.sol\":20374:20386  _msgSender() */\n      jump\t// in\n    tag_149:\n        /* \"Final Smart Contract/Token_flattened.sol\":20388:20394  amount */\n      dup3\n        /* \"Final Smart Contract/Token_flattened.sol\":20368:20373  _burn */\n      tag_150\n        /* \"Final Smart Contract/Token_flattened.sol\":20368:20395  _burn(_msgSender(), amount) */\n      jump\t// in\n    tag_148:\n        /* \"Final Smart Contract/Token_flattened.sol\":20313:20402  function burn(uint256 amount) public virtual {... */\n      pop\n      jump\t// out\n        /* \"Final Smart Contract/Token_flattened.sol\":21757:21872  function tokenTransfer(address to, uint256 amount) public onlyOwner {... */\n    tag_66:\n        /* \"Final Smart Contract/Token_flattened.sol\":1984:1997  _checkOwner() */\n      tag_152\n        /* \"Final Smart Contract/Token_flattened.sol\":1984:1995  _checkOwner */\n      tag_128\n        /* \"Final Smart Contract/Token_flattened.sol\":1984:1997  _checkOwner() */\n      jump\t// in\n    tag_152:\n        /* \"Final Smart Contract/Token_flattened.sol\":21835:21865  _transfer(owner(), to, amount) */\n      tag_154\n        /* \"Final Smart Contract/Token_flattened.sol\":21845:21852  owner() */\n      tag_155\n        /* \"Final Smart Contract/Token_flattened.sol\":21845:21850  owner */\n      tag_84\n        /* \"Final Smart Contract/Token_flattened.sol\":21845:21852  owner() */\n      jump\t// in\n    tag_155:\n        /* \"Final Smart Contract/Token_flattened.sol\":21854:21856  to */\n      dup4\n        /* \"Final Smart Contract/Token_flattened.sol\":21858:21864  amount */\n      dup4\n        /* \"Final Smart Contract/Token_flattened.sol\":21835:21844  _transfer */\n      tag_124\n        /* \"Final Smart Contract/Token_flattened.sol\":21835:21865  _transfer(owner(), to, amount) */\n      jump\t// in\n    tag_154:\n        /* \"Final Smart Contract/Token_flattened.sol\":21757:21872  function tokenTransfer(address to, uint256 amount) public onlyOwner {... */\n      pop\n      pop\n      jump\t// out\n        /* \"Final Smart Contract/Token_flattened.sol\":21404:21510  function setTokenPrice(uint256 newTokenPrice) public onlyOwner {... */\n    tag_69:\n        /* \"Final Smart Contract/Token_flattened.sol\":1984:1997  _checkOwner() */\n      tag_157\n        /* \"Final Smart Contract/Token_flattened.sol\":1984:1995  _checkOwner */\n      tag_128\n        /* \"Final Smart Contract/Token_flattened.sol\":1984:1997  _checkOwner() */\n      jump\t// in\n    tag_157:\n        /* \"Final Smart Contract/Token_flattened.sol\":21490:21503  newTokenPrice */\n      dup1\n        /* \"Final Smart Contract/Token_flattened.sol\":21477:21487  tokenPrice */\n      0x06\n        /* \"Final Smart Contract/Token_flattened.sol\":21477:21503  tokenPrice = newTokenPrice */\n      dup2\n      swap1\n      sstore\n      pop\n        /* \"Final Smart Contract/Token_flattened.sol\":21404:21510  function setTokenPrice(uint256 newTokenPrice) public onlyOwner {... */\n      pop\n      jump\t// out\n        /* \"Final Smart Contract/Token_flattened.sol\":10323:10448  function balanceOf(address account) public view virtual override returns (uint256) {... */\n    tag_73:\n        /* \"Final Smart Contract/Token_flattened.sol\":10397:10404  uint256 */\n      0x00\n        /* \"Final Smart Contract/Token_flattened.sol\":10423:10432  _balances */\n      dup1\n        /* \"Final Smart Contract/Token_flattened.sol\":10423:10441  _balances[account] */\n      0x00\n        /* \"Final Smart Contract/Token_flattened.sol\":10433:10440  account */\n      dup4\n        /* \"Final Smart Contract/Token_flattened.sol\":10423:10441  _balances[account] */\n      0xffffffffffffffffffffffffffffffffffffffff\n      and\n      0xffffffffffffffffffffffffffffffffffffffff\n      and\n      dup2\n      mstore\n      0x20\n      add\n      swap1\n      dup2\n      mstore\n      0x20\n      add\n      0x00\n      keccak256\n      sload\n        /* \"Final Smart Contract/Token_flattened.sol\":10416:10441  return _balances[account] */\n      swap1\n      pop\n        /* \"Final Smart Contract/Token_flattened.sol\":10323:10448  function balanceOf(address account) public view virtual override returns (uint256) {... */\n      swap2\n      swap1\n      pop\n      jump\t// out\n        /* \"Final Smart Contract/Token_flattened.sol\":2714:2815  function renounceOwnership() public virtual onlyOwner {... */\n    tag_76:\n        /* \"Final Smart Contract/Token_flattened.sol\":1984:1997  _checkOwner() */\n      tag_161\n        /* \"Final Smart Contract/Token_flattened.sol\":1984:1995  _checkOwner */\n      tag_128\n        /* \"Final Smart Contract/Token_flattened.sol\":1984:1997  _checkOwner() */\n      jump\t// in\n    tag_161:\n        /* \"Final Smart Contract/Token_flattened.sol\":2778:2808  _transferOwnership(address(0)) */\n      tag_163\n        /* \"Final Smart Contract/Token_flattened.sol\":2805:2806  0 */\n      0x00\n        /* \"Final Smart Contract/Token_flattened.sol\":2778:2796  _transferOwnership */\n      tag_164\n        /* \"Final Smart Contract/Token_flattened.sol\":2778:2808  _transferOwnership(address(0)) */\n      jump\t// in\n    tag_163:\n        /* \"Final Smart Contract/Token_flattened.sol\":2714:2815  function renounceOwnership() public virtual onlyOwner {... */\n      jump\t// out\n        /* \"Final Smart Contract/Token_flattened.sol\":20708:20869  function burnFrom(address account, uint256 amount) public virtual {... */\n    tag_79:\n        /* \"Final Smart Contract/Token_flattened.sol\":20784:20830  _spendAllowance(account, _msgSender(), amount) */\n      tag_166\n        /* \"Final Smart Contract/Token_flattened.sol\":20800:20807  account */\n      dup3\n        /* \"Final Smart Contract/Token_flattened.sol\":20809:20821  _msgSender() */\n      tag_167\n        /* \"Final Smart Contract/Token_flattened.sol\":20809:20819  _msgSender */\n      tag_115\n        /* \"Final Smart Contract/Token_flattened.sol\":20809:20821  _msgSender() */\n      jump\t// in\n    tag_167:\n        /* \"Final Smart Contract/Token_flattened.sol\":20823:20829  amount */\n      dup4\n        /* \"Final Smart Contract/Token_flattened.sol\":20784:20799  _spendAllowance */\n      tag_122\n        /* \"Final Smart Contract/Token_flattened.sol\":20784:20830  _spendAllowance(account, _msgSender(), amount) */\n      jump\t// in\n    tag_166:\n        /* \"Final Smart Contract/Token_flattened.sol\":20840:20862  _burn(account, amount) */\n      tag_168\n        /* \"Final Smart Contract/Token_flattened.sol\":20846:20853  account */\n      dup3\n        /* \"Final Smart Contract/Token_flattened.sol\":20855:20861  amount */\n      dup3\n        /* \"Final Smart Contract/Token_flattened.sol\":20840:20845  _burn */\n      tag_150\n        /* \"Final Smart Contract/Token_flattened.sol\":20840:20862  _burn(account, amount) */\n      jump\t// in\n    tag_168:\n        /* \"Final Smart Contract/Token_flattened.sol\":20708:20869  function burnFrom(address account, uint256 amount) public virtual {... */\n      pop\n      pop\n      jump\t// out\n        /* \"Final Smart Contract/Token_flattened.sol\":21000:21025  uint256 public tokenPrice */\n    tag_81:\n      sload(0x06)\n      dup2\n      jump\t// out\n        /* \"Final Smart Contract/Token_flattened.sol\":2091:2176  function owner() public view virtual returns (address) {... */\n    tag_84:\n        /* \"Final Smart Contract/Token_flattened.sol\":2137:2144  address */\n      0x00\n        /* \"Final Smart Contract/Token_flattened.sol\":2163:2169  _owner */\n      0x05\n      0x00\n      swap1\n      sload\n      swap1\n      0x0100\n      exp\n      swap1\n      div\n      0xffffffffffffffffffffffffffffffffffffffff\n      and\n        /* \"Final Smart Contract/Token_flattened.sol\":2156:2169  return _owner */\n      swap1\n      pop\n        /* \"Final Smart Contract/Token_flattened.sol\":2091:2176  function owner() public view virtual returns (address) {... */\n      swap1\n      jump\t// out\n        /* \"Final Smart Contract/Token_flattened.sol\":9273:9375  function symbol() public view virtual override returns (string memory) {... */\n    tag_88:\n        /* \"Final Smart Contract/Token_flattened.sol\":9329:9342  string memory */\n      0x60\n        /* \"Final Smart Contract/Token_flattened.sol\":9361:9368  _symbol */\n      0x04\n        /* \"Final Smart Contract/Token_flattened.sol\":9354:9368  return _symbol */\n      dup1\n      sload\n      tag_171\n      swap1\n      tag_108\n      jump\t// in\n    tag_171:\n      dup1\n      0x1f\n      add\n      0x20\n      dup1\n      swap2\n      div\n      mul\n      0x20\n      add\n      mload(0x40)\n      swap1\n      dup2\n      add\n      0x40\n      mstore\n      dup1\n      swap3\n      swap2\n      swap1\n      dup2\n      dup2\n      mstore\n      0x20\n      add\n      dup3\n      dup1\n      sload\n      tag_172\n      swap1\n      tag_108\n      jump\t// in\n    tag_172:\n      dup1\n      iszero\n      tag_173\n      jumpi\n      dup1\n      0x1f\n      lt\n      tag_174\n      jumpi\n      0x0100\n      dup1\n      dup4\n      sload\n      div\n      mul\n      dup4\n      mstore\n      swap2\n      0x20\n      add\n      swap2\n      jump(tag_173)\n    tag_174:\n      dup3\n      add\n      swap2\n      swap1\n      0x00\n      mstore\n      keccak256(0x00, 0x20)\n      swap1\n    tag_175:\n      dup2\n      sload\n      dup2\n      mstore\n      swap1\n      0x01\n      add\n      swap1\n      0x20\n      add\n      dup1\n      dup4\n      gt\n      tag_175\n      jumpi\n      dup3\n      swap1\n      sub\n      0x1f\n      and\n      dup3\n      add\n      swap2\n    tag_173:\n      pop\n      pop\n      pop\n      pop\n      pop\n      swap1\n      pop\n        /* \"Final Smart Contract/Token_flattened.sol\":9273:9375  function symbol() public view virtual override returns (string memory) {... */\n      swap1\n      jump\t// out\n        /* \"Final Smart Contract/Token_flattened.sol\":13479:13906  function decreaseAllowance(address spender, uint256 subtractedValue) public virtual returns (bool) {... */\n    tag_92:\n        /* \"Final Smart Contract/Token_flattened.sol\":13572:13576  bool */\n      0x00\n        /* \"Final Smart Contract/Token_flattened.sol\":13588:13601  address owner */\n      dup1\n        /* \"Final Smart Contract/Token_flattened.sol\":13604:13616  _msgSender() */\n      tag_177\n        /* \"Final Smart Contract/Token_flattened.sol\":13604:13614  _msgSender */\n      tag_115\n        /* \"Final Smart Contract/Token_flattened.sol\":13604:13616  _msgSender() */\n      jump\t// in\n    tag_177:\n        /* \"Final Smart Contract/Token_flattened.sol\":13588:13616  address owner = _msgSender() */\n      swap1\n      pop\n        /* \"Final Smart Contract/Token_flattened.sol\":13626:13650  uint256 currentAllowance */\n      0x00\n        /* \"Final Smart Contract/Token_flattened.sol\":13653:13678  allowance(owner, spender) */\n      tag_178\n        /* \"Final Smart Contract/Token_flattened.sol\":13663:13668  owner */\n      dup3\n        /* \"Final Smart Contract/Token_flattened.sol\":13670:13677  spender */\n      dup7\n        /* \"Final Smart Contract/Token_flattened.sol\":13653:13662  allowance */\n      tag_101\n        /* \"Final Smart Contract/Token_flattened.sol\":13653:13678  allowance(owner, spender) */\n      jump\t// in\n    tag_178:\n        /* \"Final Smart Contract/Token_flattened.sol\":13626:13678  uint256 currentAllowance = allowance(owner, spender) */\n      swap1\n      pop\n        /* \"Final Smart Contract/Token_flattened.sol\":13716:13731  subtractedValue */\n      dup4\n        /* \"Final Smart Contract/Token_flattened.sol\":13696:13712  currentAllowance */\n      dup2\n        /* \"Final Smart Contract/Token_flattened.sol\":13696:13731  currentAllowance >= subtractedValue */\n      lt\n      iszero\n        /* \"Final Smart Contract/Token_flattened.sol\":13688:13773  require(currentAllowance >= subtractedValue, \"ERC20: decreased allowance below zero\") */\n      tag_179\n      jumpi\n      mload(0x40)\n      0x08c379a000000000000000000000000000000000000000000000000000000000\n      dup2\n      mstore\n      0x04\n      add\n      tag_180\n      swap1\n      tag_181\n      jump\t// in\n    tag_180:\n      mload(0x40)\n      dup1\n      swap2\n      sub\n      swap1\n      revert\n    tag_179:\n        /* \"Final Smart Contract/Token_flattened.sol\":13807:13867  _approve(owner, spender, currentAllowance - subtractedValue) */\n      tag_182\n        /* \"Final Smart Contract/Token_flattened.sol\":13816:13821  owner */\n      dup3\n        /* \"Final Smart Contract/Token_flattened.sol\":13823:13830  spender */\n      dup7\n        /* \"Final Smart Contract/Token_flattened.sol\":13851:13866  subtractedValue */\n      dup7\n        /* \"Final Smart Contract/Token_flattened.sol\":13832:13848  currentAllowance */\n      dup5\n        /* \"Final Smart Contract/Token_flattened.sol\":13832:13866  currentAllowance - subtractedValue */\n      sub\n        /* \"Final Smart Contract/Token_flattened.sol\":13807:13815  _approve */\n      tag_117\n        /* \"Final Smart Contract/Token_flattened.sol\":13807:13867  _approve(owner, spender, currentAllowance - subtractedValue) */\n      jump\t// in\n    tag_182:\n        /* \"Final Smart Contract/Token_flattened.sol\":13895:13899  true */\n      0x01\n        /* \"Final Smart Contract/Token_flattened.sol\":13888:13899  return true */\n      swap3\n      pop\n      pop\n      pop\n        /* \"Final Smart Contract/Token_flattened.sol\":13479:13906  function decreaseAllowance(address spender, uint256 subtractedValue) public virtual returns (bool) {... */\n      swap3\n      swap2\n      pop\n      pop\n      jump\t// out\n        /* \"Final Smart Contract/Token_flattened.sol\":10644:10833  function transfer(address to, uint256 amount) public virtual override returns (bool) {... */\n    tag_96:\n        /* \"Final Smart Contract/Token_flattened.sol\":10723:10727  bool */\n      0x00\n        /* \"Final Smart Contract/Token_flattened.sol\":10739:10752  address owner */\n      dup1\n        /* \"Final Smart Contract/Token_flattened.sol\":10755:10767  _msgSender() */\n      tag_184\n        /* \"Final Smart Contract/Token_flattened.sol\":10755:10765  _msgSender */\n      tag_115\n        /* \"Final Smart Contract/Token_flattened.sol\":10755:10767  _msgSender() */\n      jump\t// in\n    tag_184:\n        /* \"Final Smart Contract/Token_flattened.sol\":10739:10767  address owner = _msgSender() */\n      swap1\n      pop\n        /* \"Final Smart Contract/Token_flattened.sol\":10777:10805  _transfer(owner, to, amount) */\n      tag_185\n        /* \"Final Smart Contract/Token_flattened.sol\":10787:10792  owner */\n      dup2\n        /* \"Final Smart Contract/Token_flattened.sol\":10794:10796  to */\n      dup6\n        /* \"Final Smart Contract/Token_flattened.sol\":10798:10804  amount */\n      dup6\n        /* \"Final Smart Contract/Token_flattened.sol\":10777:10786  _transfer */\n      tag_124\n        /* \"Final Smart Contract/Token_flattened.sol\":10777:10805  _transfer(owner, to, amount) */\n      jump\t// in\n    tag_185:\n        /* \"Final Smart Contract/Token_flattened.sol\":10822:10826  true */\n      0x01\n        /* \"Final Smart Contract/Token_flattened.sol\":10815:10826  return true */\n      swap2\n      pop\n      pop\n        /* \"Final Smart Contract/Token_flattened.sol\":10644:10833  function transfer(address to, uint256 amount) public virtual override returns (bool) {... */\n      swap3\n      swap2\n      pop\n      pop\n      jump\t// out\n        /* \"Final Smart Contract/Token_flattened.sol\":10891:11040  function allowance(address owner, address spender) public view virtual override returns (uint256) {... */\n    tag_101:\n        /* \"Final Smart Contract/Token_flattened.sol\":10980:10987  uint256 */\n      0x00\n        /* \"Final Smart Contract/Token_flattened.sol\":11006:11017  _allowances */\n      0x01\n        /* \"Final Smart Contract/Token_flattened.sol\":11006:11024  _allowances[owner] */\n      0x00\n        /* \"Final Smart Contract/Token_flattened.sol\":11018:11023  owner */\n      dup5\n        /* \"Final Smart Contract/Token_flattened.sol\":11006:11024  _allowances[owner] */\n      0xffffffffffffffffffffffffffffffffffffffff\n      and\n      0xffffffffffffffffffffffffffffffffffffffff\n      and\n      dup2\n      mstore\n      0x20\n      add\n      swap1\n      dup2\n      mstore\n      0x20\n      add\n      0x00\n      keccak256\n        /* \"Final Smart Contract/Token_flattened.sol\":11006:11033  _allowances[owner][spender] */\n      0x00\n        /* \"Final Smart Contract/Token_flattened.sol\":11025:11032  spender */\n      dup4\n        /* \"Final Smart Contract/Token_flattened.sol\":11006:11033  _allowances[owner][spender] */\n      0xffffffffffffffffffffffffffffffffffffffff\n      and\n      0xffffffffffffffffffffffffffffffffffffffff\n      and\n      dup2\n      mstore\n      0x20\n      add\n      swap1\n      dup2\n      mstore\n      0x20\n      add\n      0x00\n      keccak256\n      sload\n        /* \"Final Smart Contract/Token_flattened.sol\":10999:11033  return _allowances[owner][spender] */\n      swap1\n      pop\n        /* \"Final Smart Contract/Token_flattened.sol\":10891:11040  function allowance(address owner, address spender) public view virtual override returns (uint256) {... */\n      swap3\n      swap2\n      pop\n      pop\n      jump\t// out\n        /* \"Final Smart Contract/Token_flattened.sol\":2964:3162  function transferOwnership(address newOwner) public virtual onlyOwner {... */\n    tag_105:\n        /* \"Final Smart Contract/Token_flattened.sol\":1984:1997  _checkOwner() */\n      tag_188\n        /* \"Final Smart Contract/Token_flattened.sol\":1984:1995  _checkOwner */\n      tag_128\n        /* \"Final Smart Contract/Token_flattened.sol\":1984:1997  _checkOwner() */\n      jump\t// in\n    tag_188:\n        /* \"Final Smart Contract/Token_flattened.sol\":3072:3073  0 */\n      0x00\n        /* \"Final Smart Contract/Token_flattened.sol\":3052:3074  newOwner != address(0) */\n      0xffffffffffffffffffffffffffffffffffffffff\n      and\n        /* \"Final Smart Contract/Token_flattened.sol\":3052:3060  newOwner */\n      dup2\n        /* \"Final Smart Contract/Token_flattened.sol\":3052:3074  newOwner != address(0) */\n      0xffffffffffffffffffffffffffffffffffffffff\n      and\n      sub\n        /* \"Final Smart Contract/Token_flattened.sol\":3044:3117  require(newOwner != address(0), \"Ownable: new owner is the zero address\") */\n      tag_190\n      jumpi\n      mload(0x40)\n      0x08c379a000000000000000000000000000000000000000000000000000000000\n      dup2\n      mstore\n      0x04\n      add\n      tag_191\n      swap1\n      tag_192\n      jump\t// in\n    tag_191:\n      mload(0x40)\n      dup1\n      swap2\n      sub\n      swap1\n      revert\n    tag_190:\n        /* \"Final Smart Contract/Token_flattened.sol\":3127:3155  _transferOwnership(newOwner) */\n      tag_193\n        /* \"Final Smart Contract/Token_flattened.sol\":3146:3154  newOwner */\n      dup2\n        /* \"Final Smart Contract/Token_flattened.sol\":3127:3145  _transferOwnership */\n      tag_164\n        /* \"Final Smart Contract/Token_flattened.sol\":3127:3155  _transferOwnership(newOwner) */\n      jump\t// in\n    tag_193:\n        /* \"Final Smart Contract/Token_flattened.sol\":2964:3162  function transferOwnership(address newOwner) public virtual onlyOwner {... */\n      pop\n      jump\t// out\n        /* \"Final Smart Contract/Token_flattened.sol\":694:790  function _msgSender() internal view virtual returns (address) {... */\n    tag_115:\n        /* \"Final Smart Contract/Token_flattened.sol\":747:754  address */\n      0x00\n        /* \"Final Smart Contract/Token_flattened.sol\":773:783  msg.sender */\n      caller\n        /* \"Final Smart Contract/Token_flattened.sol\":766:783  return msg.sender */\n      swap1\n      pop\n        /* \"Final Smart Contract/Token_flattened.sol\":694:790  function _msgSender() internal view virtual returns (address) {... */\n      swap1\n      jump\t// out\n        /* \"Final Smart Contract/Token_flattened.sol\":17361:17701  function _approve(address owner, address spender, uint256 amount) internal virtual {... */\n    tag_117:\n        /* \"Final Smart Contract/Token_flattened.sol\":17479:17480  0 */\n      0x00\n        /* \"Final Smart Contract/Token_flattened.sol\":17462:17481  owner != address(0) */\n      0xffffffffffffffffffffffffffffffffffffffff\n      and\n        /* \"Final Smart Contract/Token_flattened.sol\":17462:17467  owner */\n      dup4\n        /* \"Final Smart Contract/Token_flattened.sol\":17462:17481  owner != address(0) */\n      0xffffffffffffffffffffffffffffffffffffffff\n      and\n      sub\n        /* \"Final Smart Contract/Token_flattened.sol\":17454:17522  require(owner != address(0), \"ERC20: approve from the zero address\") */\n      tag_196\n      jumpi\n      mload(0x40)\n      0x08c379a000000000000000000000000000000000000000000000000000000000\n      dup2\n      mstore\n      0x04\n      add\n      tag_197\n      swap1\n      tag_198\n      jump\t// in\n    tag_197:\n      mload(0x40)\n      dup1\n      swap2\n      sub\n      swap1\n      revert\n    tag_196:\n        /* \"Final Smart Contract/Token_flattened.sol\":17559:17560  0 */\n      0x00\n        /* \"Final Smart Contract/Token_flattened.sol\":17540:17561  spender != address(0) */\n      0xffffffffffffffffffffffffffffffffffffffff\n      and\n        /* \"Final Smart Contract/Token_flattened.sol\":17540:17547  spender */\n      dup3\n        /* \"Final Smart Contract/Token_flattened.sol\":17540:17561  spender != address(0) */\n      0xffffffffffffffffffffffffffffffffffffffff\n      and\n      sub\n        /* \"Final Smart Contract/Token_flattened.sol\":17532:17600  require(spender != address(0), \"ERC20: approve to the zero address\") */\n      tag_199\n      jumpi\n      mload(0x40)\n      0x08c379a000000000000000000000000000000000000000000000000000000000\n      dup2\n      mstore\n      0x04\n      add\n      tag_200\n      swap1\n      tag_201\n      jump\t// in\n    tag_200:\n      mload(0x40)\n      dup1\n      swap2\n      sub\n      swap1\n      revert\n    tag_199:\n        /* \"Final Smart Contract/Token_flattened.sol\":17641:17647  amount */\n      dup1\n        /* \"Final Smart Contract/Token_flattened.sol\":17611:17622  _allowances */\n      0x01\n        /* \"Final Smart Contract/Token_flattened.sol\":17611:17629  _allowances[owner] */\n      0x00\n        /* \"Final Smart Contract/Token_flattened.sol\":17623:17628  owner */\n      dup6\n        /* \"Final Smart Contract/Token_flattened.sol\":17611:17629  _allowances[owner] */\n      0xffffffffffffffffffffffffffffffffffffffff\n      and\n      0xffffffffffffffffffffffffffffffffffffffff\n      and\n      dup2\n      mstore\n      0x20\n      add\n      swap1\n      dup2\n      mstore\n      0x20\n      add\n      0x00\n      keccak256\n        /* \"Final Smart Contract/Token_flattened.sol\":17611:17638  _allowances[owner][spender] */\n      0x00\n        /* \"Final Smart Contract/Token_flattened.sol\":17630:17637  spender */\n      dup5\n        /* \"Final Smart Contract/Token_flattened.sol\":17611:17638  _allowances[owner][spender] */\n      0xffffffffffffffffffffffffffffffffffffffff\n      and\n      0xffffffffffffffffffffffffffffffffffffffff\n      and\n      dup2\n      mstore\n      0x20\n      add\n      swap1\n      dup2\n      mstore\n      0x20\n      add\n      0x00\n      keccak256\n        /* \"Final Smart Contract/Token_flattened.sol\":17611:17647  _allowances[owner][spender] = amount */\n      dup2\n      swap1\n      sstore\n      pop\n        /* \"Final Smart Contract/Token_flattened.sol\":17678:17685  spender */\n      dup2\n        /* \"Final Smart Contract/Token_flattened.sol\":17662:17694  Approval(owner, spender, amount) */\n      0xffffffffffffffffffffffffffffffffffffffff\n      and\n        /* \"Final Smart Contract/Token_flattened.sol\":17671:17676  owner */\n      dup4\n        /* \"Final Smart Contract/Token_flattened.sol\":17662:17694  Approval(owner, spender, amount) */\n      0xffffffffffffffffffffffffffffffffffffffff\n      and\n      0x8c5be1e5ebec7d5bd14f71427d1e84f3dd0314c0f7b2291e5b200ac8c7c3b925\n        /* \"Final Smart Contract/Token_flattened.sol\":17687:17693  amount */\n      dup4\n        /* \"Final Smart Contract/Token_flattened.sol\":17662:17694  Approval(owner, spender, amount) */\n      mload(0x40)\n      tag_202\n      swap2\n      swap1\n      tag_40\n      jump\t// in\n    tag_202:\n      mload(0x40)\n      dup1\n      swap2\n      sub\n      swap1\n      log3\n        /* \"Final Smart Contract/Token_flattened.sol\":17361:17701  function _approve(address owner, address spender, uint256 amount) internal virtual {... */\n      pop\n      pop\n      pop\n      jump\t// out\n        /* \"Final Smart Contract/Token_flattened.sol\":17982:18393  function _spendAllowance(address owner, address spender, uint256 amount) internal virtual {... */\n    tag_122:\n        /* \"Final Smart Contract/Token_flattened.sol\":18082:18106  uint256 currentAllowance */\n      0x00\n        /* \"Final Smart Contract/Token_flattened.sol\":18109:18134  allowance(owner, spender) */\n      tag_204\n        /* \"Final Smart Contract/Token_flattened.sol\":18119:18124  owner */\n      dup5\n        /* \"Final Smart Contract/Token_flattened.sol\":18126:18133  spender */\n      dup5\n        /* \"Final Smart Contract/Token_flattened.sol\":18109:18118  allowance */\n      tag_101\n        /* \"Final Smart Contract/Token_flattened.sol\":18109:18134  allowance(owner, spender) */\n      jump\t// in\n    tag_204:\n        /* \"Final Smart Contract/Token_flattened.sol\":18082:18134  uint256 currentAllowance = allowance(owner, spender) */\n      swap1\n      pop\n        /* \"Final Smart Contract/Token_flattened.sol\":18168:18185  type(uint256).max */\n      0xffffffffffffffffffffffffffffffffffffffffffffffffffffffffffffffff\n        /* \"Final Smart Contract/Token_flattened.sol\":18148:18164  currentAllowance */\n      dup2\n        /* \"Final Smart Contract/Token_flattened.sol\":18148:18185  currentAllowance != type(uint256).max */\n      eq\n        /* \"Final Smart Contract/Token_flattened.sol\":18144:18387  if (currentAllowance != type(uint256).max) {... */\n      tag_205\n      jumpi\n        /* \"Final Smart Contract/Token_flattened.sol\":18229:18235  amount */\n      dup2\n        /* \"Final Smart Contract/Token_flattened.sol\":18209:18225  currentAllowance */\n      dup2\n        /* \"Final Smart Contract/Token_flattened.sol\":18209:18235  currentAllowance >= amount */\n      lt\n      iszero\n        /* \"Final Smart Contract/Token_flattened.sol\":18201:18269  require(currentAllowance >= amount, \"ERC20: insufficient allowance\") */\n      tag_206\n      jumpi\n      mload(0x40)\n      0x08c379a000000000000000000000000000000000000000000000000000000000\n      dup2\n      mstore\n      0x04\n      add\n      tag_207\n      swap1\n      tag_208\n      jump\t// in\n    tag_207:\n      mload(0x40)\n      dup1\n      swap2\n      sub\n      swap1\n      revert\n    tag_206:\n        /* \"Final Smart Contract/Token_flattened.sol\":18311:18362  _approve(owner, spender, currentAllowance - amount) */\n      tag_209\n        /* \"Final Smart Contract/Token_flattened.sol\":18320:18325  owner */\n      dup5\n        /* \"Final Smart Contract/Token_flattened.sol\":18327:18334  spender */\n      dup5\n        /* \"Final Smart Contract/Token_flattened.sol\":18355:18361  amount */\n      dup5\n        /* \"Final Smart Contract/Token_flattened.sol\":18336:18352  currentAllowance */\n      dup5\n        /* \"Final Smart Contract/Token_flattened.sol\":18336:18361  currentAllowance - amount */\n      sub\n        /* \"Final Smart Contract/Token_flattened.sol\":18311:18319  _approve */\n      tag_117\n        /* \"Final Smart Contract/Token_flattened.sol\":18311:18362  _approve(owner, spender, currentAllowance - amount) */\n      jump\t// in\n    tag_209:\n        /* \"Final Smart Contract/Token_flattened.sol\":18144:18387  if (currentAllowance != type(uint256).max) {... */\n    tag_205:\n        /* \"Final Smart Contract/Token_flattened.sol\":18072:18393  {... */\n      pop\n        /* \"Final Smart Contract/Token_flattened.sol\":17982:18393  function _spendAllowance(address owner, address spender, uint256 amount) internal virtual {... */\n      pop\n      pop\n      pop\n      jump\t// out\n        /* \"Final Smart Contract/Token_flattened.sol\":14360:15148  function _transfer(address from, address to, uint256 amount) internal virtual {... */\n    tag_124:\n        /* \"Final Smart Contract/Token_flattened.sol\":14472:14473  0 */\n      0x00\n        /* \"Final Smart Contract/Token_flattened.sol\":14456:14474  from != address(0) */\n      0xffffffffffffffffffffffffffffffffffffffff\n      and\n        /* \"Final Smart Contract/Token_flattened.sol\":14456:14460  from */\n      dup4\n        /* \"Final Smart Contract/Token_flattened.sol\":14456:14474  from != address(0) */\n      0xffffffffffffffffffffffffffffffffffffffff\n      and\n      sub\n        /* \"Final Smart Contract/Token_flattened.sol\":14448:14516  require(from != address(0), \"ERC20: transfer from the zero address\") */\n      tag_211\n      jumpi\n      mload(0x40)\n      0x08c379a000000000000000000000000000000000000000000000000000000000\n      dup2\n      mstore\n      0x04\n      add\n      tag_212\n      swap1\n      tag_213\n      jump\t// in\n    tag_212:\n      mload(0x40)\n      dup1\n      swap2\n      sub\n      swap1\n      revert\n    tag_211:\n        /* \"Final Smart Contract/Token_flattened.sol\":14548:14549  0 */\n      0x00\n        /* \"Final Smart Contract/Token_flattened.sol\":14534:14550  to != address(0) */\n      0xffffffffffffffffffffffffffffffffffffffff\n      and\n        /* \"Final Smart Contract/Token_flattened.sol\":14534:14536  to */\n      dup3\n        /* \"Final Smart Contract/Token_flattened.sol\":14534:14550  to != address(0) */\n      0xffffffffffffffffffffffffffffffffffffffff\n      and\n      sub\n        /* \"Final Smart Contract/Token_flattened.sol\":14526:14590  require(to != address(0), \"ERC20: transfer to the zero address\") */\n      tag_214\n      jumpi\n      mload(0x40)\n      0x08c379a000000000000000000000000000000000000000000000000000000000\n      dup2\n      mstore\n      0x04\n      add\n      tag_215\n      swap1\n      tag_216\n      jump\t// in\n    tag_215:\n      mload(0x40)\n      dup1\n      swap2\n      sub\n      swap1\n      revert\n    tag_214:\n        /* \"Final Smart Contract/Token_flattened.sol\":14601:14639  _beforeTokenTransfer(from, to, amount) */\n      tag_217\n        /* \"Final Smart Contract/Token_flattened.sol\":14622:14626  from */\n      dup4\n        /* \"Final Smart Contract/Token_flattened.sol\":14628:14630  to */\n      dup4\n        /* \"Final Smart Contract/Token_flattened.sol\":14632:14638  amount */\n      dup4\n        /* \"Final Smart Contract/Token_flattened.sol\":14601:14621  _beforeTokenTransfer */\n      tag_218\n        /* \"Final Smart Contract/Token_flattened.sol\":14601:14639  _beforeTokenTransfer(from, to, amount) */\n      jump\t// in\n    tag_217:\n        /* \"Final Smart Contract/Token_flattened.sol\":14650:14669  uint256 fromBalance */\n      0x00\n        /* \"Final Smart Contract/Token_flattened.sol\":14672:14681  _balances */\n      dup1\n        /* \"Final Smart Contract/Token_flattened.sol\":14672:14687  _balances[from] */\n      0x00\n        /* \"Final Smart Contract/Token_flattened.sol\":14682:14686  from */\n      dup6\n        /* \"Final Smart Contract/Token_flattened.sol\":14672:14687  _balances[from] */\n      0xffffffffffffffffffffffffffffffffffffffff\n      and\n      0xffffffffffffffffffffffffffffffffffffffff\n      and\n      dup2\n      mstore\n      0x20\n      add\n      swap1\n      dup2\n      mstore\n      0x20\n      add\n      0x00\n      keccak256\n      sload\n        /* \"Final Smart Contract/Token_flattened.sol\":14650:14687  uint256 fromBalance = _balances[from] */\n      swap1\n      pop\n        /* \"Final Smart Contract/Token_flattened.sol\":14720:14726  amount */\n      dup2\n        /* \"Final Smart Contract/Token_flattened.sol\":14705:14716  fromBalance */\n      dup2\n        /* \"Final Smart Contract/Token_flattened.sol\":14705:14726  fromBalance >= amount */\n      lt\n      iszero\n        /* \"Final Smart Contract/Token_flattened.sol\":14697:14769  require(fromBalance >= amount, \"ERC20: transfer amount exceeds balance\") */\n      tag_219\n      jumpi\n      mload(0x40)\n      0x08c379a000000000000000000000000000000000000000000000000000000000\n      dup2\n      mstore\n      0x04\n      add\n      tag_220\n      swap1\n      tag_221\n      jump\t// in\n    tag_220:\n      mload(0x40)\n      dup1\n      swap2\n      sub\n      swap1\n      revert\n    tag_219:\n        /* \"Final Smart Contract/Token_flattened.sol\":14835:14841  amount */\n      dup2\n        /* \"Final Smart Contract/Token_flattened.sol\":14821:14832  fromBalance */\n      dup2\n        /* \"Final Smart Contract/Token_flattened.sol\":14821:14841  fromBalance - amount */\n      sub\n        /* \"Final Smart Contract/Token_flattened.sol\":14803:14812  _balances */\n      0x00\n        /* \"Final Smart Contract/Token_flattened.sol\":14803:14818  _balances[from] */\n      dup1\n        /* \"Final Smart Contract/Token_flattened.sol\":14813:14817  from */\n      dup7\n        /* \"Final Smart Contract/Token_flattened.sol\":14803:14818  _balances[from] */\n      0xffffffffffffffffffffffffffffffffffffffff\n      and\n      0xffffffffffffffffffffffffffffffffffffffff\n      and\n      dup2\n      mstore\n      0x20\n      add\n      swap1\n      dup2\n      mstore\n      0x20\n      add\n      0x00\n      keccak256\n        /* \"Final Smart Contract/Token_flattened.sol\":14803:14841  _balances[from] = fromBalance - amount */\n      dup2\n      swap1\n      sstore\n      pop\n        /* \"Final Smart Contract/Token_flattened.sol\":15035:15041  amount */\n      dup2\n        /* \"Final Smart Contract/Token_flattened.sol\":15018:15027  _balances */\n      0x00\n        /* \"Final Smart Contract/Token_flattened.sol\":15018:15031  _balances[to] */\n      dup1\n        /* \"Final Smart Contract/Token_flattened.sol\":15028:15030  to */\n      dup6\n        /* \"Final Smart Contract/Token_flattened.sol\":15018:15031  _balances[to] */\n      0xffffffffffffffffffffffffffffffffffffffff\n      and\n      0xffffffffffffffffffffffffffffffffffffffff\n      and\n      dup2\n      mstore\n      0x20\n      add\n      swap1\n      dup2\n      mstore\n      0x20\n      add\n      0x00\n      keccak256\n      0x00\n        /* \"Final Smart Contract/Token_flattened.sol\":15018:15041  _balances[to] += amount */\n      dup3\n      dup3\n      sload\n      add\n      swap3\n      pop\n      pop\n      dup2\n      swap1\n      sstore\n      pop\n        /* \"Final Smart Contract/Token_flattened.sol\":15082:15084  to */\n      dup3\n        /* \"Final Smart Contract/Token_flattened.sol\":15067:15093  Transfer(from, to, amount) */\n      0xffffffffffffffffffffffffffffffffffffffff\n      and\n        /* \"Final Smart Contract/Token_flattened.sol\":15076:15080  from */\n      dup5\n        /* \"Final Smart Contract/Token_flattened.sol\":15067:15093  Transfer(from, to, amount) */\n      0xffffffffffffffffffffffffffffffffffffffff\n      and\n      0xddf252ad1be2c89b69c2b068fc378daa952ba7f163c4a11628f55a4df523b3ef\n        /* \"Final Smart Contract/Token_flattened.sol\":15086:15092  amount */\n      dup5\n        /* \"Final Smart Contract/Token_flattened.sol\":15067:15093  Transfer(from, to, amount) */\n      mload(0x40)\n      tag_222\n      swap2\n      swap1\n      tag_40\n      jump\t// in\n    tag_222:\n      mload(0x40)\n      dup1\n      swap2\n      sub\n      swap1\n      log3\n        /* \"Final Smart Contract/Token_flattened.sol\":15104:15141  _afterTokenTransfer(from, to, amount) */\n      tag_223\n        /* \"Final Smart Contract/Token_flattened.sol\":15124:15128  from */\n      dup5\n        /* \"Final Smart Contract/Token_flattened.sol\":15130:15132  to */\n      dup5\n        /* \"Final Smart Contract/Token_flattened.sol\":15134:15140  amount */\n      dup5\n        /* \"Final Smart Contract/Token_flattened.sol\":15104:15123  _afterTokenTransfer */\n      tag_224\n        /* \"Final Smart Contract/Token_flattened.sol\":15104:15141  _afterTokenTransfer(from, to, amount) */\n      jump\t// in\n    tag_223:\n        /* \"Final Smart Contract/Token_flattened.sol\":14438:15148  {... */\n      pop\n        /* \"Final Smart Contract/Token_flattened.sol\":14360:15148  function _transfer(address from, address to, uint256 amount) internal virtual {... */\n      pop\n      pop\n      pop\n      jump\t// out\n        /* \"Final Smart Contract/Token_flattened.sol\":2249:2379  function _checkOwner() internal view virtual {... */\n    tag_128:\n        /* \"Final Smart Contract/Token_flattened.sol\":2323:2335  _msgSender() */\n      tag_226\n        /* \"Final Smart Contract/Token_flattened.sol\":2323:2333  _msgSender */\n      tag_115\n        /* \"Final Smart Contract/Token_flattened.sol\":2323:2335  _msgSender() */\n      jump\t// in\n    tag_226:\n        /* \"Final Smart Contract/Token_flattened.sol\":2312:2335  owner() == _msgSender() */\n      0xffffffffffffffffffffffffffffffffffffffff\n      and\n        /* \"Final Smart Contract/Token_flattened.sol\":2312:2319  owner() */\n      tag_227\n        /* \"Final Smart Contract/Token_flattened.sol\":2312:2317  owner */\n      tag_84\n        /* \"Final Smart Contract/Token_flattened.sol\":2312:2319  owner() */\n      jump\t// in\n    tag_227:\n        /* \"Final Smart Contract/Token_flattened.sol\":2312:2335  owner() == _msgSender() */\n      0xffffffffffffffffffffffffffffffffffffffff\n      and\n      eq\n        /* \"Final Smart Contract/Token_flattened.sol\":2304:2372  require(owner() == _msgSender(), \"Ownable: caller is not the owner\") */\n      tag_228\n      jumpi\n      mload(0x40)\n      0x08c379a000000000000000000000000000000000000000000000000000000000\n      dup2\n      mstore\n      0x04\n      add\n      tag_229\n      swap1\n      tag_230\n      jump\t// in\n    tag_229:\n      mload(0x40)\n      dup1\n      swap2\n      sub\n      swap1\n      revert\n    tag_228:\n        /* \"Final Smart Contract/Token_flattened.sol\":2249:2379  function _checkOwner() internal view virtual {... */\n      jump\t// out\n        /* \"Final Smart Contract/Token_flattened.sol\":15424:15959  function _mint(address account, uint256 amount) internal virtual {... */\n    tag_146:\n        /* \"Final Smart Contract/Token_flattened.sol\":15526:15527  0 */\n      0x00\n        /* \"Final Smart Contract/Token_flattened.sol\":15507:15528  account != address(0) */\n      0xffffffffffffffffffffffffffffffffffffffff\n      and\n        /* \"Final Smart Contract/Token_flattened.sol\":15507:15514  account */\n      dup3\n        /* \"Final Smart Contract/Token_flattened.sol\":15507:15528  account != address(0) */\n      0xffffffffffffffffffffffffffffffffffffffff\n      and\n      sub\n        /* \"Final Smart Contract/Token_flattened.sol\":15499:15564  require(account != address(0), \"ERC20: mint to the zero address\") */\n      tag_232\n      jumpi\n      mload(0x40)\n      0x08c379a000000000000000000000000000000000000000000000000000000000\n      dup2\n      mstore\n      0x04\n      add\n      tag_233\n      swap1\n      tag_234\n      jump\t// in\n    tag_233:\n      mload(0x40)\n      dup1\n      swap2\n      sub\n      swap1\n      revert\n    tag_232:\n        /* \"Final Smart Contract/Token_flattened.sol\":15575:15624  _beforeTokenTransfer(address(0), account, amount) */\n      tag_235\n        /* \"Final Smart Contract/Token_flattened.sol\":15604:15605  0 */\n      0x00\n        /* \"Final Smart Contract/Token_flattened.sol\":15608:15615  account */\n      dup4\n        /* \"Final Smart Contract/Token_flattened.sol\":15617:15623  amount */\n      dup4\n        /* \"Final Smart Contract/Token_flattened.sol\":15575:15595  _beforeTokenTransfer */\n      tag_218\n        /* \"Final Smart Contract/Token_flattened.sol\":15575:15624  _beforeTokenTransfer(address(0), account, amount) */\n      jump\t// in\n    tag_235:\n        /* \"Final Smart Contract/Token_flattened.sol\":15651:15657  amount */\n      dup1\n        /* \"Final Smart Contract/Token_flattened.sol\":15635:15647  _totalSupply */\n      0x02\n      0x00\n        /* \"Final Smart Contract/Token_flattened.sol\":15635:15657  _totalSupply += amount */\n      dup3\n      dup3\n      sload\n      tag_236\n      swap2\n      swap1\n      tag_141\n      jump\t// in\n    tag_236:\n      swap3\n      pop\n      pop\n      dup2\n      swap1\n      sstore\n      pop\n        /* \"Final Smart Contract/Token_flattened.sol\":15825:15831  amount */\n      dup1\n        /* \"Final Smart Contract/Token_flattened.sol\":15803:15812  _balances */\n      0x00\n        /* \"Final Smart Contract/Token_flattened.sol\":15803:15821  _balances[account] */\n      dup1\n        /* \"Final Smart Contract/Token_flattened.sol\":15813:15820  account */\n      dup5\n        /* \"Final Smart Contract/Token_flattened.sol\":15803:15821  _balances[account] */\n      0xffffffffffffffffffffffffffffffffffffffff\n      and\n      0xffffffffffffffffffffffffffffffffffffffff\n      and\n      dup2\n      mstore\n      0x20\n      add\n      swap1\n      dup2\n      mstore\n      0x20\n      add\n      0x00\n      keccak256\n      0x00\n        /* \"Final Smart Contract/Token_flattened.sol\":15803:15831  _balances[account] += amount */\n      dup3\n      dup3\n      sload\n      add\n      swap3\n      pop\n      pop\n      dup2\n      swap1\n      sstore\n      pop\n        /* \"Final Smart Contract/Token_flattened.sol\":15877:15884  account */\n      dup2\n        /* \"Final Smart Contract/Token_flattened.sol\":15856:15893  Transfer(address(0), account, amount) */\n      0xffffffffffffffffffffffffffffffffffffffff\n      and\n        /* \"Final Smart Contract/Token_flattened.sol\":15873:15874  0 */\n      0x00\n        /* \"Final Smart Contract/Token_flattened.sol\":15856:15893  Transfer(address(0), account, amount) */\n      0xffffffffffffffffffffffffffffffffffffffff\n      and\n      0xddf252ad1be2c89b69c2b068fc378daa952ba7f163c4a11628f55a4df523b3ef\n        /* \"Final Smart Contract/Token_flattened.sol\":15886:15892  amount */\n      dup4\n        /* \"Final Smart Contract/Token_flattened.sol\":15856:15893  Transfer(address(0), account, amount) */\n      mload(0x40)\n      tag_237\n      swap2\n      swap1\n      tag_40\n      jump\t// in\n    tag_237:\n      mload(0x40)\n      dup1\n      swap2\n      sub\n      swap1\n      log3\n        /* \"Final Smart Contract/Token_flattened.sol\":15904:15952  _afterTokenTransfer(address(0), account, amount) */\n      tag_238\n        /* \"Final Smart Contract/Token_flattened.sol\":15932:15933  0 */\n      0x00\n        /* \"Final Smart Contract/Token_flattened.sol\":15936:15943  account */\n      dup4\n        /* \"Final Smart Contract/Token_flattened.sol\":15945:15951  amount */\n      dup4\n        /* \"Final Smart Contract/Token_flattened.sol\":15904:15923  _afterTokenTransfer */\n      tag_224\n        /* \"Final Smart Contract/Token_flattened.sol\":15904:15952  _afterTokenTransfer(address(0), account, amount) */\n      jump\t// in\n    tag_238:\n        /* \"Final Smart Contract/Token_flattened.sol\":15424:15959  function _mint(address account, uint256 amount) internal virtual {... */\n      pop\n      pop\n      jump\t// out\n        /* \"Final Smart Contract/Token_flattened.sol\":16279:16938  function _burn(address account, uint256 amount) internal virtual {... */\n    tag_150:\n        /* \"Final Smart Contract/Token_flattened.sol\":16381:16382  0 */\n      0x00\n        /* \"Final Smart Contract/Token_flattened.sol\":16362:16383  account != address(0) */\n      0xffffffffffffffffffffffffffffffffffffffff\n      and\n        /* \"Final Smart Contract/Token_flattened.sol\":16362:16369  account */\n      dup3\n        /* \"Final Smart Contract/Token_flattened.sol\":16362:16383  account != address(0) */\n      0xffffffffffffffffffffffffffffffffffffffff\n      and\n      sub\n        /* \"Final Smart Contract/Token_flattened.sol\":16354:16421  require(account != address(0), \"ERC20: burn from the zero address\") */\n      tag_240\n      jumpi\n      mload(0x40)\n      0x08c379a000000000000000000000000000000000000000000000000000000000\n      dup2\n      mstore\n      0x04\n      add\n      tag_241\n      swap1\n      tag_242\n      jump\t// in\n    tag_241:\n      mload(0x40)\n      dup1\n      swap2\n      sub\n      swap1\n      revert\n    tag_240:\n        /* \"Final Smart Contract/Token_flattened.sol\":16432:16481  _beforeTokenTransfer(account, address(0), amount) */\n      tag_243\n        /* \"Final Smart Contract/Token_flattened.sol\":16453:16460  account */\n      dup3\n        /* \"Final Smart Contract/Token_flattened.sol\":16470:16471  0 */\n      0x00\n        /* \"Final Smart Contract/Token_flattened.sol\":16474:16480  amount */\n      dup4\n        /* \"Final Smart Contract/Token_flattened.sol\":16432:16452  _beforeTokenTransfer */\n      tag_218\n        /* \"Final Smart Contract/Token_flattened.sol\":16432:16481  _beforeTokenTransfer(account, address(0), amount) */\n      jump\t// in\n    tag_243:\n        /* \"Final Smart Contract/Token_flattened.sol\":16492:16514  uint256 accountBalance */\n      0x00\n        /* \"Final Smart Contract/Token_flattened.sol\":16517:16526  _balances */\n      dup1\n        /* \"Final Smart Contract/Token_flattened.sol\":16517:16535  _balances[account] */\n      0x00\n        /* \"Final Smart Contract/Token_flattened.sol\":16527:16534  account */\n      dup5\n        /* \"Final Smart Contract/Token_flattened.sol\":16517:16535  _balances[account] */\n      0xffffffffffffffffffffffffffffffffffffffff\n      and\n      0xffffffffffffffffffffffffffffffffffffffff\n      and\n      dup2\n      mstore\n      0x20\n      add\n      swap1\n      dup2\n      mstore\n      0x20\n      add\n      0x00\n      keccak256\n      sload\n        /* \"Final Smart Contract/Token_flattened.sol\":16492:16535  uint256 accountBalance = _balances[account] */\n      swap1\n      pop\n        /* \"Final Smart Contract/Token_flattened.sol\":16571:16577  amount */\n      dup2\n        /* \"Final Smart Contract/Token_flattened.sol\":16553:16567  accountBalance */\n      dup2\n        /* \"Final Smart Contract/Token_flattened.sol\":16553:16577  accountBalance >= amount */\n      lt\n      iszero\n        /* \"Final Smart Contract/Token_flattened.sol\":16545:16616  require(accountBalance >= amount, \"ERC20: burn amount exceeds balance\") */\n      tag_244\n      jumpi\n      mload(0x40)\n      0x08c379a000000000000000000000000000000000000000000000000000000000\n      dup2\n      mstore\n      0x04\n      add\n      tag_245\n      swap1\n      tag_246\n      jump\t// in\n    tag_245:\n      mload(0x40)\n      dup1\n      swap2\n      sub\n      swap1\n      revert\n    tag_244:\n        /* \"Final Smart Contract/Token_flattened.sol\":16688:16694  amount */\n      dup2\n        /* \"Final Smart Contract/Token_flattened.sol\":16671:16685  accountBalance */\n      dup2\n        /* \"Final Smart Contract/Token_flattened.sol\":16671:16694  accountBalance - amount */\n      sub\n        /* \"Final Smart Contract/Token_flattened.sol\":16650:16659  _balances */\n      0x00\n        /* \"Final Smart Contract/Token_flattened.sol\":16650:16668  _balances[account] */\n      dup1\n        /* \"Final Smart Contract/Token_flattened.sol\":16660:16667  account */\n      dup6\n        /* \"Final Smart Contract/Token_flattened.sol\":16650:16668  _balances[account] */\n      0xffffffffffffffffffffffffffffffffffffffff\n      and\n      0xffffffffffffffffffffffffffffffffffffffff\n      and\n      dup2\n      mstore\n      0x20\n      add\n      swap1\n      dup2\n      mstore\n      0x20\n      add\n      0x00\n      keccak256\n        /* \"Final Smart Contract/Token_flattened.sol\":16650:16694  _balances[account] = accountBalance - amount */\n      dup2\n      swap1\n      sstore\n      pop\n        /* \"Final Smart Contract/Token_flattened.sol\":16803:16809  amount */\n      dup2\n        /* \"Final Smart Contract/Token_flattened.sol\":16787:16799  _totalSupply */\n      0x02\n      0x00\n        /* \"Final Smart Contract/Token_flattened.sol\":16787:16809  _totalSupply -= amount */\n      dup3\n      dup3\n      sload\n      sub\n      swap3\n      pop\n      pop\n      dup2\n      swap1\n      sstore\n      pop\n        /* \"Final Smart Contract/Token_flattened.sol\":16861:16862  0 */\n      0x00\n        /* \"Final Smart Contract/Token_flattened.sol\":16835:16872  Transfer(account, address(0), amount) */\n      0xffffffffffffffffffffffffffffffffffffffff\n      and\n        /* \"Final Smart Contract/Token_flattened.sol\":16844:16851  account */\n      dup4\n        /* \"Final Smart Contract/Token_flattened.sol\":16835:16872  Transfer(account, address(0), amount) */\n      0xffffffffffffffffffffffffffffffffffffffff\n      and\n      0xddf252ad1be2c89b69c2b068fc378daa952ba7f163c4a11628f55a4df523b3ef\n        /* \"Final Smart Contract/Token_flattened.sol\":16865:16871  amount */\n      dup5\n        /* \"Final Smart Contract/Token_flattened.sol\":16835:16872  Transfer(account, address(0), amount) */\n      mload(0x40)\n      tag_247\n      swap2\n      swap1\n      tag_40\n      jump\t// in\n    tag_247:\n      mload(0x40)\n      dup1\n      swap2\n      sub\n      swap1\n      log3\n        /* \"Final Smart Contract/Token_flattened.sol\":16883:16931  _afterTokenTransfer(account, address(0), amount) */\n      tag_248\n        /* \"Final Smart Contract/Token_flattened.sol\":16903:16910  account */\n      dup4\n        /* \"Final Smart Contract/Token_flattened.sol\":16920:16921  0 */\n      0x00\n        /* \"Final Smart Contract/Token_flattened.sol\":16924:16930  amount */\n      dup5\n        /* \"Final Smart Contract/Token_flattened.sol\":16883:16902  _afterTokenTransfer */\n      tag_224\n        /* \"Final Smart Contract/Token_flattened.sol\":16883:16931  _afterTokenTransfer(account, address(0), amount) */\n      jump\t// in\n    tag_248:\n        /* \"Final Smart Contract/Token_flattened.sol\":16344:16938  {... */\n      pop\n        /* \"Final Smart Contract/Token_flattened.sol\":16279:16938  function _burn(address account, uint256 amount) internal virtual {... */\n      pop\n      pop\n      jump\t// out\n        /* \"Final Smart Contract/Token_flattened.sol\":3316:3503  function _transferOwnership(address newOwner) internal virtual {... */\n    tag_164:\n        /* \"Final Smart Contract/Token_flattened.sol\":3389:3405  address oldOwner */\n      0x00\n        /* \"Final Smart Contract/Token_flattened.sol\":3408:3414  _owner */\n      0x05\n      0x00\n      swap1\n      sload\n      swap1\n      0x0100\n      exp\n      swap1\n      div\n      0xffffffffffffffffffffffffffffffffffffffff\n      and\n        /* \"Final Smart Contract/Token_flattened.sol\":3389:3414  address oldOwner = _owner */\n      swap1\n      pop\n        /* \"Final Smart Contract/Token_flattened.sol\":3433:3441  newOwner */\n      dup2\n        /* \"Final Smart Contract/Token_flattened.sol\":3424:3430  _owner */\n      0x05\n      0x00\n        /* \"Final Smart Contract/Token_flattened.sol\":3424:3441  _owner = newOwner */\n      0x0100\n      exp\n      dup2\n      sload\n      dup2\n      0xffffffffffffffffffffffffffffffffffffffff\n      mul\n      not\n      and\n      swap1\n      dup4\n      0xffffffffffffffffffffffffffffffffffffffff\n      and\n      mul\n      or\n      swap1\n      sstore\n      pop\n        /* \"Final Smart Contract/Token_flattened.sol\":3487:3495  newOwner */\n      dup2\n        /* \"Final Smart Contract/Token_flattened.sol\":3456:3496  OwnershipTransferred(oldOwner, newOwner) */\n      0xffffffffffffffffffffffffffffffffffffffff\n      and\n        /* \"Final Smart Contract/Token_flattened.sol\":3477:3485  oldOwner */\n      dup2\n        /* \"Final Smart Contract/Token_flattened.sol\":3456:3496  OwnershipTransferred(oldOwner, newOwner) */\n      0xffffffffffffffffffffffffffffffffffffffff\n      and\n      0x8be0079c531659141344cd1fd0a4f28419497f9722a3daafe3b4186f6b6457e0\n      mload(0x40)\n      mload(0x40)\n      dup1\n      swap2\n      sub\n      swap1\n      log3\n        /* \"Final Smart Contract/Token_flattened.sol\":3379:3503  {... */\n      pop\n        /* \"Final Smart Contract/Token_flattened.sol\":3316:3503  function _transferOwnership(address newOwner) internal virtual {... */\n      pop\n      jump\t// out\n        /* \"Final Smart Contract/Token_flattened.sol\":18977:19068  function _beforeTokenTransfer(address from, address to, uint256 amount) internal virtual {} */\n    tag_218:\n      pop\n      pop\n      pop\n      jump\t// out\n        /* \"Final Smart Contract/Token_flattened.sol\":19656:19746  function _afterTokenTransfer(address from, address to, uint256 amount) internal virtual {} */\n    tag_224:\n      pop\n      pop\n      pop\n      jump\t// out\n        /* \"#utility.yul\":7:106   */\n    tag_252:\n        /* \"#utility.yul\":59:65   */\n      0x00\n        /* \"#utility.yul\":93:98   */\n      dup2\n        /* \"#utility.yul\":87:99   */\n      mload\n        /* \"#utility.yul\":77:99   */\n      swap1\n      pop\n        /* \"#utility.yul\":7:106   */\n      swap2\n      swap1\n      pop\n      jump\t// out\n        /* \"#utility.yul\":112:281   */\n    tag_253:\n        /* \"#utility.yul\":196:207   */\n      0x00\n        /* \"#utility.yul\":230:236   */\n      dup3\n        /* \"#utility.yul\":225:228   */\n      dup3\n        /* \"#utility.yul\":218:237   */\n      mstore\n        /* \"#utility.yul\":270:274   */\n      0x20\n        /* \"#utility.yul\":265:268   */\n      dup3\n        /* \"#utility.yul\":261:275   */\n      add\n        /* \"#utility.yul\":246:275   */\n      swap1\n      pop\n        /* \"#utility.yul\":112:281   */\n      swap3\n      swap2\n      pop\n      pop\n      jump\t// out\n        /* \"#utility.yul\":287:533   */\n    tag_254:\n        /* \"#utility.yul\":368:369   */\n      0x00\n        /* \"#utility.yul\":378:491   */\n    tag_305:\n        /* \"#utility.yul\":392:398   */\n      dup4\n        /* \"#utility.yul\":389:390   */\n      dup2\n        /* \"#utility.yul\":386:399   */\n      lt\n        /* \"#utility.yul\":378:491   */\n      iszero\n      tag_307\n      jumpi\n        /* \"#utility.yul\":477:478   */\n      dup1\n        /* \"#utility.yul\":472:475   */\n      dup3\n        /* \"#utility.yul\":468:479   */\n      add\n        /* \"#utility.yul\":462:480   */\n      mload\n        /* \"#utility.yul\":458:459   */\n      dup2\n        /* \"#utility.yul\":453:456   */\n      dup5\n        /* \"#utility.yul\":449:460   */\n      add\n        /* \"#utility.yul\":442:481   */\n      mstore\n        /* \"#utility.yul\":414:416   */\n      0x20\n        /* \"#utility.yul\":411:412   */\n      dup2\n        /* \"#utility.yul\":407:417   */\n      add\n        /* \"#utility.yul\":402:417   */\n      swap1\n      pop\n        /* \"#utility.yul\":378:491   */\n      jump(tag_305)\n    tag_307:\n        /* \"#utility.yul\":525:526   */\n      0x00\n        /* \"#utility.yul\":516:522   */\n      dup5\n        /* \"#utility.yul\":511:514   */\n      dup5\n        /* \"#utility.yul\":507:523   */\n      add\n        /* \"#utility.yul\":500:527   */\n      mstore\n        /* \"#utility.yul\":349:533   */\n      pop\n        /* \"#utility.yul\":287:533   */\n      pop\n      pop\n      pop\n      jump\t// out\n        /* \"#utility.yul\":539:641   */\n    tag_255:\n        /* \"#utility.yul\":580:586   */\n      0x00\n        /* \"#utility.yul\":631:633   */\n      0x1f\n        /* \"#utility.yul\":627:634   */\n      not\n        /* \"#utility.yul\":622:624   */\n      0x1f\n        /* \"#utility.yul\":615:620   */\n      dup4\n        /* \"#utility.yul\":611:625   */\n      add\n        /* \"#utility.yul\":607:635   */\n      and\n        /* \"#utility.yul\":597:635   */\n      swap1\n      pop\n        /* \"#utility.yul\":539:641   */\n      swap2\n      swap1\n      pop\n      jump\t// out\n        /* \"#utility.yul\":647:1024   */\n    tag_256:\n        /* \"#utility.yul\":735:738   */\n      0x00\n        /* \"#utility.yul\":763:802   */\n      tag_310\n        /* \"#utility.yul\":796:801   */\n      dup3\n        /* \"#utility.yul\":763:802   */\n      tag_252\n      jump\t// in\n    tag_310:\n        /* \"#utility.yul\":818:889   */\n      tag_311\n        /* \"#utility.yul\":882:888   */\n      dup2\n        /* \"#utility.yul\":877:880   */\n      dup6\n        /* \"#utility.yul\":818:889   */\n      tag_253\n      jump\t// in\n    tag_311:\n        /* \"#utility.yul\":811:889   */\n      swap4\n      pop\n        /* \"#utility.yul\":898:963   */\n      tag_312\n        /* \"#utility.yul\":956:962   */\n      dup2\n        /* \"#utility.yul\":951:954   */\n      dup6\n        /* \"#utility.yul\":944:948   */\n      0x20\n        /* \"#utility.yul\":937:942   */\n      dup7\n        /* \"#utility.yul\":933:949   */\n      add\n        /* \"#utility.yul\":898:963   */\n      tag_254\n      jump\t// in\n    tag_312:\n        /* \"#utility.yul\":988:1017   */\n      tag_313\n        /* \"#utility.yul\":1010:1016   */\n      dup2\n        /* \"#utility.yul\":988:1017   */\n      tag_255\n      jump\t// in\n    tag_313:\n        /* \"#utility.yul\":983:986   */\n      dup5\n        /* \"#utility.yul\":979:1018   */\n      add\n        /* \"#utility.yul\":972:1018   */\n      swap2\n      pop\n        /* \"#utility.yul\":739:1024   */\n      pop\n        /* \"#utility.yul\":647:1024   */\n      swap3\n      swap2\n      pop\n      pop\n      jump\t// out\n        /* \"#utility.yul\":1030:1343   */\n    tag_30:\n        /* \"#utility.yul\":1143:1147   */\n      0x00\n        /* \"#utility.yul\":1181:1183   */\n      0x20\n        /* \"#utility.yul\":1170:1179   */\n      dup3\n        /* \"#utility.yul\":1166:1184   */\n      add\n        /* \"#utility.yul\":1158:1184   */\n      swap1\n      pop\n        /* \"#utility.yul\":1230:1239   */\n      dup2\n        /* \"#utility.yul\":1224:1228   */\n      dup2\n        /* \"#utility.yul\":1220:1240   */\n      sub\n        /* \"#utility.yul\":1216:1217   */\n      0x00\n        /* \"#utility.yul\":1205:1214   */\n      dup4\n        /* \"#utility.yul\":1201:1218   */\n      add\n        /* \"#utility.yul\":1194:1241   */\n      mstore\n        /* \"#utility.yul\":1258:1336   */\n      tag_315\n        /* \"#utility.yul\":1331:1335   */\n      dup2\n        /* \"#utility.yul\":1322:1328   */\n      dup5\n        /* \"#utility.yul\":1258:1336   */\n      tag_256\n      jump\t// in\n    tag_315:\n        /* \"#utility.yul\":1250:1336   */\n      swap1\n      pop\n        /* \"#utility.yul\":1030:1343   */\n      swap3\n      swap2\n      pop\n      pop\n      jump\t// out\n        /* \"#utility.yul\":1430:1547   */\n    tag_258:\n        /* \"#utility.yul\":1539:1540   */\n      0x00\n        /* \"#utility.yul\":1536:1537   */\n      dup1\n        /* \"#utility.yul\":1529:1541   */\n      revert\n        /* \"#utility.yul\":1676:1802   */\n    tag_260:\n        /* \"#utility.yul\":1713:1720   */\n      0x00\n        /* \"#utility.yul\":1753:1795   */\n      0xffffffffffffffffffffffffffffffffffffffff\n        /* \"#utility.yul\":1746:1751   */\n      dup3\n        /* \"#utility.yul\":1742:1796   */\n      and\n        /* \"#utility.yul\":1731:1796   */\n      swap1\n      pop\n        /* \"#utility.yul\":1676:1802   */\n      swap2\n      swap1\n      pop\n      jump\t// out\n        /* \"#utility.yul\":1808:1904   */\n    tag_261:\n        /* \"#utility.yul\":1845:1852   */\n      0x00\n        /* \"#utility.yul\":1874:1898   */\n      tag_321\n        /* \"#utility.yul\":1892:1897   */\n      dup3\n        /* \"#utility.yul\":1874:1898   */\n      tag_260\n      jump\t// in\n    tag_321:\n        /* \"#utility.yul\":1863:1898   */\n      swap1\n      pop\n        /* \"#utility.yul\":1808:1904   */\n      swap2\n      swap1\n      pop\n      jump\t// out\n        /* \"#utility.yul\":1910:2032   */\n    tag_262:\n        /* \"#utility.yul\":1983:2007   */\n      tag_323\n        /* \"#utility.yul\":2001:2006   */\n      dup2\n        /* \"#utility.yul\":1983:2007   */\n      tag_261\n      jump\t// in\n    tag_323:\n        /* \"#utility.yul\":1976:1981   */\n      dup2\n        /* \"#utility.yul\":1973:2008   */\n      eq\n        /* \"#utility.yul\":1963:2026   */\n      tag_324\n      jumpi\n        /* \"#utility.yul\":2022:2023   */\n      0x00\n        /* \"#utility.yul\":2019:2020   */\n      dup1\n        /* \"#utility.yul\":2012:2024   */\n      revert\n        /* \"#utility.yul\":1963:2026   */\n    tag_324:\n        /* \"#utility.yul\":1910:2032   */\n      pop\n      jump\t// out\n        /* \"#utility.yul\":2038:2177   */\n    tag_263:\n        /* \"#utility.yul\":2084:2089   */\n      0x00\n        /* \"#utility.yul\":2122:2128   */\n      dup2\n        /* \"#utility.yul\":2109:2129   */\n      calldataload\n        /* \"#utility.yul\":2100:2129   */\n      swap1\n      pop\n        /* \"#utility.yul\":2138:2171   */\n      tag_326\n        /* \"#utility.yul\":2165:2170   */\n      dup2\n        /* \"#utility.yul\":2138:2171   */\n      tag_262\n      jump\t// in\n    tag_326:\n        /* \"#utility.yul\":2038:2177   */\n      swap3\n      swap2\n      pop\n      pop\n      jump\t// out\n        /* \"#utility.yul\":2183:2260   */\n    tag_264:\n        /* \"#utility.yul\":2220:2227   */\n      0x00\n        /* \"#utility.yul\":2249:2254   */\n      dup2\n        /* \"#utility.yul\":2238:2254   */\n      swap1\n      pop\n        /* \"#utility.yul\":2183:2260   */\n      swap2\n      swap1\n      pop\n      jump\t// out\n        /* \"#utility.yul\":2266:2388   */\n    tag_265:\n        /* \"#utility.yul\":2339:2363   */\n      tag_329\n        /* \"#utility.yul\":2357:2362   */\n      dup2\n        /* \"#utility.yul\":2339:2363   */\n      tag_264\n      jump\t// in\n    tag_329:\n        /* \"#utility.yul\":2332:2337   */\n      dup2\n        /* \"#utility.yul\":2329:2364   */\n      eq\n        /* \"#utility.yul\":2319:2382   */\n      tag_330\n      jumpi\n        /* \"#utility.yul\":2378:2379   */\n      0x00\n        /* \"#utility.yul\":2375:2376   */\n      dup1\n        /* \"#utility.yul\":2368:2380   */\n      revert\n        /* \"#utility.yul\":2319:2382   */\n    tag_330:\n        /* \"#utility.yul\":2266:2388   */\n      pop\n      jump\t// out\n        /* \"#utility.yul\":2394:2533   */\n    tag_266:\n        /* \"#utility.yul\":2440:2445   */\n      0x00\n        /* \"#utility.yul\":2478:2484   */\n      dup2\n        /* \"#utility.yul\":2465:2485   */\n      calldataload\n        /* \"#utility.yul\":2456:2485   */\n      swap1\n      pop\n        /* \"#utility.yul\":2494:2527   */\n      tag_332\n        /* \"#utility.yul\":2521:2526   */\n      dup2\n        /* \"#utility.yul\":2494:2527   */\n      tag_265\n      jump\t// in\n    tag_332:\n        /* \"#utility.yul\":2394:2533   */\n      swap3\n      swap2\n      pop\n      pop\n      jump\t// out\n        /* \"#utility.yul\":2539:3013   */\n    tag_33:\n        /* \"#utility.yul\":2607:2613   */\n      0x00\n        /* \"#utility.yul\":2615:2621   */\n      dup1\n        /* \"#utility.yul\":2664:2666   */\n      0x40\n        /* \"#utility.yul\":2652:2661   */\n      dup4\n        /* \"#utility.yul\":2643:2650   */\n      dup6\n        /* \"#utility.yul\":2639:2662   */\n      sub\n        /* \"#utility.yul\":2635:2667   */\n      slt\n        /* \"#utility.yul\":2632:2751   */\n      iszero\n      tag_334\n      jumpi\n        /* \"#utility.yul\":2670:2749   */\n      tag_335\n      tag_258\n      jump\t// in\n    tag_335:\n        /* \"#utility.yul\":2632:2751   */\n    tag_334:\n        /* \"#utility.yul\":2790:2791   */\n      0x00\n        /* \"#utility.yul\":2815:2868   */\n      tag_336\n        /* \"#utility.yul\":2860:2867   */\n      dup6\n        /* \"#utility.yul\":2851:2857   */\n      dup3\n        /* \"#utility.yul\":2840:2849   */\n      dup7\n        /* \"#utility.yul\":2836:2858   */\n      add\n        /* \"#utility.yul\":2815:2868   */\n      tag_263\n      jump\t// in\n    tag_336:\n        /* \"#utility.yul\":2805:2868   */\n      swap3\n      pop\n        /* \"#utility.yul\":2761:2878   */\n      pop\n        /* \"#utility.yul\":2917:2919   */\n      0x20\n        /* \"#utility.yul\":2943:2996   */\n      tag_337\n        /* \"#utility.yul\":2988:2995   */\n      dup6\n        /* \"#utility.yul\":2979:2985   */\n      dup3\n        /* \"#utility.yul\":2968:2977   */\n      dup7\n        /* \"#utility.yul\":2964:2986   */\n      add\n        /* \"#utility.yul\":2943:2996   */\n      tag_266\n      jump\t// in\n    tag_337:\n        /* \"#utility.yul\":2933:2996   */\n      swap2\n      pop\n        /* \"#utility.yul\":2888:3006   */\n      pop\n        /* \"#utility.yul\":2539:3013   */\n      swap3\n      pop\n      swap3\n      swap1\n      pop\n      jump\t// out\n        /* \"#utility.yul\":3019:3109   */\n    tag_267:\n        /* \"#utility.yul\":3053:3060   */\n      0x00\n        /* \"#utility.yul\":3096:3101   */\n      dup2\n        /* \"#utility.yul\":3089:3102   */\n      iszero\n        /* \"#utility.yul\":3082:3103   */\n      iszero\n        /* \"#utility.yul\":3071:3103   */\n      swap1\n      pop\n        /* \"#utility.yul\":3019:3109   */\n      swap2\n      swap1\n      pop\n      jump\t// out\n        /* \"#utility.yul\":3115:3224   */\n    tag_268:\n        /* \"#utility.yul\":3196:3217   */\n      tag_340\n        /* \"#utility.yul\":3211:3216   */\n      dup2\n        /* \"#utility.yul\":3196:3217   */\n      tag_267\n      jump\t// in\n    tag_340:\n        /* \"#utility.yul\":3191:3194   */\n      dup3\n        /* \"#utility.yul\":3184:3218   */\n      mstore\n        /* \"#utility.yul\":3115:3224   */\n      pop\n      pop\n      jump\t// out\n        /* \"#utility.yul\":3230:3440   */\n    tag_36:\n        /* \"#utility.yul\":3317:3321   */\n      0x00\n        /* \"#utility.yul\":3355:3357   */\n      0x20\n        /* \"#utility.yul\":3344:3353   */\n      dup3\n        /* \"#utility.yul\":3340:3358   */\n      add\n        /* \"#utility.yul\":3332:3358   */\n      swap1\n      pop\n        /* \"#utility.yul\":3368:3433   */\n      tag_342\n        /* \"#utility.yul\":3430:3431   */\n      0x00\n        /* \"#utility.yul\":3419:3428   */\n      dup4\n        /* \"#utility.yul\":3415:3432   */\n      add\n        /* \"#utility.yul\":3406:3412   */\n      dup5\n        /* \"#utility.yul\":3368:3433   */\n      tag_268\n      jump\t// in\n    tag_342:\n        /* \"#utility.yul\":3230:3440   */\n      swap3\n      swap2\n      pop\n      pop\n      jump\t// out\n        /* \"#utility.yul\":3446:3564   */\n    tag_269:\n        /* \"#utility.yul\":3533:3557   */\n      tag_344\n        /* \"#utility.yul\":3551:3556   */\n      dup2\n        /* \"#utility.yul\":3533:3557   */\n      tag_264\n      jump\t// in\n    tag_344:\n        /* \"#utility.yul\":3528:3531   */\n      dup3\n        /* \"#utility.yul\":3521:3558   */\n      mstore\n        /* \"#utility.yul\":3446:3564   */\n      pop\n      pop\n      jump\t// out\n        /* \"#utility.yul\":3570:3792   */\n    tag_40:\n        /* \"#utility.yul\":3663:3667   */\n      0x00\n        /* \"#utility.yul\":3701:3703   */\n      0x20\n        /* \"#utility.yul\":3690:3699   */\n      dup3\n        /* \"#utility.yul\":3686:3704   */\n      add\n        /* \"#utility.yul\":3678:3704   */\n      swap1\n      pop\n        /* \"#utility.yul\":3714:3785   */\n      tag_346\n        /* \"#utility.yul\":3782:3783   */\n      0x00\n        /* \"#utility.yul\":3771:3780   */\n      dup4\n        /* \"#utility.yul\":3767:3784   */\n      add\n        /* \"#utility.yul\":3758:3764   */\n      dup5\n        /* \"#utility.yul\":3714:3785   */\n      tag_269\n      jump\t// in\n    tag_346:\n        /* \"#utility.yul\":3570:3792   */\n      swap3\n      swap2\n      pop\n      pop\n      jump\t// out\n        /* \"#utility.yul\":3798:4417   */\n    tag_43:\n        /* \"#utility.yul\":3875:3881   */\n      0x00\n        /* \"#utility.yul\":3883:3889   */\n      dup1\n        /* \"#utility.yul\":3891:3897   */\n      0x00\n        /* \"#utility.yul\":3940:3942   */\n      0x60\n        /* \"#utility.yul\":3928:3937   */\n      dup5\n        /* \"#utility.yul\":3919:3926   */\n      dup7\n        /* \"#utility.yul\":3915:3938   */\n      sub\n        /* \"#utility.yul\":3911:3943   */\n      slt\n        /* \"#utility.yul\":3908:4027   */\n      iszero\n      tag_348\n      jumpi\n        /* \"#utility.yul\":3946:4025   */\n      tag_349\n      tag_258\n      jump\t// in\n    tag_349:\n        /* \"#utility.yul\":3908:4027   */\n    tag_348:\n        /* \"#utility.yul\":4066:4067   */\n      0x00\n        /* \"#utility.yul\":4091:4144   */\n      tag_350\n        /* \"#utility.yul\":4136:4143   */\n      dup7\n        /* \"#utility.yul\":4127:4133   */\n      dup3\n        /* \"#utility.yul\":4116:4125   */\n      dup8\n        /* \"#utility.yul\":4112:4134   */\n      add\n        /* \"#utility.yul\":4091:4144   */\n      tag_263\n      jump\t// in\n    tag_350:\n        /* \"#utility.yul\":4081:4144   */\n      swap4\n      pop\n        /* \"#utility.yul\":4037:4154   */\n      pop\n        /* \"#utility.yul\":4193:4195   */\n      0x20\n        /* \"#utility.yul\":4219:4272   */\n      tag_351\n        /* \"#utility.yul\":4264:4271   */\n      dup7\n        /* \"#utility.yul\":4255:4261   */\n      dup3\n        /* \"#utility.yul\":4244:4253   */\n      dup8\n        /* \"#utility.yul\":4240:4262   */\n      add\n        /* \"#utility.yul\":4219:4272   */\n      tag_263\n      jump\t// in\n    tag_351:\n        /* \"#utility.yul\":4209:4272   */\n      swap3\n      pop\n        /* \"#utility.yul\":4164:4282   */\n      pop\n        /* \"#utility.yul\":4321:4323   */\n      0x40\n        /* \"#utility.yul\":4347:4400   */\n      tag_352\n        /* \"#utility.yul\":4392:4399   */\n      dup7\n        /* \"#utility.yul\":4383:4389   */\n      dup3\n        /* \"#utility.yul\":4372:4381   */\n      dup8\n        /* \"#utility.yul\":4368:4390   */\n      add\n        /* \"#utility.yul\":4347:4400   */\n      tag_266\n      jump\t// in\n    tag_352:\n        /* \"#utility.yul\":4337:4400   */\n      swap2\n      pop\n        /* \"#utility.yul\":4292:4410   */\n      pop\n        /* \"#utility.yul\":3798:4417   */\n      swap3\n      pop\n      swap3\n      pop\n      swap3\n      jump\t// out\n        /* \"#utility.yul\":4423:4509   */\n    tag_270:\n        /* \"#utility.yul\":4458:4465   */\n      0x00\n        /* \"#utility.yul\":4498:4502   */\n      0xff\n        /* \"#utility.yul\":4491:4496   */\n      dup3\n        /* \"#utility.yul\":4487:4503   */\n      and\n        /* \"#utility.yul\":4476:4503   */\n      swap1\n      pop\n        /* \"#utility.yul\":4423:4509   */\n      swap2\n      swap1\n      pop\n      jump\t// out\n        /* \"#utility.yul\":4515:4627   */\n    tag_271:\n        /* \"#utility.yul\":4598:4620   */\n      tag_355\n        /* \"#utility.yul\":4614:4619   */\n      dup2\n        /* \"#utility.yul\":4598:4620   */\n      tag_270\n      jump\t// in\n    tag_355:\n        /* \"#utility.yul\":4593:4596   */\n      dup3\n        /* \"#utility.yul\":4586:4621   */\n      mstore\n        /* \"#utility.yul\":4515:4627   */\n      pop\n      pop\n      jump\t// out\n        /* \"#utility.yul\":4633:4847   */\n    tag_49:\n        /* \"#utility.yul\":4722:4726   */\n      0x00\n        /* \"#utility.yul\":4760:4762   */\n      0x20\n        /* \"#utility.yul\":4749:4758   */\n      dup3\n        /* \"#utility.yul\":4745:4763   */\n      add\n        /* \"#utility.yul\":4737:4763   */\n      swap1\n      pop\n        /* \"#utility.yul\":4773:4840   */\n      tag_357\n        /* \"#utility.yul\":4837:4838   */\n      0x00\n        /* \"#utility.yul\":4826:4835   */\n      dup4\n        /* \"#utility.yul\":4822:4839   */\n      add\n        /* \"#utility.yul\":4813:4819   */\n      dup5\n        /* \"#utility.yul\":4773:4840   */\n      tag_271\n      jump\t// in\n    tag_357:\n        /* \"#utility.yul\":4633:4847   */\n      swap3\n      swap2\n      pop\n      pop\n      jump\t// out\n        /* \"#utility.yul\":4853:5182   */\n    tag_52:\n        /* \"#utility.yul\":4912:4918   */\n      0x00\n        /* \"#utility.yul\":4961:4963   */\n      0x20\n        /* \"#utility.yul\":4949:4958   */\n      dup3\n        /* \"#utility.yul\":4940:4947   */\n      dup5\n        /* \"#utility.yul\":4936:4959   */\n      sub\n        /* \"#utility.yul\":4932:4964   */\n      slt\n        /* \"#utility.yul\":4929:5048   */\n      iszero\n      tag_359\n      jumpi\n        /* \"#utility.yul\":4967:5046   */\n      tag_360\n      tag_258\n      jump\t// in\n    tag_360:\n        /* \"#utility.yul\":4929:5048   */\n    tag_359:\n        /* \"#utility.yul\":5087:5088   */\n      0x00\n        /* \"#utility.yul\":5112:5165   */\n      tag_361\n        /* \"#utility.yul\":5157:5164   */\n      dup5\n        /* \"#utility.yul\":5148:5154   */\n      dup3\n        /* \"#utility.yul\":5137:5146   */\n      dup6\n        /* \"#utility.yul\":5133:5155   */\n      add\n        /* \"#utility.yul\":5112:5165   */\n      tag_266\n      jump\t// in\n    tag_361:\n        /* \"#utility.yul\":5102:5165   */\n      swap2\n      pop\n        /* \"#utility.yul\":5058:5175   */\n      pop\n        /* \"#utility.yul\":4853:5182   */\n      swap3\n      swap2\n      pop\n      pop\n      jump\t// out\n        /* \"#utility.yul\":5188:5517   */\n    tag_72:\n        /* \"#utility.yul\":5247:5253   */\n      0x00\n        /* \"#utility.yul\":5296:5298   */\n      0x20\n        /* \"#utility.yul\":5284:5293   */\n      dup3\n        /* \"#utility.yul\":5275:5282   */\n      dup5\n        /* \"#utility.yul\":5271:5294   */\n      sub\n        /* \"#utility.yul\":5267:5299   */\n      slt\n        /* \"#utility.yul\":5264:5383   */\n      iszero\n      tag_363\n      jumpi\n        /* \"#utility.yul\":5302:5381   */\n      tag_364\n      tag_258\n      jump\t// in\n    tag_364:\n        /* \"#utility.yul\":5264:5383   */\n    tag_363:\n        /* \"#utility.yul\":5422:5423   */\n      0x00\n        /* \"#utility.yul\":5447:5500   */\n      tag_365\n        /* \"#utility.yul\":5492:5499   */\n      dup5\n        /* \"#utility.yul\":5483:5489   */\n      dup3\n        /* \"#utility.yul\":5472:5481   */\n      dup6\n        /* \"#utility.yul\":5468:5490   */\n      add\n        /* \"#utility.yul\":5447:5500   */\n      tag_263\n      jump\t// in\n    tag_365:\n        /* \"#utility.yul\":5437:5500   */\n      swap2\n      pop\n        /* \"#utility.yul\":5393:5510   */\n      pop\n        /* \"#utility.yul\":5188:5517   */\n      swap3\n      swap2\n      pop\n      pop\n      jump\t// out\n        /* \"#utility.yul\":5523:5641   */\n    tag_272:\n        /* \"#utility.yul\":5610:5634   */\n      tag_367\n        /* \"#utility.yul\":5628:5633   */\n      dup2\n        /* \"#utility.yul\":5610:5634   */\n      tag_261\n      jump\t// in\n    tag_367:\n        /* \"#utility.yul\":5605:5608   */\n      dup3\n        /* \"#utility.yul\":5598:5635   */\n      mstore\n        /* \"#utility.yul\":5523:5641   */\n      pop\n      pop\n      jump\t// out\n        /* \"#utility.yul\":5647:5869   */\n    tag_86:\n        /* \"#utility.yul\":5740:5744   */\n      0x00\n        /* \"#utility.yul\":5778:5780   */\n      0x20\n        /* \"#utility.yul\":5767:5776   */\n      dup3\n        /* \"#utility.yul\":5763:5781   */\n      add\n        /* \"#utility.yul\":5755:5781   */\n      swap1\n      pop\n        /* \"#utility.yul\":5791:5862   */\n      tag_369\n        /* \"#utility.yul\":5859:5860   */\n      0x00\n        /* \"#utility.yul\":5848:5857   */\n      dup4\n        /* \"#utility.yul\":5844:5861   */\n      add\n        /* \"#utility.yul\":5835:5841   */\n      dup5\n        /* \"#utility.yul\":5791:5862   */\n      tag_272\n      jump\t// in\n    tag_369:\n        /* \"#utility.yul\":5647:5869   */\n      swap3\n      swap2\n      pop\n      pop\n      jump\t// out\n        /* \"#utility.yul\":5875:6349   */\n    tag_100:\n        /* \"#utility.yul\":5943:5949   */\n      0x00\n        /* \"#utility.yul\":5951:5957   */\n      dup1\n        /* \"#utility.yul\":6000:6002   */\n      0x40\n        /* \"#utility.yul\":5988:5997   */\n      dup4\n        /* \"#utility.yul\":5979:5986   */\n      dup6\n        /* \"#utility.yul\":5975:5998   */\n      sub\n        /* \"#utility.yul\":5971:6003   */\n      slt\n        /* \"#utility.yul\":5968:6087   */\n      iszero\n      tag_371\n      jumpi\n        /* \"#utility.yul\":6006:6085   */\n      tag_372\n      tag_258\n      jump\t// in\n    tag_372:\n        /* \"#utility.yul\":5968:6087   */\n    tag_371:\n        /* \"#utility.yul\":6126:6127   */\n      0x00\n        /* \"#utility.yul\":6151:6204   */\n      tag_373\n        /* \"#utility.yul\":6196:6203   */\n      dup6\n        /* \"#utility.yul\":6187:6193   */\n      dup3\n        /* \"#utility.yul\":6176:6185   */\n      dup7\n        /* \"#utility.yul\":6172:6194   */\n      add\n        /* \"#utility.yul\":6151:6204   */\n      tag_263\n      jump\t// in\n    tag_373:\n        /* \"#utility.yul\":6141:6204   */\n      swap3\n      pop\n        /* \"#utility.yul\":6097:6214   */\n      pop\n        /* \"#utility.yul\":6253:6255   */\n      0x20\n        /* \"#utility.yul\":6279:6332   */\n      tag_374\n        /* \"#utility.yul\":6324:6331   */\n      dup6\n        /* \"#utility.yul\":6315:6321   */\n      dup3\n        /* \"#utility.yul\":6304:6313   */\n      dup7\n        /* \"#utility.yul\":6300:6322   */\n      add\n        /* \"#utility.yul\":6279:6332   */\n      tag_263\n      jump\t// in\n    tag_374:\n        /* \"#utility.yul\":6269:6332   */\n      swap2\n      pop\n        /* \"#utility.yul\":6224:6342   */\n      pop\n        /* \"#utility.yul\":5875:6349   */\n      swap3\n      pop\n      swap3\n      swap1\n      pop\n      jump\t// out\n        /* \"#utility.yul\":6355:6535   */\n    tag_273:\n        /* \"#utility.yul\":6403:6480   */\n      0x4e487b7100000000000000000000000000000000000000000000000000000000\n        /* \"#utility.yul\":6400:6401   */\n      0x00\n        /* \"#utility.yul\":6393:6481   */\n      mstore\n        /* \"#utility.yul\":6500:6504   */\n      0x22\n        /* \"#utility.yul\":6497:6498   */\n      0x04\n        /* \"#utility.yul\":6490:6505   */\n      mstore\n        /* \"#utility.yul\":6524:6528   */\n      0x24\n        /* \"#utility.yul\":6521:6522   */\n      0x00\n        /* \"#utility.yul\":6514:6529   */\n      revert\n        /* \"#utility.yul\":6541:6861   */\n    tag_108:\n        /* \"#utility.yul\":6585:6591   */\n      0x00\n        /* \"#utility.yul\":6622:6623   */\n      0x02\n        /* \"#utility.yul\":6616:6620   */\n      dup3\n        /* \"#utility.yul\":6612:6624   */\n      div\n        /* \"#utility.yul\":6602:6624   */\n      swap1\n      pop\n        /* \"#utility.yul\":6669:6670   */\n      0x01\n        /* \"#utility.yul\":6663:6667   */\n      dup3\n        /* \"#utility.yul\":6659:6671   */\n      and\n        /* \"#utility.yul\":6690:6708   */\n      dup1\n        /* \"#utility.yul\":6680:6761   */\n      tag_377\n      jumpi\n        /* \"#utility.yul\":6746:6750   */\n      0x7f\n        /* \"#utility.yul\":6738:6744   */\n      dup3\n        /* \"#utility.yul\":6734:6751   */\n      and\n        /* \"#utility.yul\":6724:6751   */\n      swap2\n      pop\n        /* \"#utility.yul\":6680:6761   */\n    tag_377:\n        /* \"#utility.yul\":6808:6810   */\n      0x20\n        /* \"#utility.yul\":6800:6806   */\n      dup3\n        /* \"#utility.yul\":6797:6811   */\n      lt\n        /* \"#utility.yul\":6777:6795   */\n      dup2\n        /* \"#utility.yul\":6774:6812   */\n      sub\n        /* \"#utility.yul\":6771:6855   */\n      tag_378\n      jumpi\n        /* \"#utility.yul\":6827:6845   */\n      tag_379\n      tag_273\n      jump\t// in\n    tag_379:\n        /* \"#utility.yul\":6771:6855   */\n    tag_378:\n        /* \"#utility.yul\":6592:6861   */\n      pop\n        /* \"#utility.yul\":6541:6861   */\n      swap2\n      swap1\n      pop\n      jump\t// out\n        /* \"#utility.yul\":6867:7046   */\n    tag_274:\n        /* \"#utility.yul\":7007:7038   */\n      0x496e73756666696369656e7420636f6e74726163742062616c616e6365000000\n        /* \"#utility.yul\":7003:7004   */\n      0x00\n        /* \"#utility.yul\":6995:7001   */\n      dup3\n        /* \"#utility.yul\":6991:7005   */\n      add\n        /* \"#utility.yul\":6984:7039   */\n      mstore\n        /* \"#utility.yul\":6867:7046   */\n      pop\n      jump\t// out\n        /* \"#utility.yul\":7052:7418   */\n    tag_275:\n        /* \"#utility.yul\":7194:7197   */\n      0x00\n        /* \"#utility.yul\":7215:7282   */\n      tag_382\n        /* \"#utility.yul\":7279:7281   */\n      0x1d\n        /* \"#utility.yul\":7274:7277   */\n      dup4\n        /* \"#utility.yul\":7215:7282   */\n      tag_253\n      jump\t// in\n    tag_382:\n        /* \"#utility.yul\":7208:7282   */\n      swap2\n      pop\n        /* \"#utility.yul\":7291:7384   */\n      tag_383\n        /* \"#utility.yul\":7380:7383   */\n      dup3\n        /* \"#utility.yul\":7291:7384   */\n      tag_274\n      jump\t// in\n    tag_383:\n        /* \"#utility.yul\":7409:7411   */\n      0x20\n        /* \"#utility.yul\":7404:7407   */\n      dup3\n        /* \"#utility.yul\":7400:7412   */\n      add\n        /* \"#utility.yul\":7393:7412   */\n      swap1\n      pop\n        /* \"#utility.yul\":7052:7418   */\n      swap2\n      swap1\n      pop\n      jump\t// out\n        /* \"#utility.yul\":7424:7843   */\n    tag_133:\n        /* \"#utility.yul\":7590:7594   */\n      0x00\n        /* \"#utility.yul\":7628:7630   */\n      0x20\n        /* \"#utility.yul\":7617:7626   */\n      dup3\n        /* \"#utility.yul\":7613:7631   */\n      add\n        /* \"#utility.yul\":7605:7631   */\n      swap1\n      pop\n        /* \"#utility.yul\":7677:7686   */\n      dup2\n        /* \"#utility.yul\":7671:7675   */\n      dup2\n        /* \"#utility.yul\":7667:7687   */\n      sub\n        /* \"#utility.yul\":7663:7664   */\n      0x00\n        /* \"#utility.yul\":7652:7661   */\n      dup4\n        /* \"#utility.yul\":7648:7665   */\n      add\n        /* \"#utility.yul\":7641:7688   */\n      mstore\n        /* \"#utility.yul\":7705:7836   */\n      tag_385\n        /* \"#utility.yul\":7831:7835   */\n      dup2\n        /* \"#utility.yul\":7705:7836   */\n      tag_275\n      jump\t// in\n    tag_385:\n        /* \"#utility.yul\":7697:7836   */\n      swap1\n      pop\n        /* \"#utility.yul\":7424:7843   */\n      swap2\n      swap1\n      pop\n      jump\t// out\n        /* \"#utility.yul\":7849:8029   */\n    tag_276:\n        /* \"#utility.yul\":7897:7974   */\n      0x4e487b7100000000000000000000000000000000000000000000000000000000\n        /* \"#utility.yul\":7894:7895   */\n      0x00\n        /* \"#utility.yul\":7887:7975   */\n      mstore\n        /* \"#utility.yul\":7994:7998   */\n      0x11\n        /* \"#utility.yul\":7991:7992   */\n      0x04\n        /* \"#utility.yul\":7984:7999   */\n      mstore\n        /* \"#utility.yul\":8018:8022   */\n      0x24\n        /* \"#utility.yul\":8015:8016   */\n      0x00\n        /* \"#utility.yul\":8008:8023   */\n      revert\n        /* \"#utility.yul\":8035:8226   */\n    tag_141:\n        /* \"#utility.yul\":8075:8078   */\n      0x00\n        /* \"#utility.yul\":8094:8114   */\n      tag_388\n        /* \"#utility.yul\":8112:8113   */\n      dup3\n        /* \"#utility.yul\":8094:8114   */\n      tag_264\n      jump\t// in\n    tag_388:\n        /* \"#utility.yul\":8089:8114   */\n      swap2\n      pop\n        /* \"#utility.yul\":8128:8148   */\n      tag_389\n        /* \"#utility.yul\":8146:8147   */\n      dup4\n        /* \"#utility.yul\":8128:8148   */\n      tag_264\n      jump\t// in\n    tag_389:\n        /* \"#utility.yul\":8123:8148   */\n      swap3\n      pop\n        /* \"#utility.yul\":8171:8172   */\n      dup3\n        /* \"#utility.yul\":8168:8169   */\n      dup3\n        /* \"#utility.yul\":8164:8173   */\n      add\n        /* \"#utility.yul\":8157:8173   */\n      swap1\n      pop\n        /* \"#utility.yul\":8192:8195   */\n      dup1\n        /* \"#utility.yul\":8189:8190   */\n      dup3\n        /* \"#utility.yul\":8186:8196   */\n      gt\n        /* \"#utility.yul\":8183:8219   */\n      iszero\n      tag_390\n      jumpi\n        /* \"#utility.yul\":8199:8217   */\n      tag_391\n      tag_276\n      jump\t// in\n    tag_391:\n        /* \"#utility.yul\":8183:8219   */\n    tag_390:\n        /* \"#utility.yul\":8035:8226   */\n      swap3\n      swap2\n      pop\n      pop\n      jump\t// out\n        /* \"#utility.yul\":8232:8456   */\n    tag_277:\n        /* \"#utility.yul\":8372:8406   */\n      0x45524332303a2064656372656173656420616c6c6f77616e63652062656c6f77\n        /* \"#utility.yul\":8368:8369   */\n      0x00\n        /* \"#utility.yul\":8360:8366   */\n      dup3\n        /* \"#utility.yul\":8356:8370   */\n      add\n        /* \"#utility.yul\":8349:8407   */\n      mstore\n        /* \"#utility.yul\":8441:8448   */\n      0x207a65726f000000000000000000000000000000000000000000000000000000\n        /* \"#utility.yul\":8436:8438   */\n      0x20\n        /* \"#utility.yul\":8428:8434   */\n      dup3\n        /* \"#utility.yul\":8424:8439   */\n      add\n        /* \"#utility.yul\":8417:8449   */\n      mstore\n        /* \"#utility.yul\":8232:8456   */\n      pop\n      jump\t// out\n        /* \"#utility.yul\":8462:8828   */\n    tag_278:\n        /* \"#utility.yul\":8604:8607   */\n      0x00\n        /* \"#utility.yul\":8625:8692   */\n      tag_394\n        /* \"#utility.yul\":8689:8691   */\n      0x25\n        /* \"#utility.yul\":8684:8687   */\n      dup4\n        /* \"#utility.yul\":8625:8692   */\n      tag_253\n      jump\t// in\n    tag_394:\n        /* \"#utility.yul\":8618:8692   */\n      swap2\n      pop\n        /* \"#utility.yul\":8701:8794   */\n      tag_395\n        /* \"#utility.yul\":8790:8793   */\n      dup3\n        /* \"#utility.yul\":8701:8794   */\n      tag_277\n      jump\t// in\n    tag_395:\n        /* \"#utility.yul\":8819:8821   */\n      0x40\n        /* \"#utility.yul\":8814:8817   */\n      dup3\n        /* \"#utility.yul\":8810:8822   */\n      add\n        /* \"#utility.yul\":8803:8822   */\n      swap1\n      pop\n        /* \"#utility.yul\":8462:8828   */\n      swap2\n      swap1\n      pop\n      jump\t// out\n        /* \"#utility.yul\":8834:9253   */\n    tag_181:\n        /* \"#utility.yul\":9000:9004   */\n      0x00\n        /* \"#utility.yul\":9038:9040   */\n      0x20\n        /* \"#utility.yul\":9027:9036   */\n      dup3\n        /* \"#utility.yul\":9023:9041   */\n      add\n        /* \"#utility.yul\":9015:9041   */\n      swap1\n      pop\n        /* \"#utility.yul\":9087:9096   */\n      dup2\n        /* \"#utility.yul\":9081:9085   */\n      dup2\n        /* \"#utility.yul\":9077:9097   */\n      sub\n        /* \"#utility.yul\":9073:9074   */\n      0x00\n        /* \"#utility.yul\":9062:9071   */\n      dup4\n        /* \"#utility.yul\":9058:9075   */\n      add\n        /* \"#utility.yul\":9051:9098   */\n      mstore\n        /* \"#utility.yul\":9115:9246   */\n      tag_397\n        /* \"#utility.yul\":9241:9245   */\n      dup2\n        /* \"#utility.yul\":9115:9246   */\n      tag_278\n      jump\t// in\n    tag_397:\n        /* \"#utility.yul\":9107:9246   */\n      swap1\n      pop\n        /* \"#utility.yul\":8834:9253   */\n      swap2\n      swap1\n      pop\n      jump\t// out\n        /* \"#utility.yul\":9259:9484   */\n    tag_279:\n        /* \"#utility.yul\":9399:9433   */\n      0x4f776e61626c653a206e6577206f776e657220697320746865207a65726f2061\n        /* \"#utility.yul\":9395:9396   */\n      0x00\n        /* \"#utility.yul\":9387:9393   */\n      dup3\n        /* \"#utility.yul\":9383:9397   */\n      add\n        /* \"#utility.yul\":9376:9434   */\n      mstore\n        /* \"#utility.yul\":9468:9476   */\n      0x6464726573730000000000000000000000000000000000000000000000000000\n        /* \"#utility.yul\":9463:9465   */\n      0x20\n        /* \"#utility.yul\":9455:9461   */\n      dup3\n        /* \"#utility.yul\":9451:9466   */\n      add\n        /* \"#utility.yul\":9444:9477   */\n      mstore\n        /* \"#utility.yul\":9259:9484   */\n      pop\n      jump\t// out\n        /* \"#utility.yul\":9490:9856   */\n    tag_280:\n        /* \"#utility.yul\":9632:9635   */\n      0x00\n        /* \"#utility.yul\":9653:9720   */\n      tag_400\n        /* \"#utility.yul\":9717:9719   */\n      0x26\n        /* \"#utility.yul\":9712:9715   */\n      dup4\n        /* \"#utility.yul\":9653:9720   */\n      tag_253\n      jump\t// in\n    tag_400:\n        /* \"#utility.yul\":9646:9720   */\n      swap2\n      pop\n        /* \"#utility.yul\":9729:9822   */\n      tag_401\n        /* \"#utility.yul\":9818:9821   */\n      dup3\n        /* \"#utility.yul\":9729:9822   */\n      tag_279\n      jump\t// in\n    tag_401:\n        /* \"#utility.yul\":9847:9849   */\n      0x40\n        /* \"#utility.yul\":9842:9845   */\n      dup3\n        /* \"#utility.yul\":9838:9850   */\n      add\n        /* \"#utility.yul\":9831:9850   */\n      swap1\n      pop\n        /* \"#utility.yul\":9490:9856   */\n      swap2\n      swap1\n      pop\n      jump\t// out\n        /* \"#utility.yul\":9862:10281   */\n    tag_192:\n        /* \"#utility.yul\":10028:10032   */\n      0x00\n        /* \"#utility.yul\":10066:10068   */\n      0x20\n        /* \"#utility.yul\":10055:10064   */\n      dup3\n        /* \"#utility.yul\":10051:10069   */\n      add\n        /* \"#utility.yul\":10043:10069   */\n      swap1\n      pop\n        /* \"#utility.yul\":10115:10124   */\n      dup2\n        /* \"#utility.yul\":10109:10113   */\n      dup2\n        /* \"#utility.yul\":10105:10125   */\n      sub\n        /* \"#utility.yul\":10101:10102   */\n      0x00\n        /* \"#utility.yul\":10090:10099   */\n      dup4\n        /* \"#utility.yul\":10086:10103   */\n      add\n        /* \"#utility.yul\":10079:10126   */\n      mstore\n        /* \"#utility.yul\":10143:10274   */\n      tag_403\n        /* \"#utility.yul\":10269:10273   */\n      dup2\n        /* \"#utility.yul\":10143:10274   */\n      tag_280\n      jump\t// in\n    tag_403:\n        /* \"#utility.yul\":10135:10274   */\n      swap1\n      pop\n        /* \"#utility.yul\":9862:10281   */\n      swap2\n      swap1\n      pop\n      jump\t// out\n        /* \"#utility.yul\":10287:10510   */\n    tag_281:\n        /* \"#utility.yul\":10427:10461   */\n      0x45524332303a20617070726f76652066726f6d20746865207a65726f20616464\n        /* \"#utility.yul\":10423:10424   */\n      0x00\n        /* \"#utility.yul\":10415:10421   */\n      dup3\n        /* \"#utility.yul\":10411:10425   */\n      add\n        /* \"#utility.yul\":10404:10462   */\n      mstore\n        /* \"#utility.yul\":10496:10502   */\n      0x7265737300000000000000000000000000000000000000000000000000000000\n        /* \"#utility.yul\":10491:10493   */\n      0x20\n        /* \"#utility.yul\":10483:10489   */\n      dup3\n        /* \"#utility.yul\":10479:10494   */\n      add\n        /* \"#utility.yul\":10472:10503   */\n      mstore\n        /* \"#utility.yul\":10287:10510   */\n      pop\n      jump\t// out\n        /* \"#utility.yul\":10516:10882   */\n    tag_282:\n        /* \"#utility.yul\":10658:10661   */\n      0x00\n        /* \"#utility.yul\":10679:10746   */\n      tag_406\n        /* \"#utility.yul\":10743:10745   */\n      0x24\n        /* \"#utility.yul\":10738:10741   */\n      dup4\n        /* \"#utility.yul\":10679:10746   */\n      tag_253\n      jump\t// in\n    tag_406:\n        /* \"#utility.yul\":10672:10746   */\n      swap2\n      pop\n        /* \"#utility.yul\":10755:10848   */\n      tag_407\n        /* \"#utility.yul\":10844:10847   */\n      dup3\n        /* \"#utility.yul\":10755:10848   */\n      tag_281\n      jump\t// in\n    tag_407:\n        /* \"#utility.yul\":10873:10875   */\n      0x40\n        /* \"#utility.yul\":10868:10871   */\n      dup3\n        /* \"#utility.yul\":10864:10876   */\n      add\n        /* \"#utility.yul\":10857:10876   */\n      swap1\n      pop\n        /* \"#utility.yul\":10516:10882   */\n      swap2\n      swap1\n      pop\n      jump\t// out\n        /* \"#utility.yul\":10888:11307   */\n    tag_198:\n        /* \"#utility.yul\":11054:11058   */\n      0x00\n        /* \"#utility.yul\":11092:11094   */\n      0x20\n        /* \"#utility.yul\":11081:11090   */\n      dup3\n        /* \"#utility.yul\":11077:11095   */\n      add\n        /* \"#utility.yul\":11069:11095   */\n      swap1\n      pop\n        /* \"#utility.yul\":11141:11150   */\n      dup2\n        /* \"#utility.yul\":11135:11139   */\n      dup2\n        /* \"#utility.yul\":11131:11151   */\n      sub\n        /* \"#utility.yul\":11127:11128   */\n      0x00\n        /* \"#utility.yul\":11116:11125   */\n      dup4\n        /* \"#utility.yul\":11112:11129   */\n      add\n        /* \"#utility.yul\":11105:11152   */\n      mstore\n        /* \"#utility.yul\":11169:11300   */\n      tag_409\n        /* \"#utility.yul\":11295:11299   */\n      dup2\n        /* \"#utility.yul\":11169:11300   */\n      tag_282\n      jump\t// in\n    tag_409:\n        /* \"#utility.yul\":11161:11300   */\n      swap1\n      pop\n        /* \"#utility.yul\":10888:11307   */\n      swap2\n      swap1\n      pop\n      jump\t// out\n        /* \"#utility.yul\":11313:11534   */\n    tag_283:\n        /* \"#utility.yul\":11453:11487   */\n      0x45524332303a20617070726f766520746f20746865207a65726f206164647265\n        /* \"#utility.yul\":11449:11450   */\n      0x00\n        /* \"#utility.yul\":11441:11447   */\n      dup3\n        /* \"#utility.yul\":11437:11451   */\n      add\n        /* \"#utility.yul\":11430:11488   */\n      mstore\n        /* \"#utility.yul\":11522:11526   */\n      0x7373000000000000000000000000000000000000000000000000000000000000\n        /* \"#utility.yul\":11517:11519   */\n      0x20\n        /* \"#utility.yul\":11509:11515   */\n      dup3\n        /* \"#utility.yul\":11505:11520   */\n      add\n        /* \"#utility.yul\":11498:11527   */\n      mstore\n        /* \"#utility.yul\":11313:11534   */\n      pop\n      jump\t// out\n        /* \"#utility.yul\":11540:11906   */\n    tag_284:\n        /* \"#utility.yul\":11682:11685   */\n      0x00\n        /* \"#utility.yul\":11703:11770   */\n      tag_412\n        /* \"#utility.yul\":11767:11769   */\n      0x22\n        /* \"#utility.yul\":11762:11765   */\n      dup4\n        /* \"#utility.yul\":11703:11770   */\n      tag_253\n      jump\t// in\n    tag_412:\n        /* \"#utility.yul\":11696:11770   */\n      swap2\n      pop\n        /* \"#utility.yul\":11779:11872   */\n      tag_413\n        /* \"#utility.yul\":11868:11871   */\n      dup3\n        /* \"#utility.yul\":11779:11872   */\n      tag_283\n      jump\t// in\n    tag_413:\n        /* \"#utility.yul\":11897:11899   */\n      0x40\n        /* \"#utility.yul\":11892:11895   */\n      dup3\n        /* \"#utility.yul\":11888:11900   */\n      add\n        /* \"#utility.yul\":11881:11900   */\n      swap1\n      pop\n        /* \"#utility.yul\":11540:11906   */\n      swap2\n      swap1\n      pop\n      jump\t// out\n        /* \"#utility.yul\":11912:12331   */\n    tag_201:\n        /* \"#utility.yul\":12078:12082   */\n      0x00\n        /* \"#utility.yul\":12116:12118   */\n      0x20\n        /* \"#utility.yul\":12105:12114   */\n      dup3\n        /* \"#utility.yul\":12101:12119   */\n      add\n        /* \"#utility.yul\":12093:12119   */\n      swap1\n      pop\n        /* \"#utility.yul\":12165:12174   */\n      dup2\n        /* \"#utility.yul\":12159:12163   */\n      dup2\n        /* \"#utility.yul\":12155:12175   */\n      sub\n        /* \"#utility.yul\":12151:12152   */\n      0x00\n        /* \"#utility.yul\":12140:12149   */\n      dup4\n        /* \"#utility.yul\":12136:12153   */\n      add\n        /* \"#utility.yul\":12129:12176   */\n      mstore\n        /* \"#utility.yul\":12193:12324   */\n      tag_415\n        /* \"#utility.yul\":12319:12323   */\n      dup2\n        /* \"#utility.yul\":12193:12324   */\n      tag_284\n      jump\t// in\n    tag_415:\n        /* \"#utility.yul\":12185:12324   */\n      swap1\n      pop\n        /* \"#utility.yul\":11912:12331   */\n      swap2\n      swap1\n      pop\n      jump\t// out\n        /* \"#utility.yul\":12337:12516   */\n    tag_285:\n        /* \"#utility.yul\":12477:12508   */\n      0x45524332303a20696e73756666696369656e7420616c6c6f77616e6365000000\n        /* \"#utility.yul\":12473:12474   */\n      0x00\n        /* \"#utility.yul\":12465:12471   */\n      dup3\n        /* \"#utility.yul\":12461:12475   */\n      add\n        /* \"#utility.yul\":12454:12509   */\n      mstore\n        /* \"#utility.yul\":12337:12516   */\n      pop\n      jump\t// out\n        /* \"#utility.yul\":12522:12888   */\n    tag_286:\n        /* \"#utility.yul\":12664:12667   */\n      0x00\n        /* \"#utility.yul\":12685:12752   */\n      tag_418\n        /* \"#utility.yul\":12749:12751   */\n      0x1d\n        /* \"#utility.yul\":12744:12747   */\n      dup4\n        /* \"#utility.yul\":12685:12752   */\n      tag_253\n      jump\t// in\n    tag_418:\n        /* \"#utility.yul\":12678:12752   */\n      swap2\n      pop\n        /* \"#utility.yul\":12761:12854   */\n      tag_419\n        /* \"#utility.yul\":12850:12853   */\n      dup3\n        /* \"#utility.yul\":12761:12854   */\n      tag_285\n      jump\t// in\n    tag_419:\n        /* \"#utility.yul\":12879:12881   */\n      0x20\n        /* \"#utility.yul\":12874:12877   */\n      dup3\n        /* \"#utility.yul\":12870:12882   */\n      add\n        /* \"#utility.yul\":12863:12882   */\n      swap1\n      pop\n        /* \"#utility.yul\":12522:12888   */\n      swap2\n      swap1\n      pop\n      jump\t// out\n        /* \"#utility.yul\":12894:13313   */\n    tag_208:\n        /* \"#utility.yul\":13060:13064   */\n      0x00\n        /* \"#utility.yul\":13098:13100   */\n      0x20\n        /* \"#utility.yul\":13087:13096   */\n      dup3\n        /* \"#utility.yul\":13083:13101   */\n      add\n        /* \"#utility.yul\":13075:13101   */\n      swap1\n      pop\n        /* \"#utility.yul\":13147:13156   */\n      dup2\n        /* \"#utility.yul\":13141:13145   */\n      dup2\n        /* \"#utility.yul\":13137:13157   */\n      sub\n        /* \"#utility.yul\":13133:13134   */\n      0x00\n        /* \"#utility.yul\":13122:13131   */\n      dup4\n        /* \"#utility.yul\":13118:13135   */\n      add\n        /* \"#utility.yul\":13111:13158   */\n      mstore\n        /* \"#utility.yul\":13175:13306   */\n      tag_421\n        /* \"#utility.yul\":13301:13305   */\n      dup2\n        /* \"#utility.yul\":13175:13306   */\n      tag_286\n      jump\t// in\n    tag_421:\n        /* \"#utility.yul\":13167:13306   */\n      swap1\n      pop\n        /* \"#utility.yul\":12894:13313   */\n      swap2\n      swap1\n      pop\n      jump\t// out\n        /* \"#utility.yul\":13319:13543   */\n    tag_287:\n        /* \"#utility.yul\":13459:13493   */\n      0x45524332303a207472616e736665722066726f6d20746865207a65726f206164\n        /* \"#utility.yul\":13455:13456   */\n      0x00\n        /* \"#utility.yul\":13447:13453   */\n      dup3\n        /* \"#utility.yul\":13443:13457   */\n      add\n        /* \"#utility.yul\":13436:13494   */\n      mstore\n        /* \"#utility.yul\":13528:13535   */\n      0x6472657373000000000000000000000000000000000000000000000000000000\n        /* \"#utility.yul\":13523:13525   */\n      0x20\n        /* \"#utility.yul\":13515:13521   */\n      dup3\n        /* \"#utility.yul\":13511:13526   */\n      add\n        /* \"#utility.yul\":13504:13536   */\n      mstore\n        /* \"#utility.yul\":13319:13543   */\n      pop\n      jump\t// out\n        /* \"#utility.yul\":13549:13915   */\n    tag_288:\n        /* \"#utility.yul\":13691:13694   */\n      0x00\n        /* \"#utility.yul\":13712:13779   */\n      tag_424\n        /* \"#utility.yul\":13776:13778   */\n      0x25\n        /* \"#utility.yul\":13771:13774   */\n      dup4\n        /* \"#utility.yul\":13712:13779   */\n      tag_253\n      jump\t// in\n    tag_424:\n        /* \"#utility.yul\":13705:13779   */\n      swap2\n      pop\n        /* \"#utility.yul\":13788:13881   */\n      tag_425\n        /* \"#utility.yul\":13877:13880   */\n      dup3\n        /* \"#utility.yul\":13788:13881   */\n      tag_287\n      jump\t// in\n    tag_425:\n        /* \"#utility.yul\":13906:13908   */\n      0x40\n        /* \"#utility.yul\":13901:13904   */\n      dup3\n        /* \"#utility.yul\":13897:13909   */\n      add\n        /* \"#utility.yul\":13890:13909   */\n      swap1\n      pop\n        /* \"#utility.yul\":13549:13915   */\n      swap2\n      swap1\n      pop\n      jump\t// out\n        /* \"#utility.yul\":13921:14340   */\n    tag_213:\n        /* \"#utility.yul\":14087:14091   */\n      0x00\n        /* \"#utility.yul\":14125:14127   */\n      0x20\n        /* \"#utility.yul\":14114:14123   */\n      dup3\n        /* \"#utility.yul\":14110:14128   */\n      add\n        /* \"#utility.yul\":14102:14128   */\n      swap1\n      pop\n        /* \"#utility.yul\":14174:14183   */\n      dup2\n        /* \"#utility.yul\":14168:14172   */\n      dup2\n        /* \"#utility.yul\":14164:14184   */\n      sub\n        /* \"#utility.yul\":14160:14161   */\n      0x00\n        /* \"#utility.yul\":14149:14158   */\n      dup4\n        /* \"#utility.yul\":14145:14162   */\n      add\n        /* \"#utility.yul\":14138:14185   */\n      mstore\n        /* \"#utility.yul\":14202:14333   */\n      tag_427\n        /* \"#utility.yul\":14328:14332   */\n      dup2\n        /* \"#utility.yul\":14202:14333   */\n      tag_288\n      jump\t// in\n    tag_427:\n        /* \"#utility.yul\":14194:14333   */\n      swap1\n      pop\n        /* \"#utility.yul\":13921:14340   */\n      swap2\n      swap1\n      pop\n      jump\t// out\n        /* \"#utility.yul\":14346:14568   */\n    tag_289:\n        /* \"#utility.yul\":14486:14520   */\n      0x45524332303a207472616e7366657220746f20746865207a65726f2061646472\n        /* \"#utility.yul\":14482:14483   */\n      0x00\n        /* \"#utility.yul\":14474:14480   */\n      dup3\n        /* \"#utility.yul\":14470:14484   */\n      add\n        /* \"#utility.yul\":14463:14521   */\n      mstore\n        /* \"#utility.yul\":14555:14560   */\n      0x6573730000000000000000000000000000000000000000000000000000000000\n        /* \"#utility.yul\":14550:14552   */\n      0x20\n        /* \"#utility.yul\":14542:14548   */\n      dup3\n        /* \"#utility.yul\":14538:14553   */\n      add\n        /* \"#utility.yul\":14531:14561   */\n      mstore\n        /* \"#utility.yul\":14346:14568   */\n      pop\n      jump\t// out\n        /* \"#utility.yul\":14574:14940   */\n    tag_290:\n        /* \"#utility.yul\":14716:14719   */\n      0x00\n        /* \"#utility.yul\":14737:14804   */\n      tag_430\n        /* \"#utility.yul\":14801:14803   */\n      0x23\n        /* \"#utility.yul\":14796:14799   */\n      dup4\n        /* \"#utility.yul\":14737:14804   */\n      tag_253\n      jump\t// in\n    tag_430:\n        /* \"#utility.yul\":14730:14804   */\n      swap2\n      pop\n        /* \"#utility.yul\":14813:14906   */\n      tag_431\n        /* \"#utility.yul\":14902:14905   */\n      dup3\n        /* \"#utility.yul\":14813:14906   */\n      tag_289\n      jump\t// in\n    tag_431:\n        /* \"#utility.yul\":14931:14933   */\n      0x40\n        /* \"#utility.yul\":14926:14929   */\n      dup3\n        /* \"#utility.yul\":14922:14934   */\n      add\n        /* \"#utility.yul\":14915:14934   */\n      swap1\n      pop\n        /* \"#utility.yul\":14574:14940   */\n      swap2\n      swap1\n      pop\n      jump\t// out\n        /* \"#utility.yul\":14946:15365   */\n    tag_216:\n        /* \"#utility.yul\":15112:15116   */\n      0x00\n        /* \"#utility.yul\":15150:15152   */\n      0x20\n        /* \"#utility.yul\":15139:15148   */\n      dup3\n        /* \"#utility.yul\":15135:15153   */\n      add\n        /* \"#utility.yul\":15127:15153   */\n      swap1\n      pop\n        /* \"#utility.yul\":15199:15208   */\n      dup2\n        /* \"#utility.yul\":15193:15197   */\n      dup2\n        /* \"#utility.yul\":15189:15209   */\n      sub\n        /* \"#utility.yul\":15185:15186   */\n      0x00\n        /* \"#utility.yul\":15174:15183   */\n      dup4\n        /* \"#utility.yul\":15170:15187   */\n      add\n        /* \"#utility.yul\":15163:15210   */\n      mstore\n        /* \"#utility.yul\":15227:15358   */\n      tag_433\n        /* \"#utility.yul\":15353:15357   */\n      dup2\n        /* \"#utility.yul\":15227:15358   */\n      tag_290\n      jump\t// in\n    tag_433:\n        /* \"#utility.yul\":15219:15358   */\n      swap1\n      pop\n        /* \"#utility.yul\":14946:15365   */\n      swap2\n      swap1\n      pop\n      jump\t// out\n        /* \"#utility.yul\":15371:15596   */\n    tag_291:\n        /* \"#utility.yul\":15511:15545   */\n      0x45524332303a207472616e7366657220616d6f756e7420657863656564732062\n        /* \"#utility.yul\":15507:15508   */\n      0x00\n        /* \"#utility.yul\":15499:15505   */\n      dup3\n        /* \"#utility.yul\":15495:15509   */\n      add\n        /* \"#utility.yul\":15488:15546   */\n      mstore\n        /* \"#utility.yul\":15580:15588   */\n      0x616c616e63650000000000000000000000000000000000000000000000000000\n        /* \"#utility.yul\":15575:15577   */\n      0x20\n        /* \"#utility.yul\":15567:15573   */\n      dup3\n        /* \"#utility.yul\":15563:15578   */\n      add\n        /* \"#utility.yul\":15556:15589   */\n      mstore\n        /* \"#utility.yul\":15371:15596   */\n      pop\n      jump\t// out\n        /* \"#utility.yul\":15602:15968   */\n    tag_292:\n        /* \"#utility.yul\":15744:15747   */\n      0x00\n        /* \"#utility.yul\":15765:15832   */\n      tag_436\n        /* \"#utility.yul\":15829:15831   */\n      0x26\n        /* \"#utility.yul\":15824:15827   */\n      dup4\n        /* \"#utility.yul\":15765:15832   */\n      tag_253\n      jump\t// in\n    tag_436:\n        /* \"#utility.yul\":15758:15832   */\n      swap2\n      pop\n        /* \"#utility.yul\":15841:15934   */\n      tag_437\n        /* \"#utility.yul\":15930:15933   */\n      dup3\n        /* \"#utility.yul\":15841:15934   */\n      tag_291\n      jump\t// in\n    tag_437:\n        /* \"#utility.yul\":15959:15961   */\n      0x40\n        /* \"#utility.yul\":15954:15957   */\n      dup3\n        /* \"#utility.yul\":15950:15962   */\n      add\n        /* \"#utility.yul\":15943:15962   */\n      swap1\n      pop\n        /* \"#utility.yul\":15602:15968   */\n      swap2\n      swap1\n      pop\n      jump\t// out\n        /* \"#utility.yul\":15974:16393   */\n    tag_221:\n        /* \"#utility.yul\":16140:16144   */\n      0x00\n        /* \"#utility.yul\":16178:16180   */\n      0x20\n        /* \"#utility.yul\":16167:16176   */\n      dup3\n        /* \"#utility.yul\":16163:16181   */\n      add\n        /* \"#utility.yul\":16155:16181   */\n      swap1\n      pop\n        /* \"#utility.yul\":16227:16236   */\n      dup2\n        /* \"#utility.yul\":16221:16225   */\n      dup2\n        /* \"#utility.yul\":16217:16237   */\n      sub\n        /* \"#utility.yul\":16213:16214   */\n      0x00\n        /* \"#utility.yul\":16202:16211   */\n      dup4\n        /* \"#utility.yul\":16198:16215   */\n      add\n        /* \"#utility.yul\":16191:16238   */\n      mstore\n        /* \"#utility.yul\":16255:16386   */\n      tag_439\n        /* \"#utility.yul\":16381:16385   */\n      dup2\n        /* \"#utility.yul\":16255:16386   */\n      tag_292\n      jump\t// in\n    tag_439:\n        /* \"#utility.yul\":16247:16386   */\n      swap1\n      pop\n        /* \"#utility.yul\":15974:16393   */\n      swap2\n      swap1\n      pop\n      jump\t// out\n        /* \"#utility.yul\":16399:16581   */\n    tag_293:\n        /* \"#utility.yul\":16539:16573   */\n      0x4f776e61626c653a2063616c6c6572206973206e6f7420746865206f776e6572\n        /* \"#utility.yul\":16535:16536   */\n      0x00\n        /* \"#utility.yul\":16527:16533   */\n      dup3\n        /* \"#utility.yul\":16523:16537   */\n      add\n        /* \"#utility.yul\":16516:16574   */\n      mstore\n        /* \"#utility.yul\":16399:16581   */\n      pop\n      jump\t// out\n        /* \"#utility.yul\":16587:16953   */\n    tag_294:\n        /* \"#utility.yul\":16729:16732   */\n      0x00\n        /* \"#utility.yul\":16750:16817   */\n      tag_442\n        /* \"#utility.yul\":16814:16816   */\n      0x20\n        /* \"#utility.yul\":16809:16812   */\n      dup4\n        /* \"#utility.yul\":16750:16817   */\n      tag_253\n      jump\t// in\n    tag_442:\n        /* \"#utility.yul\":16743:16817   */\n      swap2\n      pop\n        /* \"#utility.yul\":16826:16919   */\n      tag_443\n        /* \"#utility.yul\":16915:16918   */\n      dup3\n        /* \"#utility.yul\":16826:16919   */\n      tag_293\n      jump\t// in\n    tag_443:\n        /* \"#utility.yul\":16944:16946   */\n      0x20\n        /* \"#utility.yul\":16939:16942   */\n      dup3\n        /* \"#utility.yul\":16935:16947   */\n      add\n        /* \"#utility.yul\":16928:16947   */\n      swap1\n      pop\n        /* \"#utility.yul\":16587:16953   */\n      swap2\n      swap1\n      pop\n      jump\t// out\n        /* \"#utility.yul\":16959:17378   */\n    tag_230:\n        /* \"#utility.yul\":17125:17129   */\n      0x00\n        /* \"#utility.yul\":17163:17165   */\n      0x20\n        /* \"#utility.yul\":17152:17161   */\n      dup3\n        /* \"#utility.yul\":17148:17166   */\n      add\n        /* \"#utility.yul\":17140:17166   */\n      swap1\n      pop\n        /* \"#utility.yul\":17212:17221   */\n      dup2\n        /* \"#utility.yul\":17206:17210   */\n      dup2\n        /* \"#utility.yul\":17202:17222   */\n      sub\n        /* \"#utility.yul\":17198:17199   */\n      0x00\n        /* \"#utility.yul\":17187:17196   */\n      dup4\n        /* \"#utility.yul\":17183:17200   */\n      add\n        /* \"#utility.yul\":17176:17223   */\n      mstore\n        /* \"#utility.yul\":17240:17371   */\n      tag_445\n        /* \"#utility.yul\":17366:17370   */\n      dup2\n        /* \"#utility.yul\":17240:17371   */\n      tag_294\n      jump\t// in\n    tag_445:\n        /* \"#utility.yul\":17232:17371   */\n      swap1\n      pop\n        /* \"#utility.yul\":16959:17378   */\n      swap2\n      swap1\n      pop\n      jump\t// out\n        /* \"#utility.yul\":17384:17565   */\n    tag_295:\n        /* \"#utility.yul\":17524:17557   */\n      0x45524332303a206d696e7420746f20746865207a65726f206164647265737300\n        /* \"#utility.yul\":17520:17521   */\n      0x00\n        /* \"#utility.yul\":17512:17518   */\n      dup3\n        /* \"#utility.yul\":17508:17522   */\n      add\n        /* \"#utility.yul\":17501:17558   */\n      mstore\n        /* \"#utility.yul\":17384:17565   */\n      pop\n      jump\t// out\n        /* \"#utility.yul\":17571:17937   */\n    tag_296:\n        /* \"#utility.yul\":17713:17716   */\n      0x00\n        /* \"#utility.yul\":17734:17801   */\n      tag_448\n        /* \"#utility.yul\":17798:17800   */\n      0x1f\n        /* \"#utility.yul\":17793:17796   */\n      dup4\n        /* \"#utility.yul\":17734:17801   */\n      tag_253\n      jump\t// in\n    tag_448:\n        /* \"#utility.yul\":17727:17801   */\n      swap2\n      pop\n        /* \"#utility.yul\":17810:17903   */\n      tag_449\n        /* \"#utility.yul\":17899:17902   */\n      dup3\n        /* \"#utility.yul\":17810:17903   */\n      tag_295\n      jump\t// in\n    tag_449:\n        /* \"#utility.yul\":17928:17930   */\n      0x20\n        /* \"#utility.yul\":17923:17926   */\n      dup3\n        /* \"#utility.yul\":17919:17931   */\n      add\n        /* \"#utility.yul\":17912:17931   */\n      swap1\n      pop\n        /* \"#utility.yul\":17571:17937   */\n      swap2\n      swap1\n      pop\n      jump\t// out\n        /* \"#utility.yul\":17943:18362   */\n    tag_234:\n        /* \"#utility.yul\":18109:18113   */\n      0x00\n        /* \"#utility.yul\":18147:18149   */\n      0x20\n        /* \"#utility.yul\":18136:18145   */\n      dup3\n        /* \"#utility.yul\":18132:18150   */\n      add\n        /* \"#utility.yul\":18124:18150   */\n      swap1\n      pop\n        /* \"#utility.yul\":18196:18205   */\n      dup2\n        /* \"#utility.yul\":18190:18194   */\n      dup2\n        /* \"#utility.yul\":18186:18206   */\n      sub\n        /* \"#utility.yul\":18182:18183   */\n      0x00\n        /* \"#utility.yul\":18171:18180   */\n      dup4\n        /* \"#utility.yul\":18167:18184   */\n      add\n        /* \"#utility.yul\":18160:18207   */\n      mstore\n        /* \"#utility.yul\":18224:18355   */\n      tag_451\n        /* \"#utility.yul\":18350:18354   */\n      dup2\n        /* \"#utility.yul\":18224:18355   */\n      tag_296\n      jump\t// in\n    tag_451:\n        /* \"#utility.yul\":18216:18355   */\n      swap1\n      pop\n        /* \"#utility.yul\":17943:18362   */\n      swap2\n      swap1\n      pop\n      jump\t// out\n        /* \"#utility.yul\":18368:18588   */\n    tag_297:\n        /* \"#utility.yul\":18508:18542   */\n      0x45524332303a206275726e2066726f6d20746865207a65726f20616464726573\n        /* \"#utility.yul\":18504:18505   */\n      0x00\n        /* \"#utility.yul\":18496:18502   */\n      dup3\n        /* \"#utility.yul\":18492:18506   */\n      add\n        /* \"#utility.yul\":18485:18543   */\n      mstore\n        /* \"#utility.yul\":18577:18580   */\n      0x7300000000000000000000000000000000000000000000000000000000000000\n        /* \"#utility.yul\":18572:18574   */\n      0x20\n        /* \"#utility.yul\":18564:18570   */\n      dup3\n        /* \"#utility.yul\":18560:18575   */\n      add\n        /* \"#utility.yul\":18553:18581   */\n      mstore\n        /* \"#utility.yul\":18368:18588   */\n      pop\n      jump\t// out\n        /* \"#utility.yul\":18594:18960   */\n    tag_298:\n        /* \"#utility.yul\":18736:18739   */\n      0x00\n        /* \"#utility.yul\":18757:18824   */\n      tag_454\n        /* \"#utility.yul\":18821:18823   */\n      0x21\n        /* \"#utility.yul\":18816:18819   */\n      dup4\n        /* \"#utility.yul\":18757:18824   */\n      tag_253\n      jump\t// in\n    tag_454:\n        /* \"#utility.yul\":18750:18824   */\n      swap2\n      pop\n        /* \"#utility.yul\":18833:18926   */\n      tag_455\n        /* \"#utility.yul\":18922:18925   */\n      dup3\n        /* \"#utility.yul\":18833:18926   */\n      tag_297\n      jump\t// in\n    tag_455:\n        /* \"#utility.yul\":18951:18953   */\n      0x40\n        /* \"#utility.yul\":18946:18949   */\n      dup3\n        /* \"#utility.yul\":18942:18954   */\n      add\n        /* \"#utility.yul\":18935:18954   */\n      swap1\n      pop\n        /* \"#utility.yul\":18594:18960   */\n      swap2\n      swap1\n      pop\n      jump\t// out\n        /* \"#utility.yul\":18966:19385   */\n    tag_242:\n        /* \"#utility.yul\":19132:19136   */\n      0x00\n        /* \"#utility.yul\":19170:19172   */\n      0x20\n        /* \"#utility.yul\":19159:19168   */\n      dup3\n        /* \"#utility.yul\":19155:19173   */\n      add\n        /* \"#utility.yul\":19147:19173   */\n      swap1\n      pop\n        /* \"#utility.yul\":19219:19228   */\n      dup2\n        /* \"#utility.yul\":19213:19217   */\n      dup2\n        /* \"#utility.yul\":19209:19229   */\n      sub\n        /* \"#utility.yul\":19205:19206   */\n      0x00\n        /* \"#utility.yul\":19194:19203   */\n      dup4\n        /* \"#utility.yul\":19190:19207   */\n      add\n        /* \"#utility.yul\":19183:19230   */\n      mstore\n        /* \"#utility.yul\":19247:19378   */\n      tag_457\n        /* \"#utility.yul\":19373:19377   */\n      dup2\n        /* \"#utility.yul\":19247:19378   */\n      tag_298\n      jump\t// in\n    tag_457:\n        /* \"#utility.yul\":19239:19378   */\n      swap1\n      pop\n        /* \"#utility.yul\":18966:19385   */\n      swap2\n      swap1\n      pop\n      jump\t// out\n        /* \"#utility.yul\":19391:19612   */\n    tag_299:\n        /* \"#utility.yul\":19531:19565   */\n      0x45524332303a206275726e20616d6f756e7420657863656564732062616c616e\n        /* \"#utility.yul\":19527:19528   */\n      0x00\n        /* \"#utility.yul\":19519:19525   */\n      dup3\n        /* \"#utility.yul\":19515:19529   */\n      add\n        /* \"#utility.yul\":19508:19566   */\n      mstore\n        /* \"#utility.yul\":19600:19604   */\n      0x6365000000000000000000000000000000000000000000000000000000000000\n        /* \"#utility.yul\":19595:19597   */\n      0x20\n        /* \"#utility.yul\":19587:19593   */\n      dup3\n        /* \"#utility.yul\":19583:19598   */\n      add\n        /* \"#utility.yul\":19576:19605   */\n      mstore\n        /* \"#utility.yul\":19391:19612   */\n      pop\n      jump\t// out\n        /* \"#utility.yul\":19618:19984   */\n    tag_300:\n        /* \"#utility.yul\":19760:19763   */\n      0x00\n        /* \"#utility.yul\":19781:19848   */\n      tag_460\n        /* \"#utility.yul\":19845:19847   */\n      0x22\n        /* \"#utility.yul\":19840:19843   */\n      dup4\n        /* \"#utility.yul\":19781:19848   */\n      tag_253\n      jump\t// in\n    tag_460:\n        /* \"#utility.yul\":19774:19848   */\n      swap2\n      pop\n        /* \"#utility.yul\":19857:19950   */\n      tag_461\n        /* \"#utility.yul\":19946:19949   */\n      dup3\n        /* \"#utility.yul\":19857:19950   */\n      tag_299\n      jump\t// in\n    tag_461:\n        /* \"#utility.yul\":19975:19977   */\n      0x40\n        /* \"#utility.yul\":19970:19973   */\n      dup3\n        /* \"#utility.yul\":19966:19978   */\n      add\n        /* \"#utility.yul\":19959:19978   */\n      swap1\n      pop\n        /* \"#utility.yul\":19618:19984   */\n      swap2\n      swap1\n      pop\n      jump\t// out\n        /* \"#utility.yul\":19990:20409   */\n    tag_246:\n        /* \"#utility.yul\":20156:20160   */\n      0x00\n        /* \"#utility.yul\":20194:20196   */\n      0x20\n        /* \"#utility.yul\":20183:20192   */\n      dup3\n        /* \"#utility.yul\":20179:20197   */\n      add\n        /* \"#utility.yul\":20171:20197   */\n      swap1\n      pop\n        /* \"#utility.yul\":20243:20252   */\n      dup2\n        /* \"#utility.yul\":20237:20241   */\n      dup2\n        /* \"#utility.yul\":20233:20253   */\n      sub\n        /* \"#utility.yul\":20229:20230   */\n      0x00\n        /* \"#utility.yul\":20218:20227   */\n      dup4\n        /* \"#utility.yul\":20214:20231   */\n      add\n        /* \"#utility.yul\":20207:20254   */\n      mstore\n        /* \"#utility.yul\":20271:20402   */\n      tag_463\n        /* \"#utility.yul\":20397:20401   */\n      dup2\n        /* \"#utility.yul\":20271:20402   */\n      tag_300\n      jump\t// in\n    tag_463:\n        /* \"#utility.yul\":20263:20402   */\n      swap1\n      pop\n        /* \"#utility.yul\":19990:20409   */\n      swap2\n      swap1\n      pop\n      jump\t// out\n\n    auxdata: 0xa2646970667358221220d96bbfd5a21fabe182d2b025911b3b0e0c5d7106af25db5edaf4337eeef29b1964736f6c63430008120033\n}\n",
				"bytecode": {
					"linkReferences": {},
					"object": "60806040523480156200001157600080fd5b506040516200265e3803806200265e8339818101604052810190620000379190620003d5565b6040518060400160405280600881526020017f44655365617263680000000000000000000000000000000000000000000000008152506040518060400160405280600281526020017f44530000000000000000000000000000000000000000000000000000000000008152508160039081620000b491906200068c565b508060049081620000c691906200068c565b505050620000e9620000dd6200015060201b60201c565b6200015860201b60201c565b600082116200012f576040517f08c379a00000000000000000000000000000000000000000000000000000000081526004016200012690620007fa565b60405180910390fd5b6200014133836200021e60201b60201c565b80600681905550505062000926565b600033905090565b6000600560009054906101000a900473ffffffffffffffffffffffffffffffffffffffff16905081600560006101000a81548173ffffffffffffffffffffffffffffffffffffffff021916908373ffffffffffffffffffffffffffffffffffffffff1602179055508173ffffffffffffffffffffffffffffffffffffffff168173ffffffffffffffffffffffffffffffffffffffff167f8be0079c531659141344cd1fd0a4f28419497f9722a3daafe3b4186f6b6457e060405160405180910390a35050565b600073ffffffffffffffffffffffffffffffffffffffff168273ffffffffffffffffffffffffffffffffffffffff160362000290576040517f08c379a000000000000000000000000000000000000000000000000000000000815260040162000287906200086c565b60405180910390fd5b620002a4600083836200038b60201b60201c565b8060026000828254620002b89190620008bd565b92505081905550806000808473ffffffffffffffffffffffffffffffffffffffff1673ffffffffffffffffffffffffffffffffffffffff168152602001908152602001600020600082825401925050819055508173ffffffffffffffffffffffffffffffffffffffff16600073ffffffffffffffffffffffffffffffffffffffff167fddf252ad1be2c89b69c2b068fc378daa952ba7f163c4a11628f55a4df523b3ef836040516200036b919062000909565b60405180910390a362000387600083836200039060201b60201c565b5050565b505050565b505050565b600080fd5b6000819050919050565b620003af816200039a565b8114620003bb57600080fd5b50565b600081519050620003cf81620003a4565b92915050565b60008060408385031215620003ef57620003ee62000395565b5b6000620003ff85828601620003be565b92505060206200041285828601620003be565b9150509250929050565b600081519050919050565b7f4e487b7100000000000000000000000000000000000000000000000000000000600052604160045260246000fd5b7f4e487b7100000000000000000000000000000000000000000000000000000000600052602260045260246000fd5b600060028204905060018216806200049e57607f821691505b602082108103620004b457620004b362000456565b5b50919050565b60008190508160005260206000209050919050565b60006020601f8301049050919050565b600082821b905092915050565b6000600883026200051e7fffffffffffffffffffffffffffffffffffffffffffffffffffffffffffffffff82620004df565b6200052a8683620004df565b95508019841693508086168417925050509392505050565b6000819050919050565b60006200056d6200056762000561846200039a565b62000542565b6200039a565b9050919050565b6000819050919050565b62000589836200054c565b620005a1620005988262000574565b848454620004ec565b825550505050565b600090565b620005b8620005a9565b620005c58184846200057e565b505050565b5b81811015620005ed57620005e1600082620005ae565b600181019050620005cb565b5050565b601f8211156200063c576200060681620004ba565b6200061184620004cf565b8101602085101562000621578190505b620006396200063085620004cf565b830182620005ca565b50505b505050565b600082821c905092915050565b6000620006616000198460080262000641565b1980831691505092915050565b60006200067c83836200064e565b9150826002028217905092915050565b62000697826200041c565b67ffffffffffffffff811115620006b357620006b262000427565b5b620006bf825462000485565b620006cc828285620005f1565b600060209050601f831160018114620007045760008415620006ef578287015190505b620006fb85826200066e565b8655506200076b565b601f1984166200071486620004ba565b60005b828110156200073e5784890151825560018201915060208501945060208101905062000717565b868310156200075e57848901516200075a601f8916826200064e565b8355505b6001600288020188555050505b505050505050565b600082825260208201905092915050565b7f496e697469616c20737570706c79206d7573742062652067726561746572207460008201527f68616e207a65726f000000000000000000000000000000000000000000000000602082015250565b6000620007e260288362000773565b9150620007ef8262000784565b604082019050919050565b600060208201905081810360008301526200081581620007d3565b9050919050565b7f45524332303a206d696e7420746f20746865207a65726f206164647265737300600082015250565b600062000854601f8362000773565b915062000861826200081c565b602082019050919050565b60006020820190508181036000830152620008878162000845565b9050919050565b7f4e487b7100000000000000000000000000000000000000000000000000000000600052601160045260246000fd5b6000620008ca826200039a565b9150620008d7836200039a565b9250828201905080821115620008f257620008f16200088e565b5b92915050565b62000903816200039a565b82525050565b6000602082019050620009206000830184620008f8565b92915050565b611d2880620009366000396000f3fe608060405234801561001057600080fd5b50600436106101375760003560e01c80636a61e5fc116100b85780638da5cb5b1161007c5780638da5cb5b1461032657806395d89b4114610344578063a457c2d714610362578063a9059cbb14610392578063dd62ed3e146103c2578063f2fde38b146103f257610137565b80636a61e5fc1461029657806370a08231146102b2578063715018a6146102e257806379cc6790146102ec5780637ff9b5961461030857610137565b8063315a095d116100ff578063315a095d146101f6578063395093511461021257806340c10f191461024257806342966c681461025e57806368cdafe61461027a57610137565b806306fdde031461013c578063095ea7b31461015a57806318160ddd1461018a57806323b872dd146101a8578063313ce567146101d8575b600080fd5b61014461040e565b60405161015191906112b4565b60405180910390f35b610174600480360381019061016f919061136f565b6104a0565b60405161018191906113ca565b60405180910390f35b6101926104c3565b60405161019f91906113f4565b60405180910390f35b6101c260048036038101906101bd919061140f565b6104cd565b6040516101cf91906113ca565b60405180910390f35b6101e06104fc565b6040516101ed919061147e565b60405180910390f35b610210600480360381019061020b9190611499565b610505565b005b61022c6004803603810190610227919061136f565b61056d565b60405161023991906113ca565b60405180910390f35b61025c6004803603810190610257919061136f565b6105a4565b005b61027860048036038101906102739190611499565b6105ba565b005b610294600480360381019061028f919061136f565b6105ce565b005b6102b060048036038101906102ab9190611499565b6105ec565b005b6102cc60048036038101906102c791906114c6565b6105fe565b6040516102d991906113f4565b60405180910390f35b6102ea610646565b005b6103066004803603810190610301919061136f565b61065a565b005b61031061067a565b60405161031d91906113f4565b60405180910390f35b61032e610680565b60405161033b9190611502565b60405180910390f35b61034c6106aa565b60405161035991906112b4565b60405180910390f35b61037c6004803603810190610377919061136f565b61073c565b60405161038991906113ca565b60405180910390f35b6103ac60048036038101906103a7919061136f565b6107b3565b6040516103b991906113ca565b60405180910390f35b6103dc60048036038101906103d7919061151d565b6107d6565b6040516103e991906113f4565b60405180910390f35b61040c600480360381019061040791906114c6565b61085d565b005b60606003805461041d9061158c565b80601f01602080910402602001604051908101604052809291908181526020018280546104499061158c565b80156104965780601f1061046b57610100808354040283529160200191610496565b820191906000526020600020905b81548152906001019060200180831161047957829003601f168201915b5050505050905090565b6000806104ab6108e0565b90506104b88185856108e8565b600191505092915050565b6000600254905090565b6000806104d86108e0565b90506104e5858285610ab1565b6104f0858585610b3d565b60019150509392505050565b60006012905090565b61050d610db3565b610516306105fe565b811115610558576040517f08c379a000000000000000000000000000000000000000000000000000000000815260040161054f90611609565b60405180910390fd5b61056a30610564610680565b83610b3d565b50565b6000806105786108e0565b905061059981858561058a85896107d6565b6105949190611658565b6108e8565b600191505092915050565b6105ac610db3565b6105b68282610e31565b5050565b6105cb6105c56108e0565b82610f87565b50565b6105d6610db3565b6105e86105e1610680565b8383610b3d565b5050565b6105f4610db3565b8060068190555050565b60008060008373ffffffffffffffffffffffffffffffffffffffff1673ffffffffffffffffffffffffffffffffffffffff168152602001908152602001600020549050919050565b61064e610db3565b6106586000611154565b565b61066c826106666108e0565b83610ab1565b6106768282610f87565b5050565b60065481565b6000600560009054906101000a900473ffffffffffffffffffffffffffffffffffffffff16905090565b6060600480546106b99061158c565b80601f01602080910402602001604051908101604052809291908181526020018280546106e59061158c565b80156107325780601f1061070757610100808354040283529160200191610732565b820191906000526020600020905b81548152906001019060200180831161071557829003601f168201915b5050505050905090565b6000806107476108e0565b9050600061075582866107d6565b90508381101561079a576040517f08c379a0000000000000000000000000000000000000000000000000000000008152600401610791906116fe565b60405180910390fd5b6107a782868684036108e8565b60019250505092915050565b6000806107be6108e0565b90506107cb818585610b3d565b600191505092915050565b6000600160008473ffffffffffffffffffffffffffffffffffffffff1673ffffffffffffffffffffffffffffffffffffffff16815260200190815260200160002060008373ffffffffffffffffffffffffffffffffffffffff1673ffffffffffffffffffffffffffffffffffffffff16815260200190815260200160002054905092915050565b610865610db3565b600073ffffffffffffffffffffffffffffffffffffffff168173ffffffffffffffffffffffffffffffffffffffff16036108d4576040517f08c379a00000000000000000000000000000000000000000000000000000000081526004016108cb90611790565b60405180910390fd5b6108dd81611154565b50565b600033905090565b600073ffffffffffffffffffffffffffffffffffffffff168373ffffffffffffffffffffffffffffffffffffffff1603610957576040517f08c379a000000000000000000000000000000000000000000000000000000000815260040161094e90611822565b60405180910390fd5b600073ffffffffffffffffffffffffffffffffffffffff168273ffffffffffffffffffffffffffffffffffffffff16036109c6576040517f08c379a00000000000000000000000000000000000000000000000000000000081526004016109bd906118b4565b60405180910390fd5b80600160008573ffffffffffffffffffffffffffffffffffffffff1673ffffffffffffffffffffffffffffffffffffffff16815260200190815260200160002060008473ffffffffffffffffffffffffffffffffffffffff1673ffffffffffffffffffffffffffffffffffffffff168152602001908152602001600020819055508173ffffffffffffffffffffffffffffffffffffffff168373ffffffffffffffffffffffffffffffffffffffff167f8c5be1e5ebec7d5bd14f71427d1e84f3dd0314c0f7b2291e5b200ac8c7c3b92583604051610aa491906113f4565b60405180910390a3505050565b6000610abd84846107d6565b90507fffffffffffffffffffffffffffffffffffffffffffffffffffffffffffffffff8114610b375781811015610b29576040517f08c379a0000000000000000000000000000000000000000000000000000000008152600401610b2090611920565b60405180910390fd5b610b3684848484036108e8565b5b50505050565b600073ffffffffffffffffffffffffffffffffffffffff168373ffffffffffffffffffffffffffffffffffffffff1603610bac576040517f08c379a0000000000000000000000000000000000000000000000000000000008152600401610ba3906119b2565b60405180910390fd5b600073ffffffffffffffffffffffffffffffffffffffff168273ffffffffffffffffffffffffffffffffffffffff1603610c1b576040517f08c379a0000000000000000000000000000000000000000000000000000000008152600401610c1290611a44565b60405180910390fd5b610c2683838361121a565b60008060008573ffffffffffffffffffffffffffffffffffffffff1673ffffffffffffffffffffffffffffffffffffffff16815260200190815260200160002054905081811015610cac576040517f08c379a0000000000000000000000000000000000000000000000000000000008152600401610ca390611ad6565b60405180910390fd5b8181036000808673ffffffffffffffffffffffffffffffffffffffff1673ffffffffffffffffffffffffffffffffffffffff16815260200190815260200160002081905550816000808573ffffffffffffffffffffffffffffffffffffffff1673ffffffffffffffffffffffffffffffffffffffff168152602001908152602001600020600082825401925050819055508273ffffffffffffffffffffffffffffffffffffffff168473ffffffffffffffffffffffffffffffffffffffff167fddf252ad1be2c89b69c2b068fc378daa952ba7f163c4a11628f55a4df523b3ef84604051610d9a91906113f4565b60405180910390a3610dad84848461121f565b50505050565b610dbb6108e0565b73ffffffffffffffffffffffffffffffffffffffff16610dd9610680565b73ffffffffffffffffffffffffffffffffffffffff1614610e2f576040517f08c379a0000000000000000000000000000000000000000000000000000000008152600401610e2690611b42565b60405180910390fd5b565b600073ffffffffffffffffffffffffffffffffffffffff168273ffffffffffffffffffffffffffffffffffffffff1603610ea0576040517f08c379a0000000000000000000000000000000000000000000000000000000008152600401610e9790611bae565b60405180910390fd5b610eac6000838361121a565b8060026000828254610ebe9190611658565b92505081905550806000808473ffffffffffffffffffffffffffffffffffffffff1673ffffffffffffffffffffffffffffffffffffffff168152602001908152602001600020600082825401925050819055508173ffffffffffffffffffffffffffffffffffffffff16600073ffffffffffffffffffffffffffffffffffffffff167fddf252ad1be2c89b69c2b068fc378daa952ba7f163c4a11628f55a4df523b3ef83604051610f6f91906113f4565b60405180910390a3610f836000838361121f565b5050565b600073ffffffffffffffffffffffffffffffffffffffff168273ffffffffffffffffffffffffffffffffffffffff1603610ff6576040517f08c379a0000000000000000000000000000000000000000000000000000000008152600401610fed90611c40565b60405180910390fd5b6110028260008361121a565b60008060008473ffffffffffffffffffffffffffffffffffffffff1673ffffffffffffffffffffffffffffffffffffffff16815260200190815260200160002054905081811015611088576040517f08c379a000000000000000000000000000000000000000000000000000000000815260040161107f90611cd2565b60405180910390fd5b8181036000808573ffffffffffffffffffffffffffffffffffffffff1673ffffffffffffffffffffffffffffffffffffffff1681526020019081526020016000208190555081600260008282540392505081905550600073ffffffffffffffffffffffffffffffffffffffff168373ffffffffffffffffffffffffffffffffffffffff167fddf252ad1be2c89b69c2b068fc378daa952ba7f163c4a11628f55a4df523b3ef8460405161113b91906113f4565b60405180910390a361114f8360008461121f565b505050565b6000600560009054906101000a900473ffffffffffffffffffffffffffffffffffffffff16905081600560006101000a81548173ffffffffffffffffffffffffffffffffffffffff021916908373ffffffffffffffffffffffffffffffffffffffff1602179055508173ffffffffffffffffffffffffffffffffffffffff168173ffffffffffffffffffffffffffffffffffffffff167f8be0079c531659141344cd1fd0a4f28419497f9722a3daafe3b4186f6b6457e060405160405180910390a35050565b505050565b505050565b600081519050919050565b600082825260208201905092915050565b60005b8381101561125e578082015181840152602081019050611243565b60008484015250505050565b6000601f19601f8301169050919050565b600061128682611224565b611290818561122f565b93506112a0818560208601611240565b6112a98161126a565b840191505092915050565b600060208201905081810360008301526112ce818461127b565b905092915050565b600080fd5b600073ffffffffffffffffffffffffffffffffffffffff82169050919050565b6000611306826112db565b9050919050565b611316816112fb565b811461132157600080fd5b50565b6000813590506113338161130d565b92915050565b6000819050919050565b61134c81611339565b811461135757600080fd5b50565b60008135905061136981611343565b92915050565b60008060408385031215611386576113856112d6565b5b600061139485828601611324565b92505060206113a58582860161135a565b9150509250929050565b60008115159050919050565b6113c4816113af565b82525050565b60006020820190506113df60008301846113bb565b92915050565b6113ee81611339565b82525050565b600060208201905061140960008301846113e5565b92915050565b600080600060608486031215611428576114276112d6565b5b600061143686828701611324565b935050602061144786828701611324565b92505060406114588682870161135a565b9150509250925092565b600060ff82169050919050565b61147881611462565b82525050565b6000602082019050611493600083018461146f565b92915050565b6000602082840312156114af576114ae6112d6565b5b60006114bd8482850161135a565b91505092915050565b6000602082840312156114dc576114db6112d6565b5b60006114ea84828501611324565b91505092915050565b6114fc816112fb565b82525050565b600060208201905061151760008301846114f3565b92915050565b60008060408385031215611534576115336112d6565b5b600061154285828601611324565b925050602061155385828601611324565b9150509250929050565b7f4e487b7100000000000000000000000000000000000000000000000000000000600052602260045260246000fd5b600060028204905060018216806115a457607f821691505b6020821081036115b7576115b661155d565b5b50919050565b7f496e73756666696369656e7420636f6e74726163742062616c616e6365000000600082015250565b60006115f3601d8361122f565b91506115fe826115bd565b602082019050919050565b60006020820190508181036000830152611622816115e6565b9050919050565b7f4e487b7100000000000000000000000000000000000000000000000000000000600052601160045260246000fd5b600061166382611339565b915061166e83611339565b925082820190508082111561168657611685611629565b5b92915050565b7f45524332303a2064656372656173656420616c6c6f77616e63652062656c6f7760008201527f207a65726f000000000000000000000000000000000000000000000000000000602082015250565b60006116e860258361122f565b91506116f38261168c565b604082019050919050565b60006020820190508181036000830152611717816116db565b9050919050565b7f4f776e61626c653a206e6577206f776e657220697320746865207a65726f206160008201527f6464726573730000000000000000000000000000000000000000000000000000602082015250565b600061177a60268361122f565b91506117858261171e565b604082019050919050565b600060208201905081810360008301526117a98161176d565b9050919050565b7f45524332303a20617070726f76652066726f6d20746865207a65726f2061646460008201527f7265737300000000000000000000000000000000000000000000000000000000602082015250565b600061180c60248361122f565b9150611817826117b0565b604082019050919050565b6000602082019050818103600083015261183b816117ff565b9050919050565b7f45524332303a20617070726f766520746f20746865207a65726f20616464726560008201527f7373000000000000000000000000000000000000000000000000000000000000602082015250565b600061189e60228361122f565b91506118a982611842565b604082019050919050565b600060208201905081810360008301526118cd81611891565b9050919050565b7f45524332303a20696e73756666696369656e7420616c6c6f77616e6365000000600082015250565b600061190a601d8361122f565b9150611915826118d4565b602082019050919050565b60006020820190508181036000830152611939816118fd565b9050919050565b7f45524332303a207472616e736665722066726f6d20746865207a65726f20616460008201527f6472657373000000000000000000000000000000000000000000000000000000602082015250565b600061199c60258361122f565b91506119a782611940565b604082019050919050565b600060208201905081810360008301526119cb8161198f565b9050919050565b7f45524332303a207472616e7366657220746f20746865207a65726f206164647260008201527f6573730000000000000000000000000000000000000000000000000000000000602082015250565b6000611a2e60238361122f565b9150611a39826119d2565b604082019050919050565b60006020820190508181036000830152611a5d81611a21565b9050919050565b7f45524332303a207472616e7366657220616d6f756e742065786365656473206260008201527f616c616e63650000000000000000000000000000000000000000000000000000602082015250565b6000611ac060268361122f565b9150611acb82611a64565b604082019050919050565b60006020820190508181036000830152611aef81611ab3565b9050919050565b7f4f776e61626c653a2063616c6c6572206973206e6f7420746865206f776e6572600082015250565b6000611b2c60208361122f565b9150611b3782611af6565b602082019050919050565b60006020820190508181036000830152611b5b81611b1f565b9050919050565b7f45524332303a206d696e7420746f20746865207a65726f206164647265737300600082015250565b6000611b98601f8361122f565b9150611ba382611b62565b602082019050919050565b60006020820190508181036000830152611bc781611b8b565b9050919050565b7f45524332303a206275726e2066726f6d20746865207a65726f2061646472657360008201527f7300000000000000000000000000000000000000000000000000000000000000602082015250565b6000611c2a60218361122f565b9150611c3582611bce565b604082019050919050565b60006020820190508181036000830152611c5981611c1d565b9050919050565b7f45524332303a206275726e20616d6f756e7420657863656564732062616c616e60008201527f6365000000000000000000000000000000000000000000000000000000000000602082015250565b6000611cbc60228361122f565b9150611cc782611c60565b604082019050919050565b60006020820190508181036000830152611ceb81611caf565b905091905056fea2646970667358221220d96bbfd5a21fabe182d2b025911b3b0e0c5d7106af25db5edaf4337eeef29b1964736f6c63430008120033",
					"opcodes": "PUSH1 0x80 PUSH1 0x40 MSTORE CALLVALUE DUP1 ISZERO PUSH3 0x11 JUMPI PUSH1 0x0 DUP1 REVERT JUMPDEST POP PUSH1 0x40 MLOAD PUSH3 0x265E CODESIZE SUB DUP1 PUSH3 0x265E DUP4 CODECOPY DUP2 DUP2 ADD PUSH1 0x40 MSTORE DUP2 ADD SWAP1 PUSH3 0x37 SWAP2 SWAP1 PUSH3 0x3D5 JUMP JUMPDEST PUSH1 0x40 MLOAD DUP1 PUSH1 0x40 ADD PUSH1 0x40 MSTORE DUP1 PUSH1 0x8 DUP2 MSTORE PUSH1 0x20 ADD PUSH32 0x4465536561726368000000000000000000000000000000000000000000000000 DUP2 MSTORE POP PUSH1 0x40 MLOAD DUP1 PUSH1 0x40 ADD PUSH1 0x40 MSTORE DUP1 PUSH1 0x2 DUP2 MSTORE PUSH1 0x20 ADD PUSH32 0x4453000000000000000000000000000000000000000000000000000000000000 DUP2 MSTORE POP DUP2 PUSH1 0x3 SWAP1 DUP2 PUSH3 0xB4 SWAP2 SWAP1 PUSH3 0x68C JUMP JUMPDEST POP DUP1 PUSH1 0x4 SWAP1 DUP2 PUSH3 0xC6 SWAP2 SWAP1 PUSH3 0x68C JUMP JUMPDEST POP POP POP PUSH3 0xE9 PUSH3 0xDD PUSH3 0x150 PUSH1 0x20 SHL PUSH1 0x20 SHR JUMP JUMPDEST PUSH3 0x158 PUSH1 0x20 SHL PUSH1 0x20 SHR JUMP JUMPDEST PUSH1 0x0 DUP3 GT PUSH3 0x12F JUMPI PUSH1 0x40 MLOAD PUSH32 0x8C379A000000000000000000000000000000000000000000000000000000000 DUP2 MSTORE PUSH1 0x4 ADD PUSH3 0x126 SWAP1 PUSH3 0x7FA JUMP JUMPDEST PUSH1 0x40 MLOAD DUP1 SWAP2 SUB SWAP1 REVERT JUMPDEST PUSH3 0x141 CALLER DUP4 PUSH3 0x21E PUSH1 0x20 SHL PUSH1 0x20 SHR JUMP JUMPDEST DUP1 PUSH1 0x6 DUP2 SWAP1 SSTORE POP POP POP PUSH3 0x926 JUMP JUMPDEST PUSH1 0x0 CALLER SWAP1 POP SWAP1 JUMP JUMPDEST PUSH1 0x0 PUSH1 0x5 PUSH1 0x0 SWAP1 SLOAD SWAP1 PUSH2 0x100 EXP SWAP1 DIV PUSH20 0xFFFFFFFFFFFFFFFFFFFFFFFFFFFFFFFFFFFFFFFF AND SWAP1 POP DUP2 PUSH1 0x5 PUSH1 0x0 PUSH2 0x100 EXP DUP2 SLOAD DUP2 PUSH20 0xFFFFFFFFFFFFFFFFFFFFFFFFFFFFFFFFFFFFFFFF MUL NOT AND SWAP1 DUP4 PUSH20 0xFFFFFFFFFFFFFFFFFFFFFFFFFFFFFFFFFFFFFFFF AND MUL OR SWAP1 SSTORE POP DUP2 PUSH20 0xFFFFFFFFFFFFFFFFFFFFFFFFFFFFFFFFFFFFFFFF AND DUP2 PUSH20 0xFFFFFFFFFFFFFFFFFFFFFFFFFFFFFFFFFFFFFFFF AND PUSH32 0x8BE0079C531659141344CD1FD0A4F28419497F9722A3DAAFE3B4186F6B6457E0 PUSH1 0x40 MLOAD PUSH1 0x40 MLOAD DUP1 SWAP2 SUB SWAP1 LOG3 POP POP JUMP JUMPDEST PUSH1 0x0 PUSH20 0xFFFFFFFFFFFFFFFFFFFFFFFFFFFFFFFFFFFFFFFF AND DUP3 PUSH20 0xFFFFFFFFFFFFFFFFFFFFFFFFFFFFFFFFFFFFFFFF AND SUB PUSH3 0x290 JUMPI PUSH1 0x40 MLOAD PUSH32 0x8C379A000000000000000000000000000000000000000000000000000000000 DUP2 MSTORE PUSH1 0x4 ADD PUSH3 0x287 SWAP1 PUSH3 0x86C JUMP JUMPDEST PUSH1 0x40 MLOAD DUP1 SWAP2 SUB SWAP1 REVERT JUMPDEST PUSH3 0x2A4 PUSH1 0x0 DUP4 DUP4 PUSH3 0x38B PUSH1 0x20 SHL PUSH1 0x20 SHR JUMP JUMPDEST DUP1 PUSH1 0x2 PUSH1 0x0 DUP3 DUP3 SLOAD PUSH3 0x2B8 SWAP2 SWAP1 PUSH3 0x8BD JUMP JUMPDEST SWAP3 POP POP DUP2 SWAP1 SSTORE POP DUP1 PUSH1 0x0 DUP1 DUP5 PUSH20 0xFFFFFFFFFFFFFFFFFFFFFFFFFFFFFFFFFFFFFFFF AND PUSH20 0xFFFFFFFFFFFFFFFFFFFFFFFFFFFFFFFFFFFFFFFF AND DUP2 MSTORE PUSH1 0x20 ADD SWAP1 DUP2 MSTORE PUSH1 0x20 ADD PUSH1 0x0 KECCAK256 PUSH1 0x0 DUP3 DUP3 SLOAD ADD SWAP3 POP POP DUP2 SWAP1 SSTORE POP DUP2 PUSH20 0xFFFFFFFFFFFFFFFFFFFFFFFFFFFFFFFFFFFFFFFF AND PUSH1 0x0 PUSH20 0xFFFFFFFFFFFFFFFFFFFFFFFFFFFFFFFFFFFFFFFF AND PUSH32 0xDDF252AD1BE2C89B69C2B068FC378DAA952BA7F163C4A11628F55A4DF523B3EF DUP4 PUSH1 0x40 MLOAD PUSH3 0x36B SWAP2 SWAP1 PUSH3 0x909 JUMP JUMPDEST PUSH1 0x40 MLOAD DUP1 SWAP2 SUB SWAP1 LOG3 PUSH3 0x387 PUSH1 0x0 DUP4 DUP4 PUSH3 0x390 PUSH1 0x20 SHL PUSH1 0x20 SHR JUMP JUMPDEST POP POP JUMP JUMPDEST POP POP POP JUMP JUMPDEST POP POP POP JUMP JUMPDEST PUSH1 0x0 DUP1 REVERT JUMPDEST PUSH1 0x0 DUP2 SWAP1 POP SWAP2 SWAP1 POP JUMP JUMPDEST PUSH3 0x3AF DUP2 PUSH3 0x39A JUMP JUMPDEST DUP2 EQ PUSH3 0x3BB JUMPI PUSH1 0x0 DUP1 REVERT JUMPDEST POP JUMP JUMPDEST PUSH1 0x0 DUP2 MLOAD SWAP1 POP PUSH3 0x3CF DUP2 PUSH3 0x3A4 JUMP JUMPDEST SWAP3 SWAP2 POP POP JUMP JUMPDEST PUSH1 0x0 DUP1 PUSH1 0x40 DUP4 DUP6 SUB SLT ISZERO PUSH3 0x3EF JUMPI PUSH3 0x3EE PUSH3 0x395 JUMP JUMPDEST JUMPDEST PUSH1 0x0 PUSH3 0x3FF DUP6 DUP3 DUP7 ADD PUSH3 0x3BE JUMP JUMPDEST SWAP3 POP POP PUSH1 0x20 PUSH3 0x412 DUP6 DUP3 DUP7 ADD PUSH3 0x3BE JUMP JUMPDEST SWAP2 POP POP SWAP3 POP SWAP3 SWAP1 POP JUMP JUMPDEST PUSH1 0x0 DUP2 MLOAD SWAP1 POP SWAP2 SWAP1 POP JUMP JUMPDEST PUSH32 0x4E487B7100000000000000000000000000000000000000000000000000000000 PUSH1 0x0 MSTORE PUSH1 0x41 PUSH1 0x4 MSTORE PUSH1 0x24 PUSH1 0x0 REVERT JUMPDEST PUSH32 0x4E487B7100000000000000000000000000000000000000000000000000000000 PUSH1 0x0 MSTORE PUSH1 0x22 PUSH1 0x4 MSTORE PUSH1 0x24 PUSH1 0x0 REVERT JUMPDEST PUSH1 0x0 PUSH1 0x2 DUP3 DIV SWAP1 POP PUSH1 0x1 DUP3 AND DUP1 PUSH3 0x49E JUMPI PUSH1 0x7F DUP3 AND SWAP2 POP JUMPDEST PUSH1 0x20 DUP3 LT DUP2 SUB PUSH3 0x4B4 JUMPI PUSH3 0x4B3 PUSH3 0x456 JUMP JUMPDEST JUMPDEST POP SWAP2 SWAP1 POP JUMP JUMPDEST PUSH1 0x0 DUP2 SWAP1 POP DUP2 PUSH1 0x0 MSTORE PUSH1 0x20 PUSH1 0x0 KECCAK256 SWAP1 POP SWAP2 SWAP1 POP JUMP JUMPDEST PUSH1 0x0 PUSH1 0x20 PUSH1 0x1F DUP4 ADD DIV SWAP1 POP SWAP2 SWAP1 POP JUMP JUMPDEST PUSH1 0x0 DUP3 DUP3 SHL SWAP1 POP SWAP3 SWAP2 POP POP JUMP JUMPDEST PUSH1 0x0 PUSH1 0x8 DUP4 MUL PUSH3 0x51E PUSH32 0xFFFFFFFFFFFFFFFFFFFFFFFFFFFFFFFFFFFFFFFFFFFFFFFFFFFFFFFFFFFFFFFF DUP3 PUSH3 0x4DF JUMP JUMPDEST PUSH3 0x52A DUP7 DUP4 PUSH3 0x4DF JUMP JUMPDEST SWAP6 POP DUP1 NOT DUP5 AND SWAP4 POP DUP1 DUP7 AND DUP5 OR SWAP3 POP POP POP SWAP4 SWAP3 POP POP POP JUMP JUMPDEST PUSH1 0x0 DUP2 SWAP1 POP SWAP2 SWAP1 POP JUMP JUMPDEST PUSH1 0x0 PUSH3 0x56D PUSH3 0x567 PUSH3 0x561 DUP5 PUSH3 0x39A JUMP JUMPDEST PUSH3 0x542 JUMP JUMPDEST PUSH3 0x39A JUMP JUMPDEST SWAP1 POP SWAP2 SWAP1 POP JUMP JUMPDEST PUSH1 0x0 DUP2 SWAP1 POP SWAP2 SWAP1 POP JUMP JUMPDEST PUSH3 0x589 DUP4 PUSH3 0x54C JUMP JUMPDEST PUSH3 0x5A1 PUSH3 0x598 DUP3 PUSH3 0x574 JUMP JUMPDEST DUP5 DUP5 SLOAD PUSH3 0x4EC JUMP JUMPDEST DUP3 SSTORE POP POP POP POP JUMP JUMPDEST PUSH1 0x0 SWAP1 JUMP JUMPDEST PUSH3 0x5B8 PUSH3 0x5A9 JUMP JUMPDEST PUSH3 0x5C5 DUP2 DUP5 DUP5 PUSH3 0x57E JUMP JUMPDEST POP POP POP JUMP JUMPDEST JUMPDEST DUP2 DUP2 LT ISZERO PUSH3 0x5ED JUMPI PUSH3 0x5E1 PUSH1 0x0 DUP3 PUSH3 0x5AE JUMP JUMPDEST PUSH1 0x1 DUP2 ADD SWAP1 POP PUSH3 0x5CB JUMP JUMPDEST POP POP JUMP JUMPDEST PUSH1 0x1F DUP3 GT ISZERO PUSH3 0x63C JUMPI PUSH3 0x606 DUP2 PUSH3 0x4BA JUMP JUMPDEST PUSH3 0x611 DUP5 PUSH3 0x4CF JUMP JUMPDEST DUP2 ADD PUSH1 0x20 DUP6 LT ISZERO PUSH3 0x621 JUMPI DUP2 SWAP1 POP JUMPDEST PUSH3 0x639 PUSH3 0x630 DUP6 PUSH3 0x4CF JUMP JUMPDEST DUP4 ADD DUP3 PUSH3 0x5CA JUMP JUMPDEST POP POP JUMPDEST POP POP POP JUMP JUMPDEST PUSH1 0x0 DUP3 DUP3 SHR SWAP1 POP SWAP3 SWAP2 POP POP JUMP JUMPDEST PUSH1 0x0 PUSH3 0x661 PUSH1 0x0 NOT DUP5 PUSH1 0x8 MUL PUSH3 0x641 JUMP JUMPDEST NOT DUP1 DUP4 AND SWAP2 POP POP SWAP3 SWAP2 POP POP JUMP JUMPDEST PUSH1 0x0 PUSH3 0x67C DUP4 DUP4 PUSH3 0x64E JUMP JUMPDEST SWAP2 POP DUP3 PUSH1 0x2 MUL DUP3 OR SWAP1 POP SWAP3 SWAP2 POP POP JUMP JUMPDEST PUSH3 0x697 DUP3 PUSH3 0x41C JUMP JUMPDEST PUSH8 0xFFFFFFFFFFFFFFFF DUP2 GT ISZERO PUSH3 0x6B3 JUMPI PUSH3 0x6B2 PUSH3 0x427 JUMP JUMPDEST JUMPDEST PUSH3 0x6BF DUP3 SLOAD PUSH3 0x485 JUMP JUMPDEST PUSH3 0x6CC DUP3 DUP3 DUP6 PUSH3 0x5F1 JUMP JUMPDEST PUSH1 0x0 PUSH1 0x20 SWAP1 POP PUSH1 0x1F DUP4 GT PUSH1 0x1 DUP2 EQ PUSH3 0x704 JUMPI PUSH1 0x0 DUP5 ISZERO PUSH3 0x6EF JUMPI DUP3 DUP8 ADD MLOAD SWAP1 POP JUMPDEST PUSH3 0x6FB DUP6 DUP3 PUSH3 0x66E JUMP JUMPDEST DUP7 SSTORE POP PUSH3 0x76B JUMP JUMPDEST PUSH1 0x1F NOT DUP5 AND PUSH3 0x714 DUP7 PUSH3 0x4BA JUMP JUMPDEST PUSH1 0x0 JUMPDEST DUP3 DUP2 LT ISZERO PUSH3 0x73E JUMPI DUP5 DUP10 ADD MLOAD DUP3 SSTORE PUSH1 0x1 DUP3 ADD SWAP2 POP PUSH1 0x20 DUP6 ADD SWAP5 POP PUSH1 0x20 DUP2 ADD SWAP1 POP PUSH3 0x717 JUMP JUMPDEST DUP7 DUP4 LT ISZERO PUSH3 0x75E JUMPI DUP5 DUP10 ADD MLOAD PUSH3 0x75A PUSH1 0x1F DUP10 AND DUP3 PUSH3 0x64E JUMP JUMPDEST DUP4 SSTORE POP JUMPDEST PUSH1 0x1 PUSH1 0x2 DUP9 MUL ADD DUP9 SSTORE POP POP POP JUMPDEST POP POP POP POP POP POP JUMP JUMPDEST PUSH1 0x0 DUP3 DUP3 MSTORE PUSH1 0x20 DUP3 ADD SWAP1 POP SWAP3 SWAP2 POP POP JUMP JUMPDEST PUSH32 0x496E697469616C20737570706C79206D75737420626520677265617465722074 PUSH1 0x0 DUP3 ADD MSTORE PUSH32 0x68616E207A65726F000000000000000000000000000000000000000000000000 PUSH1 0x20 DUP3 ADD MSTORE POP JUMP JUMPDEST PUSH1 0x0 PUSH3 0x7E2 PUSH1 0x28 DUP4 PUSH3 0x773 JUMP JUMPDEST SWAP2 POP PUSH3 0x7EF DUP3 PUSH3 0x784 JUMP JUMPDEST PUSH1 0x40 DUP3 ADD SWAP1 POP SWAP2 SWAP1 POP JUMP JUMPDEST PUSH1 0x0 PUSH1 0x20 DUP3 ADD SWAP1 POP DUP2 DUP2 SUB PUSH1 0x0 DUP4 ADD MSTORE PUSH3 0x815 DUP2 PUSH3 0x7D3 JUMP JUMPDEST SWAP1 POP SWAP2 SWAP1 POP JUMP JUMPDEST PUSH32 0x45524332303A206D696E7420746F20746865207A65726F206164647265737300 PUSH1 0x0 DUP3 ADD MSTORE POP JUMP JUMPDEST PUSH1 0x0 PUSH3 0x854 PUSH1 0x1F DUP4 PUSH3 0x773 JUMP JUMPDEST SWAP2 POP PUSH3 0x861 DUP3 PUSH3 0x81C JUMP JUMPDEST PUSH1 0x20 DUP3 ADD SWAP1 POP SWAP2 SWAP1 POP JUMP JUMPDEST PUSH1 0x0 PUSH1 0x20 DUP3 ADD SWAP1 POP DUP2 DUP2 SUB PUSH1 0x0 DUP4 ADD MSTORE PUSH3 0x887 DUP2 PUSH3 0x845 JUMP JUMPDEST SWAP1 POP SWAP2 SWAP1 POP JUMP JUMPDEST PUSH32 0x4E487B7100000000000000000000000000000000000000000000000000000000 PUSH1 0x0 MSTORE PUSH1 0x11 PUSH1 0x4 MSTORE PUSH1 0x24 PUSH1 0x0 REVERT JUMPDEST PUSH1 0x0 PUSH3 0x8CA DUP3 PUSH3 0x39A JUMP JUMPDEST SWAP2 POP PUSH3 0x8D7 DUP4 PUSH3 0x39A JUMP JUMPDEST SWAP3 POP DUP3 DUP3 ADD SWAP1 POP DUP1 DUP3 GT ISZERO PUSH3 0x8F2 JUMPI PUSH3 0x8F1 PUSH3 0x88E JUMP JUMPDEST JUMPDEST SWAP3 SWAP2 POP POP JUMP JUMPDEST PUSH3 0x903 DUP2 PUSH3 0x39A JUMP JUMPDEST DUP3 MSTORE POP POP JUMP JUMPDEST PUSH1 0x0 PUSH1 0x20 DUP3 ADD SWAP1 POP PUSH3 0x920 PUSH1 0x0 DUP4 ADD DUP5 PUSH3 0x8F8 JUMP JUMPDEST SWAP3 SWAP2 POP POP JUMP JUMPDEST PUSH2 0x1D28 DUP1 PUSH3 0x936 PUSH1 0x0 CODECOPY PUSH1 0x0 RETURN INVALID PUSH1 0x80 PUSH1 0x40 MSTORE CALLVALUE DUP1 ISZERO PUSH2 0x10 JUMPI PUSH1 0x0 DUP1 REVERT JUMPDEST POP PUSH1 0x4 CALLDATASIZE LT PUSH2 0x137 JUMPI PUSH1 0x0 CALLDATALOAD PUSH1 0xE0 SHR DUP1 PUSH4 0x6A61E5FC GT PUSH2 0xB8 JUMPI DUP1 PUSH4 0x8DA5CB5B GT PUSH2 0x7C JUMPI DUP1 PUSH4 0x8DA5CB5B EQ PUSH2 0x326 JUMPI DUP1 PUSH4 0x95D89B41 EQ PUSH2 0x344 JUMPI DUP1 PUSH4 0xA457C2D7 EQ PUSH2 0x362 JUMPI DUP1 PUSH4 0xA9059CBB EQ PUSH2 0x392 JUMPI DUP1 PUSH4 0xDD62ED3E EQ PUSH2 0x3C2 JUMPI DUP1 PUSH4 0xF2FDE38B EQ PUSH2 0x3F2 JUMPI PUSH2 0x137 JUMP JUMPDEST DUP1 PUSH4 0x6A61E5FC EQ PUSH2 0x296 JUMPI DUP1 PUSH4 0x70A08231 EQ PUSH2 0x2B2 JUMPI DUP1 PUSH4 0x715018A6 EQ PUSH2 0x2E2 JUMPI DUP1 PUSH4 0x79CC6790 EQ PUSH2 0x2EC JUMPI DUP1 PUSH4 0x7FF9B596 EQ PUSH2 0x308 JUMPI PUSH2 0x137 JUMP JUMPDEST DUP1 PUSH4 0x315A095D GT PUSH2 0xFF JUMPI DUP1 PUSH4 0x315A095D EQ PUSH2 0x1F6 JUMPI DUP1 PUSH4 0x39509351 EQ PUSH2 0x212 JUMPI DUP1 PUSH4 0x40C10F19 EQ PUSH2 0x242 JUMPI DUP1 PUSH4 0x42966C68 EQ PUSH2 0x25E JUMPI DUP1 PUSH4 0x68CDAFE6 EQ PUSH2 0x27A JUMPI PUSH2 0x137 JUMP JUMPDEST DUP1 PUSH4 0x6FDDE03 EQ PUSH2 0x13C JUMPI DUP1 PUSH4 0x95EA7B3 EQ PUSH2 0x15A JUMPI DUP1 PUSH4 0x18160DDD EQ PUSH2 0x18A JUMPI DUP1 PUSH4 0x23B872DD EQ PUSH2 0x1A8 JUMPI DUP1 PUSH4 0x313CE567 EQ PUSH2 0x1D8 JUMPI JUMPDEST PUSH1 0x0 DUP1 REVERT JUMPDEST PUSH2 0x144 PUSH2 0x40E JUMP JUMPDEST PUSH1 0x40 MLOAD PUSH2 0x151 SWAP2 SWAP1 PUSH2 0x12B4 JUMP JUMPDEST PUSH1 0x40 MLOAD DUP1 SWAP2 SUB SWAP1 RETURN JUMPDEST PUSH2 0x174 PUSH1 0x4 DUP1 CALLDATASIZE SUB DUP2 ADD SWAP1 PUSH2 0x16F SWAP2 SWAP1 PUSH2 0x136F JUMP JUMPDEST PUSH2 0x4A0 JUMP JUMPDEST PUSH1 0x40 MLOAD PUSH2 0x181 SWAP2 SWAP1 PUSH2 0x13CA JUMP JUMPDEST PUSH1 0x40 MLOAD DUP1 SWAP2 SUB SWAP1 RETURN JUMPDEST PUSH2 0x192 PUSH2 0x4C3 JUMP JUMPDEST PUSH1 0x40 MLOAD PUSH2 0x19F SWAP2 SWAP1 PUSH2 0x13F4 JUMP JUMPDEST PUSH1 0x40 MLOAD DUP1 SWAP2 SUB SWAP1 RETURN JUMPDEST PUSH2 0x1C2 PUSH1 0x4 DUP1 CALLDATASIZE SUB DUP2 ADD SWAP1 PUSH2 0x1BD SWAP2 SWAP1 PUSH2 0x140F JUMP JUMPDEST PUSH2 0x4CD JUMP JUMPDEST PUSH1 0x40 MLOAD PUSH2 0x1CF SWAP2 SWAP1 PUSH2 0x13CA JUMP JUMPDEST PUSH1 0x40 MLOAD DUP1 SWAP2 SUB SWAP1 RETURN JUMPDEST PUSH2 0x1E0 PUSH2 0x4FC JUMP JUMPDEST PUSH1 0x40 MLOAD PUSH2 0x1ED SWAP2 SWAP1 PUSH2 0x147E JUMP JUMPDEST PUSH1 0x40 MLOAD DUP1 SWAP2 SUB SWAP1 RETURN JUMPDEST PUSH2 0x210 PUSH1 0x4 DUP1 CALLDATASIZE SUB DUP2 ADD SWAP1 PUSH2 0x20B SWAP2 SWAP1 PUSH2 0x1499 JUMP JUMPDEST PUSH2 0x505 JUMP JUMPDEST STOP JUMPDEST PUSH2 0x22C PUSH1 0x4 DUP1 CALLDATASIZE SUB DUP2 ADD SWAP1 PUSH2 0x227 SWAP2 SWAP1 PUSH2 0x136F JUMP JUMPDEST PUSH2 0x56D JUMP JUMPDEST PUSH1 0x40 MLOAD PUSH2 0x239 SWAP2 SWAP1 PUSH2 0x13CA JUMP JUMPDEST PUSH1 0x40 MLOAD DUP1 SWAP2 SUB SWAP1 RETURN JUMPDEST PUSH2 0x25C PUSH1 0x4 DUP1 CALLDATASIZE SUB DUP2 ADD SWAP1 PUSH2 0x257 SWAP2 SWAP1 PUSH2 0x136F JUMP JUMPDEST PUSH2 0x5A4 JUMP JUMPDEST STOP JUMPDEST PUSH2 0x278 PUSH1 0x4 DUP1 CALLDATASIZE SUB DUP2 ADD SWAP1 PUSH2 0x273 SWAP2 SWAP1 PUSH2 0x1499 JUMP JUMPDEST PUSH2 0x5BA JUMP JUMPDEST STOP JUMPDEST PUSH2 0x294 PUSH1 0x4 DUP1 CALLDATASIZE SUB DUP2 ADD SWAP1 PUSH2 0x28F SWAP2 SWAP1 PUSH2 0x136F JUMP JUMPDEST PUSH2 0x5CE JUMP JUMPDEST STOP JUMPDEST PUSH2 0x2B0 PUSH1 0x4 DUP1 CALLDATASIZE SUB DUP2 ADD SWAP1 PUSH2 0x2AB SWAP2 SWAP1 PUSH2 0x1499 JUMP JUMPDEST PUSH2 0x5EC JUMP JUMPDEST STOP JUMPDEST PUSH2 0x2CC PUSH1 0x4 DUP1 CALLDATASIZE SUB DUP2 ADD SWAP1 PUSH2 0x2C7 SWAP2 SWAP1 PUSH2 0x14C6 JUMP JUMPDEST PUSH2 0x5FE JUMP JUMPDEST PUSH1 0x40 MLOAD PUSH2 0x2D9 SWAP2 SWAP1 PUSH2 0x13F4 JUMP JUMPDEST PUSH1 0x40 MLOAD DUP1 SWAP2 SUB SWAP1 RETURN JUMPDEST PUSH2 0x2EA PUSH2 0x646 JUMP JUMPDEST STOP JUMPDEST PUSH2 0x306 PUSH1 0x4 DUP1 CALLDATASIZE SUB DUP2 ADD SWAP1 PUSH2 0x301 SWAP2 SWAP1 PUSH2 0x136F JUMP JUMPDEST PUSH2 0x65A JUMP JUMPDEST STOP JUMPDEST PUSH2 0x310 PUSH2 0x67A JUMP JUMPDEST PUSH1 0x40 MLOAD PUSH2 0x31D SWAP2 SWAP1 PUSH2 0x13F4 JUMP JUMPDEST PUSH1 0x40 MLOAD DUP1 SWAP2 SUB SWAP1 RETURN JUMPDEST PUSH2 0x32E PUSH2 0x680 JUMP JUMPDEST PUSH1 0x40 MLOAD PUSH2 0x33B SWAP2 SWAP1 PUSH2 0x1502 JUMP JUMPDEST PUSH1 0x40 MLOAD DUP1 SWAP2 SUB SWAP1 RETURN JUMPDEST PUSH2 0x34C PUSH2 0x6AA JUMP JUMPDEST PUSH1 0x40 MLOAD PUSH2 0x359 SWAP2 SWAP1 PUSH2 0x12B4 JUMP JUMPDEST PUSH1 0x40 MLOAD DUP1 SWAP2 SUB SWAP1 RETURN JUMPDEST PUSH2 0x37C PUSH1 0x4 DUP1 CALLDATASIZE SUB DUP2 ADD SWAP1 PUSH2 0x377 SWAP2 SWAP1 PUSH2 0x136F JUMP JUMPDEST PUSH2 0x73C JUMP JUMPDEST PUSH1 0x40 MLOAD PUSH2 0x389 SWAP2 SWAP1 PUSH2 0x13CA JUMP JUMPDEST PUSH1 0x40 MLOAD DUP1 SWAP2 SUB SWAP1 RETURN JUMPDEST PUSH2 0x3AC PUSH1 0x4 DUP1 CALLDATASIZE SUB DUP2 ADD SWAP1 PUSH2 0x3A7 SWAP2 SWAP1 PUSH2 0x136F JUMP JUMPDEST PUSH2 0x7B3 JUMP JUMPDEST PUSH1 0x40 MLOAD PUSH2 0x3B9 SWAP2 SWAP1 PUSH2 0x13CA JUMP JUMPDEST PUSH1 0x40 MLOAD DUP1 SWAP2 SUB SWAP1 RETURN JUMPDEST PUSH2 0x3DC PUSH1 0x4 DUP1 CALLDATASIZE SUB DUP2 ADD SWAP1 PUSH2 0x3D7 SWAP2 SWAP1 PUSH2 0x151D JUMP JUMPDEST PUSH2 0x7D6 JUMP JUMPDEST PUSH1 0x40 MLOAD PUSH2 0x3E9 SWAP2 SWAP1 PUSH2 0x13F4 JUMP JUMPDEST PUSH1 0x40 MLOAD DUP1 SWAP2 SUB SWAP1 RETURN JUMPDEST PUSH2 0x40C PUSH1 0x4 DUP1 CALLDATASIZE SUB DUP2 ADD SWAP1 PUSH2 0x407 SWAP2 SWAP1 PUSH2 0x14C6 JUMP JUMPDEST PUSH2 0x85D JUMP JUMPDEST STOP JUMPDEST PUSH1 0x60 PUSH1 0x3 DUP1 SLOAD PUSH2 0x41D SWAP1 PUSH2 0x158C JUMP JUMPDEST DUP1 PUSH1 0x1F ADD PUSH1 0x20 DUP1 SWAP2 DIV MUL PUSH1 0x20 ADD PUSH1 0x40 MLOAD SWAP1 DUP2 ADD PUSH1 0x40 MSTORE DUP1 SWAP3 SWAP2 SWAP1 DUP2 DUP2 MSTORE PUSH1 0x20 ADD DUP3 DUP1 SLOAD PUSH2 0x449 SWAP1 PUSH2 0x158C JUMP JUMPDEST DUP1 ISZERO PUSH2 0x496 JUMPI DUP1 PUSH1 0x1F LT PUSH2 0x46B JUMPI PUSH2 0x100 DUP1 DUP4 SLOAD DIV MUL DUP4 MSTORE SWAP2 PUSH1 0x20 ADD SWAP2 PUSH2 0x496 JUMP JUMPDEST DUP3 ADD SWAP2 SWAP1 PUSH1 0x0 MSTORE PUSH1 0x20 PUSH1 0x0 KECCAK256 SWAP1 JUMPDEST DUP2 SLOAD DUP2 MSTORE SWAP1 PUSH1 0x1 ADD SWAP1 PUSH1 0x20 ADD DUP1 DUP4 GT PUSH2 0x479 JUMPI DUP3 SWAP1 SUB PUSH1 0x1F AND DUP3 ADD SWAP2 JUMPDEST POP POP POP POP POP SWAP1 POP SWAP1 JUMP JUMPDEST PUSH1 0x0 DUP1 PUSH2 0x4AB PUSH2 0x8E0 JUMP JUMPDEST SWAP1 POP PUSH2 0x4B8 DUP2 DUP6 DUP6 PUSH2 0x8E8 JUMP JUMPDEST PUSH1 0x1 SWAP2 POP POP SWAP3 SWAP2 POP POP JUMP JUMPDEST PUSH1 0x0 PUSH1 0x2 SLOAD SWAP1 POP SWAP1 JUMP JUMPDEST PUSH1 0x0 DUP1 PUSH2 0x4D8 PUSH2 0x8E0 JUMP JUMPDEST SWAP1 POP PUSH2 0x4E5 DUP6 DUP3 DUP6 PUSH2 0xAB1 JUMP JUMPDEST PUSH2 0x4F0 DUP6 DUP6 DUP6 PUSH2 0xB3D JUMP JUMPDEST PUSH1 0x1 SWAP2 POP POP SWAP4 SWAP3 POP POP POP JUMP JUMPDEST PUSH1 0x0 PUSH1 0x12 SWAP1 POP SWAP1 JUMP JUMPDEST PUSH2 0x50D PUSH2 0xDB3 JUMP JUMPDEST PUSH2 0x516 ADDRESS PUSH2 0x5FE JUMP JUMPDEST DUP2 GT ISZERO PUSH2 0x558 JUMPI PUSH1 0x40 MLOAD PUSH32 0x8C379A000000000000000000000000000000000000000000000000000000000 DUP2 MSTORE PUSH1 0x4 ADD PUSH2 0x54F SWAP1 PUSH2 0x1609 JUMP JUMPDEST PUSH1 0x40 MLOAD DUP1 SWAP2 SUB SWAP1 REVERT JUMPDEST PUSH2 0x56A ADDRESS PUSH2 0x564 PUSH2 0x680 JUMP JUMPDEST DUP4 PUSH2 0xB3D JUMP JUMPDEST POP JUMP JUMPDEST PUSH1 0x0 DUP1 PUSH2 0x578 PUSH2 0x8E0 JUMP JUMPDEST SWAP1 POP PUSH2 0x599 DUP2 DUP6 DUP6 PUSH2 0x58A DUP6 DUP10 PUSH2 0x7D6 JUMP JUMPDEST PUSH2 0x594 SWAP2 SWAP1 PUSH2 0x1658 JUMP JUMPDEST PUSH2 0x8E8 JUMP JUMPDEST PUSH1 0x1 SWAP2 POP POP SWAP3 SWAP2 POP POP JUMP JUMPDEST PUSH2 0x5AC PUSH2 0xDB3 JUMP JUMPDEST PUSH2 0x5B6 DUP3 DUP3 PUSH2 0xE31 JUMP JUMPDEST POP POP JUMP JUMPDEST PUSH2 0x5CB PUSH2 0x5C5 PUSH2 0x8E0 JUMP JUMPDEST DUP3 PUSH2 0xF87 JUMP JUMPDEST POP JUMP JUMPDEST PUSH2 0x5D6 PUSH2 0xDB3 JUMP JUMPDEST PUSH2 0x5E8 PUSH2 0x5E1 PUSH2 0x680 JUMP JUMPDEST DUP4 DUP4 PUSH2 0xB3D JUMP JUMPDEST POP POP JUMP JUMPDEST PUSH2 0x5F4 PUSH2 0xDB3 JUMP JUMPDEST DUP1 PUSH1 0x6 DUP2 SWAP1 SSTORE POP POP JUMP JUMPDEST PUSH1 0x0 DUP1 PUSH1 0x0 DUP4 PUSH20 0xFFFFFFFFFFFFFFFFFFFFFFFFFFFFFFFFFFFFFFFF AND PUSH20 0xFFFFFFFFFFFFFFFFFFFFFFFFFFFFFFFFFFFFFFFF AND DUP2 MSTORE PUSH1 0x20 ADD SWAP1 DUP2 MSTORE PUSH1 0x20 ADD PUSH1 0x0 KECCAK256 SLOAD SWAP1 POP SWAP2 SWAP1 POP JUMP JUMPDEST PUSH2 0x64E PUSH2 0xDB3 JUMP JUMPDEST PUSH2 0x658 PUSH1 0x0 PUSH2 0x1154 JUMP JUMPDEST JUMP JUMPDEST PUSH2 0x66C DUP3 PUSH2 0x666 PUSH2 0x8E0 JUMP JUMPDEST DUP4 PUSH2 0xAB1 JUMP JUMPDEST PUSH2 0x676 DUP3 DUP3 PUSH2 0xF87 JUMP JUMPDEST POP POP JUMP JUMPDEST PUSH1 0x6 SLOAD DUP2 JUMP JUMPDEST PUSH1 0x0 PUSH1 0x5 PUSH1 0x0 SWAP1 SLOAD SWAP1 PUSH2 0x100 EXP SWAP1 DIV PUSH20 0xFFFFFFFFFFFFFFFFFFFFFFFFFFFFFFFFFFFFFFFF AND SWAP1 POP SWAP1 JUMP JUMPDEST PUSH1 0x60 PUSH1 0x4 DUP1 SLOAD PUSH2 0x6B9 SWAP1 PUSH2 0x158C JUMP JUMPDEST DUP1 PUSH1 0x1F ADD PUSH1 0x20 DUP1 SWAP2 DIV MUL PUSH1 0x20 ADD PUSH1 0x40 MLOAD SWAP1 DUP2 ADD PUSH1 0x40 MSTORE DUP1 SWAP3 SWAP2 SWAP1 DUP2 DUP2 MSTORE PUSH1 0x20 ADD DUP3 DUP1 SLOAD PUSH2 0x6E5 SWAP1 PUSH2 0x158C JUMP JUMPDEST DUP1 ISZERO PUSH2 0x732 JUMPI DUP1 PUSH1 0x1F LT PUSH2 0x707 JUMPI PUSH2 0x100 DUP1 DUP4 SLOAD DIV MUL DUP4 MSTORE SWAP2 PUSH1 0x20 ADD SWAP2 PUSH2 0x732 JUMP JUMPDEST DUP3 ADD SWAP2 SWAP1 PUSH1 0x0 MSTORE PUSH1 0x20 PUSH1 0x0 KECCAK256 SWAP1 JUMPDEST DUP2 SLOAD DUP2 MSTORE SWAP1 PUSH1 0x1 ADD SWAP1 PUSH1 0x20 ADD DUP1 DUP4 GT PUSH2 0x715 JUMPI DUP3 SWAP1 SUB PUSH1 0x1F AND DUP3 ADD SWAP2 JUMPDEST POP POP POP POP POP SWAP1 POP SWAP1 JUMP JUMPDEST PUSH1 0x0 DUP1 PUSH2 0x747 PUSH2 0x8E0 JUMP JUMPDEST SWAP1 POP PUSH1 0x0 PUSH2 0x755 DUP3 DUP7 PUSH2 0x7D6 JUMP JUMPDEST SWAP1 POP DUP4 DUP2 LT ISZERO PUSH2 0x79A JUMPI PUSH1 0x40 MLOAD PUSH32 0x8C379A000000000000000000000000000000000000000000000000000000000 DUP2 MSTORE PUSH1 0x4 ADD PUSH2 0x791 SWAP1 PUSH2 0x16FE JUMP JUMPDEST PUSH1 0x40 MLOAD DUP1 SWAP2 SUB SWAP1 REVERT JUMPDEST PUSH2 0x7A7 DUP3 DUP7 DUP7 DUP5 SUB PUSH2 0x8E8 JUMP JUMPDEST PUSH1 0x1 SWAP3 POP POP POP SWAP3 SWAP2 POP POP JUMP JUMPDEST PUSH1 0x0 DUP1 PUSH2 0x7BE PUSH2 0x8E0 JUMP JUMPDEST SWAP1 POP PUSH2 0x7CB DUP2 DUP6 DUP6 PUSH2 0xB3D JUMP JUMPDEST PUSH1 0x1 SWAP2 POP POP SWAP3 SWAP2 POP POP JUMP JUMPDEST PUSH1 0x0 PUSH1 0x1 PUSH1 0x0 DUP5 PUSH20 0xFFFFFFFFFFFFFFFFFFFFFFFFFFFFFFFFFFFFFFFF AND PUSH20 0xFFFFFFFFFFFFFFFFFFFFFFFFFFFFFFFFFFFFFFFF AND DUP2 MSTORE PUSH1 0x20 ADD SWAP1 DUP2 MSTORE PUSH1 0x20 ADD PUSH1 0x0 KECCAK256 PUSH1 0x0 DUP4 PUSH20 0xFFFFFFFFFFFFFFFFFFFFFFFFFFFFFFFFFFFFFFFF AND PUSH20 0xFFFFFFFFFFFFFFFFFFFFFFFFFFFFFFFFFFFFFFFF AND DUP2 MSTORE PUSH1 0x20 ADD SWAP1 DUP2 MSTORE PUSH1 0x20 ADD PUSH1 0x0 KECCAK256 SLOAD SWAP1 POP SWAP3 SWAP2 POP POP JUMP JUMPDEST PUSH2 0x865 PUSH2 0xDB3 JUMP JUMPDEST PUSH1 0x0 PUSH20 0xFFFFFFFFFFFFFFFFFFFFFFFFFFFFFFFFFFFFFFFF AND DUP2 PUSH20 0xFFFFFFFFFFFFFFFFFFFFFFFFFFFFFFFFFFFFFFFF AND SUB PUSH2 0x8D4 JUMPI PUSH1 0x40 MLOAD PUSH32 0x8C379A000000000000000000000000000000000000000000000000000000000 DUP2 MSTORE PUSH1 0x4 ADD PUSH2 0x8CB SWAP1 PUSH2 0x1790 JUMP JUMPDEST PUSH1 0x40 MLOAD DUP1 SWAP2 SUB SWAP1 REVERT JUMPDEST PUSH2 0x8DD DUP2 PUSH2 0x1154 JUMP JUMPDEST POP JUMP JUMPDEST PUSH1 0x0 CALLER SWAP1 POP SWAP1 JUMP JUMPDEST PUSH1 0x0 PUSH20 0xFFFFFFFFFFFFFFFFFFFFFFFFFFFFFFFFFFFFFFFF AND DUP4 PUSH20 0xFFFFFFFFFFFFFFFFFFFFFFFFFFFFFFFFFFFFFFFF AND SUB PUSH2 0x957 JUMPI PUSH1 0x40 MLOAD PUSH32 0x8C379A000000000000000000000000000000000000000000000000000000000 DUP2 MSTORE PUSH1 0x4 ADD PUSH2 0x94E SWAP1 PUSH2 0x1822 JUMP JUMPDEST PUSH1 0x40 MLOAD DUP1 SWAP2 SUB SWAP1 REVERT JUMPDEST PUSH1 0x0 PUSH20 0xFFFFFFFFFFFFFFFFFFFFFFFFFFFFFFFFFFFFFFFF AND DUP3 PUSH20 0xFFFFFFFFFFFFFFFFFFFFFFFFFFFFFFFFFFFFFFFF AND SUB PUSH2 0x9C6 JUMPI PUSH1 0x40 MLOAD PUSH32 0x8C379A000000000000000000000000000000000000000000000000000000000 DUP2 MSTORE PUSH1 0x4 ADD PUSH2 0x9BD SWAP1 PUSH2 0x18B4 JUMP JUMPDEST PUSH1 0x40 MLOAD DUP1 SWAP2 SUB SWAP1 REVERT JUMPDEST DUP1 PUSH1 0x1 PUSH1 0x0 DUP6 PUSH20 0xFFFFFFFFFFFFFFFFFFFFFFFFFFFFFFFFFFFFFFFF AND PUSH20 0xFFFFFFFFFFFFFFFFFFFFFFFFFFFFFFFFFFFFFFFF AND DUP2 MSTORE PUSH1 0x20 ADD SWAP1 DUP2 MSTORE PUSH1 0x20 ADD PUSH1 0x0 KECCAK256 PUSH1 0x0 DUP5 PUSH20 0xFFFFFFFFFFFFFFFFFFFFFFFFFFFFFFFFFFFFFFFF AND PUSH20 0xFFFFFFFFFFFFFFFFFFFFFFFFFFFFFFFFFFFFFFFF AND DUP2 MSTORE PUSH1 0x20 ADD SWAP1 DUP2 MSTORE PUSH1 0x20 ADD PUSH1 0x0 KECCAK256 DUP2 SWAP1 SSTORE POP DUP2 PUSH20 0xFFFFFFFFFFFFFFFFFFFFFFFFFFFFFFFFFFFFFFFF AND DUP4 PUSH20 0xFFFFFFFFFFFFFFFFFFFFFFFFFFFFFFFFFFFFFFFF AND PUSH32 0x8C5BE1E5EBEC7D5BD14F71427D1E84F3DD0314C0F7B2291E5B200AC8C7C3B925 DUP4 PUSH1 0x40 MLOAD PUSH2 0xAA4 SWAP2 SWAP1 PUSH2 0x13F4 JUMP JUMPDEST PUSH1 0x40 MLOAD DUP1 SWAP2 SUB SWAP1 LOG3 POP POP POP JUMP JUMPDEST PUSH1 0x0 PUSH2 0xABD DUP5 DUP5 PUSH2 0x7D6 JUMP JUMPDEST SWAP1 POP PUSH32 0xFFFFFFFFFFFFFFFFFFFFFFFFFFFFFFFFFFFFFFFFFFFFFFFFFFFFFFFFFFFFFFFF DUP2 EQ PUSH2 0xB37 JUMPI DUP2 DUP2 LT ISZERO PUSH2 0xB29 JUMPI PUSH1 0x40 MLOAD PUSH32 0x8C379A000000000000000000000000000000000000000000000000000000000 DUP2 MSTORE PUSH1 0x4 ADD PUSH2 0xB20 SWAP1 PUSH2 0x1920 JUMP JUMPDEST PUSH1 0x40 MLOAD DUP1 SWAP2 SUB SWAP1 REVERT JUMPDEST PUSH2 0xB36 DUP5 DUP5 DUP5 DUP5 SUB PUSH2 0x8E8 JUMP JUMPDEST JUMPDEST POP POP POP POP JUMP JUMPDEST PUSH1 0x0 PUSH20 0xFFFFFFFFFFFFFFFFFFFFFFFFFFFFFFFFFFFFFFFF AND DUP4 PUSH20 0xFFFFFFFFFFFFFFFFFFFFFFFFFFFFFFFFFFFFFFFF AND SUB PUSH2 0xBAC JUMPI PUSH1 0x40 MLOAD PUSH32 0x8C379A000000000000000000000000000000000000000000000000000000000 DUP2 MSTORE PUSH1 0x4 ADD PUSH2 0xBA3 SWAP1 PUSH2 0x19B2 JUMP JUMPDEST PUSH1 0x40 MLOAD DUP1 SWAP2 SUB SWAP1 REVERT JUMPDEST PUSH1 0x0 PUSH20 0xFFFFFFFFFFFFFFFFFFFFFFFFFFFFFFFFFFFFFFFF AND DUP3 PUSH20 0xFFFFFFFFFFFFFFFFFFFFFFFFFFFFFFFFFFFFFFFF AND SUB PUSH2 0xC1B JUMPI PUSH1 0x40 MLOAD PUSH32 0x8C379A000000000000000000000000000000000000000000000000000000000 DUP2 MSTORE PUSH1 0x4 ADD PUSH2 0xC12 SWAP1 PUSH2 0x1A44 JUMP JUMPDEST PUSH1 0x40 MLOAD DUP1 SWAP2 SUB SWAP1 REVERT JUMPDEST PUSH2 0xC26 DUP4 DUP4 DUP4 PUSH2 0x121A JUMP JUMPDEST PUSH1 0x0 DUP1 PUSH1 0x0 DUP6 PUSH20 0xFFFFFFFFFFFFFFFFFFFFFFFFFFFFFFFFFFFFFFFF AND PUSH20 0xFFFFFFFFFFFFFFFFFFFFFFFFFFFFFFFFFFFFFFFF AND DUP2 MSTORE PUSH1 0x20 ADD SWAP1 DUP2 MSTORE PUSH1 0x20 ADD PUSH1 0x0 KECCAK256 SLOAD SWAP1 POP DUP2 DUP2 LT ISZERO PUSH2 0xCAC JUMPI PUSH1 0x40 MLOAD PUSH32 0x8C379A000000000000000000000000000000000000000000000000000000000 DUP2 MSTORE PUSH1 0x4 ADD PUSH2 0xCA3 SWAP1 PUSH2 0x1AD6 JUMP JUMPDEST PUSH1 0x40 MLOAD DUP1 SWAP2 SUB SWAP1 REVERT JUMPDEST DUP2 DUP2 SUB PUSH1 0x0 DUP1 DUP7 PUSH20 0xFFFFFFFFFFFFFFFFFFFFFFFFFFFFFFFFFFFFFFFF AND PUSH20 0xFFFFFFFFFFFFFFFFFFFFFFFFFFFFFFFFFFFFFFFF AND DUP2 MSTORE PUSH1 0x20 ADD SWAP1 DUP2 MSTORE PUSH1 0x20 ADD PUSH1 0x0 KECCAK256 DUP2 SWAP1 SSTORE POP DUP2 PUSH1 0x0 DUP1 DUP6 PUSH20 0xFFFFFFFFFFFFFFFFFFFFFFFFFFFFFFFFFFFFFFFF AND PUSH20 0xFFFFFFFFFFFFFFFFFFFFFFFFFFFFFFFFFFFFFFFF AND DUP2 MSTORE PUSH1 0x20 ADD SWAP1 DUP2 MSTORE PUSH1 0x20 ADD PUSH1 0x0 KECCAK256 PUSH1 0x0 DUP3 DUP3 SLOAD ADD SWAP3 POP POP DUP2 SWAP1 SSTORE POP DUP3 PUSH20 0xFFFFFFFFFFFFFFFFFFFFFFFFFFFFFFFFFFFFFFFF AND DUP5 PUSH20 0xFFFFFFFFFFFFFFFFFFFFFFFFFFFFFFFFFFFFFFFF AND PUSH32 0xDDF252AD1BE2C89B69C2B068FC378DAA952BA7F163C4A11628F55A4DF523B3EF DUP5 PUSH1 0x40 MLOAD PUSH2 0xD9A SWAP2 SWAP1 PUSH2 0x13F4 JUMP JUMPDEST PUSH1 0x40 MLOAD DUP1 SWAP2 SUB SWAP1 LOG3 PUSH2 0xDAD DUP5 DUP5 DUP5 PUSH2 0x121F JUMP JUMPDEST POP POP POP POP JUMP JUMPDEST PUSH2 0xDBB PUSH2 0x8E0 JUMP JUMPDEST PUSH20 0xFFFFFFFFFFFFFFFFFFFFFFFFFFFFFFFFFFFFFFFF AND PUSH2 0xDD9 PUSH2 0x680 JUMP JUMPDEST PUSH20 0xFFFFFFFFFFFFFFFFFFFFFFFFFFFFFFFFFFFFFFFF AND EQ PUSH2 0xE2F JUMPI PUSH1 0x40 MLOAD PUSH32 0x8C379A000000000000000000000000000000000000000000000000000000000 DUP2 MSTORE PUSH1 0x4 ADD PUSH2 0xE26 SWAP1 PUSH2 0x1B42 JUMP JUMPDEST PUSH1 0x40 MLOAD DUP1 SWAP2 SUB SWAP1 REVERT JUMPDEST JUMP JUMPDEST PUSH1 0x0 PUSH20 0xFFFFFFFFFFFFFFFFFFFFFFFFFFFFFFFFFFFFFFFF AND DUP3 PUSH20 0xFFFFFFFFFFFFFFFFFFFFFFFFFFFFFFFFFFFFFFFF AND SUB PUSH2 0xEA0 JUMPI PUSH1 0x40 MLOAD PUSH32 0x8C379A000000000000000000000000000000000000000000000000000000000 DUP2 MSTORE PUSH1 0x4 ADD PUSH2 0xE97 SWAP1 PUSH2 0x1BAE JUMP JUMPDEST PUSH1 0x40 MLOAD DUP1 SWAP2 SUB SWAP1 REVERT JUMPDEST PUSH2 0xEAC PUSH1 0x0 DUP4 DUP4 PUSH2 0x121A JUMP JUMPDEST DUP1 PUSH1 0x2 PUSH1 0x0 DUP3 DUP3 SLOAD PUSH2 0xEBE SWAP2 SWAP1 PUSH2 0x1658 JUMP JUMPDEST SWAP3 POP POP DUP2 SWAP1 SSTORE POP DUP1 PUSH1 0x0 DUP1 DUP5 PUSH20 0xFFFFFFFFFFFFFFFFFFFFFFFFFFFFFFFFFFFFFFFF AND PUSH20 0xFFFFFFFFFFFFFFFFFFFFFFFFFFFFFFFFFFFFFFFF AND DUP2 MSTORE PUSH1 0x20 ADD SWAP1 DUP2 MSTORE PUSH1 0x20 ADD PUSH1 0x0 KECCAK256 PUSH1 0x0 DUP3 DUP3 SLOAD ADD SWAP3 POP POP DUP2 SWAP1 SSTORE POP DUP2 PUSH20 0xFFFFFFFFFFFFFFFFFFFFFFFFFFFFFFFFFFFFFFFF AND PUSH1 0x0 PUSH20 0xFFFFFFFFFFFFFFFFFFFFFFFFFFFFFFFFFFFFFFFF AND PUSH32 0xDDF252AD1BE2C89B69C2B068FC378DAA952BA7F163C4A11628F55A4DF523B3EF DUP4 PUSH1 0x40 MLOAD PUSH2 0xF6F SWAP2 SWAP1 PUSH2 0x13F4 JUMP JUMPDEST PUSH1 0x40 MLOAD DUP1 SWAP2 SUB SWAP1 LOG3 PUSH2 0xF83 PUSH1 0x0 DUP4 DUP4 PUSH2 0x121F JUMP JUMPDEST POP POP JUMP JUMPDEST PUSH1 0x0 PUSH20 0xFFFFFFFFFFFFFFFFFFFFFFFFFFFFFFFFFFFFFFFF AND DUP3 PUSH20 0xFFFFFFFFFFFFFFFFFFFFFFFFFFFFFFFFFFFFFFFF AND SUB PUSH2 0xFF6 JUMPI PUSH1 0x40 MLOAD PUSH32 0x8C379A000000000000000000000000000000000000000000000000000000000 DUP2 MSTORE PUSH1 0x4 ADD PUSH2 0xFED SWAP1 PUSH2 0x1C40 JUMP JUMPDEST PUSH1 0x40 MLOAD DUP1 SWAP2 SUB SWAP1 REVERT JUMPDEST PUSH2 0x1002 DUP3 PUSH1 0x0 DUP4 PUSH2 0x121A JUMP JUMPDEST PUSH1 0x0 DUP1 PUSH1 0x0 DUP5 PUSH20 0xFFFFFFFFFFFFFFFFFFFFFFFFFFFFFFFFFFFFFFFF AND PUSH20 0xFFFFFFFFFFFFFFFFFFFFFFFFFFFFFFFFFFFFFFFF AND DUP2 MSTORE PUSH1 0x20 ADD SWAP1 DUP2 MSTORE PUSH1 0x20 ADD PUSH1 0x0 KECCAK256 SLOAD SWAP1 POP DUP2 DUP2 LT ISZERO PUSH2 0x1088 JUMPI PUSH1 0x40 MLOAD PUSH32 0x8C379A000000000000000000000000000000000000000000000000000000000 DUP2 MSTORE PUSH1 0x4 ADD PUSH2 0x107F SWAP1 PUSH2 0x1CD2 JUMP JUMPDEST PUSH1 0x40 MLOAD DUP1 SWAP2 SUB SWAP1 REVERT JUMPDEST DUP2 DUP2 SUB PUSH1 0x0 DUP1 DUP6 PUSH20 0xFFFFFFFFFFFFFFFFFFFFFFFFFFFFFFFFFFFFFFFF AND PUSH20 0xFFFFFFFFFFFFFFFFFFFFFFFFFFFFFFFFFFFFFFFF AND DUP2 MSTORE PUSH1 0x20 ADD SWAP1 DUP2 MSTORE PUSH1 0x20 ADD PUSH1 0x0 KECCAK256 DUP2 SWAP1 SSTORE POP DUP2 PUSH1 0x2 PUSH1 0x0 DUP3 DUP3 SLOAD SUB SWAP3 POP POP DUP2 SWAP1 SSTORE POP PUSH1 0x0 PUSH20 0xFFFFFFFFFFFFFFFFFFFFFFFFFFFFFFFFFFFFFFFF AND DUP4 PUSH20 0xFFFFFFFFFFFFFFFFFFFFFFFFFFFFFFFFFFFFFFFF AND PUSH32 0xDDF252AD1BE2C89B69C2B068FC378DAA952BA7F163C4A11628F55A4DF523B3EF DUP5 PUSH1 0x40 MLOAD PUSH2 0x113B SWAP2 SWAP1 PUSH2 0x13F4 JUMP JUMPDEST PUSH1 0x40 MLOAD DUP1 SWAP2 SUB SWAP1 LOG3 PUSH2 0x114F DUP4 PUSH1 0x0 DUP5 PUSH2 0x121F JUMP JUMPDEST POP POP POP JUMP JUMPDEST PUSH1 0x0 PUSH1 0x5 PUSH1 0x0 SWAP1 SLOAD SWAP1 PUSH2 0x100 EXP SWAP1 DIV PUSH20 0xFFFFFFFFFFFFFFFFFFFFFFFFFFFFFFFFFFFFFFFF AND SWAP1 POP DUP2 PUSH1 0x5 PUSH1 0x0 PUSH2 0x100 EXP DUP2 SLOAD DUP2 PUSH20 0xFFFFFFFFFFFFFFFFFFFFFFFFFFFFFFFFFFFFFFFF MUL NOT AND SWAP1 DUP4 PUSH20 0xFFFFFFFFFFFFFFFFFFFFFFFFFFFFFFFFFFFFFFFF AND MUL OR SWAP1 SSTORE POP DUP2 PUSH20 0xFFFFFFFFFFFFFFFFFFFFFFFFFFFFFFFFFFFFFFFF AND DUP2 PUSH20 0xFFFFFFFFFFFFFFFFFFFFFFFFFFFFFFFFFFFFFFFF AND PUSH32 0x8BE0079C531659141344CD1FD0A4F28419497F9722A3DAAFE3B4186F6B6457E0 PUSH1 0x40 MLOAD PUSH1 0x40 MLOAD DUP1 SWAP2 SUB SWAP1 LOG3 POP POP JUMP JUMPDEST POP POP POP JUMP JUMPDEST POP POP POP JUMP JUMPDEST PUSH1 0x0 DUP2 MLOAD SWAP1 POP SWAP2 SWAP1 POP JUMP JUMPDEST PUSH1 0x0 DUP3 DUP3 MSTORE PUSH1 0x20 DUP3 ADD SWAP1 POP SWAP3 SWAP2 POP POP JUMP JUMPDEST PUSH1 0x0 JUMPDEST DUP4 DUP2 LT ISZERO PUSH2 0x125E JUMPI DUP1 DUP3 ADD MLOAD DUP2 DUP5 ADD MSTORE PUSH1 0x20 DUP2 ADD SWAP1 POP PUSH2 0x1243 JUMP JUMPDEST PUSH1 0x0 DUP5 DUP5 ADD MSTORE POP POP POP POP JUMP JUMPDEST PUSH1 0x0 PUSH1 0x1F NOT PUSH1 0x1F DUP4 ADD AND SWAP1 POP SWAP2 SWAP1 POP JUMP JUMPDEST PUSH1 0x0 PUSH2 0x1286 DUP3 PUSH2 0x1224 JUMP JUMPDEST PUSH2 0x1290 DUP2 DUP6 PUSH2 0x122F JUMP JUMPDEST SWAP4 POP PUSH2 0x12A0 DUP2 DUP6 PUSH1 0x20 DUP7 ADD PUSH2 0x1240 JUMP JUMPDEST PUSH2 0x12A9 DUP2 PUSH2 0x126A JUMP JUMPDEST DUP5 ADD SWAP2 POP POP SWAP3 SWAP2 POP POP JUMP JUMPDEST PUSH1 0x0 PUSH1 0x20 DUP3 ADD SWAP1 POP DUP2 DUP2 SUB PUSH1 0x0 DUP4 ADD MSTORE PUSH2 0x12CE DUP2 DUP5 PUSH2 0x127B JUMP JUMPDEST SWAP1 POP SWAP3 SWAP2 POP POP JUMP JUMPDEST PUSH1 0x0 DUP1 REVERT JUMPDEST PUSH1 0x0 PUSH20 0xFFFFFFFFFFFFFFFFFFFFFFFFFFFFFFFFFFFFFFFF DUP3 AND SWAP1 POP SWAP2 SWAP1 POP JUMP JUMPDEST PUSH1 0x0 PUSH2 0x1306 DUP3 PUSH2 0x12DB JUMP JUMPDEST SWAP1 POP SWAP2 SWAP1 POP JUMP JUMPDEST PUSH2 0x1316 DUP2 PUSH2 0x12FB JUMP JUMPDEST DUP2 EQ PUSH2 0x1321 JUMPI PUSH1 0x0 DUP1 REVERT JUMPDEST POP JUMP JUMPDEST PUSH1 0x0 DUP2 CALLDATALOAD SWAP1 POP PUSH2 0x1333 DUP2 PUSH2 0x130D JUMP JUMPDEST SWAP3 SWAP2 POP POP JUMP JUMPDEST PUSH1 0x0 DUP2 SWAP1 POP SWAP2 SWAP1 POP JUMP JUMPDEST PUSH2 0x134C DUP2 PUSH2 0x1339 JUMP JUMPDEST DUP2 EQ PUSH2 0x1357 JUMPI PUSH1 0x0 DUP1 REVERT JUMPDEST POP JUMP JUMPDEST PUSH1 0x0 DUP2 CALLDATALOAD SWAP1 POP PUSH2 0x1369 DUP2 PUSH2 0x1343 JUMP JUMPDEST SWAP3 SWAP2 POP POP JUMP JUMPDEST PUSH1 0x0 DUP1 PUSH1 0x40 DUP4 DUP6 SUB SLT ISZERO PUSH2 0x1386 JUMPI PUSH2 0x1385 PUSH2 0x12D6 JUMP JUMPDEST JUMPDEST PUSH1 0x0 PUSH2 0x1394 DUP6 DUP3 DUP7 ADD PUSH2 0x1324 JUMP JUMPDEST SWAP3 POP POP PUSH1 0x20 PUSH2 0x13A5 DUP6 DUP3 DUP7 ADD PUSH2 0x135A JUMP JUMPDEST SWAP2 POP POP SWAP3 POP SWAP3 SWAP1 POP JUMP JUMPDEST PUSH1 0x0 DUP2 ISZERO ISZERO SWAP1 POP SWAP2 SWAP1 POP JUMP JUMPDEST PUSH2 0x13C4 DUP2 PUSH2 0x13AF JUMP JUMPDEST DUP3 MSTORE POP POP JUMP JUMPDEST PUSH1 0x0 PUSH1 0x20 DUP3 ADD SWAP1 POP PUSH2 0x13DF PUSH1 0x0 DUP4 ADD DUP5 PUSH2 0x13BB JUMP JUMPDEST SWAP3 SWAP2 POP POP JUMP JUMPDEST PUSH2 0x13EE DUP2 PUSH2 0x1339 JUMP JUMPDEST DUP3 MSTORE POP POP JUMP JUMPDEST PUSH1 0x0 PUSH1 0x20 DUP3 ADD SWAP1 POP PUSH2 0x1409 PUSH1 0x0 DUP4 ADD DUP5 PUSH2 0x13E5 JUMP JUMPDEST SWAP3 SWAP2 POP POP JUMP JUMPDEST PUSH1 0x0 DUP1 PUSH1 0x0 PUSH1 0x60 DUP5 DUP7 SUB SLT ISZERO PUSH2 0x1428 JUMPI PUSH2 0x1427 PUSH2 0x12D6 JUMP JUMPDEST JUMPDEST PUSH1 0x0 PUSH2 0x1436 DUP7 DUP3 DUP8 ADD PUSH2 0x1324 JUMP JUMPDEST SWAP4 POP POP PUSH1 0x20 PUSH2 0x1447 DUP7 DUP3 DUP8 ADD PUSH2 0x1324 JUMP JUMPDEST SWAP3 POP POP PUSH1 0x40 PUSH2 0x1458 DUP7 DUP3 DUP8 ADD PUSH2 0x135A JUMP JUMPDEST SWAP2 POP POP SWAP3 POP SWAP3 POP SWAP3 JUMP JUMPDEST PUSH1 0x0 PUSH1 0xFF DUP3 AND SWAP1 POP SWAP2 SWAP1 POP JUMP JUMPDEST PUSH2 0x1478 DUP2 PUSH2 0x1462 JUMP JUMPDEST DUP3 MSTORE POP POP JUMP JUMPDEST PUSH1 0x0 PUSH1 0x20 DUP3 ADD SWAP1 POP PUSH2 0x1493 PUSH1 0x0 DUP4 ADD DUP5 PUSH2 0x146F JUMP JUMPDEST SWAP3 SWAP2 POP POP JUMP JUMPDEST PUSH1 0x0 PUSH1 0x20 DUP3 DUP5 SUB SLT ISZERO PUSH2 0x14AF JUMPI PUSH2 0x14AE PUSH2 0x12D6 JUMP JUMPDEST JUMPDEST PUSH1 0x0 PUSH2 0x14BD DUP5 DUP3 DUP6 ADD PUSH2 0x135A JUMP JUMPDEST SWAP2 POP POP SWAP3 SWAP2 POP POP JUMP JUMPDEST PUSH1 0x0 PUSH1 0x20 DUP3 DUP5 SUB SLT ISZERO PUSH2 0x14DC JUMPI PUSH2 0x14DB PUSH2 0x12D6 JUMP JUMPDEST JUMPDEST PUSH1 0x0 PUSH2 0x14EA DUP5 DUP3 DUP6 ADD PUSH2 0x1324 JUMP JUMPDEST SWAP2 POP POP SWAP3 SWAP2 POP POP JUMP JUMPDEST PUSH2 0x14FC DUP2 PUSH2 0x12FB JUMP JUMPDEST DUP3 MSTORE POP POP JUMP JUMPDEST PUSH1 0x0 PUSH1 0x20 DUP3 ADD SWAP1 POP PUSH2 0x1517 PUSH1 0x0 DUP4 ADD DUP5 PUSH2 0x14F3 JUMP JUMPDEST SWAP3 SWAP2 POP POP JUMP JUMPDEST PUSH1 0x0 DUP1 PUSH1 0x40 DUP4 DUP6 SUB SLT ISZERO PUSH2 0x1534 JUMPI PUSH2 0x1533 PUSH2 0x12D6 JUMP JUMPDEST JUMPDEST PUSH1 0x0 PUSH2 0x1542 DUP6 DUP3 DUP7 ADD PUSH2 0x1324 JUMP JUMPDEST SWAP3 POP POP PUSH1 0x20 PUSH2 0x1553 DUP6 DUP3 DUP7 ADD PUSH2 0x1324 JUMP JUMPDEST SWAP2 POP POP SWAP3 POP SWAP3 SWAP1 POP JUMP JUMPDEST PUSH32 0x4E487B7100000000000000000000000000000000000000000000000000000000 PUSH1 0x0 MSTORE PUSH1 0x22 PUSH1 0x4 MSTORE PUSH1 0x24 PUSH1 0x0 REVERT JUMPDEST PUSH1 0x0 PUSH1 0x2 DUP3 DIV SWAP1 POP PUSH1 0x1 DUP3 AND DUP1 PUSH2 0x15A4 JUMPI PUSH1 0x7F DUP3 AND SWAP2 POP JUMPDEST PUSH1 0x20 DUP3 LT DUP2 SUB PUSH2 0x15B7 JUMPI PUSH2 0x15B6 PUSH2 0x155D JUMP JUMPDEST JUMPDEST POP SWAP2 SWAP1 POP JUMP JUMPDEST PUSH32 0x496E73756666696369656E7420636F6E74726163742062616C616E6365000000 PUSH1 0x0 DUP3 ADD MSTORE POP JUMP JUMPDEST PUSH1 0x0 PUSH2 0x15F3 PUSH1 0x1D DUP4 PUSH2 0x122F JUMP JUMPDEST SWAP2 POP PUSH2 0x15FE DUP3 PUSH2 0x15BD JUMP JUMPDEST PUSH1 0x20 DUP3 ADD SWAP1 POP SWAP2 SWAP1 POP JUMP JUMPDEST PUSH1 0x0 PUSH1 0x20 DUP3 ADD SWAP1 POP DUP2 DUP2 SUB PUSH1 0x0 DUP4 ADD MSTORE PUSH2 0x1622 DUP2 PUSH2 0x15E6 JUMP JUMPDEST SWAP1 POP SWAP2 SWAP1 POP JUMP JUMPDEST PUSH32 0x4E487B7100000000000000000000000000000000000000000000000000000000 PUSH1 0x0 MSTORE PUSH1 0x11 PUSH1 0x4 MSTORE PUSH1 0x24 PUSH1 0x0 REVERT JUMPDEST PUSH1 0x0 PUSH2 0x1663 DUP3 PUSH2 0x1339 JUMP JUMPDEST SWAP2 POP PUSH2 0x166E DUP4 PUSH2 0x1339 JUMP JUMPDEST SWAP3 POP DUP3 DUP3 ADD SWAP1 POP DUP1 DUP3 GT ISZERO PUSH2 0x1686 JUMPI PUSH2 0x1685 PUSH2 0x1629 JUMP JUMPDEST JUMPDEST SWAP3 SWAP2 POP POP JUMP JUMPDEST PUSH32 0x45524332303A2064656372656173656420616C6C6F77616E63652062656C6F77 PUSH1 0x0 DUP3 ADD MSTORE PUSH32 0x207A65726F000000000000000000000000000000000000000000000000000000 PUSH1 0x20 DUP3 ADD MSTORE POP JUMP JUMPDEST PUSH1 0x0 PUSH2 0x16E8 PUSH1 0x25 DUP4 PUSH2 0x122F JUMP JUMPDEST SWAP2 POP PUSH2 0x16F3 DUP3 PUSH2 0x168C JUMP JUMPDEST PUSH1 0x40 DUP3 ADD SWAP1 POP SWAP2 SWAP1 POP JUMP JUMPDEST PUSH1 0x0 PUSH1 0x20 DUP3 ADD SWAP1 POP DUP2 DUP2 SUB PUSH1 0x0 DUP4 ADD MSTORE PUSH2 0x1717 DUP2 PUSH2 0x16DB JUMP JUMPDEST SWAP1 POP SWAP2 SWAP1 POP JUMP JUMPDEST PUSH32 0x4F776E61626C653A206E6577206F776E657220697320746865207A65726F2061 PUSH1 0x0 DUP3 ADD MSTORE PUSH32 0x6464726573730000000000000000000000000000000000000000000000000000 PUSH1 0x20 DUP3 ADD MSTORE POP JUMP JUMPDEST PUSH1 0x0 PUSH2 0x177A PUSH1 0x26 DUP4 PUSH2 0x122F JUMP JUMPDEST SWAP2 POP PUSH2 0x1785 DUP3 PUSH2 0x171E JUMP JUMPDEST PUSH1 0x40 DUP3 ADD SWAP1 POP SWAP2 SWAP1 POP JUMP JUMPDEST PUSH1 0x0 PUSH1 0x20 DUP3 ADD SWAP1 POP DUP2 DUP2 SUB PUSH1 0x0 DUP4 ADD MSTORE PUSH2 0x17A9 DUP2 PUSH2 0x176D JUMP JUMPDEST SWAP1 POP SWAP2 SWAP1 POP JUMP JUMPDEST PUSH32 0x45524332303A20617070726F76652066726F6D20746865207A65726F20616464 PUSH1 0x0 DUP3 ADD MSTORE PUSH32 0x7265737300000000000000000000000000000000000000000000000000000000 PUSH1 0x20 DUP3 ADD MSTORE POP JUMP JUMPDEST PUSH1 0x0 PUSH2 0x180C PUSH1 0x24 DUP4 PUSH2 0x122F JUMP JUMPDEST SWAP2 POP PUSH2 0x1817 DUP3 PUSH2 0x17B0 JUMP JUMPDEST PUSH1 0x40 DUP3 ADD SWAP1 POP SWAP2 SWAP1 POP JUMP JUMPDEST PUSH1 0x0 PUSH1 0x20 DUP3 ADD SWAP1 POP DUP2 DUP2 SUB PUSH1 0x0 DUP4 ADD MSTORE PUSH2 0x183B DUP2 PUSH2 0x17FF JUMP JUMPDEST SWAP1 POP SWAP2 SWAP1 POP JUMP JUMPDEST PUSH32 0x45524332303A20617070726F766520746F20746865207A65726F206164647265 PUSH1 0x0 DUP3 ADD MSTORE PUSH32 0x7373000000000000000000000000000000000000000000000000000000000000 PUSH1 0x20 DUP3 ADD MSTORE POP JUMP JUMPDEST PUSH1 0x0 PUSH2 0x189E PUSH1 0x22 DUP4 PUSH2 0x122F JUMP JUMPDEST SWAP2 POP PUSH2 0x18A9 DUP3 PUSH2 0x1842 JUMP JUMPDEST PUSH1 0x40 DUP3 ADD SWAP1 POP SWAP2 SWAP1 POP JUMP JUMPDEST PUSH1 0x0 PUSH1 0x20 DUP3 ADD SWAP1 POP DUP2 DUP2 SUB PUSH1 0x0 DUP4 ADD MSTORE PUSH2 0x18CD DUP2 PUSH2 0x1891 JUMP JUMPDEST SWAP1 POP SWAP2 SWAP1 POP JUMP JUMPDEST PUSH32 0x45524332303A20696E73756666696369656E7420616C6C6F77616E6365000000 PUSH1 0x0 DUP3 ADD MSTORE POP JUMP JUMPDEST PUSH1 0x0 PUSH2 0x190A PUSH1 0x1D DUP4 PUSH2 0x122F JUMP JUMPDEST SWAP2 POP PUSH2 0x1915 DUP3 PUSH2 0x18D4 JUMP JUMPDEST PUSH1 0x20 DUP3 ADD SWAP1 POP SWAP2 SWAP1 POP JUMP JUMPDEST PUSH1 0x0 PUSH1 0x20 DUP3 ADD SWAP1 POP DUP2 DUP2 SUB PUSH1 0x0 DUP4 ADD MSTORE PUSH2 0x1939 DUP2 PUSH2 0x18FD JUMP JUMPDEST SWAP1 POP SWAP2 SWAP1 POP JUMP JUMPDEST PUSH32 0x45524332303A207472616E736665722066726F6D20746865207A65726F206164 PUSH1 0x0 DUP3 ADD MSTORE PUSH32 0x6472657373000000000000000000000000000000000000000000000000000000 PUSH1 0x20 DUP3 ADD MSTORE POP JUMP JUMPDEST PUSH1 0x0 PUSH2 0x199C PUSH1 0x25 DUP4 PUSH2 0x122F JUMP JUMPDEST SWAP2 POP PUSH2 0x19A7 DUP3 PUSH2 0x1940 JUMP JUMPDEST PUSH1 0x40 DUP3 ADD SWAP1 POP SWAP2 SWAP1 POP JUMP JUMPDEST PUSH1 0x0 PUSH1 0x20 DUP3 ADD SWAP1 POP DUP2 DUP2 SUB PUSH1 0x0 DUP4 ADD MSTORE PUSH2 0x19CB DUP2 PUSH2 0x198F JUMP JUMPDEST SWAP1 POP SWAP2 SWAP1 POP JUMP JUMPDEST PUSH32 0x45524332303A207472616E7366657220746F20746865207A65726F2061646472 PUSH1 0x0 DUP3 ADD MSTORE PUSH32 0x6573730000000000000000000000000000000000000000000000000000000000 PUSH1 0x20 DUP3 ADD MSTORE POP JUMP JUMPDEST PUSH1 0x0 PUSH2 0x1A2E PUSH1 0x23 DUP4 PUSH2 0x122F JUMP JUMPDEST SWAP2 POP PUSH2 0x1A39 DUP3 PUSH2 0x19D2 JUMP JUMPDEST PUSH1 0x40 DUP3 ADD SWAP1 POP SWAP2 SWAP1 POP JUMP JUMPDEST PUSH1 0x0 PUSH1 0x20 DUP3 ADD SWAP1 POP DUP2 DUP2 SUB PUSH1 0x0 DUP4 ADD MSTORE PUSH2 0x1A5D DUP2 PUSH2 0x1A21 JUMP JUMPDEST SWAP1 POP SWAP2 SWAP1 POP JUMP JUMPDEST PUSH32 0x45524332303A207472616E7366657220616D6F756E7420657863656564732062 PUSH1 0x0 DUP3 ADD MSTORE PUSH32 0x616C616E63650000000000000000000000000000000000000000000000000000 PUSH1 0x20 DUP3 ADD MSTORE POP JUMP JUMPDEST PUSH1 0x0 PUSH2 0x1AC0 PUSH1 0x26 DUP4 PUSH2 0x122F JUMP JUMPDEST SWAP2 POP PUSH2 0x1ACB DUP3 PUSH2 0x1A64 JUMP JUMPDEST PUSH1 0x40 DUP3 ADD SWAP1 POP SWAP2 SWAP1 POP JUMP JUMPDEST PUSH1 0x0 PUSH1 0x20 DUP3 ADD SWAP1 POP DUP2 DUP2 SUB PUSH1 0x0 DUP4 ADD MSTORE PUSH2 0x1AEF DUP2 PUSH2 0x1AB3 JUMP JUMPDEST SWAP1 POP SWAP2 SWAP1 POP JUMP JUMPDEST PUSH32 0x4F776E61626C653A2063616C6C6572206973206E6F7420746865206F776E6572 PUSH1 0x0 DUP3 ADD MSTORE POP JUMP JUMPDEST PUSH1 0x0 PUSH2 0x1B2C PUSH1 0x20 DUP4 PUSH2 0x122F JUMP JUMPDEST SWAP2 POP PUSH2 0x1B37 DUP3 PUSH2 0x1AF6 JUMP JUMPDEST PUSH1 0x20 DUP3 ADD SWAP1 POP SWAP2 SWAP1 POP JUMP JUMPDEST PUSH1 0x0 PUSH1 0x20 DUP3 ADD SWAP1 POP DUP2 DUP2 SUB PUSH1 0x0 DUP4 ADD MSTORE PUSH2 0x1B5B DUP2 PUSH2 0x1B1F JUMP JUMPDEST SWAP1 POP SWAP2 SWAP1 POP JUMP JUMPDEST PUSH32 0x45524332303A206D696E7420746F20746865207A65726F206164647265737300 PUSH1 0x0 DUP3 ADD MSTORE POP JUMP JUMPDEST PUSH1 0x0 PUSH2 0x1B98 PUSH1 0x1F DUP4 PUSH2 0x122F JUMP JUMPDEST SWAP2 POP PUSH2 0x1BA3 DUP3 PUSH2 0x1B62 JUMP JUMPDEST PUSH1 0x20 DUP3 ADD SWAP1 POP SWAP2 SWAP1 POP JUMP JUMPDEST PUSH1 0x0 PUSH1 0x20 DUP3 ADD SWAP1 POP DUP2 DUP2 SUB PUSH1 0x0 DUP4 ADD MSTORE PUSH2 0x1BC7 DUP2 PUSH2 0x1B8B JUMP JUMPDEST SWAP1 POP SWAP2 SWAP1 POP JUMP JUMPDEST PUSH32 0x45524332303A206275726E2066726F6D20746865207A65726F20616464726573 PUSH1 0x0 DUP3 ADD MSTORE PUSH32 0x7300000000000000000000000000000000000000000000000000000000000000 PUSH1 0x20 DUP3 ADD MSTORE POP JUMP JUMPDEST PUSH1 0x0 PUSH2 0x1C2A PUSH1 0x21 DUP4 PUSH2 0x122F JUMP JUMPDEST SWAP2 POP PUSH2 0x1C35 DUP3 PUSH2 0x1BCE JUMP JUMPDEST PUSH1 0x40 DUP3 ADD SWAP1 POP SWAP2 SWAP1 POP JUMP JUMPDEST PUSH1 0x0 PUSH1 0x20 DUP3 ADD SWAP1 POP DUP2 DUP2 SUB PUSH1 0x0 DUP4 ADD MSTORE PUSH2 0x1C59 DUP2 PUSH2 0x1C1D JUMP JUMPDEST SWAP1 POP SWAP2 SWAP1 POP JUMP JUMPDEST PUSH32 0x45524332303A206275726E20616D6F756E7420657863656564732062616C616E PUSH1 0x0 DUP3 ADD MSTORE PUSH32 0x6365000000000000000000000000000000000000000000000000000000000000 PUSH1 0x20 DUP3 ADD MSTORE POP JUMP JUMPDEST PUSH1 0x0 PUSH2 0x1CBC PUSH1 0x22 DUP4 PUSH2 0x122F JUMP JUMPDEST SWAP2 POP PUSH2 0x1CC7 DUP3 PUSH2 0x1C60 JUMP JUMPDEST PUSH1 0x40 DUP3 ADD SWAP1 POP SWAP2 SWAP1 POP JUMP JUMPDEST PUSH1 0x0 PUSH1 0x20 DUP3 ADD SWAP1 POP DUP2 DUP2 SUB PUSH1 0x0 DUP4 ADD MSTORE PUSH2 0x1CEB DUP2 PUSH2 0x1CAF JUMP JUMPDEST SWAP1 POP SWAP2 SWAP1 POP JUMP INVALID LOG2 PUSH5 0x6970667358 0x22 SLT KECCAK256 0xD9 PUSH12 0xBFD5A21FABE182D2B025911B EXTCODESIZE 0xE 0xC 0x5D PUSH18 0x6AF25DB5EDAF4337EEEF29B1964736F6C63 NUMBER STOP ADDMOD SLT STOP CALLER "
				},
				"gasEstimates": {
					"creation": {
						"codeDepositCost": "1492800",
						"executionCost": "infinite",
						"totalCost": "infinite"
					},
					"external": {
						"allowance(address,address)": "infinite",
						"approve(address,uint256)": "infinite",
						"balanceOf(address)": "2886",
						"burn(uint256)": "infinite",
						"burnFrom(address,uint256)": "infinite",
						"decimals()": "455",
						"decreaseAllowance(address,uint256)": "infinite",
						"increaseAllowance(address,uint256)": "infinite",
						"mint(address,uint256)": "infinite",
						"name()": "infinite",
						"owner()": "2544",
						"renounceOwnership()": "30465",
						"setTokenPrice(uint256)": "24807",
						"symbol()": "infinite",
						"tokenPrice()": "2540",
						"tokenTransfer(address,uint256)": "infinite",
						"totalSupply()": "2505",
						"transfer(address,uint256)": "infinite",
						"transferFrom(address,address,uint256)": "infinite",
						"transferOwnership(address)": "30876",
						"withdrawTokens(uint256)": "infinite"
					}
				},
				"methodIdentifiers": {
					"allowance(address,address)": "dd62ed3e",
					"approve(address,uint256)": "095ea7b3",
					"balanceOf(address)": "70a08231",
					"burn(uint256)": "42966c68",
					"burnFrom(address,uint256)": "79cc6790",
					"decimals()": "313ce567",
					"decreaseAllowance(address,uint256)": "a457c2d7",
					"increaseAllowance(address,uint256)": "39509351",
					"mint(address,uint256)": "40c10f19",
					"name()": "06fdde03",
					"owner()": "8da5cb5b",
					"renounceOwnership()": "715018a6",
					"setTokenPrice(uint256)": "6a61e5fc",
					"symbol()": "95d89b41",
					"tokenPrice()": "7ff9b596",
					"tokenTransfer(address,uint256)": "68cdafe6",
					"totalSupply()": "18160ddd",
					"transfer(address,uint256)": "a9059cbb",
					"transferFrom(address,address,uint256)": "23b872dd",
					"transferOwnership(address)": "f2fde38b",
					"withdrawTokens(uint256)": "315a095d"
				}
			},
			"storageLayout": {
				"storage": [
					{
						"astId": 244,
						"contract": "Final Smart Contract/Token_flattened.sol:DeSearch",
						"label": "_balances",
						"offset": 0,
						"slot": "0",
						"type": "t_mapping(t_address,t_uint256)"
					},
					{
						"astId": 250,
						"contract": "Final Smart Contract/Token_flattened.sol:DeSearch",
						"label": "_allowances",
						"offset": 0,
						"slot": "1",
						"type": "t_mapping(t_address,t_mapping(t_address,t_uint256))"
					},
					{
						"astId": 252,
						"contract": "Final Smart Contract/Token_flattened.sol:DeSearch",
						"label": "_totalSupply",
						"offset": 0,
						"slot": "2",
						"type": "t_uint256"
					},
					{
						"astId": 254,
						"contract": "Final Smart Contract/Token_flattened.sol:DeSearch",
						"label": "_name",
						"offset": 0,
						"slot": "3",
						"type": "t_string_storage"
					},
					{
						"astId": 256,
						"contract": "Final Smart Contract/Token_flattened.sol:DeSearch",
						"label": "_symbol",
						"offset": 0,
						"slot": "4",
						"type": "t_string_storage"
					},
					{
						"astId": 27,
						"contract": "Final Smart Contract/Token_flattened.sol:DeSearch",
						"label": "_owner",
						"offset": 0,
						"slot": "5",
						"type": "t_address"
					},
					{
						"astId": 865,
						"contract": "Final Smart Contract/Token_flattened.sol:DeSearch",
						"label": "tokenPrice",
						"offset": 0,
						"slot": "6",
						"type": "t_uint256"
					}
				],
				"types": {
					"t_address": {
						"encoding": "inplace",
						"label": "address",
						"numberOfBytes": "20"
					},
					"t_mapping(t_address,t_mapping(t_address,t_uint256))": {
						"encoding": "mapping",
						"key": "t_address",
						"label": "mapping(address => mapping(address => uint256))",
						"numberOfBytes": "32",
						"value": "t_mapping(t_address,t_uint256)"
					},
					"t_mapping(t_address,t_uint256)": {
						"encoding": "mapping",
						"key": "t_address",
						"label": "mapping(address => uint256)",
						"numberOfBytes": "32",
						"value": "t_uint256"
					},
					"t_string_storage": {
						"encoding": "bytes",
						"label": "string",
						"numberOfBytes": "32"
					},
					"t_uint256": {
						"encoding": "inplace",
						"label": "uint256",
						"numberOfBytes": "32"
					}
				}
			},
			"userdoc": {
				"kind": "user",
				"methods": {},
				"version": 1
			}
		}
	}
}